:020000022000DC
:106000000000012051AF020079AF02003D70020094
:106010007DAF02007FAF020081AF020000000000F0
:1060200000000000000000000000000083AF02003C
:1060300085AF02000000000087AF020089AF0200B8
:10604000218C02008BAF0200DD920200FD9A02005B
:10605000AD9802008BAF0200519102004D940200F6
:10606000CD9A0200DD9A02008BAF02008BAF0200D6
:106070008BAF02008BAF02008BAF02008BAF020030
:106080008BAF0200896B02008BAF02008BAF020066
:10609000256C02008BAF020005AA02008BAF020044
:1060A0008BAF02008BAF02008BAF02008BAF020000
:1060B000059402008BAF0200000000000000000009
:1060C0008BAF020015940200259402008BAF0200F2
:1060D0008BAF02008BAF02008BAF0200000000000C
:1060E00000000000000000000000000000000000B0
:1060F00000000000000000000000000000000000A0
:10610000000000000000000000000000000000008F
:10611000000000000000000000000000000000007F
:10612000000000000000000000000000000000006F
:10613000000000000000000000000000000000005F
:10614000000000000000000000000000000000004F
:10615000000000000000000000000000000000003F
:10616000000000000000000000000000000000002F
:10617000000000000000000000000000000000001F
:10618000000000000000000000000000000000000F
:1061900000000000000000000000000000000000FF
:1061A00000000000000000000000000000000000EF
:1061B00000000000000000000000000000000000DF
:1061C00000000000000000000000000000000000CF
:1061D00000000000000000000000000000000000BF
:1061E00000000000000000000000000000000000AF
:1061F000000000000000000000000000000000009F
:1062000010B5054C237833B9044B13B10448AFF3F0
:1062100000800123237010BD78A200200000000040
:10622000FC29030008B5034B1BB103490348AFF336
:10623000008008BD000000007CA20020FC290300B3
:10624000154B002B08BF134B9D46A3F5803A002148
:106250008B460F461348144A121A04F0C9FF0F4B1D
:10626000002B00D098470E4B002B00D09847002001
:10627000002104000D000D48002802D00C4807F052
:1062800021F804F093FE2000290000F03BF804F010
:106290007DFE00BF0000080000000120000000009B
:1062A0000000000078A2002000B30020C5D2020048
:1062B00095E40200704708B5162002F033FF20B1C4
:1062C0001720BDE8084002F013BE1C2002F02AFF90
:1062D0000028F5D01720BDE8084002F0DBBD000023
:1062E00007B50DF1060103F049FA18B1044A3A2145
:1062F00000F0F7FBBDF9060003B05DF804FB00BF3A
:10630000DB1003002DE9F04F93B002F02BFD30B904
:1063100002F0F2FC18B1804A452100F0E2FB7F4D0B
:106320007D4E00240123ADF814408DF816408DF801
:1063300015302F4605A9285D02F01EFD18B1324622
:106340004C2100F0CEFB0134032CF3D10025744A1C
:10635000ADF8185006A91C208DF81A508DF8184079
:1063600002F0F4FD01211C2002F080FE6C4A8DF841
:10637000195006A9162002F0E9FD0121162002F0AD
:1063800075FE29462846FFF796FF4FF40041284640
:1063900001F0A2FC18B1604A5C2100F0A2FB01F000
:1063A000C9FB604804F06EFF00238DF81D3012A871
:1063B00040F20713ADF81E30022300F82C3D5A4975
:1063C00003F0F6F818B1544A642100F08AFB00206B
:1063D0000223CDE9080008A98DF8243006238DF8A2
:1063E00028008DF8273003F045F918B14A4A6F218B
:1063F00000F077FB072308A901208DF8273003F070
:1064000039F918B1444A742100F06BFB082308A93C
:1064100002208DF8273003F02DF918B13E4A79217A
:1064200000F05FFB414B0FCB0EAC84E80F00132252
:10643000142321463E48CDE90E2302F0F9FA18B1A3
:10644000354A812100F04DFB39483A4EDFF8FCA077
:10645000DFF8FCB000F0E4F8374804F013FF002543
:1064600046F0010605F00103FC5C1F2C04D95146DF
:106470004FF4F37004F0F4FB4FF0A0424FF001082A
:10648000D2F8043508FA04F424EA03011C40C2F8E7
:1064900008150020C2F80C45FFF722FF04464046CD
:1064A000FFF71EFF80460220FFF71AFF814600F02B
:1064B00009F958468DED0B0ACDED0C0A8DED0D1A3C
:1064C00004F0E0FE1D4804F0DDFE4B464246214646
:1064D0001B4804F0D7FE0B980AF0A0F880460D98F0
:1064E00089460AF09BF8CDE902010C980AF096F86B
:1064F0004246CDE900014B46124804F0C3FE124863
:1065000004F0C0FE01354FF4FA744FF47A40B047FE
:10651000013CFAD1A6E700BFDB100300A40F030083
:10652000B7620200B60F0300B5620200940F0300C9
:10653000E4100300B00F0300C80F0300571003005E
:106540008D100300B1100300C91B0300DE0F030010
:1065500021100300704700007FB5400003AB8DF8A9
:106560000C108DF8150000210B48049300910223B4
:106570008DF80D208DF8143004AA012300688DF8E1
:10658000161002F0C1FA18B1044A322100F0A9FA3B
:1065900007B05DF804FB00BFD4A200202011030067
:1065A00000B58BB00DF10F030693012398408DF8D1
:1065B0001D0018438DF80F108DF8250000210F489D
:1065C00000910DF117028DF81C308DF81E300892E5
:1065D0008DF8243006AA022300688DF817108DF874
:1065E000261002F091FA18B1054A282100F079FA34
:1065F0009DF817000BB05DF804FB00BFD4A200208B
:106600002011030038B5054D044645F001054FF44F
:106610007A40A847013CFAD138BD00BF10110300F1
:1066200007B5234B234A186092E803006B4683E8C2
:106630000300214A2148194603F090F918B1204A75
:10664000432100F04EFA80226B216820FFF784FF7F
:106650006420FFF7D7FF00226B216820FFF77CFF43
:1066600000226A216820FFF777FF0320FFF7CAFFA7
:10667000022237216820FFF76FFF18221B216820B4
:10668000FFF76AFF00221C216820FFF765FF012247
:106690000B210C20FFF760FF6420FFF7B3FF0222FD
:1066A0000A210C20FFF758FF03B05DF804FB00BF80
:1066B000D4A20020FC10030055650200181103004D
:1066C0002011030070B53B2188B06820FFF768FFF8
:1066D0003C2104466820FFF763FF40EA042006B22D
:1066E0003D216820FFF75CFF3E2104466820FFF74C
:1066F00057FF40EA042005B23F216820FFF750FF12
:10670000402104466820FFF74BFF07EE105A40EA8D
:10671000042000B207EE906AF8EEC70A07EE100AEE
:10672000B8EEE70AB8EEC71ADFED047A20EE270AC2
:1067300060EEA70A21EE271A08B070BD000080386D
:1067400038B5054D044645F001054FF47A40A84799
:10675000013CFAD138BD00BF301203007FB50546B9
:106760000E46144672B601F0EDFC01F00FFB002856
:10677000FBD13E4804F086FD41F201039D4264D006
:1067800006D8012D12D03146394804F07BFD10E0C7
:1067900044F201039D425AD044F202039D42F2D1D9
:1067A00022886168334804F06DFD02E0324804F04D
:1067B00069FD02F0D7FA08B902F09EFA0023ADF89D
:1067C0000C308DF80E3003A9012319208DF80D30FF
:1067D00002F0D2FA03A9182002F0CEFA03A917207A
:1067E00002F0CAFA192002F083FB182002F080FBA5
:1067F000172002F07DFB4FF4FA70FFF7A1FF19207C
:1068000002F048FB182002F045FB172002F042FB83
:106810003220FFF795FF192002F06AFB182002F0E2
:1068200067FB172002F064FB4FF4FA70FFF788FF54
:10683000192002F02FFB182002F02CFB172002F089
:1068400029FBFA20FFF77CFFCCE70C48AFE7A568EF
:10685000284601F0DBFF2368019600930246636837
:106860000748294604F00EFDA3E700BF7511030099
:1068700012120300CD1103008E110300AB110300AF
:10688000E811030007B502F06DFA08B902F034FA16
:106890000023ADF804308DF8063001A9012319203A
:1068A0008DF8053002F068FA01A9182002F064FAA8
:1068B00001A9172002F060FA192002F019FB182034
:1068C00002F016FB172002F013FB4FF4FA70FFF7EB
:1068D00037FF192002F0DEFA182002F0DBFA172049
:1068E00002F0D8FA3220FFF72BFF192002F000FB4C
:1068F000182002F0FDFA172002F0FAFA4FF4FA70AD
:10690000FFF71EFF192002F0C5FA182002F0C2FAA4
:10691000172002F0BFFAFA20FFF712FFCCE7036955
:10692000C1688B429DBF8268D21802F1FF3203F129
:10693000FF3394BF501A581A70472DE9F041D0E93F
:1069400002670446F61B406896428846154638445E
:1069500005D904F0B3FB3D44E560BDE8F081324663
:10696000AD1B04F0ABFB2A4608EB0601606804F09F
:10697000A5FBF1E72DE9F843C568064689461746A9
:106980004FF000083469B3687068A54228BFE41866
:10699000013C621B5C1BBC4228BF3C46944228BFA2
:1069A000144649462844224604F088FBB36825442F
:1069B000AB4208BF00253F1BA044A144F560E1D1D4
:1069C0004046BDE8F883000010B5114C114AA261A1
:1069D0000223C4E90433104BE361A2644FF4007353
:1069E0000E4A2362E264002310220D49A362E01DD7
:1069F0006362E362A3656365E365226504F01EFDDF
:106A00000849204604F01AFD2023A37110BD00BFE1
:106A100050B200203612030008A50020F8A4002080
:106A20003F12030043120300F8B5184C182300FB73
:106A3000033503FB00402544C46A012C0F4616466B
:106A400011D003D3022C1BD000240AE02846FFF704
:106A500066FF864205D8324639462846FFF76DFF65
:106A600034462046F8BD2846FFF759FF8642344693
:106A700028BF0446224639462846FFF75EFFF0E766
:106A80002846BDE8F840FFF775BF00BF50B20020B0
:106A900073B50D4B1B7804460D4616460BB9FFF730
:106AA00093FF02A8002300F8013D00F06FFA324680
:106AB00029462046FFF7B8FF04469DF8070000F07E
:106AC00095FA204602B070BD50B20020FFF77CBF9F
:106AD00010B511461C461A460020FFF7D9FF204684
:106AE00010BD00B583B002900091019244F2010004
:106AF00071466A46FFF732FE03B000BD094A53787B
:106B000091780133DBB2994208BF00231178994292
:106B10001FBF03705078182303FB002014BF0430FC
:106B20000020704708A7002073B5054602A800247E
:106B300000F8014D0E4600F029FA0DF10600FFF7AE
:106B4000DDFF90B106700A4B9DF8062045605A7033
:106B50009DF8070000F04AFA24B9064B4FF4801262
:106B6000C3F80021204602B070BD0424F0E700BF46
:106B700008A7002000E100E0024B4FF43C6043F026
:106B80000103184750120300F8B51F491F4B002599
:106B9000C1F84051C1F84451C1F84851C1F84C51B5
:106BA000C1F80051C1F804511B684BB3D1F804453A
:106BB00017490968641A24F07F442F461A68A242D4
:106BC00009D8A41A15441A7CDE691AB11F74D3E9D6
:106BD00005209047AEB90F4B0F4A197813788B42B6
:106BE00005D10133DBB2022B08BF002313701278EA
:106BF0000A4B43F822500A4B4FF48012C3F800218D
:106C0000F8BD3346DAE700BF0010014028A8002095
:106C100024A8002020A8002021A8002018A80020D7
:106C200000E100E02DE9F74F9C4A9D49137809786F
:106C30009C4D99423CD00133DBB2022B08BF0023AC
:106C4000137099491278994B0F6853F822003B183A
:106C500023F07F4300220B602B68164614469446AF
:106C600013B942B12B6006E0196881420ED902B116
:106C70002B60091A19604FF001082B68DFF834A265
:106C800000930027BEB9DFF834B260E0401A0C442C
:106C9000D968C3F800C0D3F81CE031B13A1922F02A
:106CA0007F42C3E90121DE611E4601227346D7E718
:106CB0000026B046E1E73446F6697B4A636812680D
:106CC000DFF8FCC1A068991A21F07F41614500F20C
:106CD000A58001442160012222742A680023C4E9AE
:106CE0000133E361002A40F0A2802C60CAE75A1CFD
:106CF0009BF80210D2B291428BF8002004BF002210
:106D00008BF80020182202FB03B32A6819799C68CB
:106D1000022974D003297ED0012918D1217CB1B970
:106D2000DA6862601A69A2605A69E2609B69A361CD
:106D30005F4B1B78002BC0D06160BEE79C4200F027
:106D400090809946DB69002BF8D1002323749BF8CF
:106D500000309BF801209A42C9D12B682FB9009AC4
:106D6000934202D1B8F1000F43D0002B41D0D3F8A9
:106D700000A0504D4C4BD5F804751C68DFF84481D9
:106D80003E1B98F8003026F07F4603369BB94FF43F
:106D90008033C5F84433C5F80433474B4FF4003211
:106DA0004FF00109C3F880211A60C5F80090FFF781
:106DB000E3FE88F80090B2452CBF5444A41924F097
:106DC0007F44C5F84045D5F80435DB1B23F07F43ED
:106DD000E41B033324F07F44A3420AD9D5F80435D9
:106DE000C5F84035FFF7C8FE334B4FF40032C3F807
:106DF00000212F4B00221A7003B0BDE8F08F13461C
:106E00009146A0E71174D2690123002AFAD1002B20
:106E10009DD02A609BE700231946F6E7D31A23F09A
:106E20007F43834234BFC31A0023236053E72168A2
:106E30001368994213D8591A1160E26155E7091A8B
:106E4000D8691A4638B1034618688842F7D3401A01
:106E50001860184613462160E061DC6112E71346B2
:106E6000F2E74C450DD1D3692B6053B90E4801921E
:106E70000121CAF8081003600D4B1970FFF77CFE62
:106E8000019AE1692368C9F81C1011B1086803442C
:106E90000B602B689A4218BF012756E720A80020F4
:106EA00021A8002028A8002024A8002018A800203D
:106EB00014A800200010014000E100E008A7002015
:106EC000FEFF7F0015A800202DE9F7431D4FBB787A
:106ED00005460E4690469BB390B304292ED94369CC
:106EE00073B3437C02A80024012B00F8014D0CBFB2
:106EF0008946A14600F04AF80DF10600FFF7FEFDB5
:106F0000D0B101230370104B4560D3F80435C0E9BC
:106F10000498C0E902369DF806307B709DF80700A2
:106F200000F064F824B9094B4FF48012C3F8002133
:106F3000204603B0BDE8F0830424EFE70724F7E719
:106F40000824F5E708A700200010014000E100E058
:106F5000064A92783AB130B1426922B100220274F5
:106F60000221FFF7E1BD0820704700BF08A70020FD
:106F7000EFF30583C3F308032BB9EFF31480C04389
:106F800000F00100704701207047000070B5044612
:106F9000FFF7EEFF012803D01049432003F060FE05
:106FA000EFF3108672B60E4A9068012398B9936089
:106FB0000C4B0D4DD3F8801029401160C3F8805060
:106FC000D3F8841051604FF0FF32C3F88420207052
:106FD00006B962B670BD2370FAE700BF561203000F
:106FE000C8B2002000E100E0FC06FFBD10B5044679
:106FF000FFF7BEFF012803D00949512003F030FEFE
:10700000084B9A685AB154B9EFF3108172B6064A28
:1070100018681060586850609C6001B962B610BD75
:1070200056120300C8B2002000E100E0024B1B68CA
:107030000021986804F03AB9BC9800201EF0040FB3
:107040001CBFEFF309800AE0EFF308800549064A08
:10705000884201D8904202D88D464FF00000034B81
:10706000184700000000012000E0002071700200BD
:107070002DE9F347054601F065F800F087FE00288A
:10708000FBD12F4B2F4C9F6A2F4BE41AE4082404AA
:1070900044F00104002D4ED0AA692C49204600F08E
:1070A000F9FFEB680193AB6800932949D5E9002308
:1070B000204601F00FF8EB6900932649D5E9042337
:1070C000204600F0FBFF1E4BDB6A980703D52249E0
:1070D000204600F0DBFFDFF89490DFF894A0002654
:1070E0004FF0010808FA06F33B4206D059F8262073
:1070F0001AB15146204600F0CDFF01361A2EF1D1CB
:10710000390605D50E4B15495A6B204600F0C2FFD3
:107110003A0405D50A4B12499A6B204600F0BAFF93
:10712000104B1B68DB0700D500BE2846FFF7AAFB03
:1071300002B0BDE8F0870C49204600F0A7FFC2E787
:1071400000ED00E0782A0300102A0300AB120300D0
:10715000C0120300F5120300501303009F13030035
:10716000BF130300F0ED00E01D130300DC13030068
:107170009413030050E8002F0B4640E8003C9CF0BD
:10718000000FF7D11046704750E8003F43EA010274
:1071900040E8002C9CF0000FF6D11046704750E8F4
:1071A000002F02EA010340E8003C9CF0000FF6D1FA
:1071B0001046704750E8003F03EB010240E8002C06
:1071C0009CF0000FF6D11046704750E8003FA3EB4B
:1071D000010240E8002C9CF0000FF6D110467047E9
:1071E0000121FFF7D1BF0021FFF7D9BF10B5044639
:1071F000002834D003681BB91A49FF2003F030FD82
:10720000636823B917494FF4807003F029FDA36820
:1072100023B9144940F2011003F022FDE36823B9B9
:1072200010494FF4817003F01BFD238A23B90D49E7
:1072300040F2031003F014FDD4E9012321689B1AE6
:10724000DBB20A60013BDBB2FF2B226802D10020D7
:10725000107110BD1168481C10600B70F2E70E2011
:10726000F7E700BF0419030037B5054620B91449F4
:107270004FF4927003F0F4FC02A8002400F8014DD2
:10728000FFF784FE2A68696813688B4210D9591E7B
:10729000116013F8014C2A8AEB6802FB04342A6857
:1072A000AB6811685B1A1179DBB2994238BF137170
:1072B0009DF80700FFF79AFE204603B030BD00BFDF
:1072C0000419030037B50C46054620B9104940F2B1
:1072D000471003F0C5FC24B90D494FF4A47003F026
:1072E000BFFC02A8002300F8013DFFF74FFE2A680B
:1072F0001368591C1160EA68A41A2A8AB4FBF2F4D4
:107300001C709DF80700FFF771FE03B030BD00BF91
:107310000419030038B5084C04F108030546002899
:1073200018BF1C4623682BB11A6822605B68284688
:107330009847F7E738BD00BF34A8002020B9054BB7
:1073400001225A70FFF7E6BF012802D1014A90706E
:10735000F8E770472CA8002020B9034B01225A708F
:10736000FFF7D8BF704700BF2CA8002038B50B4CE2
:10737000237883B90A486360A3602361E36001F066
:1073800003FC054603F024FB08B901F013FC0123BC
:107390002370284638BD8525FBE700BF2CA80020B8
:1073A0003D73020013B5154C237823B914494FF4EB
:1073B000857003F055FCE36823B9114940F20B10C6
:1073C00003F04EFC02A8002300F8013DFFF7DEFDAC
:1073D000E368013BE360E36853B903F0F9FA18B1DD
:1073E0000749792003F03CFC01F002FC0023A37064
:1073F0009DF80700FFF7FAFD02B010BD2CA8002091
:1074000054190300012813B509D003D303281BD056
:1074100002B010BD134B0122C3F88020F8E702A888
:107420000023114C00F8013DFFF7B0FD23780BB9A4
:10743000FFF79CFFE3689DF807000133E360012339
:10744000A370FFF7D3FDE3E7074B1B7823B9074988
:1074500040F2452003F004FC01F0ACFBFFF7A2FF73
:10746000D6E700BF00E100E02CA80020541903007B
:107470001FB503788DF8003003798DF80430437917
:107480008DF8053083688DF80630C3688DF80730B5
:107490000369029343690393054A064B684653F810
:1074A000213052F82110984705B05DF804FB00BF69
:1074B00040A8002048A8002002494FF4F37003F0D0
:1074C000CFBB00BFDE0F03001F2810B5044601D953
:1074D000FFF7F2FF012303FA04F44FF0A043C3F8CF
:1074E000084510BD024B4FF4807043F0010318476C
:1074F000B01903002DE9F14F924690F80080364A0A
:1075000042F828A0354A42F828304B7B81460C4689
:107510007BB30B684FF0A04503F5E07340F20C62BB
:1075200045F823204B6803F5E073002645F8232037
:107530000868FFF7C9FF6068FFF7C6FF236803F517
:10754000E07340F20D6245F82320636803F5E073B1
:107550004FF0010B45F82320FFF7C4FF67681F2F8A
:1075600001D9FFF7A9FFD5F81035FB40DB070ED591
:1075700006BBBAF1000F1A4A434608BF0022214653
:1075800009F1040001B0BDE8F04F02F063BB2768C9
:107590001F2F01D9FFF790FF0BFA07F7C5F80C75FD
:1075A000FFF7A0FF01362068FFF78EFFFFF79AFF75
:1075B000092ED3D165681F2D01D9FFF77DFF4FF04C
:1075C000A0420123AB40C2F80C35FFF78BFF606887
:1075D000FFF77AFFCDE700BF48A8002040A80020B1
:1075E0007174020010B5044618B90649312003F041
:1075F00037FBA2682AB16369216820699847002394
:10760000A36010BDB61903000EB433B5059D044642
:1076100018B91249422003F023FB63691BB90F49D3
:10762000432003F01DFB23681BB90C49442003F0E1
:1076300017FB63681BB90949452003F011FB3DB1F5
:1076400002AA06AB42F8043D2946204600F06EF837
:1076500002B0BDE8304003B0704700BFB619030068
:10766000826830B40468551C8560A154D0E90132A9
:107670009A4202D330BCFFF7B5BF30BC7047000060
:107680002DE9F84F9946DDE90A43174682468846B8
:107690000A460126BA420FD24E4538BF4E4613F075
:1076A000010B01D164B900240125B9F1010F1AD9E8
:1076B00009F1FF397D43F8E7B2FBF7F20136E9E75C
:1076C0009B070ED5B9F1000F0CBF30252025A6422F
:1076D000EAD2013C29465046FFF7C2FF002CF6D102
:1076E000E1E72025F3E7B8FBF5F39F42E2D9DFF8A5
:1076F0003890B8FBF5F3504619F8031005FB1388D2
:10770000FFF7AEFFB5FBF7F5002DF2D1BBF1000F8F
:1077100002D00CB1A64201D3BDE8F88F202150461B
:10772000013CFFF79DFFF4E7FC1903002DE9F74F3B
:107730000E469046054620B9AC494FF4A27003F0BE
:107740008FFA6B6923B9A9494FF4A37003F088FA43
:107750002B6823B9A54940F2471003F081FA6B6802
:1077600023B9A2494FF4A47003F07AFA002E00F076
:107770003A8116F8011B002958D0252940F0D18004
:10778000002702E047F001071646324612F8013B97
:107790002D2BF7D0302B04D02B2B05D147F004072D
:1077A000F2E747F00207EFE700242A2B06F1010277
:1077B0001BD1D8F80030191DC8F800101B681646F8
:1077C0001C4433782E2B1CD101364FF0000A314671
:1077D00011F8012BA2F13000092814D80A2303FB69
:1077E0000A23A3F1300A0E46F1E712F8013CA3F197
:1077F00030010929E5D80A2101FB0434303C164642
:10780000D3E74FF0000A324612F8011B01F0FB00EB
:1078100068281646F8D0692916D054D8582970D04F
:107820000ED825297DD03378002BA2D12B7B002BBD
:1078300000F0D980284603B0BDE8F04FFFF7D2BE74
:10784000632968D06429EED1D8F80020111DC8F84A
:107850000010D2F8009089EAE972A2EBE9724FF0C9
:10786000010B092A61DCD34538BFD3462CB1B9F1ED
:10787000000F01DB790700D5013CBA0702D5BAF148
:10788000000F04D0FB0702D4002C54D10024B9F11E
:10789000000F58DAC9F100092D212846FFF7E0FE54
:1078A00007F00302022A05D1BAF1000F02D1002C21
:1078B0004DD10024CDE9004753460A2249462846C7
:1078C000FFF7DEFEAFE7732954D016D87029AAD18E
:1078D000D8F800301A1DC8F80020302128461C684E
:1078E000FFF7BEFE78212846FFF7BAFE00220823E4
:1078F000CDE9003221461022E1E775292FD0782901
:1079000091D1D8F800100A1DC8F80020CDE9004731
:10791000534610222CE0D8F800301A1DC8F8002079
:1079200019782846FFF79CFE7DE70A230BF1010B2F
:1079300092FBF3F295E7A345A9D220212846013C0A
:10794000FFF78EFEA0E77807AAD52B21A5E7A34570
:10795000B0D230212846013CFFF782FEA7E7D8F8D5
:107960000010CDE900470A1DC8F8002053460A223E
:107970000968A4E7D8F800301A1DC8F80020F907F4
:10798000D3F8009012D54F46A7EB090B17F8011B4F
:1079900041B9A345BFF447AF20212846013CFFF77A
:1079A0005FFEF6E72846FFF75BFEEDE7B9F1000F53
:1079B00017D0484603F0A4FD0746BC4200D954B98D
:1079C00009F1FF3919F8011F00293FF42CAF2846AF
:1079D000FFF746FEF6E720212846013CFFF740FE70
:1079E000EBE74F46E9E703B0BDE8F08F0C1A030060
:1079F0007047000007B5044B0093044A402300F091
:107A000032F803B05DF804FB117A020051A800209F
:107A10002DE9F84389461446B2B10F4B0F4E0325AA
:107A2000002743F00108224609EB07010020FEF77A
:107A3000FBFF0744241A48B933782BB14FF47A403E
:107A4000C047013D02D13570BDE8F8830123337092
:107A5000002CE8D1F8E700BF701A030050A80020FE
:107A60007047FFF733B8F0B595B01C461646084688
:107A70000D4600F032FD1A9B0D93CDE908640024F9
:107A80002346082205A928460A948DF82C400C9418
:107A900000F04CFD079B0293BDF81830ADF80C3098
:107AA000BDF81A30ADF80E309DF814308DF8114045
:107AB00003F00302012A1DD1BDF81440059EC3F353
:107AC000C203C4F383148DF81030A20008230EA95A
:107AD000284600F02BFDC6F3952608AB00932246FE
:107AE00002AB0EA9304600F09DFB284600F0F9FCE1
:107AF00015B0F0BD022AF8D1BDF81640C3F3C20399
:107B0000A4098DF810300827082C264628BF08261F
:107B10003B4632460EA9284600F008FDA41B08ABE0
:107B200002AA31460EA8374400F0E0FB002CEBD14E
:107B3000DBE7000008B5FFF794FF0421064800F0DA
:107B4000D7FA002803DA0549412003F089F8044BED
:107B500001225A7108BD00BF302B0300841A0300B4
:107B6000A8980020037813F0040216D003F0030352
:107B7000012B03D0022B09D0012070470A6800882E
:107B80000232C0F3831002440A60F5E70B684288B2
:107B9000023303EB92130B60EEE7104670470000D0
:107BA0002DE9F04F89B00646871C08A8484C009282
:107BB00000230D4600F8113DFFF7E8F923682B601C
:107BC000D4E901231344226801339B1A04F21C48B0
:107BD00004F5836B04F21449BB421AD3009A0023C4
:107BE000002A6DD0012262F3010343F0040366F31F
:107BF00089132168A2689DF80F000A4003320F44E0
:107C000044F822302760FFF7F1F9012009B0BDE800
:107C1000F08F01214046FFF7CDFA5846FFF7E0FA12
:107C20000DF1200A4846FFF7DBFA60684AF8100DAC
:107C3000A5682840033004EB80005146FFF792FF0F
:107C400002460498002AF4D105EA000304EB8303FA
:107C5000811CDB6805930130054004EB850503F0CA
:107C60000303012B0491ED6823D0022B08D019499E
:107C700001924FF4BF7002F0F3FF019A154607E03E
:107C8000BDF816309B0903332D0C01EB93030493CD
:107C90004846FFF7A8FA08B1049B636029464046AE
:107CA000FFF788FAD4E901231344226801339B1AB1
:107CB00092E7BDF81430C3F383132D0C0B44E6E7B1
:107CC000022262F3010343F0040366F39F5390E73B
:107CD00064A90020F31A03000B4B0C48FF2210B5D7
:107CE0009A600022C3F81824C3E90022C3F81424C0
:107CF000012283F8202400F0A9FB044610B90448AF
:107D000000F02AFC204610BD64A90020A82A030028
:107D10004C1B030030B50A4C71B10A4A0A49121BC8
:107D2000D20800239A4201D1002030BD31F82350FF
:107D3000854202D00133F5E7034654F83300F4E7F7
:107D4000102A0300A82A030078A20020094B013959
:107D500003EBC000032909D8DFE801F00A0204069A
:107D600004207047007970474079704700207047C1
:107D700002207047102A0300034BD3E90030C31AD6
:107D800058425841704700BF64A900202DE9F043D4
:107D900087B0FFF7F1FF0646002840F0FC807F4DDA
:107DA000C5F81804BFF34F8F6868AC6806AF47F892
:107DB000100D2040033005EB80003946FFF7D2FE5E
:107DC000029B18B1D5F81824002A5FD004EA0302F8
:107DD000991C013305EB8202234005EB8303D26833
:107DE000DB68049302F00303022B0392029162D139
:107DF000BDF80E306A484FEA9318B8F1500FC146EB
:107E000028BF4FF0500969F38F1309F10801ADF84D
:107E10000E3000F033FB0746002800F0A78000F08A
:107E20005CFB03A900230822384600F069FB029995
:107E300024EA01060136B600B14535D95FFA89F961
:107E40007EB3F6B2A9EB0609214003315FFA89F44B
:107E5000B146544E05EB810108234A46384600F0EE
:107E60004FFB36B109F1080322463146384600F08F
:107E700047FB029B08F1030803EB98030293D5F834
:107E80001834002B4BD1D5F810445BE02A689A4295
:107E900004D86A60304607B0BDE8F08304EA030006
:107EA00088E740493446D7E72140033108234A4652
:107EB00005EB8101DAE7012B58D1BDF80C303848C9
:107EC000C3F38311062928BF062161F38913023108
:107ED0008900ADF80C3000F0D1FA0746002845D0F3
:107EE00000F0FBFA0023082203A9384600F008FB43
:107EF0000026BDF80C20C2F38312B31C96424FEA51
:107F00008303BCD202994A1C21400331029205EB43
:107F100081010422384600F0F3FA0136E9E73846D9
:107F200000F0DFFAFFF728FF80F00100C6B2B1E7EA
:107F3000E3685B7923B1236839461B68204698477C
:107F4000E3681C68002CF3D1384600F0CAFA06A892
:107F500000F8114DFFF71AF8D5F818340BB9029B49
:107F60006B609DF80700FFF741F8DBE7D5F8104498
:107F700054B90D4B0D480E49C01AC008000440F01A
:107F8000020000F083F8CDE7236820469B689847FD
:107F9000E3681C68ECE700267CE700BF64A90020CA
:107FA000A82A030070A90020102A0300682A0300F1
:107FB000581B03002DE9F74F2F4C80460F46914682
:107FC00001A9012218469B46D4F808A0FFF7E8FD56
:107FD00000283DD0019D0026A91C5E4506EB01024C
:107FE00040D100212548FFF7C5F880F3100B244B42
:107FF000244A4FEA18499B1AB9EBD30F04D32249FC
:1080000040F2A31002F02CFE6B1C03EA0A0304EBFF
:10801000830349EA0B42DA6005EA0A0303330121CC
:1080200014F8232068F3C50204F8232034F8232031
:1080300066F3891224F8232054F8232067F39F2243
:1080400044F8232061F301026FF3820204F8232035
:1080500094F820341BB1FFF799FE0028FBD103B040
:10806000BDE8F08F0AEA020204EB820259F82630DA
:10807000D3600136B1E700BF64A9002080AD0020C5
:10808000A82A0300102A0300F31A030000231A464B
:10809000FFF790BF13B502AC012344F8042D22462C
:1080A000FFF788FF02B010BD07B5CDE9002302231A
:1080B0006A46FFF77FFF03B05DF804FB1FB5CDE90B
:1080C0000123069B039301AA0323FFF773FF05B067
:1080D0005DF804FB1FB5CDE90023069B0293079BC7
:1080E00003936A460423FFF765FF05B05DF804FBC0
:1080F00030B5134AD2F810440023214651B9C46860
:108100002371D2F810445CB9C2F81004C26811603F
:10811000184630BDC9680D799D420AD00968EDE75F
:10812000E468C16824680C60D2F81024D26810603A
:10813000EEE701330A2BE0D14FF0FF33E8E700BF51
:1081400064A9002038B5094A0123D2F8104482F806
:1081500020341D4604B938BDE3685D7123682046AC
:108160005B689847E3681C68F4E700BF64A90020D7
:1081700010B5037A052B0C460FD0437A23B1084A79
:1081800008492046FFF740FA07492046FFF73CFA26
:108190002046BDE81040FFF725BA002AF8D0F3E7E3
:1081A000A31B0300A81B0300C81B030073B5C388EF
:1081B00004460D4633B1144A00921449144A284625
:1081C000FFF722FA217A05291CD0637A4BB1A088E7
:1081D000FFF7BCFD0F4B104953F820202846FFF74E
:1081E00013FA227A0D4BA08853F822600021FFF782
:1081F00091FD0B4903463246284602B0BDE8704067
:10820000FFF702BA02B070BDA31B0300B31B03004B
:10821000AB1B0300701B0300A81B0300D81B03004B
:10822000CB1B03002DE9F04385B01F460C9D0023B6
:1082300006460C46904695F80C902B732946384616
:10824000FFF7B4FFB8F1060F09D8DFE808F0041211
:10825000181F2833400031462846FFF7D5F9002281
:1082600029463846FFF784FF85F80C9005B0BDE835
:10827000F083226831462846FFF7C6F9EFE7D4E9D4
:10828000002331462846FFF7BFF9E8E7A3680093CB
:108290003146D4E900232846FFF7B6F9DFE7E36863
:1082A0000193A36800933146D4E900232846FFF7E1
:1082B000ABF9D4E723690293E3680193A3680093C1
:1082C0003146D4E900232846FFF79EF9C7E76369E2
:1082D000039323690293E3680193A36800933146F3
:1082E000D4E900232846FFF78FF9B8E708292DE9DC
:1082F000F84F80460E4617461C4635D8002593F8A1
:108300000C901D7319461046FFF750FFDFF88CA044
:10831000DFF88CB0AE4229D918F80520594620461E
:10832000FFF772F90135082DF4D11A49DFF874B05E
:108330002046FFF769F94FF0000A564524D918F88E
:108340000A507E2D17D92E2259462046FFF75CF998
:108350000AF1010ABAF1080FEFD10122214638468D
:10836000FFF706FF84F80C90BDE8F88F51462046D1
:10837000FFF74AF9D6E702F04BFE2844427812F0A4
:10838000970FE0D02A46DFE703492046FFF73CF984
:10839000DEE700BF9E1B03009C1B03009A1B03002B
:1083A000941B0300A01B03002DE9F74F99469DF88D
:1083B0003030019388461746054618B92249B62041
:1083C00002F04EFCEA8895F805B00BFB02FBABF11E
:1083D000040BCB4503D81C49C42002F041FC3E6885
:1083E000B5F806A006EB09025A4509F1040188BF59
:1083F000ABEB0906B1FBFAF43E600AFB141144B979
:10840000AAEB0107B74228BF37462EB903B0BDE833
:10841000F08F2D68013CF2E7019A043108EB040368
:10842000681872B101463A461846F61B02F046FE3D
:10843000B2453C442D6857464FF0000128BF3746EF
:10844000E3E73A461946F0E7371C0300FEF7CEBED5
:10845000F8B546790146721E0546002393422D6801
:1084600003D30024A64202D8F8BD0133F6E70F6813
:108470002846FEF727FF01343946F3E72DE9F84394
:10848000CD1C068A0746FEF7EFFE043E354404463F
:10849000B5FBF6F5F0B14FF48073EDB28380C68082
:1084A000013D076081464FF00008A84512D23846CA
:1084B000FEF7DAFE064648B163790133637108F1CD
:1084C0000108C9F8000007608146EEE72046FFF783
:1084D000BFFF34462046BDE8F88301210430FEF793
:1084E00069BE10B5012104460430FEF76EFE10F09F
:1084F000FF0F04D12046BDE81040FFF7A9BF10BD13
:1085000030B585B0144604AA002542F8044D009504
:10851000FFF74AFF039BA34203D00349F62002F072
:108520009FFB05B030BD00BF371C030030B585B0E0
:10853000144604AA012542F8044D0095FFF734FFC4
:10854000039BA34204D003494FF4807002F088FBE0
:1085500005B030BD371C0300826800239360826839
:108560001361826853618268D36082685360826855
:1085700013607047026813685268934291BFD01A23
:1085800080680130801888BFC01A704738B50C4623
:10859000054618B90449772002F062FBAB68A34294
:1085A0008CBF601C002038BD901C030038B5044609
:1085B00018B907498A2002F053FB236820461D683A
:1085C0005968FFF7E3FF431B5842584138BD00BFCD
:1085D000901C03002DE9F3410D46044618B92E49BD
:1085E000952002F03DFB1DB92B49962002F038FB87
:1085F00002A8002300F8013DFEF7C8FC2046FFF763
:10860000D5FF804610B1237C002B3BD12768204644
:108610007E687968FFF7BAFF7860B8F1000F05D07F
:10862000276820463968FFF7B1FF3860E268606864
:10863000531E072B20D8DFE803F004101F141F1F60
:108640001F182B7883552046FFF794FF23689A68FC
:10865000824200D29860002415E02B8820F8163062
:10866000F1E72B6840F82630EDE7D5E9002300EB71
:10867000C600C0E90023E6E7294606FB020002F037
:108680001DFDE0E704249DF80700FEF7AFFC20463F
:1086900002B0BDE8F08100BF901C030010B5044695
:1086A00020B9064940F20A2002F0DAFA2368186875
:1086B0005B68C31A5842584110BD00BF901C0300AC
:1086C0002DE9F3410C469046054618B92549D920B5
:1086D00002F0C6FA1CB92349DA2002F0C1FA02A856
:1086E000002300F8013DFEF751FC2846FFF7D6FFB6
:1086F000002834D12F683E68B8F1000F04D13968E2
:108700002846FFF743FF3860EA686968531E072B65
:108710001FD8DFE803F0040F1E131E1E1E178B5D0B
:10872000237000249DF80700FEF760FC204602B08D
:10873000BDE8F08131F816302380F2E751F8263099
:108740002360EEE701EBC601D1E90023C4E9002371
:10875000E7E706FB0211204602F0B0FCE1E7052442
:10876000E0E700BF901C030038B50D46044618B979
:108770000849502002F074FA1DB90649512002F050
:108780006FFA25602B6863606A68934204BF002318
:10879000636038BDDE1C030010B5044618B90B49F0
:1087A000632002F05DFA23681BB90849642002F0D7
:1087B00057FA636843B1226891680B44636052685A
:1087C000934204BF0023636010BD00BFDE1C0300A2
:1087D0000D4930B5A1F594720225914201D80020CF
:1087E0000EE08B1ADB1093FBF5F302EBC30452F897
:1087F0003330834205D802D204F10802EDE7606805
:1088000030BD2146E9E700BF841E030008B5FFF72D
:10881000DFFF024B002808BF184608BD471D0300B4
:10882000C0B2002348700B707047000070B50D4651
:10883000044618B90849712002F012FA23681A6830
:1088400012683AB11A681B6851681B682846BDE86F
:108850007040184770BD00BF3E220300F0B50446CB
:1088600087B018B92D49372002F0FAF92368187E2D
:108870001A68C0B207B296684FEAC70C06EB0C0242
:1088800056F8376051791779927912F0010F4FEA53
:10889000510501F0010139D0002937D1D3F800E0AA
:1088A0009EF80CE00130704530DAD3F800E00CF1AE
:1088B0000800DEF808C084449CF805C0B5EB5C0FE6
:1088C00024D11A6891680A1851F800C0187E5179AD
:1088D00092F804E09279013011F0010F4FEA421250
:1088E000C0B20CBF0321022102F0200218768DF8DD
:1088F000041004F10C0001A98DF80550CDE9027EA9
:10890000CDE9046C01F002FB07B0F0BD52014FF05D
:10891000000C02F02002E646E9E700BF3E22030019
:108920002DE9F74F0E46044618B92949872002F071
:1089300097F92568DFF89CB04FF0000802A800F80E
:10894000018DFEF723FB16B923681B6843B900228B
:1089500029466068FFF7B4FE90B3C5F80080002692
:108960009DF80700FEF742FB7EB32B681B694BBBEB
:108970002F1D10223946686902F06EFBA8B104F180
:108980000C0A504604F1080901F064FA23465A46DD
:1089900039464846FEF7AEFD18B10D49B42002F045
:1089A0005FF9504601F00CFA6F6185F81880204697
:1089B000FFF754FF014640B12046FFF737FFBDE700
:1089C0000126CDE72B681F69D3E703B0BDE8F08F20
:1089D0003E220300D989020038B50C46054618B975
:1089E0001249D22002F03CF923681B681BB90F49D9
:1089F000D82002F035F9297871B92268137E106801
:108A00000133007BDBB2984207D913762046FFF78B
:108A100025FF014608B938BD03212046FFF706FFB0
:108A200020460121BDE83840FFF77ABF3E2203000F
:108A3000F8B50E46044620B919494FF4847002F087
:108A40000FF9636823B9164940F2091002F008F9DA
:108A500063689B6823B912494FF4857002F000F9EE
:108A600026B90F4940F20B1002F0FAF823460D4ADE
:108A7000314604F10800FEF73DFD074670B904F1E8
:108A80000C0001F09DF923681F6096E80F0025682F
:108A9000043585E80F0023681A1D5A613846F8BD71
:108AA0003E220300D989020037B50546019120B95D
:108AB000144940F22D1002F0D3F8019B23B911495B
:108AC0004FF4977002F0CCF8019B9B6823B90D49D5
:108AD00040F22F1002F0C4F8019B1B7B23B9094917
:108AE0004FF4987002F0BCF801A96868FFF772FDB6
:108AF000044618B901462846FFF712FF204603B086
:108B000030BD00BF3E2203002DE9F04186B088460B
:108B100017461E460C9C054620B9194940F24F10D5
:108B200002F09EF827B916494FF4A87002F098F8A1
:108B300026B9134940F2511002F092F80023ADF823
:108B4000003001238DF8003001A90E4B0193284617
:108B5000CDF808D003978DF81060CDF81480FFF79A
:108B6000A3FF20B106B0BDE8F08104B1A0479DF895
:108B70000030002BF9D19DF80100C0B2F2E700BF30
:108B80003E2203002188020010B5044618B90749A7
:108B9000A02002F065F8064B187920B901221C606C
:108BA0001A71587110BD8520FCE700BF92220300A6
:108BB00020AE002008B50B4B1B791BB90A49B92020
:108BC00002F04EF8094B1A68D2075FBFE02283F823
:108BD000002301221A604FF080430122C3F81825B8
:108BE00008BD00BF20AE00209222030000E100E09B
:108BF00008B5084B1B791BB90749F32002F030F880
:108C0000064B01221A604FF08042D2F81834DB0381
:108C1000FBD408BD20AE0020922203000C000040CF
:108C200007B5154B1A687AB100221A601B680093C9
:108C3000009B4FF080430122C3F808230F4B587963
:108C400010B95A711B6898470D4B1A6882B10022FF
:108C50001A601B680193019B4FF080430222C3F806
:108C60000823064B1B68012003B05DF804EB18478E
:108C700003B05DF804FB00BF0001004020AE0020FF
:108C80000401004000F1804000F5C040002382B0A4
:108C9000036003680193019B02B07047054B4FF0DE
:108CA000FF32072843F8202084BF1B1883F8482090
:108CB000704700BF28AE002002494FF4F37001F066
:108CC000CFBF00BFDE0F03001F2838B504460D4696
:108CD00001D9FFF7F1FFA00000F1A040D0F8003764
:108CE00023F44033C0F80037D0F8003743EA054397
:108CF000C0F8003738BD000010B5164C94F8583055
:108D000033BBFF21E2180133202B82F83010F9D158
:108D10000021C8B2FFF7C2FF01310C29F9D10422AA
:108D200000210D4802F064FA0C4BE02283F8062380
:108D300040221A604FF4BE70FFF7A4FF084B4FF0BB
:108D40000042C3F80423012384F85830002010BDEA
:108D50000820FCE728AE00207CAE002000E100E007
:108D600000600040034B93F85800003018BF01200A
:108D7000704700BF28AE00201F2870B504460D467E
:108D800004D941494FF4987001F06AFF3F4E96F8BC
:108D90005830012B04D03C4940F2311001F060FF03
:108DA00025B939494FF4997001F05AFF331993F9F5
:108DB0003020013265D1AA78002A54D0002356F819
:108DC000231001314FEA830248D1311902F1804268
:108DD00081F83030002102F5C04246F82310D2F865
:108DE00010052B78697820F498101B04090520F4ED
:108DF000F85001F4801103F44033C2F810050B431E
:108E00002102D2F8100501F4F8510B430343C2F8D4
:108E100010356B78012B4FF0010528D11F2C01D99B
:108E2000FFF74AFF4FF0A043A540C3F808551F2C99
:108E300001D9FFF741FF04F5E0724FF0A043032191
:108E400043F82210E2081249012304F0070403FA50
:108E500004F48B5C1C438C54002003E00133082B8A
:108E6000ADD1042070BDFE2283F83020D1E71F2C45
:108E700001D9FFF721FF4FF0A043A540C3F80C55DF
:108E8000D5E70820EEE700BFE522030028AE00206A
:108E90007CAE00201F2838B5054604D912494FF48E
:108EA000BE7001F0DDFE114C621992F930200132E2
:108EB00004D10D4940F27D1001F0D2FE631993F800
:108EC0003030072B04D808494FF4BF7001F0C8FEBA
:108ED0001F2D01D9FFF7F0FE012303FA05F54FF02E
:108EE000A043C3F8085538BDE522030028AE002092
:108EF0001F2838B5054604D912494FF4C37001F054
:108F0000AFFE114C621992F93020013204D10D49A3
:108F100040F2871001F0A4FE631993F83030072B5C
:108F200004D808494FF4C47001F09AFE1F2D01D9EE
:108F3000FFF7C2FE012303FA05F54FF0A043C3F883
:108F40000C5538BDE522030028AE00201F282DE96E
:108F5000F84304468846914604D9414940F2072027
:108F600001F07EFE3F4F3B1993F93030002B74DA4D
:108F700098F80230C3F34003002B0BBF08250025EF
:108F80000C2108218D4202D10420BDE8F88357F856
:108F9000252001324FEA850645D13A1947F8259038
:108FA00082F8305013B97B1983F8484098F80230A2
:108FB0005A0717D4D90738D51F2C01D9FFF77CFEE3
:108FC000A30003F1A043D3F8002722F00202C3F864
:108FD00000272549E20804F0070001238340885C4C
:108FE00003438B5498F8020098F8001010F0020028
:108FF0002AD006F1804303F5C0432402D3F810259C
:1090000022F4473222F44072C3F810250904D3F841
:10901000102504F4F85401F440310C431443C3F810
:1090200010450020B1E70135ACE71F2C98F80190FE
:1090300001D9FFF741FE04F5E0734FF0A0414FEA7C
:10904000890241F82320C4E7083D3D4495F850408B
:1090500044EA811185F8501097E7082095E700BF92
:10906000E522030028AE00207CAE00201F28F8B5C2
:1090700005460E4604D9284940F2372001F0F0FD9C
:10908000264C631993F93030002B04DA22494FF44F
:109090000E7001F0E5FD671997F93020072A1ADDF7
:1090A000224492F848309B09032B10D11F2D01D97F
:1090B000FFF702FE4FF0A043D3F81035EB40DB077B
:1090C00007D402212846BDE8F840FFF7FDBD012B7B
:1090D000F7D00321F6E7D3B2072B1CD8930003F196
:1090E000804303F5C04302F14000D3F8101580001F
:1090F00041F00101C3F8101580B2FFF7C3FD56B16E
:1091000097F9303054F823302BB1012303FA02F2DF
:10911000034BC3F80423F8BDE522030028AE00206A
:10912000006000401F2810B5044606D907494FF4D7
:10913000227001F095FDFFF7BFFD4FF0A043D3F87B
:109140001005E04000F0010010BD00BFE522030063
:109150002DE9F04F87B000245B4A5C4E5C4D0394D0
:1091600001211368A2F5C040012B80B206D1D6F8C8
:1091700004330B4202D0FFF785FD0C430432AA42B0
:109180004FEA4101EDD1534B1B68012B0AD14FF43B
:10919000BE70FFF777FD4FF0A04344F00044D3F8D2
:1091A0001035039314F0FF0F1AD04B4F0025012602
:1091B000344210D0AB0003F1804303F5C043D3F831
:1091C0001005D3F8101557F82530C0F30420C1F36B
:1091D000014103B198470135082D4FEA4606E7D112
:1091E000002C6EDA00224FF0FF33CDE904233A4F12
:1091F0004FF0000A56464FF0A04907EB0A0393F9D7
:109200005040631C46D0E4B2012224F0C00504F0B3
:10921000070B02FA0BFBEB0806AAD11811F8042C75
:1092200012EA0B0F36D07A19A40992F9302057F8B8
:109230002280B8F1000F0AD1032C2BD10DF1100CB4
:109240001CF8030040EA0B000CF8030001E0032CBB
:10925000F4D01F2D03D90191FFF72EFD019911F8CC
:109260000C1C05F5E07311EA0B0F59F82330C3F31A
:10927000014320D0022B0DD1032C05D121462846D5
:10928000FFF722FD0136F6B2B8F1000F02D02146F9
:109290002846C0470AF1010ABAF1040FADD186B1E0
:1092A0004FF0A043039AD3F810359A4209D00393A4
:1092B000049B05939CE7032BECD1032CE4D1022102
:1092C000DDE707B0BDE8F08F0061004000600040BE
:1092D000206100407C61004028AE002010B5054CA4
:1092E00022681AB90449512001F0BAFC2368BDE88C
:1092F0001040184784AE00203E23030037B50D46CA
:1093000030B90F49772001F0ABFC002003B030BD2D
:109310000C4B9842F9D102A8002300F8013DFDF75B
:1093200035FE094B1C7914B901221D601A719DF894
:109330000700FDF75BFE002CE7D01120E6E700BF39
:109340003E2303000020004084AE002018B90649E7
:109350009B2001F085BC054B984201BF044B0022C5
:109360001A601A71704700BF3E23030000200040BE
:1093700084AE00200023435082B043580193019BE8
:1093800002B0704770B5D0F8103105460C4653B1A5
:109390004FF48871FFF7EEFF63795A0703D523680E
:1093A0000BB101209847D5F814315BB14FF48A71A5
:1093B0002846FFF7DFFF63791B0703D523680BB14E
:1093C00002209847D5F81C315BB128464FF48E71C6
:1093D000FFF7D0FF607910F0100002D1236803B1CD
:1093E0009847D5F8043163B14FF482712846FFF7EE
:1093F000C1FF0123237123681BB10320BDE8704026
:10940000184770BD01490248FFF7BCBF8CAE002071
:1094100000C0014001490248FFF7B4BF94AE0020EC
:109420000010024001490248FFF7ACBF9CAE00208B
:109430000020024000F1804000F5E040002382B0AF
:10944000036003680193019B02B07047F0B5514B74
:10945000514C1B6885B0DBB14FF4827094F82E201C
:10946000FFF7E8FF12B194F82F30A3B163680293BD
:109470002389ADF80C30E36800218DF80410002B2F
:1094800044D12374236801A89847002384F82F301F
:1094900094F82E3003B3414B1B68EBB14FF480704E
:1094A000FFF7C8FF94F82D20638B91B28B4238D917
:1094B0005B1A21899BB26383CB1A616801EB43017C
:1094C000374BC3F82C16C3F830264FF48270FFF7E1
:1094D000B1FF344B01221A60334B1B685BB14FF470
:1094E0008870FFF7A7FF002304A82374022300F865
:1094F0000C3D236898472D4B1B6813B34FF48A70BB
:10950000FFF798FF0023237405B0F0BD208B608324
:1095100063602081E160002AB4D1214B01221A60EE
:10952000B0E7D2D1E368012184F82F103BB10021CC
:1095300061831B49C1F82C36C1F83026C5E7638327
:10954000C3E766694FF000470125002EDCD0B6FA6C
:1095500086F227FA02F34632920026EA030602F167
:10956000804303F5E0431B68002BEED01046FFF765
:1095700061FFA2F58C72D30882F00402C2F380026C
:109580008DF808308DF804508DF80920236801A863
:109590009847DAE704710040A4AE00200071004053
:1095A00000700040047000401071004014710040D1
:1095B00070B50E46054618B92949D62001F050FB72
:1095C0001EB92749D72001F04BFB264C94F82C30CC
:1095D000002B43D1244A29782660C2F8F015697817
:1095E000C2F8F415E97884F82E102374012184F868
:1095F0002D30636184F82F306FF0004384F82C1015
:109600004FF48270C2F80833FFF714FF4FF48070F4
:10961000FFF710FF4FF48A70FFF70CFFAD78AB1E19
:10962000012B06D96B1F022B03D910496B2001F0C7
:1096300017FB0F4B6D018022EDB283F807531A60C0
:10964000094B0222C3F8042394F82E10012209B119
:10965000C3F80423C3F80025002070BD0820FCE7F0
:1096600095230300A4AE002000700040E223030015
:1096700000E100E070B53E4E96F82C3004460D46F1
:1096800023B93C4940F2231001F0EAFA072C04D92F
:1096900038494FF4927001F0E3FA374BD3F8F435C0
:1096A00013F0FF0F07D096F82D3023B1314940F267
:1096B000271001F0D5FAEB79013B082B04D92D498D
:1096C00040F2291001F0CCFA2B7A092B04D9294950
:1096D0004FF4957001F0C4FA337C002B45D104F1AE
:1096E0000C0206EB42031B7923B996F82D300133A7
:1096F00086F82D3006EB4206EB7933712B7AAA7887
:1097000073716B7812021B0102F4E06203F0300304
:1097100013432A7802F003021343EA78120302F497
:10972000805213432A79120402F4E02213436A7927
:10973000120502F480121343AA79120602F0807215
:109740001343220102F1804202F5E042240104F1B8
:109750008044C2F8183504F5E044EB792A7AC4F85D
:1097600014250020C4F8103570BD1120FCE700BF9F
:10977000A4AE0020952303000070004070B5364C65
:10978000227C02F0FF03002A64D1344A012503261B
:109790002574C2F80863C2F82C16C2F8305694F843
:1097A0002D20AA420CD919461A0102F1804202F575
:1097B000E0420133082BC2F81415C2F81015F3D19A
:1097C00000F10C03000104EB430300F1804000F5BD
:1097D000E0401A795B79C0F81435C0F810251F4AAB
:1097E00001231360536042F2107302F58272116814
:1097F00031B9013BFBD11A4940F29B1001F030FA1C
:109800004FF48070FFF716FE4FF48270FFF712FEE0
:1098100094F82D30012B11D90F490022130103F1C7
:10982000804303F5E0430132087F4D7FC3F81455B0
:10983000082AC3F8100501F10201EFD194F82E2097
:10984000064B2AB103220020C3F80423207470BD04
:109850000222F8E71120FAE7A4AE002000700040D1
:109860009523030002494FF4F37001F0F9B900BFEA
:10987000DE0F03001F2810B5044601D9FFF7F2FFE1
:10988000012303FA04F44FF0A043C3F80C4510BDC4
:109890001F2810B5044601D9FFF7E4FF012303FA9E
:1098A00004F44FF0A043C3F8084510BD13B54FF0C2
:1098B0004023D3F818310BB3114B124C00221A601D
:1098C0001B680193019B236823B90F494FF427704C
:1098D00001F0C6F9E07FFF2803D0A37F5BB1FFF75B
:1098E000C9FF002363772372D4E90031074802B02F
:1098F000BDE810401847FFF7CBFFF2E702B010BDFC
:1099000018410040D4AE00202C240300DCAE00201F
:109910002DE9F743002406460F4600F5A0754FF4E5
:109920008038A14604F150002B68800080B26BB1F2
:10993000D6F8043308FA04F21A4207D0C5F80090AA
:109940002B680193019BD7E9003198470134042C1F
:1099500005F10405E6D103B0BDE8F0832DE9F34736
:10996000544B0779154602689A4204460E4603D1C5
:109970005149482001F074F91EB94F494A2001F0BD
:109980006FF91DB94C494B2001F06AF94B4A0C2381
:1099900003FB072390461B7A002B40F08980236845
:1099A000444A93420FD002F5805293420BD002F505
:1099B0008052934207D002F58032934203D002F5E1
:1099C0008052934202D1B378032B03D93A495F20E6
:1099D00001F046F90C237B4308EB030248F80350DF
:1099E000736853600022154660792168D3B29842AB
:1099F00002F1010254D8F578AB1E4FEA113A012B5F
:109A00004FFA8AF906D96B1F022B03D92C496B2018
:109A100001F026F9B9F1000FAEBF09F160430AF079
:109A20000F03284A28484FEA4515EDB2AABF03F5AF
:109A30006143D55483F8005323681B0B59B249097D
:109A4000012203F01F0302FA03F340F821302068DB
:109A50007378D0F8041503F0030321F003010B43DE
:109A6000C0F804352068B378D0F8081503F0030374
:109A700021F003010B43C0F8083520683378D0F893
:109A8000101503F00F0321F00F010B43C0F8103540
:109A90000C2303FB078700203A7202B0BDE8F08771
:109AA0009B0003F5A073CD50CB580193019B9BE71E
:109AB0000820F2E7008000407D240300F8AE00207B
:109AC000E223030014ED00E000E100E00149024858
:109AD000FFF71EBFF8AE0020008000400149024899
:109AE000FFF716BF04AF0020009000400023435052
:109AF00082B043580193019B02B07047F0B5504CBF
:109B0000236887B023B94F4940F2452001F0A8F8F7
:109B10004D4AD2F824311546A3B14FF49271104644
:109B2000FFF7E4FFD2F8043163B9A368C2F8083341
:109B30000223A360A368C2F80433012313625361B4
:109B400007B0F0BDD5F80431002B49D03F4F3E4857
:109B50004FF48271FFF7CAFF0FCF01AE0FC63B680B
:109B6000336094F82E307BB1237B012B0CBFD5F8EA
:109B70003C25D5F84C250292022B334B0CBFD3F871
:109B80003C35D3F84C3503934FF4B0712E48FFF7B2
:109B9000ADFF4FF4AE712C48FFF7A8FF94F83030BA
:109BA00013B194F82E303BB1274B0022C3F80022AA
:109BB000A260274AC3F80823234AD2F8C434C2F863
:109BC000C4349A0736D501238DF8003094F830302C
:109BD0000BB984F82F30D4E9003168469847AFE7D5
:109BE0004FF4A4711848FFF781FF237B83B9174F07
:109BF0000FCF01AE0FC63B68336094F83030002BB6
:109C0000DAD1C5F80032A360114BC5F80833D3E7A9
:109C10004FF40073C5F8003240F20223A36003F151
:109C2000CE73C5F80833A368C5F804330123AB60CD
:109C30002B6285E713F0040318BF0223C4E700BFBB
:109C400010AF0020D0240300003000401CAF0020E3
:109C500002029C012DE9F74F8046934601930C4682
:109C600019B95049A92000F0FBFFD4E900239A421A
:109C700003D14C49AA2000F0F3FF98F804704A4E33
:109C8000342303FB07FA06EB0A0999F82D20002A72
:109C900040F083804549D8F80000FFF72FFB0546C8
:109CA00000287CD146F80AB0019BC9F80800C9F821
:109CB000043089F8300089F82F00637B89F832304E
:109CC000D4F80090B9F11F0F04D939494FF4F3705B
:109CD00000F0C6FF4FF0A04309F5E07940F20C62B6
:109CE00043F82920D4F804A0BAF11F0F994604D9EB
:109CF0002F494FF4F37000F0B3FF0AF5E07A40F219
:109D00000C6349F82A30D4E90012D8F80030C3F8BF
:109D10000815C3F80C25A268C3F8242534237B4317
:109D2000F35883B3D8F80030247B4FEA133AA31ECC
:109D3000012B4FFA8AF906D9631F022B03D91D495B
:109D40006B2000F08DFFB9F1000FACBF09F160434B
:109D5000194B4FEA4414B8BF0AF00F0AE4B2AABF85
:109D600003F5614303F80A4083F80043D8F8003054
:109D70001B0B5AB2012103F01F0301FA03F352092E
:109D80000E4941F82230342303FB0766012386F88D
:109D90002D30284603B0BDE8F08F0825F9E71125DE
:109DA000F7E700BFD024030010AF0020FD9A0200A7
:109DB000DE0F0300E223030014ED00E000E100E009
:109DC00070B50D4D0479342202FB0452064692F818
:109DD0002D20012A04D0094940F2111000F040FF63
:109DE00033680622C3F80025342303FB04540223FE
:109DF00084F82D3070BD00BF10AF0020D0240300C8
:109E000070B5114D0479342202FB0452064692F8D3
:109E10002D2022B90D494FF48E7000F021FF34221D
:109E2000336802FB04540021094AA160C3F80823E7
:109E3000D3F8002222F4BC52C3F80022C3F8001564
:109E4000012384F82D3070BD10AF0020D024030012
:109E500002029C01F8B5294D0479342303FB045315
:109E6000064693F82D301BB92549F82000F0F8FE7E
:109E700034236343EB5863B133681B0B5AB201219F
:109E8000520903F01F0301FA03F320321D4941F880
:109E900022303046FFF7B4FF3068FFF757FA34231B
:109EA00003FB045393F8323003BB3368D3F80875CF
:109EB0001F2F04D914494FF4F37000F0D1FE4FF076
:109EC000A04307F5E077022243F827203268D2F852
:109ED0000C751F2F1E4604D90B494FF4F37000F088
:109EE000BFFE07F5E077022346F82730342303FB53
:109EF0000454002384F82D30F8BD00BF10AF0020BB
:109F0000D024030000E100E0DE0F03002DE9F84358
:109F1000037904460D4690462BB94B68FF2B02D8B7
:109F20008B68FF2B04D9B6494FF4F87000F098FE07
:109F30002779B44E34237B43F3583BB92B78022B5B
:109F400004D1AF494FF4FB7000F08AFE34237B4309
:109F5000F3583BB92B78032B04D1A94940F2F710F1
:109F600000F07EFEEB6803F06043B3F1005F03D0C6
:109F700010221046BDE8F8832468A34BC4F80833C8
:109F80004FF0340C0CFB076C9CF82F302BB1DCF835
:109F90000830C4F804331122EBE718F0140F0CBF9B
:109FA000012300238CF82F30A946B9E80F000CF1EB
:109FB0000C0EAEE80F00D9F80030CEF80030C8F330
:109FC00000138CF830306B78C4F888354FF4827108
:109FD0002046FFF78BFD4FF49271FFF787FD18F0D5
:109FE000010318BF0123C4F8503518F0020318BF4D
:109FF0000123C4F840352B78032B00F2E080DFE822
:10A0000003F0A0C8810218F0100F04D07C4940F280
:10A01000711000F025FE18F0080F04D078494FF4B5
:10A02000B97000F01DFE18F0040F04D0744940F21E
:10A03000731000F015FE2B6903F06043B3F1005F6D
:10A0400096D14FF48073C4F800326B68EA68C4F8A4
:10A0500044252046C4F848354FF4A871FFF746FD63
:10A060004FF4B071FFF742FD4FF4A471FFF73EFDCE
:10A0700001232362A360D4F85031002BFBD04FF4AE
:10A08000A8712046FFF732FDAB682A69C4F8442561
:10A09000C4F84835342303FB07635C4A9A604FF4E5
:10A0A00082730821002218F0080F04D128780328B1
:10A0B0001CBF012060503421794370187158002969
:10A0C00040F08280012523441968002900F089802E
:10A0D0003421D4F8C434C4F8C43401FB0766002129
:10A0E00086F82F10002B3FF444AF13F0020F48F214
:10A0F000012208BF032213F0040F48F2022318BF05
:10A100001A4636E76B68EA68C4F84425C4F848354F
:10A110002B6903F06042B2F1005F7FF429AFAA68B7
:10A12000C4F834354FF48453C4F83825C4F80032E9
:10A13000342303FB076340F202229A600123236267
:10A14000ADE76B68EA68C4F8442518F0200FC4F83E
:10A1500048354FF0340310D003FB07634FF480728F
:10A16000C4F80022294A9A604FF4A471FFF7BEFC9C
:10A170004FF4A4730122226293E74FF4007203FBB1
:10A180000763C4F8002240F202229A604FF48273FF
:10A19000F0E76B68EA68C4F83425C4F838354FF442
:10A1A0008053C4F80032342303FB076340F20222D9
:10A1B0009A600123236200214FF4827372E74FF407
:10A1C0008273082107226EE718F0040F1CBF4FF4BA
:10A1D00000738360342303FB0766B368C4F8043359
:10A1E000C7E6D4F8241100293FF46EAF4FF4927102
:10A1F0002046FFF77BFC25624FF48273656162E7BE
:10A20000D024030010AF002002029C0100020400D1
:10A2100070B5C0B14AB116880024B44203D3051901
:10A220006D789D4208D0A14201D800200BE0055D69
:10A2300001352C44A4B2F0E7A142F6D9A31C138047
:10A24000005D013880B270BD37B502AC002324F840
:10A25000023D134622460546FFF7DAFF10B1BDF86E
:10A260000600284403B030BD72DF704773DF7047CB
:10A2700038B5012204460D46B0F83812D0F8340241
:10A28000FFF7E2FF00B1057004F13C0204F50D7127
:10A2900004F15400BDE83840FFF7E6BFF8B5077891
:10A2A00004460D46002F00F0058100F24A26A170F9
:10A2B00007220021304600F09BFFE38813B1A3780A
:10A2C000012B04D0E3794BB1A378022B06D1636B49
:10A2D000A3B1012284F8512208209847334604F59F
:10A2E000147113F8012F12B99942FAD117466B1E57
:10A2F000032B53D8DFE803F0050B0F1284F851321B
:10A30000ECE7A3791BB194F8243003B95FB9E37982
:10A310000BB1002F44D1237A002B43D1637A002B59
:10A320000CBF00250425636BA570002B3CD0033DBA
:10A33000012D39D86279002A36D094F85222002AA9
:10A3400032D184F85422012284F8532207209847FE
:10A3500004F13C0518220021284600F049FFE36A79
:10A3600094F824200121581E884288BF0B4684F8A7
:10A370003C1084F8513032B1884296BFA36A84F809
:10A38000521084F85230A178002384F85030042908
:10A390001BD8DFE801F0770D223559000025C2E710
:10A3A0000225C0E70325BEE7002384F85332CFE738
:10A3B000C4F84432C4E910630223012284F83C301B
:10A3C000802384F83120A4F84830A378002B5CD196
:10A3D000636B002B6AD1002067E0022384F83130E0
:10A3E00062B1072384F83C302369A4F84830002385
:10A3F000C4F84432E36826646364E6E70323F1E7C4
:10A4000063696364A369A4F8483012B1062384F831
:10A410003C306379B3B194F852329BB994F854321A
:10A4200083B1022384F8503004212046FFF720FF37
:10A430000028CAD1052384F8313004F50D73C4F81F
:10A440004432C2E70323F6E7E3696364236AA4F8AE
:10A45000483012B1062384F83C30637983B194F814
:10A4600052326BB994F8543253B1022384F850300D
:10A4700004212046FFF7FCFE0028A6D10623DAE7D8
:10A480000423D8E784F831309FE72A46D4F84412F1
:10A4900004F15400FFF7E8FE38B994F8301094F84E
:10A4A0005400FFF7E3FE002892D0F8BD94F8310085
:10A4B000984790E70820F8E710B50388112B0C4661
:10A4C0000AD0262B1FD0102B05D1C37B012B02D124
:10A4D0008388A1F8483210BD002381F85232828867
:10A4E000B1F848329A42F6D10B79002BF3D1012111
:10A4F0002046FFF7D3FE0028EDD0A36B002BEAD057
:10A50000BDE810401847037A013B012BE3D8897856
:10A510000523013191FBF3F303EB8303C91AC9B29D
:10A52000E6E77047034B1A8882420CBF18460020AA
:10A53000704700BF60AF0020024B9B6903B1184712
:10A54000704700BF44AF002013B50B46497A0F4C4B
:10A55000024669B9D4E901101C7A002C18BF0146E3
:10A560005868FCF7B1FC08B1FFF7E6FF02B010BD78
:10A57000002119726369002BF8D00121ADF80600A3
:10A580008DF8041001A89847F0E700BF44AF002001
:10A5900030B583880588B3F5FA7F24BF6FF4F9726C
:10A5A0009C184A8838BF002495420CD840889042B5
:10A5B00009D38A88A24206D303F2F310904234BF33
:10A5C0000020012030BD0020FCE7000070B50388AA
:10A5D000112B014648D002D8102B1ED070BD122B73
:10A5E00052D0502BFAD12F4BC288DB899A42F5D139
:10A5F000038A022BF2D186883046FFF793FF054687
:10A600000028EBD001F1120000F050F830BB686870
:10A61000FCF79EFC0028E1D009E0C37B012BDDD1D3
:10A620004FF6FF70FFF77EFF054620B90420BDE816
:10A630007040FFF781BF8E881B4A0680002303729B
:10A640001368C5F80A300A30536843601031FFF7C9
:10A650009FFF144B6872DB89002BBFD1294630461F
:10A66000BDE87040FFF770BF8088FFF75BFF0446CE
:10A670000028B3D04068FCF76BFC08B1FFF75CFF23
:10A680004FF6FF732380A9E786883046FFF74AFF1D
:10A6900005460028A2D008310A30FFF779FF68721A
:10A6A000DCE700BF44AF002074AF0020007800F06A
:10A6B0000100704790DF7047A5DF7047B5DF704736
:10A6C0007FB50023ADF80810ADF80A106A4602A95C
:10A6D000064603930093ADF80430FFF7EBFF054601
:10A6E000F8B1114B114CE41AE408FEF78FF824047A
:10A6F00044F00104034632460D492046FDF7D4FCE0
:10A70000BDF80020BDF8023002B91BB1094920464E
:10A71000FDF7CAFCBDF804201AB107492046FDF731
:10A72000B9FC284604B070BD102A0300802A03003B
:10A730002C25030076250300B525030013B5034639
:10A7400080880C46A0B91A88232A00F0AF8011D85F
:10A75000102A25D0112A54D0A37A4BB1E1880020C9
:10A76000FFF7AAFF002840F0A7800123A072E37240
:10A7700002B010BD3A2A4ED0552A68D0242AEBD117
:10A780001A7A0B694A73002BE6D04DF67A21ADF8A0
:10A790000400ADF80010ADF802008DF8042081E04F
:10A7A0000A790A73DB7B012B13D0022B14D0E188CA
:10A7B00023898B4205D20020FFF77EFF70B9012369
:10A7C000E372217B637B8B42C6D20020FFF778FFC8
:10A7D000C2E70B88E380EAE74B88FBE7112802D148
:10A7E0000123A372EDE7FEF711F83C4A3C4B3D49CB
:10A7F0009B1ADB081B04024643F00100FDF74AFCEC
:10A80000DFE7F723CB8017230B8141F6FB338872F8
:10A81000C8728B81A0E75B89CA88934228BF134620
:10A82000172B0A6938BF17230B8162B1C97A51B15E
:10A8300040F67721ADF80010ADF80200ADF8043015
:10A840006946204690470023E372A37284E7DB88C1
:10A85000C988A072172B38BF17238B4228BF0B461D
:10A860002381FFF72BFF60B1FDF7D0FF1B4A1C4B84
:10A870001D499B1ADB081B04024643F00100FDF74B
:10A8800009FCE27A002A7FF467AF2369002B3FF4CA
:10A8900063AF40F67721ADF802202289ADF80010B1
:10A8A000ADF8042069462046984755E7197A237B7E
:10A8B000994228BF194689E711283FF459AFFDF79F
:10A8C000A5FF064A064B07499B1ADB081B040246F4
:10A8D00043F00100FDF7DEFB4AE700BF102A03004A
:10A8E000802A03000B2603003C260300B0DF7047DC
:10A8F00066DF704710B5034600214088FFF7F8FF78
:10A90000024608B91A7210BD112801D10122F9E7D7
:10A910005B68BDE81040184728B10378DE2B04D1EE
:10A920004180002070470E20704708207047F0B526
:10A93000054685B00C46F1B1E8B10B78DE2B1AD193
:10A9400082884B889A4204D10B7A13B10846FFF7EC
:10A95000D1FF2B88112B32D0512B0ED0012B0AD1D5
:10A960002B7A012B07D1A9886288914203D12372E7
:10A970002046FFF7BFFF05B0F0BDAE886388B34245
:10A98000F9D1AF79022FF6D1AD7B2B1F022BF2D874
:10A9900000211022684600F02BFC052D14BF4FF457
:10A9A000C0730023694630468DF80070ADF804305E
:10A9B000FFF79CFF0028DED063689847DBE76388D9
:10A9C000AA889A4204BF4FF6FF736380D3E7000062
:10A9D000014B1878704700BF7CAF002007B50849CD
:10A9E0006846FDF7C1FE019B13B903B05DF804FB97
:10A9F000D3E9002090476846FDF7CEFEF3E700BF9D
:10AA000078260300FFF7EABF61DF704730B5134DCA
:10AA1000ADF5017D4FF4FA740DF1020103A8ADF814
:10AA20000240FFF7F1FF70B9294601A8FDF79CFE2F
:10AA3000029B002BF0D003A8D3E90021904701A886
:10AA4000FDF7AAFEF4E7052804D0054A40F23911C3
:10AA5000FCF747F80DF5017D30BD00BFE02603008F
:10AA60008C260300024B1B780BB1FFF7CFBF70475A
:10AA70007DAF002076DF70477FDF704786DF70474D
:10AA80008ADF70478FDF7047B1DF704733DF704771
:10AA900037B503881D2B044600F0AC801DD8132B5E
:10AAA0007CD00AD8102B3DD0112B5DD0604B13B158
:10AAB0002046AFF3008003B030BD142B00F08C8033
:10AAC0001B2BF3D1037A012BF0D1FFF7DFFF002816
:10AAD000ECD0584A4FF4CC716DE0502B52D00ED8C8
:10AAE000212B00F096803B2BE0D113218088FFF7CB
:10AAF000C1FF0028DAD04F4A4FF4D0715BE0522BEF
:10AB00005CD045D3562BD1D18379002BCED14A4B83
:10AB100013211888FFF7AEFF0028C7D0454A40F23E
:10AB2000A71148E0444D818844482980FFF7F4FE8E
:10AB300020B1404A4FF49D71FBF7D3FF00231A4622
:10AB400019462888FFF7A0FF20B13A4A4FF4A171B7
:10AB5000FBF7C7FF3A4800F095FB3A4B002BA5D016
:10AB60002046AFF30080A1E7334B37484FF6FF7222
:10AB70001A8000F087FB354B002B97D02046AFF3AF
:10AB8000008093E7324B002B90D0AFF300808DE72D
:10AB9000304B002B8AD0AFF3008087E72648002394
:10ABA0001A4685210088FFF767FF00283FF47EAF33
:10ABB000204A40F28111FBF794FF77E71E480023FB
:10ABC0001A4619460088FFF75FFF00283FF46EAF72
:10ABD000184A40F28711EEE7174800231A46194633
:10ABE0000088FFF74BFF00283FF460AF114A40F2A6
:10ABF0009111E0E7184B0BB1AFF30080174900202B
:10AC0000FFF73EFF00283FF451AF0A4A40F2C71158
:10AC1000D1E702A9002321F8043D8088FFF732FF25
:10AC200000283FF443AF034A40F2D111C3E700BF0D
:10AC3000000000001D270300D4B20020ECB100206A
:10AC40004C270300000000005C2703000000000008
:10AC5000000000000000000000000000B09800208C
:10AC600038B50D460446044800F00CFB2A46214640
:10AC70000248FBF736FF38BDF8260300EFBEADDE15
:10AC80000C4B1B78062B10D10B4B1B681A070CD1F1
:10AC90000A4B186800F0F003302B08D000F0E000F9
:10ACA000A0F14003584258417047002070470120EE
:10ACB000704700BFE00F00F0E40F00F0E80F00F075
:10ACC000094B1B78062B0CD1084B1B681A0708D1BF
:10ACD000074B186800F0F000A0F1300358425841CB
:10ACE00070470020704700BFE00F00F0E40F00F055
:10ACF000E80F00F008B5FFF7C3FF28B17D4B7E4A8F
:10AD00001B68C3F304231360FFF7DAFF10B17B4B1A
:10AD10007B4A1A60FFF7B4FF28B17A4B7A4A1B6866
:10AD2000C3F342331360FFF7CBFF20B1774AD368F8
:10AD300023F08073D360FFF7A3FF40B14FF080434F
:10AD40000022C3F80C21C3F81021C3F83825FFF7FF
:10AD5000B7FF10B16E4B03221A60FFF7B1FF40B18D
:10AD60006C4B05221A6001229A6700229A603F22EA
:10AD70005A60694B1B78062B50D1684B1B6819072A
:10AD80004CD1674B1B6803F0F003502B46D14FF0BA
:10AD90008052644BD2F80414C3F82015D2F808147A
:10ADA000C3F82415D2F80C14C3F82815D2F81014DF
:10ADB000C3F82C15D2F81414C3F83015D2F81814AF
:10ADC000C3F83415D2F81C14C3F84015D2F8201477
:10ADD000C3F84415D2F82414C3F84815D2F828143F
:10ADE000C3F84C15D2F82C14C3F85015D2F830140F
:10ADF000C3F85415D2F83414C3F86015D2F83814D7
:10AE0000C3F86415D2F83C14C3F86815D2F840149E
:10AE1000C3F86C15D2F84424C3F87025FFF730FF4F
:10AE200028B1414B414A1B6803F04F031360FFF701
:10AE300027FF48B14FF08043D3F80024D20744BF26
:10AE40006FF00102C3F80024394B1B68062B08D1B0
:10AE5000384B1B68062B01BF374A136843F48063E5
:10AE60001360364AD2F8883043F47003C2F8883051
:10AE7000BFF34F8FBFF36F8F4FF01023D3F8002233
:10AE8000002A03DBD3F80432002B2FDA2C4B0122EB
:10AE9000C3F80425D3F80024002AFBD04FF0102279
:10AEA0001521C2F80012D3F80024002AFBD04FF07D
:10AEB00010231522C3F80422214B1A46D3F800149C
:10AEC0000029FBD00021C3F80415D2F80034002B70
:10AED000FBD0BFF34F8F19491A4BCA6802F4E062E6
:10AEE0001343CB60BFF34F8F00BFFDE7164B174AEC
:10AEF0001A6008BD240300104035014074C00740AB
:10AF00000DF0ADBA440200103C050040F0ED00E049
:10AF1000A005004010560040E00F00F0E40F00F0E4
:10AF2000E80F00F000C0004058020010E40E00409E
:10AF300030010010340100103C17004000ED00E02B
:10AF400000E001400400FA05B89800200090D0030A
:10AF50000649074A074B9B1A03DD043BC858D050EB
:10AF6000FBDCFFF7C7FEFBF76BF90000482B030083
:10AF7000A898002078A20020FEE7FEE7FEE7FEE7A3
:10AF8000FEE7FEE7FEE7FEE7FEE7FEE708B5002185
:10AF9000044602F023F9044B1868C36B03B19847C9
:10AFA000204605F0D5F900BF7027030070B50D4E9F
:10AFB0000D4D761BB61006D00024013455F8043B25
:10AFC0009847A642F9D1094E094D761B05F0D6FFE8
:10AFD000B61006D00024013455F8043B9847A64229
:10AFE000F9D170BD68A2002068A2002074A20020E0
:10AFF00068A20020044B054A1B685B6B002B08BF4E
:10B00000134693F828017047BC980020E89C002064
:10B01000044B054A1B685B6B002B08BF1346D3F833
:10B02000EC007047BC980020E89C002082B049B139
:10B030005AB16BB113780B601278101C18BF012045
:10B0400002B0704701A9002AF3D1104602B0704740
:10B050006FF00100F4E700BF032A70B414D940EA8E
:10B060000105AD0704460B4622D11D682668AE4295
:10B070001946204603F1040304F1040418D1043AEC
:10B08000032A20461946F0D8541E72B102780B7874
:10B090009A4208BF641806D00CE010F8012F11F88E
:10B0A000013F9A4206D1A142F7D1002070BC7047FF
:10B0B000541EEBE7D01A70BC704700BF844641EACB
:10B0C000000313F003036DD1403A41D351F8043B20
:10B0D00040F8043B51F8043B40F8043B51F8043B72
:10B0E00040F8043B51F8043B40F8043B51F8043B62
:10B0F00040F8043B51F8043B40F8043B51F8043B52
:10B1000040F8043B51F8043B40F8043B51F8043B41
:10B1100040F8043B51F8043B40F8043B51F8043B31
:10B1200040F8043B51F8043B40F8043B51F8043B21
:10B1300040F8043B51F8043B40F8043B51F8043B11
:10B1400040F8043B51F8043B40F8043B403ABDD280
:10B15000303211D351F8043B40F8043B51F8043B22
:10B1600040F8043B51F8043B40F8043B51F8043BE1
:10B1700040F8043B103AEDD20C3205D351F8043BB1
:10B1800040F8043B043AF9D2043208D0D2071CBF7D
:10B1900011F8013B00F8013B01D30B8803806046A6
:10B1A000704700BF082A13D38B078DD010F003031C
:10B1B0008AD0C3F10403D21ADB071CBF11F8013B8C
:10B1C00000F8013B80D331F8023B20F8023B7BE7DB
:10B1D000043AD9D3013A11F8013B00F8013BF9D206
:10B1E0000B7803704B7843708B78837060467047A0
:10B1F000F0B4860743D0541E002A3ED0CAB203469C
:10B2000002E014F1FF3438D303F8012B9D07F8D185
:10B21000032C2BD9CDB245EA05250F2C45EA05456F
:10B2200016D9A4F110073F0903F1200606EB071613
:10B2300003F1100242E9045542E902551032B242CC
:10B24000F8D104F00F040137032C03EB07130DD9D9
:10B250001E462246043A032A46F8045BFAD8221F07
:10B2600022F003020432134404F003042CB1C9B2E7
:10B270001C4403F8011B9C42FBD1F0BC70471446F0
:10B280000346C5E70FB400B5074983B004AB0868AF
:10B2900053F8042B8168019300F0A2F903B05DF824
:10B2A00004EB04B0704700BFBC98002000290CBF1D
:10B2B000022200224FF4806300F000B82DE9F04331
:10B2C0005D4C256883B00446884616461F4615B176
:10B2D000AB6B002B7ED0022E05D0012E00F2A98090
:10B2E000002FC0F2A680636EDA0735D521462846C6
:10B2F00003F03CF8216B41B104F14003994202D0C4
:10B30000284603F031F900232363B4F90C300022FE
:10B310001806A261626061D423F44A6323F0030338
:10B32000022EA3811FD10025616E002004F143028B
:10B3300043F00203A060C9074FF00100A38122601F
:10B34000C4E9042004D49B0502D4A06D03F03EFAA6
:10B35000284603B0BDE8F083A3899B05C6D4A06D41
:10B3600003F032FAC2E701AB6A462146284603F0F1
:10B370002FFAA3891843A081002F36D1009F3846A9
:10B3800003F09EFA8046002842D0A38943F0800350
:10B39000A381AB6B7BB3009AB4F90C30C4F8008086
:10B3A000BA421CBF43F40063A381012E04BF43F0E3
:10B3B0000103A3819BB213F00802C4E904871ED1E4
:10B3C000A260656E15F00105BDD00025284603B0CA
:10B3D000BDE8F083284603F025F87CE7216928467C
:10B3E00003F0C2F8B4F90C3096E7B8F1000FC6D0FC
:10B3F000AB6B002BCFD1284603F014F8CBE7DA076C
:10B4000004D57F420022A761A260DAE7A760D8E7EF
:10B41000DDF80090B94504D1B4F90C304FF0FF3598
:10B4200082E7484603F04CFA80460028F4D04F46A5
:10B43000ABE74FF0FF358BE7BC98002080EA0102B4
:10B44000844612F0030F4FD111F0030F32D14DF8A3
:10B45000044D11F0040F51F8043B0BD0A3F101325D
:10B460009A4312F0803F04BF4CF8043B51F8043B70
:10B4700016D100BF51F8044BA3F101329A4312F0E8
:10B48000803FA4F101320BD14CF8043BA24312F0EF
:10B49000803F04BF51F8043B4CF8044BEAD02346EC
:10B4A0000CF8013B13F0FF0F4FEA3323F8D15DF89E
:10B4B000044B704711F0010F06D011F8012B0CF866
:10B4C000012B002A08BF704711F0020FBFD031F8DE
:10B4D000022B12F0FF0F16BF2CF8022B8CF8002065
:10B4E00012F47F4FB3D1704711F8012B0CF8012BE8
:10B4F000002AF9D1704700BF0000000000000000E2
:10B5000090F800F06DE9024520F007016FF0000CA3
:10B5100010F0070491F820F040F049804FF000044B
:10B520006FF00700D1E9002391F840F000F1080026
:10B5300082FA4CF2A4FA8CF283FA4CF3A2FA8CF35E
:10B540004BBBD1E9022382FA4CF200F10800A4FAC5
:10B550008CF283FA4CF3A2FA8CF3E3B9D1E9042319
:10B5600082FA4CF200F10800A4FA8CF283FA4CF350
:10B57000A2FA8CF37BB9D1E9062301F1200182FA0A
:10B580004CF200F10800A4FA8CF283FA4CF3A2FA10
:10B590008CF3002BC6D0002A04BF04301A4612BA1E
:10B5A000B2FA82F2FDE8024500EBD2007047D1E921
:10B5B000002304F00305C4F100004FEAC50514F0B0
:10B5C000040F91F840F00CFA05F562EA05021CBF81
:10B5D00063EA050362464FF00004A9E7000000009B
:10B5E0002DE9F04FD7B01C46894617460546039013
:10B5F00003F0D8F8036816931846FFF781FF089404
:10B6000015901DB1AB6B002B00F00781D9F86410C9
:10B61000B9F90C20C80793B202D4990540F11F81F3
:10B620009E040AD4D9F8641042F4005321F4005166
:10B63000A9F80C30C9F864109BB21D0740F1B28024
:10B64000D9F81020002A00F0AD8003F01A020A2A6F
:10B6500000F0C98000239FED867B1093CDE92B334A
:10B660001793CDE919331B93189305932DAB2A93A8
:10B670009B463B78CDF81C908DED127B002B00F0A3
:10B680005982252B3C4602D11DE0252B03D014F80E
:10B69000013F002BF9D1E51B8DB1DDE92B320133E0
:10B6A0002A44072BCBF80070CBF80450CDE92B329D
:10B6B00000F3CA800BF1080B059B2B4405932378FC
:10B6C000002B00F0378200236678069398468DF8A9
:10B6D0008B3004F1010A4FF0FF392B250AF1010AE2
:10B6E000A6F120035A2B00F22A84DFE813F0AA0304
:10B6F000280428049C02280428042804A7022804FB
:10B700002804C602D2022804D702DC022804F6026A
:10B710006D026D026D026D026D026D026D026D02B1
:10B720006D02280428042804280428042804280476
:10B73000FB0228043C03F303FB02FB02FB02280488
:10B74000280428042804EE03280428049A00280466
:10B7500028042804500328047903280428049003AB
:10B760002804280428042804280428042804280479
:10B77000FB0228043C03C500FB02FB02FB02D103D1
:10B78000C50070002804B5032804C2039C00DE0332
:10B7900070002804500372002C02280428047C0244
:10B7A000280472004946039801F0A8FCA0B1D9F81A
:10B7B0006430D80704D4B9F80C30990540F1B78348
:10B7C0004FF0FF330593059857B0BDE8F08F48F070
:10B7D00020089AF8006081E7B9F80C3003F01A02EB
:10B7E0000A2A7FF437AFB9F90E20002AFFF632AFEC
:10B7F000D9F86420D20705D49B0503D4D9F85800A2
:10B8000002F0E4FF23463A464946039801F026FC3D
:10B810000590059857B0BDE8F08F039802F002FE3E
:10B82000F4E648F0100818F0200F00F06C83089C34
:10B83000073424F00703D3E9004503F10802089216
:10B8400028F4806300228CE12AAA0799039803F068
:10B850004DFF002841F076830DF1B40B2CE7D9F8A9
:10B86000580002F0B1FFB9F90C2093B2D8E600BF3E
:10B87000000000000000000043469F0640F12F83B7
:10B88000089C073424F00704D4E9000104F10802FD
:10B89000089204460D46002871F1000205DA2D22B7
:10B8A000644265EB45058DF88B2056AAB9F1FF3F40
:10B8B000049200F0B284012254EA050123F08008CA
:10B8C00040F05981B9F1000F40F01986002A40F08C
:10B8D000088513F0010356AF099302D0302307F80F
:10B8E000013D00230A930F9314931193099B9DF834
:10B8F0008B204B45B8BF4B46049312B1049B0133D8
:10B90000049318F002030B9302D0049B02330493B8
:10B9100018F084032C9C0E933FD1069B04995D1A6A
:10B92000002D3ADD102D2B9A29DD59462046209610
:10B930001023039C079EBB4604E0103D102D01F12F
:10B94000080118DD0132BA4F1030072ACDE92B204B
:10B95000C1E90073F1DD2AAA314620460C9303F0B9
:10B96000C5FE002840F03D84103D102DDDE92B2060
:10B970002DA90C9BE6DC209E5F4604468B460132D7
:10B98000AB4B2C44072ACDE92B24CBE9003500F33F
:10B99000FF849DF88B200BF1080B72B12B9A0132BA
:10B9A00001340DF18B000121072ACDE92B24CBE9CD
:10B9B000000100F318840BF1080B0B9B6BB12B9B60
:10B9C0000133023423A90222072BCDE92B34CBE922
:10B9D000001200F315840BF1080B0E9B802B00F076
:10B9E0003183099BA9EB0305002D37DD102D2B9A20
:10B9F000904B28DD59462046BB464FF0100937468C
:10BA00001C46079E04E0103D102D01F1080115DDD4
:10BA100001321030072ACDE92B20C1E90049F2DDBF
:10BA20002AAA3146039803F061FE002840F0D9832A
:10BA3000103D102DDDE92B202DA9E9DC3E462346E3
:10BA40005F4604468B4601322C44072ACDE92B245D
:10BA5000CBE9003500F3EF830BF1080B18F4807F7E
:10BA600040F080822B9B099ACBF80070013314447C
:10BA7000072B2C94CBF804202B9300F392830BF12B
:10BA8000080B18F0040F3BD0069B049A9D1A002D5A
:10BA900036DD102D2B9B21DD1026039FDDF81C8049
:10BAA00004E0103D102D0BF1080B17DD0133604A47
:10BAB0001034072BCDE92B34CBE90026F1DD2AAA7F
:10BAC0004146384603F012FE002840F06C85103DD8
:10BAD000102DDDE92B340DF1B40BE7DC0133544AB2
