:020000022000DC
:1060000000000120D5C50200FDC502007179020023
:1060100001C6020003C6020005C60200000000001F
:1060200000000000000000000000000007C60200A1
:1060300009C60200000000000BC602000DC60200E7
:10604000A98F02000FC60200A1970200CD9E020098
:10605000959A02000FC60200C9940200E998020056
:106060009D9E0200AD9E02000FC602000FC60200F8
:106070000FC602000FC602000FC602000FC60200C4
:106080000FC60200D17202000FC602000FC6020046
:106090006D7302000FC602007DB902000FC6020038
:1060A0000FC602000FC602000FC602000FC6020094
:1060B000A19802000FC602000000000000000000CE
:1060C0000FC60200B1980200C19802000FC602007C
:1060D0000FC602000FC602000FC60200000000003B
:1060E00000000000000000000000000000000000B0
:1060F00000000000000000000000000000000000A0
:10610000000000000000000000000000000000008F
:10611000000000000000000000000000000000007F
:10612000000000000000000000000000000000006F
:10613000000000000000000000000000000000005F
:10614000000000000000000000000000000000004F
:10615000000000000000000000000000000000003F
:10616000000000000000000000000000000000002F
:10617000000000000000000000000000000000001F
:10618000000000000000000000000000000000000F
:1061900000000000000000000000000000000000FF
:1061A00000000000000000000000000000000000EF
:1061B00000000000000000000000000000000000DF
:1061C00000000000000000000000000000000000CF
:1061D00000000000000000000000000000000000BF
:1061E00000000000000000000000000000000000AF
:1061F000000000000000000000000000000000009F
:1062000010B5054C237833B9044B13B10448AFF3F0
:1062100000800123237010BDE0A2002000000000D8
:106220005847030008B5034B1BB103490348AFF3BC
:10623000008008BD00000000E4A2002058470300D1
:10624000154B002B08BF134B9D46A3F5803A002148
:106250008B460F461348144A121A06F0D9FA0F4B10
:10626000002B00D098470E4B002B00D09847002001
:10627000002104000D000D48002802D00C4808F051
:1062800041FB06F0D5F92000290000F011FA06F0D4
:10629000BFF900BF0000080000000120000000005E
:1062A00000000000E0A200207CB9002005E9020007
:1062B000D5FA02000000000008B501F053FA0BF017
:1062C00073FE05A3D3E900230CF002F80CF0AEF93D
:1062D00008BD00BFAFF30080FCA9F1D24D62404081
:1062E0002DE9F04F2DED028BA34C83B00746FFF74D
:1062F000E3FF25888146002D00F027819F4DAB7874
:1063000013F0010F9E4B1B7814BF29262A26002B61
:1063100000F08E81238805EB43035B8908EE103A79
:10632000032BBAEECF8A40F2798118EE100A0BF0F7
:106330004DFE02460B468046894689A1D1E90001FF
:106340000BF0E4FC88A3D3E900230BF097FE84A3B1
:10635000D3E900230BF0BCFF42464B460BF0B8FFDD
:1063600041EC100B0BF018FB0BF01EFE80A3D3E9E1
:1063700000230BF083FE0CF031F92288814B07EEED
:10638000902A1B88F8EEE76A07EE903A7E4BF8EE0B
:10639000E77A93ED007AE6EE877AB0EE677A07EE59
:1063A000900AF8EEE77A77EE277A9FED787AF5EEA5
:1063B000C07AF1EE10FA40F1338177EE877AFCEE85
:1063C000E77A734917EE903A5B0001339BB25B08A2
:1063D00007EE903A0A230B70531CEA7881ED028A8B
:1063E0009BB2FAEECD7A06F001069A424FF0000019
:1063F0002380C1ED017A0E7398BF208003B0BDECFD
:10640000028BBDE8F08F634806F04CFA01A801F05A
:1064100031FA0028FAD1019A002A0DDBBBF1090FED
:1064200028D8DFE80BF005181E21424655598B8D00
:10643000AA2A1FD04FF0000BD846C346FFF73CFFF7
:10644000A0EB0900B842DED9BBF10A0F00F0828050
:106450006FF00100D2E7504B45F2AA511980552A3E
:10646000E7E74E4B1A8005E04C490B8803EB02230B
:106470000B80D5B20BF10108B8F10A0F0AF80B2016
:10648000DBD1FFF719FF3D4ADFF824A106466D0076
:106490004FF000099044FFF70FFF801B874280F008
:1064A0008980A94500F0A580D2E7D107C2D5354B38
:1064B000D8E73449DFF8E0C00B88BCF8000003EBF4
:1064C00002239BB258405B08ACF800000B80D1E778
:1064D000D307AFD5324BC5E7314932480B8803EBC0
:1064E00002239BB20380012D4FEA53030B80264900
:1064F00002D100230B60BDE72248B0F800C02A4853
:10650000634507D2BCF5874F16D9B3F5B45F13D2F4
:1065100003F5B443A3EB0C0307EE903A6B1E07EEB2
:10652000103AF8EEE77AB8EEC77AC7EE876AC1ED9F
:10653000006AC0ED006A9DE70368DBE7328099E7F7
:10654000338803EB0223338094E7AB46DFF82CA0BB
:10655000164E73E74FF0000893E700BFAFF30080DB
:106560009A99999999696340CDCCCCCCCCCC3540E3
:106570008FC2F528DCA5AC401EA4002014A3002087
:10658000A898002000A3002004A300200000B44627
:1065900020A4002084290300FEA2002010A30020D4
:1065A0000CA300200EA3002008A30020FCA20020C2
:1065B00012A3002001A801F05DF90028FAD1019A88
:1065C000002AFFF668AF19F0010F91B223D0BAF894
:1065D000003003EB0123174908889BB2AAF800306A
:1065E00043400B8008F8092009F101094D457FF46B
:1065F00052AF104A1049138809884B400F49098847
:106600004B4013800E4A12889A420E4B14BF002250
:1066100001221A7072E6AAF80010E3E70020ACE647
:10662000F4EEC77AF1EE10FAC8BF77EEC77AC6E685
:1066300023800DE7FEA2002010A300200EA300205F
:10664000FCA20020A898002010B5034B04460FCBF5
:1066500084E80F00204610BD20A40020014B012239
:106660001A70704738A400200378022B04D1054A21
:106670005E21406800F0A1BA012B02D1014A6221DB
:10668000F7E77047132A030038B5054C05462A463C
:106690000021204600F0E6FB1128F8D038BD00BFED
:1066A000A0290300014800F089BD00BFA029030014
:1066B000F0B58FB0464B474A09934FF48073CDE94C
:1066C0000B230A93444A4548072309A901F090F88F
:1066D00018B1434A902100F070FA4248424C434EB0
:1066E000434F05F01DFD434B1860204605F060FD4B
:1066F000414B01960121CDE90243042500231A46AE
:106700000846009505F078FD3C4B0121CDE9024398
:1067100000230846CDE900571A4605F06DFD4FF4F9
:106720000041002001F034FF18B12D4AA52100F0EE
:1067300044FA01F05BFE3248324D06F0B3F84FF0F8
:10674000A0434FF40002C3F818254FF08072C3F83D
:1067500018254FF00072C3F818250FCD09AC0FC4EF
:106760002B68294A2948236009A900F085FB18B144
:106770001B4ACE2100F021FA6420FFF785FFFFF7C6
:1067800091FF234806F08EF8224806F08BF84FF46C
:10679000B4746420FFF7A4FDB0B905A8FFF754FF57
:1067A000DDED067AFDEEE77A17EE903A93FBF4F210
:1067B00004FB1233DA1C062A9FBFDDED077A3B602B
:1067C000FDEEE77AC6ED007A05F09EFCE1E700BF3A
:1067D00039A4002060A5002069660200A8290300F2
:1067E000132A0300B4980020D098002034A400207D
:1067F00030A4002098B80020C4980020AA98002057
:10680000C82903008C2903005D660200A02903004B
:10681000DA290300E929030038B5054D044645F09F
:1068200001054FF47A40A847013CFAD138BD00BFBA
:10683000E02A03007FB505460E46144672B602F004
:10684000DDF801F0FFFE0028FBD13E4806F02AF8F3
:1068500041F201039D4264D006D8012D12D0314689
:10686000394806F01FF810E044F201039D425AD067
:1068700044F202039D42F2D122886168334806F057
:1068800011F802E0324806F00DF802F02FFC08B9CA
:1068900002F0F6FB0023ADF80C308DF80E3003A9A2
:1068A000012319208DF80D3002F02AFC03A91820CD
:1068B00002F026FC03A9172002F022FC192002F0A6
:1068C00023FD182002F020FD172002F01DFD4FF4DB
:1068D000FA70FFF7A1FF192002F0E8FC182002F07F
:1068E000E5FC172002F0E2FC3220FFF795FF1920AB
:1068F00002F00AFD182002F007FD172002F004FD47
:106900004FF4FA70FFF788FF192002F0CFFC18202F
:1069100002F0CCFC172002F0C9FCFA20FFF77CFF44
:10692000CCE70C48AFE7A568284602F0E7FA2368F1
:1069300001960093024663680748294605F0B2FFB6
:10694000A3E700BF1A2A0300B72A0300722A030034
:10695000332A0300502A03008D2A030007B502F0F2
:10696000C5FB08B902F08CFB0023ADF804308DF8AC
:10697000063001A9012319208DF8053002F0C0FB73
:1069800001A9182002F0BCFB01A9172002F0B8FBF6
:10699000192002F0B9FC182002F0B6FC172002F012
:1069A000B3FC4FF4FA70FFF737FF192002F07EFCBA
:1069B000182002F07BFC172002F078FC3220FFF751
:1069C0002BFF192002F0A0FC182002F09DFC1720DC
:1069D00002F09AFC4FF4FA70FFF71EFF192002F044
:1069E00065FC182002F062FC172002F05FFCFA2020
:1069F000FFF712FFCCE70369C1688B429DBF826835
:106A0000D21802F1FF3203F1FF3394BF501A581A23
:106A100070472DE9F041D0E902670446F61B406853
:106A2000964288461546384405D905F057FE3D4440
:106A3000E560BDE8F0813246AD1B05F04FFE2A4609
:106A400008EB0601606805F049FEF1E72DE9F8431F
:106A5000C5680646894617464FF000083469B36892
:106A60007068A54228BFE418013C621B5C1BBC4255
:106A700028BF3C46944228BF144649462844224633
:106A800005F02CFEB3682544AB4208BF00253F1B30
:106A9000A044A144F560E1D14046BDE8F883000080
:106AA00010B5114C114AA2610223C4E90433104B02
:106AB000E361A2644FF400730E4A2362E264002390
:106AC00010220D49A362E01D6362E362A365636562
:106AD000E365226505F0C2FF0849204605F0BEFFC8
:106AE0002023A37110BD00BFC0B80020E62A030018
:106AF00090AA002080AA0020EF2A0300F32A0300B6
:106B0000F8B5184C182300FB033503FB004025445F
:106B1000C46A012C0F46164611D003D3022C1BD099
:106B200000240AE02846FFF766FF864205D8324671
:106B300039462846FFF76DFF34462046F8BD284603
:106B4000FFF759FF8642344628BF0446224639469D
:106B50002846FFF75EFFF0E72846BDE8F840FFF75C
:106B600075BF00BFC0B8002073B50D4B1B7804463D
:106B70000D4616460BB9FFF793FF02A8002300F855
:106B8000013D00F09DFE324629462046FFF7B8FF42
:106B900004469DF8070000F0C3FE204602B070BD19
:106BA000C0B80020FFF77CBF10B511461C461A463E
:106BB0000020FFF7D9FF204610BD00B583B002903A
:106BC0000091019244F2010071466A46FFF732FEDD
:106BD00003B000BD2DE9F8430468054694F8200091
:106BE00002F06CFD04F11807FF264FF0FF394FF05B
:106BF0000008207AFF2802D002F060FD2672607A39
:106C0000FF2802D002F05AFD66722068431C03D0B0
:106C100002F004FBC4F8009084F80B800C34BC42F2
:106C2000E7D16868BDE8F84303F07AB82DE9F04190
:106C3000134DDFF850800E460024012705EB410577
:106C40002B5D5BB12B5D013BDBB22B552B5D93B90B
:106C500058F826301B683046DB6998474CB167B15D
:106C6000084B53F8263002215868BDE8F04103F084
:106C7000F3B80124E4E70027F0E7BDE8F08100BFA6
:106C800038B9002090AC002040680C4902798B5C38
:106C9000DBB2FF2B0DD0FE2B0DD0006803F5A873DF
:106CA00050F82330064850F82200984203D1FF23C1
:106CB0008B54002070470120704700BFA4AC002017
:106CC000ACAC00202DE9F84F012904460D46904652
:106CD000066804D95E4940F25B2005F0D1F80C2328
:106CE00003FB0563DB7A012B04D059494FF417707D
:106CF00005F0C6F896F82130022B40F0A4800C274E
:106D00006F43F3195B68984508D1F36913B9002004
:106D1000BDE8F88F626810799847F8E72046FFF7DA
:106D2000B3FF8346002840F090806368DFF830A10D
:106D30001B79FE220AF80320266896F8200002F04C
:106D400017FDD146B8F1000F1FD13744787A02F011
:106D50000FFD387A02F0F4FC63681B79FF220AF811
:106D600003200C2303FB0566C6F804802368DB6957
:106D7000002BCCD063681A79364B03EB4203022117
:106D80005955606803F03CF8C1E7B169884507D3FD
:106D900037441FFA81F8387A02F0EAFC787AD9E7AA
:106DA00005EB4507BF00F31960685A68914245D06A
:106DB000002A43D0904541D25B46032102F0EEFF0A
:106DC000D4F804A096F820B09AF80530032B04D824
:106DD000214940F2751005F053F8DAF80030F05907
:106DE00003F5A67A0C2303FB05639B7A1BB302F021
:106DF0000FFB02465146584602F082FC96F82000EE
:106E000002F09EFC63681B7909F8035063681A79E5
:106E1000124B43F822800C2707FB056700234246EC
:106E20002946606802F0BAFF387A02F089FC787A65
:106E300002F086FC95E702F0C7FADAE70379FF2251
:106E400009F80320E7E7082062E7112060E700BFA8
:106E5000FA2A030038B90020442B0300ACAC002010
:106E6000A4AC002003681B8B5A436423B2FBF3F2EB
:106E700092B2FFF727BF00002DE9F04F89B08A4694
:106E80000592044620B9C34940F2113004F0F8FFDE
:106E9000BAF1000F00F07981266896F82130002BB6
:106EA00040F0758100F07EFF08B1852821D102F005
:106EB0001DF900B3B84B1B6803F0F003302B20D151
:106EC0000023B64A00211370FF234FF0FF3286F8EB
:106ED0002030F172337273723260F17532757375EE
:106EE000F26006F1200002F0B5FB60B12046FFF72A
:106EF00071FE042518E002F0C3F80028DAD003255B
:106F000012E00123DDE705465AF825B0EBB2BBF1EC
:106F1000FF3F049300F0AE80276897F8211049B135
:106F200008252046FFF756FE284609B0BDE8F08F39
:106F30000125E9E70AEB05024FF00C0808FB05F80C
:106F4000137A029307EB08024FF001095160937224
:106F500003228DF818202268424406A9927A8DF8FF
:106F60001A90B2FA82F2520958468DF8192002F0AE
:106F7000C7F8E8B9029B47F808B0002B00F0EB8097
:106F8000BBF11F0F04D986494FF4F37004F078FF6A
:106F90004FF0A04209FA0BF3C2F80C354FF00C0980
:106FA00009FB05F909F10800384402F053FB08B168
:106FB0000425B6E709F10900384402F04BFB00282C
:106FC000F6D1B94499F8080002F0D2FB99F809000B
:106FD00002F0CEFB029B57F80800002B00F0CA809D
:106FE00002F016FA814657F8080002F0EDF90C237A
:106FF00003FB0573049993F808B063685A798A42D1
:10700000804606D86749029340F2751004F038FFB5
:10701000029B1B6805F150014A4603EB810158466B
:1070200002F06EFB0C2303FB0573D4F804B093F855
:1070300009909BF80530022B04D85A4940F275108C
:1070400004F01EFFDBF80010424601F5A47148462B
:1070500002F056FB0C2303FB05770123FB726368E8
:10706000514A1B79049902EB4303204600225A55EA
:10707000FFF728FE002D3FF45BAFDAF81020002365
:10708000B2F5805F01D3092B7CD1444A127812B14A
:10709000002B08BF01238DF8183000238DF819301C
:1070A0008DF81A306068414A07238DF81B30037948
:1070B000079306A902F046FD054600287FF431AF8C
:1070C0006368DAF810001B68D3F81015C9B2050F11
:1070D000C1F1200C0001A1F1200720FA01F805FA06
:1070E0000CFC48EA0C0825FA07F725FA01F948EAEA
:1070F0000708B9F1010F08BFB8F1000F08D32C49F8
:1071000040F2B120CDE9028904F0BAFEDDE902893E
:10711000C6F818806068CDE9028902F029FEDDE931
:10712000028901250095042342460221606802F08D
:1071300050FE0221606802F08FFE059BF3616368D8
:107140001C4A1B7986F8215042F823401A4AFF2135
:10715000D1540025E8E6BBF11F0F04D910494FF4C4
:10716000F37004F08DFE4FF0A04209FA0BF3C2F861
:10717000083513E702F028F9814657F8080002F0B5
:1071800047F934E7520801337AE70B25CCE60825A6
:10719000CAE600BFFA2A0300E80F00F0C0AC0020E6
:1071A000952B0300442B030038B900202D6C0200FE
:1071B000D82B030090AC0020A4AC00202DE9F047B0
:1071C000076897F82130044623B91B4940F29730ED
:1071D00004F056FE0026DFF868903D46B0464FF0BA
:1071E0000C0A63681B7909EB430303F80680EB7A0A
:1071F00073B1236828680AFB0633997AB1FA81F1E2
:10720000490902F029F9286802F0ACF8C5F80480B1
:107210000C357EB16368094A1B79FF21D15460683F
:1072200002F0A6FD606802F045FD022387F82130D8
:10723000BDE8F0870126D4E7FA2A0300A4AC0020B9
:1072400038B90020094A537891780133DBB299426A
:1072500008BF0023117899421FBF0370507818238C
:1072600003FB002014BF043000207047C4AC002092
:1072700073B5054602A8002400F8014D0E4600F043
:107280001FFB0DF10600FFF7DDFF90B106700A4B02
:107290009DF8062045605A709DF8070000F040FBFD
:1072A00024B9064B4FF48012C3F80021204602B0E7
:1072B00070BD0424F0E700BFC4AC002000E100E092
:1072C000024B4FF43C6043F001031847202C0300AD
:1072D000F8B51F491F4B0025C1F84051C1F8445172
:1072E000C1F84851C1F84C51C1F80051C1F80451DE
:1072F0001B684BB3D1F8044517490968641A24F098
:107300007F442F461A68A24209D8A41A15441A7C51
:10731000DE691AB11F74D3E905209047AEB90F4B4F
:107320000F4A197813788B4205D10133DBB2022B57
:1073300008BF0023137012780A4B43F822500A4BFF
:107340004FF48012C3F80021F8BD3346DAE700BFDE
:1073500000100140E4AD0020E0AD0020DCAD0020D5
:10736000DDAD0020D4AD002000E100E02DE9F74FB5
:107370009C4A9D49137809789C4D99423CD0013331
:10738000DBB2022B08BF0023137099491278994B86
:107390000F6853F822003B1823F07F4300220B6054
:1073A0002B6816461446944613B942B12B6006E08A
:1073B000196881420ED902B12B60091A19604FF089
:1073C00001082B68DFF834A200930027BEB9DFF86C
:1073D00034B260E0401A0C44D968C3F800C0D3F856
:1073E0001CE031B13A1922F07F42C3E90121DE618C
:1073F0001E4601227346D7E70026B046E1E7344631
:10740000F6697B4A63681268DFF8FCC1A068991AC4
:1074100021F07F41614500F2A580014421600122F5
:1074200022742A680023C4E90133E361002A40F092
:10743000A2802C60CAE75A1C9BF80210D2B291427B
:107440008BF8002004BF00228BF80020182202FBDA
:1074500003B32A6819799C68022974D003297ED065
:10746000012918D1217CB1B9DA6862601A69A26079
:107470005A69E2609B69A3615F4B1B78002BC0D007
:107480006160BEE79C4200F090809946DB69002B6A
:10749000F8D1002323749BF800309BF801209A4216
:1074A000C9D12B682FB9009A934202D1B8F1000FCD
:1074B00043D0002B41D0D3F800A0504D4C4BD5F811
:1074C00004751C68DFF844813E1B98F8003026F0F4
:1074D0007F4603369BB94FF48033C5F84433C5F873
:1074E0000433474B4FF400324FF00109C3F88021B9
:1074F0001A60C5F80090FFF7E3FE88F80090B245E7
:107500002CBF5444A41924F07F44C5F84045D5F855
:107510000435DB1B23F07F43E41B033324F07F445B
:10752000A3420AD9D5F80435C5F84035FFF7C8FE9F
:10753000334B4FF40032C3F800212F4B00221A7056
:1075400003B0BDE8F08F13469146A0E71174D269ED
:107550000123002AFAD1002B9DD02A609BE700234B
:107560001946F6E7D31A23F07F43834234BFC31A88
:107570000023236053E721681368994213D8591AEE
:107580001160E26155E7091AD8691A4638B1034615
:1075900018688842F7D3401A1860184613462160CD
:1075A000E061DC6112E71346F2E74C450DD1D36987
:1075B0002B6053B90E4801920121CAF808100360EC
:1075C0000D4B1970FFF77CFE019AE1692368C9F839
:1075D0001C1011B1086803440B602B689A4218BF55
:1075E000012756E7DCAD0020DDAD0020E4AD002032
:1075F000E0AD0020D4AD0020D0AD0020001001404F
:1076000000E100E0C4AC0020FEFF7F00D1AD00200F
:10761000F8B5194E194D1A4F4FF40033C6F88030A3
:1076200001244FF48033C5F84833C5F808336C6043
:10763000FFF746FEAC6000243C60FFF741FE114BB3
:107640001C70114B0B221C809A70104B1C60104B4D
:107650001C70104B4FF480121C70E023C6F8802180
:1076600086F814333260C5F8084586F81133D5F82A
:1076700004353B602046F8BD00E100E00010014009
:10768000E0AD0020D1AD0020C4AC0020E4AD00206E
:10769000DCAD0020DDAD0020074B9B784BB132B153
:1076A00028B10368187C20B959745A6170470720C3
:1076B00070470820704700BFC4AC00202DE9F74395
:1076C0001D4FBB7805460E4690469BB390B30429E8
:1076D0002ED9436973B3437C02A80024012B00F820
:1076E000014D0CBF8946A14600F0EAF80DF10600F5
:1076F000FFF7A8FDD0B101230370104B4560D3F80C
:107700000435C0E90498C0E902369DF806307B7064
:107710009DF8070000F004F924B9094B4FF48012DA
:10772000C3F80021204603B0BDE8F0830424EFE74E
:107730000724F7E70824F5E7C4AC00200010014057
:1077400000E100E0064A92783AB130B1426922B1D4
:10775000002202740221FFF78BBD0820704700BF92
:10776000C4AC0020014BD3F8040570470010014061
:107770000648074A03780749D35C012213B1043055
:1077800003F080B80C3002F047BE00BFF89800202C
:1077900050B90020ECAD002013B50478012C10D1B5
:1077A00004238DF8003043681B788DF80430FFF710
:1077B000DFFF0D4B1C700D4B1B686846984702B0ED
:1077C00010BD022C06D1C3688DF800400193FFF76D
:1077D000CFFFF0E7002CF2D102A8032300F8083D08
:1077E000024B1B68EAE700BFEDAD0020E8AD0020CA
:1077F000F0B51B4D064617469C460FCD89B06C462A
:107800000FC495E80F0084E80F0073690693337C7A
:107810008DF81CC0003318BF01238DF81430737C21
:107820001048002B14BF0E2300238DF81530F36889
:107830000293B368039333680193736800930A4B10
:107840001F600A4B00221A706946094A00F0E8FAE4
:1078500020B93368013301D0FFF78AFF09B0F0BDCA
:10786000282C0300F8980020E8AD0020EDAD0020A2
:107870009977020010B5044618B90749762004F03C
:10788000FFFA064B1A782AB1054A002012782270B6
:10789000187010BD0520FCE7482C0300EDAD00205A
:1078A000ECAD0020EFF30583C3F308032BB9EFF32E
:1078B0001480C04300F001007047012070470000B1
:1078C00070B50446FFF7EEFF012803D010494320AE
:1078D00004F0D6FAEFF3108672B60E4A90680123D0
:1078E00098B993600C4B0D4DD3F88010294011606E
:1078F000C3F88050D3F8841051604FF0FF32C3F8C2
:107900008420207006B962B670BD2370FAE700BF0C
:10791000942C030044B9002000E100E0FC06FFBD08
:1079200010B50446FFF7BEFF012803D009495120D6
:1079300004F0A6FA084B9A685AB154B9EFF31081D3
:1079400072B6064A18681060586850609C6001B9A9
:1079500062B610BD942C030044B9002000E100E0A1
:10796000024B1B680021986804F0B0BF24990020E6
:107970001EF0040F1CBFEFF309800AE0EFF308804C
:107980000549064A884201D8904202D88D464FF0F8
:107990000000034B184700000000012000E0002019
:1079A000A57902002DE9F347054601F027F800F01C
:1079B00049FE0028FBD12F4B2F4C9F6A2F4BE41A16
:1079C000E408240444F00104002D4ED0AA692C4997
:1079D000204600F0BBFFEB680193AB680093294998
:1079E000D5E90023204600F0D1FFEB69009326493A
:1079F000D5E90423204600F0BDFF1E4BDB6A980743
:107A000003D52249204600F09DFFDFF89490DFF86F
:107A100094A000264FF0010808FA06F33B4206D076
:107A200059F826201AB15146204600F08FFF013642
:107A30001A2EF1D1390605D50E4B15495A6B204641
:107A400000F084FF3A0405D50A4B12499A6B204690
:107A500000F07CFF104B1B68DB0700D500BE2846FA
:107A6000FEF77CFF02B0BDE8F0870C49204600F02D
:107A700069FFC2E700ED00E0D44703006C47030054
:107A8000E92C0300FE2C0300332D03008E2D030090
:107A9000DD2D0300FD2D0300F0ED00E05B2D030064
:107AA000182E0300D22D030050E8002F0B4640E8AB
:107AB000003C9CF0000FF7D11046704750E8003FA3
:107AC00043EA010240E8002C9CF0000FF6D110467A
:107AD000704750E8002F02EA010340E8003C9CF0A8
:107AE000000FF6D11046704750E8003F03EB01024B
:107AF00040E8002C9CF0000FF6D11046704750E88B
:107B0000003FA3EB010240E8002C9CF0000FF6D1EF
:107B1000104670470121FFF7D1BF0021FFF7D9BF01
:107B200010B50446002834D003681BB91A49FF2059
:107B300004F0A6F9636823B917494FF4807004F084
:107B40009FF9A36823B9144940F2011004F098F991
:107B5000E36823B910494FF4817004F091F9238A46
:107B600023B90D4940F2031004F08AF9D4E9012346
:107B700021689B1ADBB20A60013BDBB2FF2B226853
:107B800002D10020107110BD1168481C10600B70EC
:107B9000F2E70E20F7E700BF4033030037B5054694
:107BA00020B914494FF4927004F06AF902A8002435
:107BB00000F8014DFFF784FE2A68696813688B425C
:107BC00010D9591E116013F8014C2A8AEB6802FB88
:107BD00004342A68AB6811685B1A1179DBB29942E8
:107BE00038BF13719DF80700FFF79AFE204603B0D7
:107BF00030BD00BF4033030037B50C46054620B901
:107C0000104940F2471004F03BF924B90D494FF4F4
:107C1000A47004F035F902A8002300F8013DFFF735
:107C20004FFE2A681368591C1160EA68A41A2A8A50
:107C3000B4FBF2F41C709DF80700FFF771FE03B06F
:107C400030BD00BF4033030038B5084C04F10803D1
:107C50000546002818BF1C4623682BB11A6822600D
:107C60005B6828469847F7E738BD00BFF8AD0020AD
:107C700020B9054B01225A70FFF7E6BF012802D157
:107C8000014A9070F8E77047F0AD002020B9034B2F
:107C900001225A70FFF7D8BF704700BFF0AD002037
:107CA00038B50B4C237883B90A486360A36023611D
:107CB000E36001F02DF9054603F046FE08B901F036
:107CC0003DF901232370284638BD8525FBE700BF19
:107CD000F0AD0020717C020013B5154C237823B958
:107CE00014494FF4857004F0CBF8E36823B91149C7
:107CF00040F20B1004F0C4F802A8002300F8013D84
:107D0000FFF7DEFDE368013BE360E36853B903F08E
:107D10001BFE18B10749792004F0B2F801F02CF9E4
:107D20000023A3709DF80700FFF7FAFD02B010BD15
:107D3000F0AD002090330300012813B509D003D320
:107D400003281BD002B010BD134B0122C3F88020C2
:107D5000F8E702A80023114C00F8013DFFF7B0FD41
:107D600023780BB9FFF79CFFE3689DF80700013308
:107D7000E3600123A370FFF7D3FDE3E7074B1B7814
:107D800023B9074940F2452004F07AF801F0D6F80B
:107D9000FFF7A2FFD6E700BF00E100E0F0AD002052
:107DA00090330300034B187810B901221A70704702
:107DB0008520704704AE00201FB503788DF8003091
:107DC0004368019383688DF80830C3680393054ABC
:107DD000054B684653F8213052F82110984705B0FA
:107DE0005DF804FB08AE00200CAE00201FB5037840
:107DF0008DF800304368019383688DF80830C368BC
:107E00000393054A054B684653F8213052F8211078
:107E1000984705B05DF804FB08AE00200CAE0020CA
:107E2000F0B5194B067891F81DE043F82620174B62
:107E300094460A6943F82620154B03F806E00C46E1
:107E400007460FCC89B06D460FC594E80F0085E852
:107E50000F000496BEF1000F0AD0BCF1000F0D4ACE
:107E6000694608BF0022381D02F000FC09B0F0BDD1
:107E7000BCF1000F084A694608BF002207F10C0058
:107E800002F0C6F9F2E700BF0CAE002008AE0020F9
:107E900050B90020B97D0200ED7D020010B5044606
:107EA00018B90649312003F0EBFFA2682AB16369D3
:107EB0002168206998470023A36010BDE5330300C3
:107EC0000EB433B5059D044618B91249422003F09B
:107ED000D7FF63691BB90F49432003F0D1FF236823
:107EE0001BB90C49442003F0CBFF63681BB9094957
:107EF000452003F0C5FF3DB102AA06AB42F8043DA0
:107F00002946204600F06EF802B0BDE8304003B0CC
:107F1000704700BFE5330300826830B40468551C25
:107F20008560A154D0E901329A4202D330BCFFF7F8
:107F3000B5BF30BC704700002DE9F84F9946DDE928
:107F40000A431746824688460A460126BA420FD29D
:107F50004E4538BF4E4613F0010B01D164B90024E1
:107F60000125B9F1010F1AD909F1FF397D43F8E76D
:107F7000B2FBF7F20136E9E79B070ED5B9F1000F26
:107F80000CBF30252025A642EAD2013C29465046A6
:107F9000FFF7C2FF002CF6D1E1E72025F3E7B8FB9D
:107FA000F5F39F42E2D9DFF83890B8FBF5F350467D
:107FB00019F8031005FB1388FFF7AEFFB5FBF7F5C3
:107FC000002DF2D1BBF1000F02D00CB1A64201D3BB
:107FD000BDE8F88F20215046013CFFF79DFFF4E7F4
:107FE0002B3403002DE9F74F0E469046054620B985
:107FF000AC494FF4A27003F043FF6B6923B9A94960
:108000004FF4A37003F03CFF2B6823B9A54940F25D
:10801000471003F035FF6B6823B9A2494FF4A470F1
:1080200003F02EFF002E00F03A8116F8011B002904
:1080300058D0252940F0D180002702E047F0010701
:108040001646324612F8013B2D2BF7D0302B04D0C8
:108050002B2B05D147F00407F2E747F00207EFE7C3
:1080600000242A2B06F101021BD1D8F80030191D7B
:10807000C8F800101B6816461C4433782E2B1CD100
:1080800001364FF0000A314611F8012BA2F1300001
:10809000092814D80A2303FB0A23A3F1300A0E4649
:1080A000F1E712F8013CA3F130010929E5D80A21D2
:1080B00001FB0434303C1646D3E74FF0000A324649
:1080C00012F8011B01F0FB0068281646F8D0692958
:1080D00016D054D8582970D00ED825297DD03378A1
:1080E000002BA2D12B7B002B00F0D980284603B0B7
:1080F000BDE8F04FFFF7D2BE632968D06429EED106
:10810000D8F80020111DC8F80010D2F8009089EAB4
:10811000E972A2EBE9724FF0010B092A61DCD34549
:1081200038BFD3462CB1B9F1000F01DB790700D578
:10813000013CBA0702D5BAF1000F04D0FB0702D404
:10814000002C54D10024B9F1000F58DAC9F100090C
:108150002D212846FFF7E0FE07F00302022A05D191
:10816000BAF1000F02D1002C4DD10024CDE9004717
:1081700053460A2249462846FFF7DEFEAFE7732939
:1081800054D016D87029AAD1D8F800301A1DC8F8D2
:108190000020302128461C68FFF7BEFE78212846C3
:1081A000FFF7BAFE00220823CDE900322146102253
:1081B000E1E775292FD0782991D1D8F800100A1D50
:1081C000C8F80020CDE90047534610222CE0D8F82B
:1081D00000301A1DC8F8002019782846FFF79CFEC9
:1081E0007DE70A230BF1010B92FBF3F295E7A34520
:1081F000A9D220212846013CFFF78EFEA0E7780790
:10820000AAD52B21A5E7A345B0D230212846013CB1
:10821000FFF782FEA7E7D8F80010CDE900470A1D56
:10822000C8F8002053460A220968A4E7D8F80030AD
:108230001A1DC8F80020F907D3F8009012D54F4650
:10824000A7EB090B17F8011B41B9A345BFF447AFD2
:1082500020212846013CFFF75FFEF6E72846FFF79E
:108260005BFEEDE7B9F1000F17D0484604F068FC5B
:108270000746BC4200D954B909F1FF3919F8011F6A
:1082800000293FF42CAF2846FFF746FEF6E72021F1
:108290002846013CFFF740FEEBE74F46E9E703B015
:1082A000BDE8F08F3B3403007047000007B5044B76
:1082B0000093044A402300F032F803B05DF804FB59
:1082C000C982020011AE00202DE9F8438946144608
:1082D000B2B10F4B0F4E0325002743F00108224691
:1082E00009EB07010020FEF70BFC0744241A48B9EC
:1082F00033782BB14FF47A40C047013D02D135703D
:10830000BDE8F88301233370002CE8D1F8E700BF03
:10831000A034030010AE00207047FEF743BCF0B558
:1083200095B01C46164608460D4600F032FD1A9BD5
:108330000D93CDE9086400242346082205A92846A8
:108340000A948DF82C400C9400F04CFD079B02938E
:10835000BDF81830ADF80C30BDF81A30ADF80E305D
:108360009DF814308DF8114003F00302012A1DD14D
:10837000BDF81440059EC3F3C203C4F383148DF803
:108380001030A20008230EA9284600F02BFDC6F3EA
:10839000952608AB0093224602AB0EA9304600F0AA
:1083A0009DFB284600F0F9FC15B0F0BD022AF8D17B
:1083B000BDF81640C3F3C203A4098DF81030082796
:1083C000082C264628BF08263B4632460EA92846DA
:1083D00000F008FDA41B08AB02AA31460EA83744E2
:1083E00000F0E0FB002CEBD1DBE7000008B5FFF765
:1083F00094FF0421064800F0D7FA002803DA054963
:10840000412003F03DFD044B01225A7108BD00BF1D
:108410008C480300B43403000C990020037813F057
:10842000040216D003F00303012B03D0022B09D062
:10843000012070470A6800880232C0F383100244AA
:108440000A60F5E70B684288023303EB92130B6076
:10845000EEE71046704700002DE9F04F89B0064660
:10846000871C08A8484C009200230D4600F8113DD7
:10847000FFF726FA23682B60D4E90123134422680E
:1084800001339B1A04F21C4804F5836B04F214496F
:10849000BB421AD3009A0023002A6DD0012262F356
:1084A000010343F0040366F389132168A2689DF871
:1084B0000F000A4003320F4444F822302760FFF7D0
:1084C0002FFA012009B0BDE8F08F01214046FFF7E7
:1084D0000BFB5846FFF71EFB0DF1200A4846FFF73D
:1084E00019FB60684AF8100DA5682840033004EBBA
:1084F00080005146FFF792FF02460498002AF4D10B
:1085000005EA000304EB8303811CDB68059301305B
:10851000054004EB850503F00303012B0491ED688E
:1085200023D0022B08D0194901924FF4BF7003F0F9
:10853000A7FC019A154607E0BDF816309B090333E6
:108540002D0C01EB930304934846FFF7E6FA08B1BC
:10855000049B636029464046FFF7C6FAD4E901232D
:108560001344226801339B1A92E7BDF81430C3F319
:1085700083132D0C0B44E6E7022262F3010343F060
:10858000040366F39F5390E724AF002023350300D4
:108590000B4B0C48FF2210B59A600022C3F8182438
:1085A000C3E90022C3F81424012283F8202400F038
:1085B000A9FB044610B9044800F040FC204610BD59
:1085C00024AF0020044803007C35030030B50A4C7A
:1085D00071B10A4A0A49121BD20800239A4201D1FA
:1085E000002030BD31F82350854202D00133F5E739
:1085F000034654F83300F4E76C47030004480300D3
:10860000E0A20020094B013903EBC000032909D87F
:10861000DFE801F00A020406042070470079704781
:108620004079704700207047022070476C47030074
:10863000034BD3E90030C31A58425841704700BF7A
:1086400024AF00202DE9F04387B0FFF7F1FF064685
:10865000002840F0FC807F4DC5F81804BFF34F8F11
:108660006868AC6806AF47F8100D2040033005EB92
:1086700080003946FFF7D2FE029B18B1D5F81824C6
:10868000002A5FD004EA0302991C013305EB820241
:10869000234005EB8303D268DB68049302F00303F5
:1086A000022B0392029162D1BDF80E306A484FEA64
:1086B0009318B8F1500FC14628BF4FF0500969F325
:1086C0008F1309F10801ADF80E3000F033FB0746B7
:1086D000002800F0A78000F05CFB03A9002308221B
:1086E000384600F069FB029924EA01060136B6001B
:1086F000B14535D95FFA89F97EB3F6B2A9EB06091F
:10870000214003315FFA89F4B146544E05EB8101F3
:1087100008234A46384600F04FFB36B109F10803FA
:1087200022463146384600F047FB029B08F1030819
:1087300003EB98030293D5F81834002B4BD1D5F8EE
:1087400010445BE02A689A4204D86A60304607B059
:10875000BDE8F08304EA030088E740493446D7E7E0
:108760002140033108234A4605EB8101DAE7012B5A
:1087700058D1BDF80C303848C3F38311062928BFFF
:10878000062161F3891302318900ADF80C3000F045
:10879000D1FA0746002845D000F0FBFA0023082252
:1087A00003A9384600F008FB0026BDF80C20C2F3F0
:1087B0008312B31C96424FEA8303BCD202994A1C2F
:1087C00021400331029205EB81010422384600F07A
:1087D000F3FA0136E9E7384600F0DFFAFFF728FF41
:1087E00080F00100C6B2B1E7E3685B7923B123688A
:1087F00039461B6820469847E3681C68002CF3D173
:10880000384600F0CAFA06A800F8114DFFF758F8EC
:10881000D5F818340BB9029B6B609DF80700FFF781
:108820007FF8DBE7D5F8104454B90D4B0D480E49DD
:10883000C01AC008000440F0020000F083F8CDE741
:10884000236820469B689847E3681C68ECE700268D
:108850007CE700BF24AF00200448030030AF0020B5
:108860006C470300C4470300883503002DE9F74F28
:108870002F4C80460F46914601A9012218469B467F
:10888000D4F808A0FFF7E8FD00283DD0019D0026A0
:10889000A91C5E4506EB010240D100212548FFF7E7
:1088A00003F980F3100B244B244A4FEA18499B1A12
:1088B000B9EBD30F04D3224940F2A31003F0E0FA3E
:1088C0006B1C03EA0A0304EB830349EA0B42DA60F8
:1088D00005EA0A030333012114F8232068F3C502D3
:1088E00004F8232034F8232066F3891224F8232087
:1088F00054F8232067F39F2244F8232061F30102F8
:108900006FF3820204F8232094F820341BB1FFF7A0
:1089100099FE0028FBD103B0BDE8F08F0AEA0202FD
:1089200004EB820259F82630D3600136B1E700BF6C
:1089300024AF002040B30020044803006C4703002C
:108940002335030000231A46FFF790BF13B502AC8E
:10895000012344F8042D2246FFF788FF02B010BD22
:1089600007B5CDE9002302236A46FFF77FFF03B076
:108970005DF804FB1FB5CDE90123069B039301AA13
:108980000323FFF773FF05B05DF804FB1FB5CDE9C6
:108990000023069B0293079B03936A460423FFF779
:1089A00065FF05B05DF804FB30B5134AD2F81044FA
:1089B0000023214651B9C4682371D2F810445CB930
:1089C000C2F81004C2681160184630BDC9680D793C
:1089D0009D420AD00968EDE7E468C16824680C602C
:1089E000D2F81024D2681060EEE701330A2BE0D1F0
:1089F0004FF0FF33E8E700BF24AF002038B5094A45
:108A00000123D2F8104482F820341D4604B938BD41
:108A1000E3685D71236820465B689847E3681C68DB
:108A2000F4E700BF24AF002010B5037A052B0C46F5
:108A30000FD0437A23B1084A08492046FFF740FA8D
:108A400007492046FFF73CFA2046BDE81040FFF7F3
:108A500025BA002AF8D0F3E7D3350300D835030050
:108A6000002A030073B5C38804460D4633B1144A87
:108A700000921449144A2846FFF722FA217A052960
:108A80001CD0637A4BB1A088FFF7BCFD0F4B104997
:108A900053F820202846FFF713FA227A0D4BA088BE
:108AA00053F822600021FFF791FD0B49034632463F
:108AB000284602B0BDE87040FFF702BA02B070BDB0
:108AC000D3350300E3350300DB350300A035030095
:108AD000D835030008360300FB3503002DE9F043C9
:108AE00085B01F460C9D002306460C46904695F81F
:108AF0000C902B7329463846FFF7B4FFB8F1060FE8
:108B000009D8DFE808F00412181F28334000314666
:108B10002846FFF7D5F9002229463846FFF784FF9B
:108B200085F80C9005B0BDE8F083226831462846F0
:108B3000FFF7C6F9EFE7D4E9002331462846FFF7EF
:108B4000BFF9E8E7A36800933146D4E9002328463B
:108B5000FFF7B6F9DFE7E3680193A36800933146B6
:108B6000D4E900232846FFF7ABF9D4E72369029341
:108B7000E3680193A36800933146D4E900232846B3
:108B8000FFF79EF9C7E76369039323690293E368DC
:108B90000193A36800933146D4E900232846FFF7E8
:108BA0008FF9B8E708292DE9F84F80460E46174699
:108BB0001C4635D8002593F80C901D7319461046B5
:108BC000FFF750FFDFF88CA0DFF88CB0AE4229D958
:108BD00018F8052059462046FFF772F90135082D8F
:108BE000F4D11A49DFF874B02046FFF769F94FF065
:108BF000000A564524D918F80A507E2D17D92E227E
:108C000059462046FFF75CF90AF1010ABAF1080F4C
:108C1000EFD1012221463846FFF706FF84F80C9079
:108C2000BDE8F88F51462046FFF74AF9D6E703F032
:108C300031FD2844427812F0970FE0D02A46DFE752
:108C400003492046FFF73CF9DEE700BFCE350300BD
:108C5000CC350300CA350300C4350300D03503000A
:108C60002DE9F74F99469DF8303001938846174615
:108C7000054618B92249B62003F002F9EA8895F8AA
:108C800005B00BFB02FBABF1040BCB4503D81C4931
:108C9000C42003F0F5F83E68B5F806A006EB09021B
:108CA0005A4509F1040188BFABEB0906B1FBFAF4A0
:108CB0003E600AFB141144B9AAEB0107B74228BF72
:108CC00037462EB903B0BDE8F08F2D68013CF2E7BE
:108CD000019A043108EB0403681872B101463A4660
:108CE0001846F61B03F0FAFCB2453C442D68574683
:108CF0004FF0000128BF3746E3E73A461946F0E750
:108D000067360300FEF70CBFF8B546790146721EC0
:108D10000546002393422D6803D30024A64202D8BF
:108D2000F8BD0133F6E70F682846FEF765FF01340A
:108D30003946F3E72DE9F843CD1C068A0746FEF7CE
:108D40002DFF043E35440446B5FBF6F5F0B14FF473
:108D50008073EDB28380C680013D076081464FF08D
:108D60000008A84512D23846FEF718FF064648B15B
:108D700063790133637108F10108C9F800000760E5
:108D80008146EEE72046FFF7BFFF34462046BDE8A8
:108D9000F88301210430FEF7A7BE10B50121044677
:108DA0000430FEF7ACFE10F0FF0F04D12046BDE802
:108DB0001040FFF7A9BF10BD30B585B0144604AA16
:108DC000002542F8044D0095FFF74AFF039BA3429C
:108DD00003D00349F62003F053F805B030BD00BFBF
:108DE0006736030030B585B0144604AA012542F861
:108DF000044D0095FFF734FF039BA34204D00349C1
:108E00004FF4807003F03CF805B030BD67360300C6
:108E1000064B10B500241C70054B1C60BFF35F8F20
:108E20000449054800F018F8204610BDE8B30020BA
:108E3000ECB30020B8360300E0B3002082680023C2
:108E4000936082681361826853618268D36082682C
:108E5000536082681360704738B50D46044618B9F0
:108E60000849502003F00CF81DB90649512003F0C1
:108E700007F825602B6863606A68934204BF00238B
:108E8000636038BDCD36030010B5044618B90B49F0
:108E9000632002F0F5FF23681BB90849642002F043
:108EA000EFFF636843B1226891680B4463605268C6
:108EB000934204BF0023636010BD00BFCD360300A2
:108EC0000D4930B5A1F594720225914201D80020D8
:108ED0000EE08B1ADB1093FBF5F302EBC30452F8A0
:108EE0003330834205D802D204F10802EDE760680E
:108EF00030BD2146E9E700BF7438030008B5FFF72D
:108F0000DFFF024B002808BF184608BD36370300B4
:108F100010B5044618B90749A02002F0B1FF064B6E
:108F2000187920B901221C601A71587110BD852072
:108F3000FCE700BF2E3C0300F0B3002008B50B4B4C
:108F40001B791BB90A49B92002F09AFF094B1A682C
:108F5000D2075FBFE02283F8002301221A604FF09E
:108F600080430122C3F8182508BD00BFF0B30020DC
:108F70002E3C030000E100E008B5084B1B791BB94B
:108F80000749F32002F07CFF064B01221A604FF0E4
:108F90008042D2F81834DB03FBD408BDF0B30020C4
:108FA0002E3C03000C00004007B5154B1A687AB13F
:108FB00000221A601B680093009B4FF0804301223F
:108FC000C3F808230F4B587910B95A711B6898479A
:108FD0000D4B1A6882B100221A601B680193019B35
:108FE0004FF080430222C3F80823064B1B68012080
:108FF00003B05DF804EB184703B05DF804FB00BF55
:1090000000010040F0B300200401004000F1804066
:1090100000F5C040002382B0036003680193019B08
:1090200002B07047054B4FF0FF32072843F820206D
:1090300084BF1B1883F84820704700BFF8B3002096
:1090400002494FF4F37002F01BBF00BF952B0300E1
:109050001F2838B504460D4601D9FFF7F1FFA000DF
:1090600000F1A040D0F8003723F44033C0F80037B7
:10907000D0F8003743EA0543C0F8003738BD000098
:1090800010B5164C94F8583033BBFF21E218013369
:10909000202B82F83010F9D10021C8B2FFF7C2FFAF
:1090A00001310C29F9D1042200210D4803F0B0FB55
:1090B0000C4BE02283F8062340221A604FF4BE7066
:1090C000FFF7A4FF084B4FF00042C3F8042301232D
:1090D00084F85830002010BD0820FCE7F8B30020C9
:1090E0004CB4002000E100E000600040034B93F826
:1090F0005800003018BF0120704700BFF8B30020AF
:109100001F2870B504460D4604D941494FF49870A4
:1091100002F0B6FE3F4E96F85830012B04D03C4981
:1091200040F2311002F0ACFE25B939494FF4997084
:1091300002F0A6FE331993F93020013265D1AA78E6
:10914000002A54D0002356F8231001314FEA83023D
:1091500048D1311902F1804281F83030002102F506
:10916000C04246F82310D2F810052B78697820F415
:1091700098101B04090520F4F85001F4801103F441
:109180004033C2F810050B432102D2F8100501F458
:10919000F8510B430343C2F810356B78012B4FF0A5
:1091A000010528D11F2C01D9FFF74AFF4FF0A0433A
:1091B000A540C3F808551F2C01D9FFF741FF04F55E
:1091C000E0724FF0A043032143F82210E208124955
:1091D000012304F0070403FA04F48B5C1C438C5451
:1091E000002003E00133082BADD1042070BDFE2226
:1091F00083F83020D1E71F2C01D9FFF721FF4FF072
:10920000A043A540C3F80C55D5E70820EEE700BF02
:10921000813C0300F8B300204CB400201F28F8B5AF
:10922000044604D91D494FF4B47002F029FE1C4DC8
:109230002B1993F93030013304D1184940F26910E9
:1092400002F01EFE291991F83000072809D8FFF70F
:10925000E9FE91F93030134A03F5A273002142F878
:1092600023102544FF23104F85F83030E60804F022
:10927000070301259D40BB5D2B420ED01F2C01D959
:10928000FFF7DEFE4FF0A04304F5E074022243F83E
:109290002420BB5D23EA0505BD55F8BD813C0300D4
:1092A000F8B30020006000404CB400201F2838B5FF
:1092B000054604D912494FF4BE7002F0E1FD114C8D
:1092C000621992F93020013204D10D4940F27D102B
:1092D00002F0D6FD631993F83030072B04D8084903
:1092E0004FF4BF7002F0CCFD1F2D01D9FFF7A8FE8F
:1092F000012303FA05F54FF0A043C3F8085538BD24
:10930000813C0300F8B300201F2838B5054604D976
:1093100012494FF4C37002F0B3FD114C621992F977
:109320003020013204D10D4940F2871002F0A8FD2F
:10933000631993F83030072B04D808494FF4C470F0
:1093400002F09EFD1F2D01D9FFF77AFE012303FADB
:1093500005F54FF0A043C3F80C5538BD813C030020
:10936000F8B300201F2838B5054604D914494FF436
:10937000CD7002F085FD134C631993F93030013341
:1093800004D10F4940F29B1002F07AFD631993F863
:109390003030072B04D90A494FF4CE7002F070FD2B
:1093A0002C4494F930309B0003F1804303F5C04313
:1093B000D3F8102542F00302C3F8102538BD00BFD2
:1093C000813C0300F8B300201F2838B5054604D9B6
:1093D0000D4940F2B91002F053FD0C4C631993F89B
:1093E0003030072B04D908494FF4DD7002F048FDF6
:1093F000601990F930000C308000C0B200F180405C
:1094000000F5C04038BD00BF813C0300F8B3002028
:109410001F2838B5054604D90D494FF4E37002F012
:109420002FFD0C4C631993F83030072B04D90849F1
:1094300040F2C71002F024FD601990F93000183096
:109440008000C0B200F1804000F5C04038BD00BFD0
:10945000813C0300F8B300201F2870B506460D4676
:1094600004D917494FF4E97002F00AFD154CA3190D
:1094700093F93030013304D1114940F2D31002F096
:10948000FFFCA31993F83030072B04D90C494FF493
:10949000EA7002F0F5FC3444003594F930304FEABC
:1094A000830303F1804303F5C04318BF0125D3F8BC
:1094B000101521F4801141EA0551C3F8101570BD53
:1094C000813C0300F8B300202DE9F04F87B0002461
:1094D0005B4A5C4E5C4D039401211368A2F5C040C9
:1094E000012B80B206D1D6F804330B4202D0FFF72D
:1094F0008DFD0C430432AA424FEA4101EDD1534B9A
:109500001B68012B0AD14FF4BE70FFF77FFD4FF0AF
:10951000A04344F00044D3F81035039314F0FF0F38
:109520001AD04B4F00250126344210D0AB0003F176
:10953000804303F5C043D3F81005D3F8101557F84E
:109540002530C0F30420C1F3014103B19847013530
:10955000082D4FEA4606E7D1002C6EDA00224FF0C4
:10956000FF33CDE904233A4F4FF0000A56464FF03F
:10957000A04907EB0A0393F95040631C46D0E4B2BC
:10958000012224F0C00504F0070B02FA0BFBEB08E4
:1095900006AAD11811F8042C12EA0B0F36D07A194A
:1095A000A40992F9302057F82280B8F1000F0AD1AF
:1095B000032C2BD10DF1100C1CF8030040EA0B001A
:1095C0000CF8030001E0032CF4D01F2D03D9019106
:1095D000FFF736FD019911F80C1C05F5E07311EA4F
:1095E0000B0F59F82330C3F3014320D0022B0DD1C8
:1095F000032C05D121462846FFF72AFD0136F6B295
:10960000B8F1000F02D021462846C0470AF1010AEE
:10961000BAF1040FADD186B14FF0A043039AD3F84D
:1096200010359A4209D00393049B05939CE7032BC2
:10963000ECD1032CE4D10221DDE707B0BDE8F08FC7
:109640000061004000600040206100407C610040FB
:10965000F8B300202DE9F74F4FF00009154D164ED5
:1096600007464FF0040AC8465FFA89FB01240DF152
:10967000070004FA0BF48DF80780FEF721F92C425D
:1096800008D0336814EA030201BF2343336087F82C
:1096900000B092469DF80700FEF742F9BAF1000FBC
:1096A00003D0A54309F10109DED1504603B0BDE85E
:1096B000F08F00BFFFFF010054B4002037B5012533
:1096C0008540C5F31003A3B10B4B02A80024C3F8D7
:1096D000085500F8014DFEF7F3F8084A9DF8070019
:1096E000136823EA05051560FEF71AF9204603B052
:1096F00030BD0720FBE700BF00F0014054B400205C
:1097000010B5A1B19AB101238340C3F3100484B111
:109710000A4C246823420ED0C00000F1804000F5BE
:10972000F830C0F81015C0F81425002010BD0E2028
:10973000FCE70720FAE70820F8E700BF54B4002050
:10974000012303FA00F0430C5B044BB918B1064B3C
:109750001B68184206D0054BC3F80405002070476B
:10976000072070470820704754B4002000F00140E3
:10977000012303FA00F0430C5B044BB918B1064B0C
:109780001B68184206D0054BC3F808050020704737
:10979000072070470820704754B4002000F00140B3
:1097A00010B5054C22681AB90449512002F068FB33
:1097B0002368BDE81040184758B40020DA3C030085
:1097C00037B50D4630B90F49772002F059FB00201C
:1097D00003B030BD0C4B9842F9D102A8002300F829
:1097E000013DFEF76DF8094B1C7914B901221D608B
:1097F0001A719DF80700FEF793F8002CE7D01120AE
:10980000E6E700BFDA3C03000020004058B4002027
:109810000023435082B043580193019B02B070472C
:1098200070B5D0F8103105460C4653B14FF488712D
:10983000FFF7EEFF63795A0703D523680BB10120C8
:109840009847D5F814315BB14FF48A712846FFF779
:10985000DFFF63791B0703D523680BB1022098470C
:10986000D5F81C315BB128464FF48E71FFF7D0FF5D
:10987000607910F0100002D1236803B19847D5F841
:10988000043163B14FF482712846FFF7C1FF012311
:10989000237123681BB10320BDE87040184770BDD9
:1098A00001490248FFF7BCBF60B4002000C001407E
:1098B00001490248FFF7B4BF68B40020001002401D
:1098C00001490248FFF7ACBF70B4002000200240FD
:1098D00000F1804000F5E040002382B0036003689F
:1098E0000193019B02B07047F0B5514B514C1B687E
:1098F00085B0DBB14FF4827094F82E20FFF7E8FFBB
:1099000012B194F82F30A3B1636802932389ADF8A4
:109910000C30E36800218DF80410002B44D123742F
:10992000236801A89847002384F82F3094F82E303C
:1099300003B3414B1B68EBB14FF48070FFF7C8FFD6
:1099400094F82D20638B91B28B4238D95B1A218910
:109950009BB26383CB1A616801EB4301374BC3F8B9
:109960002C16C3F830264FF48270FFF7B1FF344B4A
:1099700001221A60334B1B685BB14FF48870FFF70C
:10998000A7FF002304A82374022300F80C3D2368DA
:1099900098472D4B1B6813B34FF48A70FFF798FF5D
:1099A0000023237405B0F0BD208B608363602081A9
:1099B000E160002AB4D1214B01221A60B0E7D2D174
:1099C000E368012184F82F103BB1002161831B491A
:1099D000C1F82C36C1F83026C5E76383C3E7666952
:1099E0004FF000470125002EDCD0B6FA86F227FAA8
:1099F00002F34632920026EA030602F1804303F5A1
:109A0000E0431B68002BEED01046FFF761FFA2F584
:109A10008C72D30882F00402C2F380028DF8083001
:109A20008DF804508DF80920236801A89847DAE7DB
:109A30000471004078B400200071004000700040C4
:109A400004700040107100401471004002494FF44E
:109A5000F37002F015BA00BF952B03001F2810B554
:109A6000044601D9FFF7F2FF012303FA04F44FF093
:109A7000A043C3F80C4510BD1F2810B5044601D9FA
:109A8000FFF7E4FF012303FA04F44FF0A043C3F807
:109A9000084510BD13B54FF04023D3F818310BB370
:109AA000114B124C00221A601B680193019B236822
:109AB00023B90F494FF4277002F0E2F9E07FFF2845
:109AC00003D0A37F5BB1FFF7C9FF00236377237245
:109AD000D4E90031074802B0BDE810401847FFF74D
:109AE000CBFFF2E702B010BD18410040A8B400203F
:109AF000373D0300B0B400202DE9F74300240646AB
:109B00000F4600F5A0754FF48038A14604F15000CF
:109B10002B68800080B26BB1D6F8043308FA04F2E7
:109B20001A4207D0C5F800902B680193019BD7E932
:109B3000003198470134042C05F10405E6D103B047
:109B4000BDE8F0832DE9F347544B077915460268C9
:109B50009A4204460E4603D15149482002F090F93A
:109B60001EB94F494A2002F08BF91DB94C494B20D0
:109B700002F086F94B4A0C2303FB072390461B7A1D
:109B8000002B40F089802368444A93420FD002F5AD
:109B9000805293420BD002F58052934207D002F5D7
:109BA0008032934203D002F58052934202D1B378BF
:109BB000032B03D93A495F2002F062F90C237B435F
:109BC00008EB030248F803507368536000221546FF
:109BD00060792168D3B2984202F1010254D8F57835
:109BE000AB1E4FEA113A012B4FFA8AF906D96B1FC7
:109BF000022B03D92C496B2002F042F9B9F1000F76
:109C0000AEBF09F160430AF00F03284A28484FEA23
:109C10004515EDB2AABF03F56143D55483F800534F
:109C200023681B0B59B24909012203F01F0302FAF2
:109C300003F340F8213020687378D0F8041503F05E
:109C4000030321F003010B43C0F804352068B37807
:109C5000D0F8081503F0030321F003010B43C0F80B
:109C6000083520683378D0F8101503F00F0321F081
:109C70000F010B43C0F810350C2303FB07870020AE
:109C80003A7202B0BDE8F0879B0003F5A073CD5097
:109C9000CB580193019B9BE70820F2E7008000402E
:109CA000883D0300CCB40020D53D030014ED00E056
:109CB00000E100E038B50B4C02790C2101FB0242B7
:109CC0000546127A012A03D007498F2002F0D8F8FE
:109CD0002B6801221A602B790C2202FB034302221B
:109CE0001A7238BDCCB40020883D030038B50A4C48
:109CF00002790C2101FB02420546127A1AB9074982
:109D0000972002F0BDF82B6801221A612B790C21F3
:109D100001FB03431A7238BDCCB40020883D030018
:109D200038B503681B0B5AB20121520903F01F0317
:109D300001FA03F320320C4941F822300368002570
:109D4000D3F80022C3F8005203684FF0FF320446F4
:109D5000C3F80823FFF7CAFF2379044A0C2101FB4B
:109D600003231D7238BD00BF00E100E0CCB4002029
:109D700010B5084A03790C2101FB032304461B7A22
:109D80001BB90549B32002F07BF823680122DA6091
:109D900010BD00BFCCB40020883D030073B54FF464
:109DA00080348C4005688BB101F150039B00002684
:109DB000EE50EB580193019B0368C3F8044303681A
:109DC00001F5A87143F8212002B070BDC5F8084321
:109DD000F5E7F0B407689DF810C0D7F8004240F2EC
:109DE00001158D4024EA0504C7F800420568D5F83E
:109DF00000422343C5F80032F0BC6346FFF7CEBFF4
:109E000037B5134A03790D460C2101FB03230446A1
:109E10001B7A1BB90F49FB2002F032F86379AB4281
:109E200003D80C49FC2002F02BF805F150039B00ED
:109E300022689BB20021D150D3580193019B236823
:109E40004FF48031A940C3F8041303B030BD00BF04
:109E5000CCB40020883D030038B50E4A03790D4686
:109E60000C2101FB032304461B7A23B90A4940F263
:109E7000071002F005F86379AB4204D806494FF4A5
:109E8000847001F0FDFF23684FF48031A940C3F8CE
:109E9000081338BDCCB40020883D030001490248B6
:109EA000FFF72ABECCB400200080004001490248E0
:109EB000FFF722BED8B4002000900040002343509A
:109EC00082B043580193019B02B07047F0B5504CEB
:109ED000236887B023B94F4940F2452001F0D0FFF5
:109EE0004D4AD2F824311546A3B14FF49271104671
:109EF000FFF7E4FFD2F8043163B9A368C2F808336E
:109F00000223A360A368C2F80433012313625361E0
:109F100007B0F0BDD5F80431002B49D03F4F3E4883
:109F20004FF48271FFF7CAFF0FCF01AE0FC63B6837
:109F3000336094F82E307BB1237B012B0CBFD5F816
:109F40003C25D5F84C250292022B334B0CBFD3F89D
:109F50003C35D3F84C3503934FF4B0712E48FFF7DE
:109F6000ADFF4FF4AE712C48FFF7A8FF94F83030E6
:109F700013B194F82E303BB1274B0022C3F80022D6
:109F8000A260274AC3F80823234AD2F8C434C2F88F
:109F9000C4349A0736D501238DF8003094F8303058
:109FA0000BB984F82F30D4E9003168469847AFE701
:109FB0004FF4A4711848FFF781FF237B83B9174F33
:109FC0000FCF01AE0FC63B68336094F83030002BE2
:109FD000DAD1C5F80032A360114BC5F80833D3E7D6
:109FE0004FF40073C5F8003240F20223A36003F17E
:109FF000CE73C5F80833A368C5F804330123AB60FA
:10A000002B6285E713F0040318BF0223C4E700BFE7
:10A01000E4B400201F3E030000300040F0B40020F4
:10A0200002029C010023435082B043580193019BDC
:10A0300002B070470A4610B54FF48E71FFF7F2FF79
:10A04000136A9168C95C136A01331362C0F81C1566
:10A0500010BD08B502464FF492710068FFF7E2FFA9
:10A060004FF484711068FFF7DDFF136801221A6056
:10A0700008BD10B58B690A464FF4847123B9FFF708
:10A08000D1FFD0F8183510BDFFF7CCFF536AD16867
:10A09000D0F81805C854536A01335362F3E700003F
:10A0A00002494FF4F37001F0EBBE00BF952B0300A3
:10A0B0001FB501238DF80030044BCDE90110D3E921
:10A0C00000126846904705B05DF804FB18B5002003
:10A0D00030B54D4AD2F8043313F4007F85B01546ED
:10A0E0004FD0D2F82431002B4BD04FF49271104650
:10A0F000FFF798FF4FF40173C2F80833434B93F80E
:10A10000291009B9012151603F4902228DF8002030
:10A11000D1F88024C1F8802403929A690292DA6807
:10A1200001920022C3E906226846D3E90012904753
:10A130003548D0F81C315BB134490A6A4B699A4200
:10A140000A464CD291F82830002B48D1FFF772FF15
:10A150002D4AD2F8443193B14FF4A2711046FFF763
:10A1600061FF2A4B93F8291009B1012111609A6906
:10A170002AB100229A61586AD968FFF799FF05B0A1
:10A1800030BDD5F804335B07D2D5D5F80831002BA4
:10A19000CED01E4C1C482146FFF76BFF636AA269B4
:10A1A0009A422346C4D1E26952B12369E168E3606F
:10A1B0000023606AA261E3616362FFF779FFB7E79A
:10A1C00094F829200AB901226A600F4A4FF40171FC
:10A1D000C2F8081300229A61586AD968EDE74FF473
:10A1E0008E710948FFF71EFF51690029B0D0002386
:10A1F000029191688DF80030019153616846D2E96F
:10A2000000139847A4E700BF0020004018B50020C5
:10A210002DE9F84F054692460C4619B97749AA2010
:10A2200001F02EFE764B2E792C2202FB0632984648
:10A2300092F82A20002A40F0DD8072492868FFF752
:10A24000BFFA0746002840F0D780D4F80090B9F153
:10A25000FF3F18D0B9F11F0F01D9FFF721FF4FF0D1
:10A26000A043012202FA09F2C3F80825D4F800B08D
:10A27000BBF11F0F994601D9FFF712FF0BF5E07BE9
:10A28000032349F82B30D4F80490B9F1FF3F0BD0E9
:10A29000B9F11F0F01D9FFF703FF09F5E0794FF07E
:10A2A000A043002243F829202B68A269C3F8242583
:10A2B000217D637D2A680B43C2F86C35D4E9002107
:10A2C0002B68C3F81415C3F80C25237D012B35D159
:10A2D000D4F80890B9F1FF3F0BD0B9F11F0F01D9A5
:10A2E000FFF7DEFE09F5E0794FF0A043002243F8C6
:10A2F0002920D4F80C90B9F1FF3F18D0B9F11F0F05
:10A3000001D9FFF7CDFE4FF0A043012202FA09F276
:10A31000C3F80825D4F80CB0BBF11F0F994601D93A
:10A32000FFF7BEFE0BF5E07B032349F82B30D4E9A1
:10A3300002212B68C3F80815C3F810252C2373439A
:10A3400008EB0302C2F804A0226948F80320BAF11E
:10A35000000F3CD04FF48E712868247FFFF762FE17
:10A360004FF4A2712868FFF75DFE2B68264AC3F8F8
:10A3700004232B684FEA133AA31E012B4FFA8AF9E4
:10A3800006D9631F022B03D920496B2001F078FD09
:10A39000B9F1000FACBF09F160431D4B4FEA441403
:10A3A000B8BF0AF00F0AE4B2AABF03F5614303F88D
:10A3B0000A4083F800432B681B0B5AB2012103F0BB
:10A3C0001F0301FA03F35209124941F822302B68A6
:10A3D0000422C3F800252C2303FB06830022C3E9D3
:10A3E000062283F829205A61012283F82A20384660
:10A3F000BDE8F88F0827FAE71127F8E7703E030059
:10A4000018B50020D1A0020080000200D53D030055
:10A4100014ED00E000E100E02DE9F843474E057936
:10A420002C2303FB0563074693F82A30012B88464B
:10A43000144604D0424940F2691001F021FDB8F100
:10A44000000F04D13E494FF4B57001F019FD24B955
:10A450003B4940F26B1001F013FD2C2303FB056315
:10A46000596821B13B684FF40172C3F808232C23CB
:10A4700003FB05639A6952B1DA69002A3FD021B122
:10A480003B684FF40172C3F80423112035E09C614E
:10A49000C3F80C805A62DA612C2303FB056393F83E
:10A4A00029301BB912B93846FFF7D3FD4FF02C09FC
:10A4B00009FB05683868D8F80430002B35D14FF413
:10A4C000A271FFF7AFFDC1463868D0F82431D0F84B
:10A4D0000821D0F84441BAB90CB9002BF4D02C2291
:10A4E00002FB05650022AA6123BB2CBB95F829104D
:10A4F0003B680122B9B11A600020BDE8F883C3F8B7
:10A500001080DC610122C7E7002BE8D1002CE6D1E6
:10A510004946FFF7AEFDD8F82430D8F818209A4203
:10A52000D2D82346DBE75A60E6E74FF40173C0F860
:10A530000433E1E70320E0E70F20DEE718B5002051
:10A54000703E03000023435082B043580193019BA7
:10A5500002B0704702494FF4F37001F091BC00BFA4
:10A56000952B03001FB501238DF80030044BCDE976
:10A570000110D3E900126846904705B05DF804FB6E
:10A5800044B500207FB5374AD2F82461002E48D068
:10A5900010464FF49271FFF7D5FF02238DF800307B
:10A5A000D2F88034C2F880340393D2F83C35029359
:10A5B0002D4BDA6801920022C3E906226846D3E9EE
:10A5C00000129047274AD2F844317BB14FF4A27170
:10A5D0001046FFF7B7FF244B996939B10021C3E951
:10A5E0000611D968D2F83C05FFF7BCFF1D4AD2F826
:10A5F0002031A3B14FF490711046FFF7A3FF1A4B1F
:10A60000596961B1D2F84C150291002299688DF810
:10A61000002001915A616846D3E90012904704B0C6
:10A6200070BDD2F81031002BCCD04FF48871104699
:10A63000FFF788FF0C4BD2F83C0599698842C1D1DD
:10A64000DC69D96864B1D2F8005225F02005C2F85F
:10A6500000521A699C61DA60DE61FFF783FFB1E79F
:10A660009C61FAE70020004044B500202DE9F84F36
:10A67000054692460C4619B97B49CD2001F000FCF5
:10A680007A4B2E79242202FB0632984692F820203B
:10A69000002A40F0E58076492868FFF791F80746E0
:10A6A000002840F0DF80D4F80090B9F1FF3F18D0C7
:10A6B000B9F11F0F01D9FFF74DFF4FF0A043012261
:10A6C00002FA09F2C3F80825D4F800B0BBF11F0F55
:10A6D000994601D9FFF73EFF0BF5E07B032349F8CC
:10A6E0002B30D4F80490B9F1FF3F0BD0B9F11F0F14
:10A6F00001D9FFF72FFF09F5E0794FF0A0430022C1
:10A7000043F829202B68A269C3F82425217D637DA5
:10A710002A680B43C2F86C35D4E900122B68C3F8E1
:10A720000C15C3F81425237D012B35D1D4F80890DE
:10A73000B9F1FF3F0BD0B9F11F0F01D9FFF70AFFA5
:10A7400009F5E0794FF0A043002243F82920D4F81E
:10A750000C90B9F1FF3F18D0B9F11F0F01D9FFF7E5
:10A76000F9FE4FF0A043012202FA09F2C3F80825CE
:10A77000D4F80CB0BBF11F0F994601D9FFF7EAFEE0
:10A780000BF5E07B032349F82B30D4E902212B6839
:10A79000C3F80815C3F810252423734308EB0302FC
:10A7A000C2F804A0226948F80320BAF1000F46D08D
:10A7B0004FF488712868247FFFF7C4FE4FF490712E
:10A7C0002868FFF7BFFE4FF492712868FFF7BAFEC2
:10A7D0004FF4A2712868FFF7B5FE2B68254AC3F82D
:10A7E00004232B684FEA133AA31E012B4FFA8AF970
:10A7F00006D9631F022B03D91F496B2001F040FBD0
:10A80000B9F1000FACBF09F160431C4B4FEA44148F
:10A81000B8BF0AF00F0AE4B2AABF03F5614303F818
:10A820000A4083F800432B681B0B5AB2012103F046
:10A830001F0301FA03F35209114941F822302B6832
:10A840000822C3F80025242303FB06830022C3E962
:10A8500006225A61012283F820203846BDE8F88F8D
:10A860000827FAE71127F8E7C13E030044B50020A6
:10A8700085A5020010030200D53D030014ED00E0A1
:10A8800000E100E02DE9F041484E0479242303FB68
:10A890000463054693F82030012B8846174604D000
:10A8A00043494FF4B77001F0EBFAB8F1000F04D14F
:10A8B0003F4940F26F1001F0E3FA27B93C494FF4E9
:10A8C000B87001F0DDFA2B790BB9FF2F04D93849A4
:10A8D00040F2711001F0D4FA08F06043B3F1005F68
:10A8E00061D1242303FB0463596821B12B684FF421
:10A8F0000472C3F80823242303FB04639A6952B14A
:10A90000DA69002A3DD021B12B684FF40472C3F8F4
:10A910000423112033E09F61C3F80C80DA614FF407
:10A9200088712868FFF70EFE4FF4A2712868FFF7C0
:10A9300009FE2B68C3F83485C3F838752B682ABB29
:10A9400001221A602A792B68242101FB02614968DF
:10A9500019BBD3F81041D3F84411D3F8240114B92A
:10A9600009B90028F5D0242303FB0266002398428E
:10A9700014BF032018469942B36118BF0F20BDE8E9
:10A98000F081C3F81080DF610122C8E7D3F800220C
:10A9900042F02002C3F80022D4E74FF40472C3F857
:10A9A00004230020EBE71020E9E700BF44B50020B6
:10A9B000C13E03006DDF704779DF70477DDF704770
:10A9C00064DF70472DE9F74F0C9CBDF834B0278841
:10A9D000002580468A4691462E46B8F80020B242AD
:10A9E0000BDC35B12288013AD21B92B2FF2A39D84A
:10A9F000DA55002003B0BDE8F08FD8F8042052F8F3
:10AA00002600019000220DF1030101A8FFF7D8FFF5
:10AA10000028EFD19DF803204A4521D12288002D3E
:10AA200014BF0020022002EB09010144594519DC42
:10AA30003DB9013292B2228003F802A0228801328D
:10AA4000228022880DF103011A4401A8FFF7B8FF04
:10AA50000028CFD121889DF803200A4422800125B7
:10AA60000136BAE70C20C5E72DE9F341089CBDF893
:10AA700024501746CDE9004502220646FFF7A2FF03
:10AA800048B9102239463046CDE9084502B0BDE844
:10AA9000F041FFF797BF02B0BDE8F0812DE9F04F1C
:10AAA00000231688138090F82D3085B007460D4698
:10AAB000144653B3082E01D80C2026E102A8FFF754
:10AAC00079FF002840F0218113880822CA54238886
:10AAD00001339BB21B222380CA542088013080B2EC
:10AAE000208006220DF10901284401F0F7FD23889A
:10AAF0009DF8082006339BB212F0FE0218BF012217
:10AB00002380EA54238801332380BB78FBB1238858
:10AB10000433B342D0D802A8FFF74EFF002840F01C
:10AB2000F48023880322EA54238801339BB219223C
:10AB30002380EA542388BDF8082001339BB2E9182A
:10AB40002380EA54120A4A70238802332380FA7859
:10AB50009AB12388D91CB142AED80221E954238886
:10AB600001339BB201212380E95423880B449BB21B
:10AB70002380EA5423880B4423807A68AAB123886F
:10AB8000D91CB14298D8022192F90020E9542388B7
:10AB900001339BB20A212380E954238801339BB2FD
:10ABA0002380EA542388013323803B89002B40F023
:10ABB000A0803B8A5BB1CDE900462B4607220321EA
:10ABC00007F11000FFF750FF002840F09E803B8BFC
:10ABD0005BB1CDE900462B461522142107F1180080
:10ABE000FFF742FF002840F090803A6A002A40F0C8
:10ABF0008F80D7F82480B8F1000F30D0B8F8043037
:10AC00002188981C8A1C0244B2423FF655AFFE28A8
:10AC10003FF652AF03336B54238801339BB2FF22BC
:10AC20002380EA54238801339BB22380B8F80020A4
:10AC3000EA54E918120A4A702088023080B2208053
:10AC4000B8F804205AB1D8F8081000296AD028446E
:10AC500001F044FD2388B8F804201344238097F8BA
:10AC60002C30002B40F09980387800284DD03B885C
:10AC7000012B57D021888A1CB2423FF61DAF012814
:10AC800005D17B7802330B449E42FFF415AF023EA0
:10AC9000761A04A9B6B221F8086DA818FFF78EFE3F
:10ACA00098BB3978BDF80820022900F0BB807B787A
:10ACB000934202D3B24240F2B380012940F0B48003
:10ACC0009BB29E42C0F0B080ADF808300821BDF8BC
:10ACD0000830FE2B3FF6F0AE22880133AB542288B9
:10ACE000013292B22280A95422881344238000208A
:10ACF0000BE0CDE900462B460622022107F10800B1
:10AD0000FFF7B2FE00283FF454AF05B0BDE8F08F66
:10AD1000B4F800C00CF10603B3423FF6CDAE118883
:10AD2000052901D80720F0E76FF4486E01EB0E0308
:10AD30009BB24FF27D3E7345F4D95388052BF1D970
:10AD40006FF44860181880B27045EBD94FF6FF7069
:10AD5000814203D0834201D09942E3D8052305F80C
:10AD60000C30238801339BB212212380E9542388BD
:10AD700001339BB223801188E954E818090A417015
:10AD8000238802339BB223805288EA54E918120ABE
:10AD90004A702388023323802BE7BB6A002BC1D083
:10ADA0004FF000094FF00C0A4FF0160B97F82C30BB
:10ADB0005FFA89F293427FF657AFB96A0AFB02F253
:10ADC00001EB0208B8F80430981CFE283FF674AE78
:10ADD000208803332B54238801339BB2238005F84A
:10ADE00003B0238801339BB223808A5AEA54E918BE
:10ADF000120A4A702088023080B22080B8F80420FD
:10AE00005AB1D8F8081000298CD0284401F066FC0B
:10AE10002388B8F804201344238009F10109C5E709
:10AE2000092154E7B242FBD9ADF808604EE770B58E
:10AE3000C0B14AB116880024B44203D305196D7815
:10AE40009D4208D0A14201D800200BE0055D0135EC
:10AE50002C44A4B2F0E7A142F6D9A31C1380005DF4
:10AE6000013880B270BD37B502AC002324F8023D32
:10AE7000134622460546FFF7DAFF10B1BDF806007B
:10AE8000284403B030BD72DF704773DF704738B5B8
:10AE9000012204460D46B0F83812D0F83402FFF70C
:10AEA000E2FF00B1057004F13C0204F50D7104F1FC
:10AEB0005400BDE83840FFF7E6BF80F83010704717
:10AEC000F8B504460F46002975D0002873D091F8D4
:10AED0007A301BB191F89830002B6ED1D7F8A030A2
:10AEE000042B6AD0D7F89C30042B66D04FF0000CAE
:10AEF00084F802C007F178060FCE251D0FC50FCECE
:10AF00000FC596E8070085E8070084F830C0D7F839
:10AF1000A4306363D7F8A830A3634FF6FF7504F538
:10AF20000D73C4F84432A4F848520722614604F273
:10AF30004A2001F06DFC23780BB984F8545094F842
:10AF4000243004F15501C4F8341283B3EE23A4F87D
:10AF5000383204F50E723846FFF7A0FD30BB94F886
:10AF6000243004F24311C4F83C1213B3EE23A4F8C6
:10AF7000403204F5107207F13C00FFF78FFDA8B9CD
:10AF8000A269A4F8482001236269206484F8500073
:10AF90006264014684F8513084F83C3004F13C028C
:10AFA00004F15400FFF76FFF00B92370F8BD1F23B1
:10AFB000CDE71F23DBE70E20F8E70720F6E7F8B51B
:10AFC000077804460D46002F00F0058100F24A265E
:10AFD000A17007220021304601F01AFCE38813B16A
:10AFE000A378012B04D0E3794BB1A378022B06D1CF
:10AFF000636BA3B1012284F851220820984733469D
:10B0000004F5147113F8012F12B99942FAD11746B9
:10B010006B1E032B53D8DFE803F0050B0F1284F8E7
:10B020005132ECE7A3791BB194F8243003B95FB92E
:10B03000E3790BB1002F44D1237A002B43D1637AFB
:10B04000002B0CBF00250425636BA570002B3CD0A2
:10B05000033D012D39D86279002A36D094F8522266
:10B06000002A32D184F85422012284F85322072086
:10B07000984704F13C0518220021284601F0C8FB3E
:10B08000E36A94F824200121581E884288BF0B46A9
:10B0900084F83C1084F8513032B1884296BFA36ADC
:10B0A00084F8521084F85230A178002384F850308C
:10B0B00004291BD8DFE801F0770D2235590000255F
:10B0C000C2E70225C0E70325BEE7002384F8533218
:10B0D000CFE7C4F84432C4E910630223012284F8A4
:10B0E0003C30802384F83120A4F84830A378002B2A
:10B0F0005CD1636B002B6AD1002067E0022384F8E7
:10B10000313062B1072384F83C302369A4F8483019
:10B110000023C4F84432E36826646364E6E703234B
:10B12000F1E763696364A369A4F8483012B10623A8
:10B1300084F83C306379B3B194F852329BB994F8F7
:10B14000543283B1022384F8503004212046FFF7A3
:10B150009EFE0028CAD1052384F8313004F50D7312
:10B16000C4F84432C2E70323F6E7E3696364236A61
:10B17000A4F8483012B1062384F83C30637983B1D7
:10B1800094F852326BB994F8543253B1022384F8D4
:10B19000503004212046FFF77AFE0028A6D106236E
:10B1A000DAE70423D8E784F831309FE72A46D4F859
:10B1B000441204F15400FFF766FE38B994F83010D9
:10B1C00094F85400FFF761FE002892D0F8BD94F87F
:10B1D0003100984790E70820F8E710B50388112B55
:10B1E0000C460AD0262B1FD0102B05D1C37B012B78
:10B1F00002D18388A1F8483210BD002381F8523271
:10B200008288B1F848329A42F6D10B79002BF3D1FB
:10B2100001212046FFF7D3FE0028EDD0A36B002BC1
:10B22000EAD0BDE810401847037A013B012BE3D870
:10B2300089780523013191FBF3F303EB8303C91AEA
:10B24000C9B2E6E7704775DF704776DF70477ADF8F
:10B2500070477BDF70470000034B1A8882420CBFA7
:10B2600018460020704700BF84B50020024B9B6940
:10B2700003B11847704700BF68B5002037B585B2E5
:10B280002846FFF7E9FF034670B1164C017A227B8E
:10B2900091420BD200F10A012846FFF7D4FFE8B132
:10B2A000112801D0FFF7E2FF03B030BD237C00225C
:10B2B000027243B13B212846FFF7C7FF30F0080375
:10B2C00001D0FFF7D3FF6369002BEDD000228DF88A
:10B2D0000420ADF8065001A89847E5E71A7A013234
:10B2E0001A72E1E768B5002013B50B46497A0F4C96
:10B2F000024669B9D4E901101C7A002C18BF014636
:10B300005868FCF7DBF908B1FFF7B0FF02B010BDD9
:10B31000002119726369002BF8D00121ADF80600F5
:10B320008DF8041001A89847F0E700BF68B5002029
:10B3300030B583880588B3F5FA7F24BF6FF4F972BE
:10B340009C184A8838BF002495420CD84088904207
:10B3500009D38A88A24206D303F2F310904234BF85
:10B360000020012030BD0020FCE7000070B50388FC
:10B37000112B014648D002D8102B1ED070BD122BC5
:10B3800052D0502BFAD12F4BC288DB899A42F5D18B
:10B39000038A022BF2D186883046FFF75DFF05460F
:10B3A0000028EBD001F1120000F08AF830BB686889
:10B3B000FCF7C8F90028E1D009E0C37B012BDDD1FF
:10B3C0004FF6FF70FFF748FF054620B90420BDE89F
:10B3D0007040FFF74BBF8E881B4A06800023037224
:10B3E0001368C5F80A300A30536843601031FFF71C
:10B3F0009FFF144B6872DB89002BBFD12946304672
:10B40000BDE87040FFF770BF8088FFF725FF044656
:10B410000028B3D04068FCF795F908B1FFF726FF84
:10B420004FF6FF732380A9E786883046FFF714FFA5
:10B4300005460028A2D008310A30FFF779FF68726C
:10B44000DCE700BF68B5002098B50020F8B50646D7
:10B4500050B305460FCD154F3C460FC495E8070085
:10B4600084E807003068124B3B60B8B1FFF7EFFE8D
:10B47000C8B931680A681A604A685A600D480E4AAD
:10B480004FF6FF7303800D4B40F8043F0021FCF79B
:10B4900003F9002814BF0320002004E01846FFF73A
:10B4A000D8FE0028EAD0F8BD0E20FCE768B50020E1
:10B4B00098B5002084B500207DB20200A0B5002020
:10B4C000007800F00100704790DF7047A5DF7047FB
:10B4D000B5DF70477FB50023ADF80810ADF80A104E
:10B4E0006A4602A9064603930093ADF80430FFF7BD
:10B4F000EBFF0546F8B1114B114CE41AE408FDF7D7
:10B50000FDFC240444F00104034632460D49204664
:10B51000FDF726FABDF80020BDF8023002B91BB1D4
:10B5200009492046FDF71CFABDF804201AB1074965
:10B530002046FDF70BFA284604B070BD6C470300A7
:10B54000DC470300143F03005E3F03009D3F030000
:10B5500088B14FF0F7130360FB230371F723C38017
:10B560001723038141F6FB32002301618372C3720A
:10B570008281184670470E207047000013B50346BD
:10B5800080880C46A0B91A88232A00F0AF8011D811
:10B59000102A25D0112A54D0A37A4BB1E18800207B
:10B5A000FFF794FF002840F0A7800123A072E37208
:10B5B00002B010BD3A2A4ED0552A68D0242AEBD1C9
:10B5C0001A7A0B694A73002BE6D04DF67A21ADF852
:10B5D0000400ADF80010ADF802008DF8042081E001
:10B5E0000A790A73DB7B012B13D0022B14D0E1887C
:10B5F00023898B4205D20020FFF768FF70B9012331
:10B60000E372217B637B8B42C6D20020FFF762FF8F
:10B61000C2E70B88E380EAE74B88FBE7112802D1F9
:10B620000123A372EDE7FDF769FC3C4A3C4B3D4921
:10B630009B1ADB081B04024643F00100FDF786F964
:10B64000DFE7F723CB8017230B8141F6FB338872AA
:10B65000C8728B81A0E75B89CA88934228BF1346D2
:10B66000172B0A6938BF17230B8162B1C97A51B110
:10B6700040F67721ADF80010ADF80200ADF80430C7
:10B680006946204690470023E372A37284E7DB8873
:10B69000C988A072172B38BF17238B4228BF0B46CF
:10B6A0002381FFF715FF60B1FDF728FC1B4A1C4BF7
:10B6B0001D499B1ADB081B04024643F00100FDF7FD
:10B6C00045F9E27A002A7FF467AF2369002B3FF443
:10B6D00063AF40F67721ADF802202289ADF8001063
:10B6E000ADF8042069462046984755E7197A237B30
:10B6F000994228BF194689E711283FF459AFFDF751
:10B70000FDFB064A064B07499B1ADB081B04024651
:10B7100043F00100FDF71AF94AE700BF6C47030048
:10B72000DC470300F33F030024400300B0DF704711
:10B7300066DF704710B5034600214088FFF7F8FF29
:10B74000024608B91A7210BD112801D10122F9E789
:10B750005B68BDE81040184760B159B10378DE2B33
:10B760000AD00B684360DE2303704FF6FF734380FB
:10B77000002070470E2070470820704728B10378DA
:10B78000DE2B04D14180002070470E207047082036
:10B790007047F0B5054685B00C46F1B1E8B10B78BD
:10B7A000DE2B1AD182884B889A4204D10B7A13B1CE
:10B7B0000846FFF7BFFF2B88112B32D0512B0ED03C
:10B7C000012B0AD12B7A012B07D1A98862889142DB
:10B7D00003D123722046FFF7ADFF05B0F0BDAE8860
:10B7E0006388B342F9D1AF79022FF6D1AD7B2B1F1D
:10B7F000022BF2D800211022684601F009F8052D2D
:10B8000014BF4FF4C0730023694630468DF80070B2
:10B81000ADF80430FFF78AFF0028DED06368984750
:10B82000DBE76388AA889A4204BF4FF6FF73638000
:10B83000D3E710DF7047000013B504460949684696
:10B84000FDF70AFB019808B902B010BDD0E900313C
:10B850002046984718B16846FDF716FBF2E711201D
:10B86000F2E700BF6440030013B504460749684689
:10B87000FDF7F2FA019B0BB902B010BD2046D3E9E7
:10B88000002190476846FDF7FFFAF3E77C4003008C
:10B890000C4991F816335A09EC231341DB0706D5FE
:10B8A000094B9A684AB94FF480030B607047074A06
:10B8B000A12142F20200FBF780B91A6842F480022B
:10B8C0001A60704700E100E044B90020884003009E
:10B8D000F7B5184F3C785CBB174E012520463570F4
:10B8E000FFF7AAFF112820D02046FFF7BDFF134B1A
:10B8F0001868019002A800F8054DFBF7E1FF104918
:10B9000001A8FFF796FF0446B0FA80F040093870AE
:10B910009DF80300FCF704F83CB90A4B34701C7026
:10B92000FFF7B6FF2846FFF79FFF204603B0F0BDA4
:10B930000824FAE7C1B50020C0B50020604003002C
:10B9400035680200C2B50020014B1878704700BF6F
:10B95000C1B5002007B508496846FDF77DFA019B8F
:10B9600013B903B05DF804FBD3E9002090476846A3
:10B97000FDF78AFAF3E700BF70400300FFF7EABF64
:10B9800060DF704769DF704761DF704730B5134D86
:10B99000ADF5017D4FF4FA740DF1020103A8ADF885
:10B9A0000240FFF7F1FF70B9294601A8FDF754FAEC
:10B9B000029B002BF0D003A8D3E90021904701A8F7
:10B9C000FDF762FAF4E7052804D0054A40F2391180
:10B9D000FBF7F3F80DF5017D30BD00BFA043030078
:10B9E0004E430300024B1B780BB1FFF7CFBF7047EC
:10B9F000C3B5002030B5054685B00C46002900F0DF
:10BA0000B6805C4B0B600C22002101A800F000FF07
:10BA100001238DF8063022688DF80450062301A911
:10BA20002020ADF80830FFF7ADFF60B1FDF766FAF2
:10BA3000514A524B52499B1ADB081B04024643F001
:10BA40000100FCF783FF0C22002101A800F0E0FEBA
:10BA500001238DF805302268002301A940208DF8CC
:10BA600006308DF80730FFF78DFF60B1FDF746FA1D
:10BA7000414A424B43499B1ADB081B04024643F0F0
:10BA80000100FCF763FF0C22002101A800F0C0FEBA
:10BA9000F72322688DF8045001A92320ADF8063061
:10BAA000FFF770FF60B1FDF729FA334A334B36498F
:10BAB0009B1ADB081B04024643F00100FCF746FF1B
:10BAC0000C22002101A800F0A3FE0A2322688DF8B1
:10BAD000043001A90120FFF755FF60B1FDF70EFA10
