:020000022000DC
:106000000000012009C4020031C40200E57802004A
:1060100035C4020037C4020039C402000000000089
:106020000000000000000000000000003BC402006F
:106030003DC40200000000003FC4020041C4020051
:106040007598020043C402006DA00200C1A70200BF
:1060500089A3020043C40200959D0200DDA1020055
:1060600091A70200A1A7020043C4020043C402009A
:1060700043C4020043C4020043C4020043C40200FC
:1060800043C402007973020043C4020043C4020007
:106090001574020043C40200BDBE020043C40200E6
:1060A00043C4020043C4020043C4020043C40200CC
:1060B00095A1020043C4020000000000000000009F
:1060C00043C40200A5A10200B5A1020043C402001E
:1060D00043C4020043C4020043C4020000000000A5
:1060E00000000000000000000000000000000000B0
:1060F00000000000000000000000000000000000A0
:10610000000000000000000000000000000000008F
:10611000000000000000000000000000000000007F
:10612000000000000000000000000000000000006F
:10613000000000000000000000000000000000005F
:10614000000000000000000000000000000000004F
:10615000000000000000000000000000000000003F
:10616000000000000000000000000000000000002F
:10617000000000000000000000000000000000001F
:10618000000000000000000000000000000000000F
:1061900000000000000000000000000000000000FF
:1061A00000000000000000000000000000000000EF
:1061B00000000000000000000000000000000000DF
:1061C00000000000000000000000000000000000CF
:1061D00000000000000000000000000000000000BF
:1061E00000000000000000000000000000000000AF
:1061F000000000000000000000000000000000009F
:1062000010B5054C237833B9044B13B10448AFF3F0
:1062100000800123237010BD88A200200000000030
:10622000F043030008B5034B1BB103490348AFF328
:10623000008008BD000000008CA20020F043030095
:10624000154B002B08BF134B9D46A3F5803A002148
:106250008B460F461348144A121A06F0F3F90F4BF7
:10626000002B00D098470E4B002B00D09847002001
:10627000002104000D000D48002802D00C4808F051
:1062800061FA06F0EFF82000290000F067FA06F046
:10629000D9F800BF00000800000001200000000045
:1062A0000000000088A20020ACBC002045E70200EE
:1062B00015F902000000000008B501F0A7FA0BF084
:1062C00083FD05A3D3E900230BF022FF0CF0CEF8E9
:1062D00008BD00BFAFF30080FCA9F1D24D62404081
:1062E0000B1A814238BF03F1FA6318467047000069
:1062F0002DE9F04F2DED028BBD4D85B08146FFF7A6
:10630000DBFF2C888246002C00F09581B94CA378E5
:1063100013F0010FB84B1B7814BF29262A26002B37
:1063200000F09F812B8804EB43035B8908EE103A51
:10633000032BBAEECF8A40F28A8118EE100A0BF0D6
:1063400065FD02460B4680468946A3A1D1E90001BE
:106350000BF0FCFBA2A3D3E900230BF0AFFD9EA33F
:10636000D3E900230BF0D4FE42464B460BF0D0FE9F
:1063700041EC100B0BF030FA0BF036FD9AA3D3E989
:1063800000230BF09BFD0CF049F82A889B4B07EE8D
:10639000902A1B88F8EEE76A07EE903A984BF8EEE1
:1063A000E77A93ED007AE6EE877AB0EE677A07EE49
:1063B000900AF8EEE77A77EE277A9FED927AF5EE7B
:1063C000C07AF1EE10FA40F1448177EE877AFCEE64
:1063D000E77A8D4917EE903A5B0001339BB25B0878
:1063E00007EE903A0A230B70531CE27881ED028A83
:1063F0009BB2FAEECD7A06F001069A424FF0000009
:106400002B80C1ED017A0E7398BF288005B0BDECDA
:10641000028BBDE8F08F0DF11008002348F8043D11
:106420004FF0140B7948CDF800B00023012241460B
:10643000006803F071F80028F4D1039A002A10DBF9
:10644000092E2DD8DFE816F00A001D0023002600D3
:106450007A007E008D009200C400F200AA2A1FD0AC
:106460000026B3465E46FFF727FF01465046FFF77A
:1064700037FF4845CFD90A2E00F0E0806FF00100C9
:10648000C4E7634B45F2AA511980552AE7E7614BEF
:106490001A8005E05F490B8803EB02230B80D4B21E
:1064A00006F1010B534BBBF10A0F9A55DAD1FFF7F6
:1064B00003FF504FDFF854A18046640000265F447C
:1064C000FFF7FAFE01464046FFF70AFF484500F293
:1064D000BA804FF0140BCDF800B00023012203A9BD
:1064E000DAF8000003F018F80028F4D1039A002A23
:1064F000E6DB16F0010F90B2474900F0A2800B884E
:1065000003EB00239BB20B804149088843400B807A
:10651000BA550136B442D3D13D4A3E491388098861
:106520004B403E4909884B4013803D4A12889A42AD
:10653000314B14BF002201221A70E7E6D1078FD534
:106540002E4BA5E72D49DFF8C8C00B88BCF800002A
:1065500003EB02239BB258405B08ACF800000B80B1
:106560009EE7D3077FF57CAF2E4B91E72D492B4853
:106570000B8803EB02239BB20380012C4FEA5303E9
:106580000B801F4902D100230B6089E71B48B0F83C
:1065900000C02548634507D2BCF5874F16D9B3F52F
:1065A000B45F13D203F5B443A3EB0C0307EE903AA8
:1065B000631E07EE103AF8EEE77AB8EEC77AC7EE38
:1065C000876AC1ED006AC0ED006A69E70368DBE72E
:1065D0003A8065E7AFF300809A9999999969634089
:1065E000CDCCCCCCCCCC35408FC2F528DCA5AC4092
:1065F000C6A30020BCA20020A8980020A8A20020CA
:10660000ACA200200000B446C8A30020B09800202F
:10661000A6A20020B8A20020BAA20020B6A20020A4
:10662000A4A20020B4A20020B0A200203B8803EB6B
:1066300002233B8034E726460B4F14E74FF0000B54
:1066400035E7088064E7A6423FF466AF16E700200E
:106650009BE6F4EEC77AF1EE10FAC8BF77EEC77A80
:10666000B5E62B800AE700BFA4A2002010B5034BBB
:1066700004460FCB84E80F00204610BDC8A30020BD
:10668000014B01221A70704768A800207047000073
:10669000024A0349034802F063BE00BFE427030037
:1066A0002828030008280300014802F0F5BE00BFB7
:1066B0000828030038B5054C05462A460021204627
:1066C00000F024FC1128F8D038BD00BF00280300DA
:1066D000014800F0C7BD00BF0028030010B50B4AF9
:1066E0001468132C0FD00A4B1968013104BF002124
:1066F0001960631C074C136004EB03140FC884E893
:106700000F00012010BD0020FCE700BFB49800205E
:10671000AC9800208CBA0020F0B50D4E3468631C94
:10672000054612D00B4FD7F800C064450DDC0A4B6C
:1067300003EB04130FCB0134A44585E80F0034604C
:1067400003DA4FF0FF333B6033602846F0BD00BFF3
:10675000AC980020B49800208CBA00202DE970433A
:106760004FF4004190B0002001F00EFF18B1394AFB
:10677000D72100F076FA01F035FE3748374D05F0A5
:10678000ABFF4FF0A0434FF40002C3F818254FF0C1
:106790008072C3F818254FF00072C3F818250FCD8A
:1067A0000BAC0FC42B682E4A2E4823600BA900F0B7
:1067B000B7FB18B1274AEE2100F053FA00F064F855
:1067C000294A2A482A4D2B4E012100F0B9FF002208
:1067D0004FF42031284800F0C5FF284805F07CFF21
:1067E0001420FFF767FFFFF773FF254805F074FFDC
:1067F000244805F071FFFFF74BFF4FF0FF31286889
:1068000002F000FF286802F05BFF6420FFF770FDD4
:106810000028F0D103A8FFF729FF03A8FFF75EFFC8
:106820000028E8D1FFF740FF142407A8FFF774FF02
:1068300008980BF0EBFA8046099889460BF0E6FAC7
:106840004246CDE900014B46304605F045FF013C8C
:10685000EBD1D0E7582803005F280300C4270300CA
:1068600081660200002803008D660200CC28030028
:10687000B0980020AF28030048A80020712803002A
:10688000862803009528030010B501F0C3F9852878
:1068900004D018B1094A352100F0E3F9002001F0D5
:1068A000D5F900F009FF8528044604D018B1034A41
:1068B0003B2100F0D6F9204610BD00BFD0280300D0
:1068C00038B5054D044645F001054FF47A40A84718
:1068D000013CFAD138BD00BFF02903007FB5054661
:1068E0000E46144672B602F085F801F0A7FE0028A5
:1068F000FBD13E4805F0F0FE41F201039D4264D019
:1069000006D8012D12D03146394805F0E5FE10E0D9
:1069100044F201039D425AD044F202039D42F2D157
:1069200022886168334805F0D7FE02E0324805F05E
:10693000D3FE03F041F808B903F008F80023ADF8DE
:106940000C308DF80E3003A9012319208DF80D307D
:1069500003F03CF803A9182003F038F803A9172026
:1069600003F034F8192003F035F9182003F032F958
:10697000172003F02FF94FF4FA70FFF7A1FF192049
:1069800003F0FAF8182003F0F7F8172003F0F4F8F2
:106990003220FFF795FF192003F01CF9182003F0AF
:1069A00019F9172003F016F94FF4FA70FFF788FF72
:1069B000192003F0E1F8182003F0DEF8172003F0A7
:1069C000DBF8FA20FFF77CFFCCE70C48AFE7A568BF
:1069D000284602F0C3FE23680196009302466368CE
:1069E0000748294605F078FEA3E700BF34290300D5
:1069F000D12903008C2903004D2903006A290300D3
:106A0000A729030007B502F0D7FF08B902F09EFFDF
:106A10000023ADF804308DF8063001A901231920B8
:106A20008DF8053002F0D2FF01A9182002F0CEFF48
:106A300001A9172002F0CAFF192003F0CBF8182093
:106A400003F0C8F8172003F0C5F84FF4FA70FFF709
:106A500037FF192003F090F8182003F08DF8172065
:106A600003F08AF83220FFF72BFF192003F0B2F869
:106A7000182003F0AFF8172003F0ACF84FF4FA70C9
:106A8000FFF71EFF192003F077F8182003F074F8C1
:106A9000172003F071F8FA20FFF712FFCCE7036923
:106AA000C1688B429DBF8268D21802F1FF3203F1A8
:106AB000FF3394BF501A581A70472DE9F041D0E9BE
:106AC00002670446F61B40689642884615463844DD
:106AD00005D905F01DFD3D44E560BDE8F081324675
:106AE000AD1B05F015FD2A4608EB0601606805F0B0
:106AF0000FFDF1E72DE9F843C568064689461746BC
:106B00004FF000083469B3687068A54228BFE418E4
:106B1000013C621B5C1BBC4228BF3C46944228BF20
:106B2000144649462844224605F0F2FCB368254441
:106B3000AB4208BF00253F1BA044A144F560E1D152
:106B40004046BDE8F883000010B5114C114AA2611F
:106B50000223C4E90433104BE361A2644FF40073D1
:106B60000E4A2362E264002310220D49A362E01D55
:106B70006362E362A3656365E365226505F088FEF1
:106B80000849204605F084FE2023A37110BD00BFF4
:106B9000F0BB0020F6290300C0AC0020B0AC002000
:106BA000FF290300032A0300F8B5184C182300FB43
:106BB000033503FB00402544C46A012C0F461646EA
:106BC00011D003D3022C1BD000240AE02846FFF783
:106BD00066FF864205D8324639462846FFF76DFFE4
:106BE00034462046F8BD2846FFF759FF8642344612
:106BF00028BF0446224639462846FFF75EFFF0E7E5
:106C00002846BDE8F840FFF775BF00BFF0BB002085
:106C100073B50D4B1B7804460D4616460BB9FFF7AE
:106C200093FF02A8002300F8013D00F003FE324666
:106C300029462046FFF7B8FF04469DF8070000F0FC
:106C400029FE204602B070BDF0BB0020FFF77CBFDC
:106C500010B511461C461A460020FFF7D9FF204602
:106C600010BD00B583B002900091019244F2010082
:106C700071466A46FFF732FE03B000BD2DE9F843C6
:106C80000468054694F8200003F07EF904F1180723
:106C9000FF264FF0FF394FF00008207AFF2802D07E
:106CA00003F072F92672607AFF2802D003F06CF9C3
:106CB00066722068431C03D002F016FFC4F80090EF
:106CC00084F80B800C34BC42E7D16868BDE8F84317
:106CD00003F0A0BC2DE9F041134DDFF850800E46C3
:106CE0000024012705EB41052B5D5BB12B5D013BCA
:106CF000DBB22B552B5D93B958F826301B68304614
:106D0000DB6998474CB167B1084B53F82630022134
:106D10005868BDE8F04103F019BD0124E4E70027FD
:106D2000F0E7BDE8F08100BF68BC0020C0AE0020E5
:106D300040680C4902798B5CDBB2FF2B0DD0FE2B37
:106D40000DD0006803F5A87350F82330064850F8BA
:106D50002200984203D1FF238B540020704701206A
:106D6000704700BFD4AE0020DCAE00202DE9F84F04
:106D7000012904460D469046066804D95E4940F252
:106D80005B2005F0C9F90C2303FB0563DB7A012BBB
:106D900004D059494FF4177005F0BEF996F8213028
:106DA000022B40F0A4800C276F43F3195B689845D1
:106DB00008D1F36913B90020BDE8F88F6268107933
:106DC0009847F8E72046FFF7B3FF8346002840F0D6
:106DD00090806368DFF830A11B79FE220AF8032057
:106DE000266896F8200003F029F9D146B8F1000F83
:106DF0001FD13744787A03F021F9387A03F006F985
:106E000063681B79FF220AF803200C2303FB056645
:106E1000C6F804802368DB69002BCCD063681A793C
:106E2000364B03EB420302215955606803F062FCC4
:106E3000C1E7B169884507D337441FFA81F8387A2A
:106E400003F0FCF8787AD9E705EB4507BF00F319A2
:106E500060685A68914245D0002A43D0904541D29B
:106E60005B46032103F014FCD4F804A096F820B08C
:106E70009AF80530032B04D8214940F2751005F02B
:106E80004BF9DAF80030F05903F5A67A0C2303FB2E
:106E900005639B7A1BB302F021FF02465146584618
:106EA00003F094F896F8200003F0B0F863681B79BB
:106EB00009F8035063681A79124B43F822800C27B3
:106EC00007FB0567002342462946606803F0E0FBA4
:106ED000387A03F09BF8787A03F098F895E702F097
:106EE000D9FEDAE70379FF2209F80320E7E7082053
:106EF00062E7112060E700BF0A2A030068BC002097
:106F0000542A0300DCAE0020D4AE002003681B8BA3
:106F10005A436423B2FBF3F292B2FFF727BF00009B
:106F20002DE9F04F89B08A460592044620B9C3493D
:106F300040F2113005F0F0F8BAF1000F00F079815D
:106F4000266896F82130002B40F0758100F026FF6E
:106F500008B1852821D102F02FFD00B3B84B1B6882
:106F600003F0F003302B20D10023B64A0021137028
:106F7000FF234FF0FF3286F82030F17233727372C4
:106F80003260F17532757375F26006F1200002F01F
:106F9000C7FF60B12046FFF771FE042518E002F03C
:106FA000D5FC0028DAD0032512E00123DDE70546F1
:106FB0005AF825B0EBB2BBF1FF3F049300F0AE806E
:106FC000276897F8211049B108252046FFF756FE9B
:106FD000284609B0BDE8F08F0125E9E70AEB050274
:106FE0004FF00C0808FB05F8137A029307EB080230
:106FF0004FF001095160937203228DF81820226826
:10700000424406A9927A8DF81A90B2FA82F2520995
:1070100058468DF8192002F0D9FCE8B9029B47F8D0
:1070200008B0002B00F0EB80BBF11F0F04D986499C
:107030004FF4F37005F070F84FF0A04209FA0BF32B
:10704000C2F80C354FF00C0909FB05F909F10800ED
:10705000384402F065FF08B10425B6E709F10900DC
:10706000384402F05DFF0028F6D1B94499F80800D1
:1070700002F0E4FF99F8090002F0E0FF029B57F8E4
:107080000800002B00F0CA8002F028FE814657F865
:10709000080002F0FFFD0C2303FB0573049993F82D
:1070A00008B063685A798A42804606D867490293D5
:1070B00040F2751005F030F8029B1B6805F1500195
:1070C0004A4603EB8101584602F080FF0C2303FB84
:1070D0000573D4F804B093F809909BF80530022B9F
:1070E00004D85A4940F2751005F016F8DBF8001084
:1070F000424601F5A471484602F068FF0C2303FBE9
:1071000005770123FB726368514A1B79049902EBEE
:107110004303204600225A55FFF728FE002D3FF476
:107120005BAFDAF810200023B2F5805F01D3092BA2
:107130007CD1444A127812B1002B08BF01238DF88C
:10714000183000238DF819308DF81A306068414AE4
:1071500007238DF81B300379079306A903F06CF918
:10716000054600287FF431AF6368DAF810001B6829
:10717000D3F81015C9B2050FC1F1200C0001A1F11F
:10718000200720FA01F805FA0CFC48EA0C0825FA59
:1071900007F725FA01F948EA0708B9F1010F08BF16
:1071A000B8F1000F08D32C4940F2B120CDE9028993
:1071B00004F0B2FFDDE90289C6F818806068CDE905
:1071C000028903F04FFADDE90289012500950423C5
:1071D00042460221606803F076FA0221606803F0FB
:1071E000B5FA059BF36163681C4A1B7986F8215048
:1071F00042F823401A4AFF21D1540025E8E6BBF1AA
:107200001F0F04D910494FF4F37004F085FF4FF0BD
:10721000A04209FA0BF3C2F8083513E702F03AFD71
:10722000814657F8080002F059FD34E7520801334F
:107230007AE70B25CCE60825CAE600BF0A2A030038
:10724000E80F00F0F0AE0020A52A0300542A030046
:1072500068BC0020D56C0200E82A0300C0AE002004
:10726000D4AE00202DE9F047076897F82130044696
:1072700023B91B4940F2973004F04EFF0026DFF897
:1072800068903D46B0464FF00C0A63681B7909EBE5
:10729000430303F80680EB7A73B1236828680AFB7E
:1072A0000633997AB1FA81F1490902F03BFD286869
:1072B00002F0BEFCC5F804800C357EB16368094A53
:1072C0001B79FF21D154606803F0CCF9606803F0AA
:1072D0006BF9022387F82130BDE8F0870126D4E757
:1072E0000A2A0300D4AE002068BC0020094A537863
:1072F00091780133DBB2994208BF0023117899429B
:107300001FBF03705078182303FB002014BF043004
:1073100000207047F4AE002073B5054602A8002493
:1073200000F8014D0E4600F085FA0DF10600FFF75A
:10733000DDFF90B106700A4B9DF8062045605A703B
:107340009DF8070000F0A6FA24B9064B4FF480120E
:10735000C3F80021204602B070BD0424F0E700BF4E
:10736000F4AE002000E100E0024B4FF43C6043F03B
:1073700001031847302B0300F8B51F491F4B0025A8
:10738000C1F84051C1F84451C1F84851C1F84C51BD
:10739000C1F80051C1F804511B684BB3D1F8044542
:1073A00017490968641A24F07F442F461A68A242DC
:1073B00009D8A41A15441A7CDE691AB11F74D3E9DE
:1073C00005209047AEB90F4B0F4A197813788B42BE
:1073D00005D10133DBB2022B08BF002313701278F2
:1073E0000A4B43F822500A4B4FF48012C3F8002195
:1073F000F8BD3346DAE700BF0010014014B00020AA
:1074000010B000200CB000200DB0002004B000200F
:1074100000E100E02DE9F74F9C4A9D491378097877
:107420009C4D99423CD00133DBB2022B08BF0023B4
:10743000137099491278994B0F6853F822003B1842
:1074400023F07F4300220B602B68164614469446B7
:1074500013B942B12B6006E0196881420ED902B11E
:107460002B60091A19604FF001082B68DFF834A26D
:1074700000930027BEB9DFF834B260E0401A0C4434
:10748000D968C3F800C0D3F81CE031B13A1922F032
:107490007F42C3E90121DE611E4601227346D7E720
:1074A0000026B046E1E73446F6697B4A6368126815
:1074B000DFF8FCC1A068991A21F07F41614500F214
:1074C000A58001442160012222742A680023C4E9B6
:1074D0000133E361002A40F0A2802C60CAE75A1C05
:1074E0009BF80210D2B291428BF8002004BF002218
:1074F0008BF80020182202FB03B32A6819799C68D4
:10750000022974D003297ED0012918D1217CB1B978
:10751000DA6862601A69A2605A69E2609B69A361D5
:107520005F4B1B78002BC0D06160BEE79C4200F02F
:1075300090809946DB69002BF8D1002323749BF8D7
:1075400000309BF801209A42C9D12B682FB9009ACC
:10755000934202D1B8F1000F43D0002B41D0D3F8B1
:1075600000A0504D4C4BD5F804751C68DFF84481E1
:107570003E1B98F8003026F07F4603369BB94FF447
:107580008033C5F84433C5F80433474B4FF4003219
:107590004FF00109C3F880211A60C5F80090FFF789
:1075A000E3FE88F80090B2452CBF5444A41924F09F
:1075B0007F44C5F84045D5F80435DB1B23F07F43F5
:1075C000E41B033324F07F44A3420AD9D5F80435E1
:1075D000C5F84035FFF7C8FE334B4FF40032C3F80F
:1075E00000212F4B00221A7003B0BDE8F08F134624
:1075F0009146A0E71174D2690123002AFAD1002B29
:107600009DD02A609BE700231946F6E7D31A23F0A2
:107610007F43834234BFC31A0023236053E72168AA
:107620001368994213D8591A1160E26155E7091A93
:10763000D8691A4638B1034618688842F7D3401A09
:107640001860184613462160E061DC6112E71346BA
:10765000F2E74C450DD1D3692B6053B90E48019226
:107660000121CAF8081003600D4B1970FFF77CFE6A
:10767000019AE1692368C9F81C1011B10868034434
:107680000B602B689A4218BF012756E70CB0002008
:107690000DB0002014B0002010B0002004B0002075
:1076A00000B000200010014000E100E0F4AE002036
:1076B000FEFF7F0001B00020F8B5194E194D1A4F9A
:1076C0004FF40033C6F8803001244FF48033C5F8FE
:1076D0004833C5F808336C60FFF746FEAC60002401
:1076E0003C60FFF741FE114B1C70114B0B221C80BC
:1076F0009A70104B1C60104B1C70104B4FF4801292
:107700001C70E023C6F8802186F814333260C5F877
:10771000084586F81133D5F804353B602046F8BD9E
:1077200000E100E00010014010B0002001B0002096
:10773000F4AE002014B000200CB000200DB00020EA
:10774000074B9B784BB132B128B10368187C20B944
:1077500059745A617047072070470820704700BF6E
:10776000F4AE00202DE9F7431D4FBB7805460E46C9
:1077700090469BB390B304292ED9436973B3437CDD
:1077800002A80024012B00F8014D0CBF8946A14638
:1077900000F050F80DF10600FFF7A8FDD0B101236D
:1077A0000370104B4560D3F80435C0E90498C0E974
:1077B00002369DF806307B709DF8070000F06AF8ED
:1077C00024B9094B4FF48012C3F80021204603B0BE
:1077D000BDE8F0830424EFE70724F7E70824F5E782
:1077E000F4AE00200010014000E100E0064A92786B
:1077F0003AB130B1426922B1002202740221FFF78E
:107800008BBD0820704700BFF4AE0020014BD3F8B9
:107810000405704700100140EFF30583C3F308032C
:107820002BB9EFF31480C04300F001007047012032
:107830007047000070B50446FFF7EEFF012803D043
:107840001049432004F068FCEFF3108672B60E4A2C
:107850009068012398B993600C4B0D4DD3F88010BC
:1078600029401160C3F88050D3F8841051604FF064
:10787000FF32C3F88420207006B962B670BD237051
:10788000FAE700BF362B030074BC002000E100E0E3
:10789000FC06FFBD10B50446FFF7BEFF012803D06C
:1078A0000949512004F038FC084B9A685AB154B980
:1078B000EFF3108172B6064A18681060586850607D
:1078C0009C6001B962B610BD362B030074BC002069
:1078D00000E100E0024B1B680021986804F010BF33
:1078E000CC9800201EF0040F1CBFEFF309800AE0C3
:1078F000EFF308800549064A884201D8904202D831
:107900008D464FF00000034B184700000000012097
:1079100000E00020197902002DE9F347054601F047
:1079200069F800F08BFE0028FBD12F4B2F4C9F6A8B
:107930002F4BE41AE408240444F00104002D4ED037
:10794000AA692C49204600F0FDFFEB680193AB6863
:1079500000932949D5E90023204601F013F8EB698B
:1079600000932649D5E90423204600F0FFFF1E4B73
:10797000DB6A980703D52249204600F0DFFFDFF8D5
:107980009490DFF894A000264FF0010808FA06F35F
:107990003B4206D059F826201AB15146204600F045
:1079A000D1FF01361A2EF1D1390605D50E4B1549F6
:1079B0005A6B204600F0C6FF3A0405D50A4B12491F
:1079C0009A6B204600F0BEFF104B1B68DB0700D50A
:1079D00000BE2846FFF716F802B0BDE8F0870C4954
:1079E000204600F0ABFFC2E700ED00E06C4403006E
:1079F000044403008B2B0300A02B0300D52B0300B2
:107A0000302C03007F2C03009F2C0300F0ED00E0DE
:107A1000FD2B0300BC2C0300742C030050E8002F46
:107A20000B4640E8003C9CF0000FF7D11046704731
:107A300050E8003F43EA010240E8002C9CF0000FB0
:107A4000F6D11046704750E8002F02EA010340E8E3
:107A5000003C9CF0000FF6D11046704750E8003F04
:107A600003EB010240E8002C9CF0000FF6D1104619
:107A7000704750E8003FA3EB010240E8002C9CF067
:107A8000000FF6D1104670470121FFF7D1BF00214A
:107A9000FFF7D9BF10B50446002834D003681BB9DE
:107AA0001A49FF2004F038FB636823B917494FF4E3
:107AB000807004F031FBA36823B9144940F201102F
:107AC00004F02AFBE36823B910494FF4817004F0F5
:107AD00023FB238A23B90D4940F2031004F01CFB59
:107AE000D4E9012321689B1ADBB20A60013BDBB2B7
:107AF000FF2B226802D10020107110BD1168481CB4
:107B000010600B70F2E70E20F7E700BFE4310300CE
:107B100037B5054620B914494FF4927004F0FCFAC9
:107B200002A8002400F8014DFFF784FE2A68696866
:107B300013688B4210D9591E116013F8014C2A8A20
:107B4000EB6802FB04342A68AB6811685B1A117990
:107B5000DBB2994238BF13719DF80700FFF79AFE18
:107B6000204603B030BD00BFE431030037B50C46FA
:107B7000054620B9104940F2471004F0CDFA24B967
:107B80000D494FF4A47004F0C7FA02A8002300F8CE
:107B9000013DFFF74FFE2A681368591C1160EA681F
:107BA000A41A2A8AB4FBF2F41C709DF80700FFF7B0
:107BB00071FE03B030BD00BFE431030038B5084C9E
:107BC00004F108030546002818BF1C4623682BB1A2
:107BD0001A6822605B6828469847F7E738BD00BFFF
:107BE00020B0002020B9054B01225A70FFF7E6BFF4
:107BF000012802D1014A9070F8E7704718B00020C0
:107C000020B9034B01225A70FFF7D8BF704700BF5D
:107C100018B0002038B50B4C237883B90A4863604C
:107C2000A3602361E36001F0A3FD054604F02CF995
:107C300008B901F0B3FD01232370284638BD85251E
:107C4000FBE700BF18B00020E57B020037B51E4CF3
:107C5000237805461BB91D49E92004F05DFAA37895
:107C600003F0FF02D3B115B16B68012098470023E0
:107C70000DF107008DF80730FFF7DCFDE3689DF894
:107C800007000133E360FFF705FEE36823B90F49FE
:107C900040F2051004F040FA03B030BD0DF10700CA
:107CA0008DF80720FFF7C6FD25B1226913463BB9C1
:107CB0002A602561E368002BE0D101F08DFDDDE74E
:107CC0009D42F7D01B68F2E718B000203432030061
:107CD00013B5154C237823B914494FF4857004F07B
:107CE0001BFAE36823B9114940F20B1004F014FAAF
:107CF00002A8002300F8013DFFF79CFDE368013B6B
:107D0000E360E36853B904F0BFF818B1074979207C
:107D100004F002FA01F096FD0023A3709DF807001D
:107D2000FFF7B8FD02B010BD18B0002034320300D8
:107D3000012813B509D003D303281BD002B010BD0E
:107D4000134B0122C3F88020F8E702A80023114C4E
:107D500000F8013DFFF76EFD23780BB9FFF75AFFDE
:107D6000E3689DF807000133E3600123A370FFF788
:107D700091FDE3E7074B1B7823B9074940F2452003
:107D800004F0CAF901F00AFDFFF7A2FFD6E700BF31
:107D900000E100E018B0002034320300034B1878F3
:107DA00010B901221A707047852070472CB000204E
:107DB0001FB503788DF800304368019383688DF810
:107DC0000830C3680393054A054B684653F82130D1
:107DD00052F82110984705B05DF804FB30B0002040
:107DE00034B000201FB503788DF80030436801934C
:107DF00083688DF80830C3680393054A054B6846CD
:107E000053F8213052F82110984705B05DF804FB73
:107E100030B0002034B00020F0B5194B067891F84E
:107E20001DE043F82620174B94460A6943F82620A4
:107E3000154B03F806E00C4607460FCC89B06D469B
:107E40000FC594E80F0085E80F000496BEF1000FFF
:107E50000AD0BCF1000F0D4A694608BF0022381D48
:107E600003F098F909B0F0BDBCF1000F084A69466B
:107E700008BF002207F10C0002F052FEF2E700BF3B
:107E800034B0002030B0002080BC0020B17D020062
:107E9000E57D020010B5044618B90649312004F00A
:107EA0003BF9A2682AB163692168206998470023D9
:107EB000A36010BD893203000EB433B5059D04469E
:107EC00018B91249422004F027F963691BB90F4918
:107ED000432004F021F923681BB90C49442004F025
:107EE0001BF963681BB90949452004F015F93DB138
:107EF00002AA06AB42F8043D2946204600F06EF87F
:107F000002B0BDE8304003B0704700BF89320300C3
:107F1000826830B40468551C8560A154D0E90132F0
:107F20009A4202D330BCFFF7B5BF30BC70470000A7
:107F30002DE9F84F9946DDE90A43174682468846FF
:107F40000A460126BA420FD24E4538BF4E4613F0BC
:107F5000010B01D164B900240125B9F1010F1AD92F
:107F600009F1FF397D43F8E7B2FBF7F20136E9E7A3
:107F70009B070ED5B9F1000F0CBF30252025A64276
:107F8000EAD2013C29465046FFF7C2FF002CF6D149
:107F9000E1E72025F3E7B8FBF5F39F42E2D9DFF8EC
:107FA0003890B8FBF5F3504619F8031005FB138819
:107FB000FFF7AEFFB5FBF7F5002DF2D1BBF1000FD7
:107FC00002D00CB1A64201D3BDE8F88F2021504663
:107FD000013CFFF79DFFF4E7CF3203002DE9F74F97
:107FE0000E469046054620B9AC494FF4A27004F005
:107FF00093F86B6923B9A9494FF4A37004F08CF886
:108000002B6823B9A54940F2471004F085F86B6846
:1080100023B9A2494FF4A47004F07EF8002E00F0BA
:108020003A8116F8011B002958D0252940F0D1804B
:10803000002702E047F001071646324612F8013BDE
:108040002D2BF7D0302B04D02B2B05D147F0040774
:10805000F2E747F00207EFE700242A2B06F10102BE
:108060001BD1D8F80030191DC8F800101B6816463F
:108070001C4433782E2B1CD101364FF0000A3146B8
:1080800011F8012BA2F13000092814D80A2303FBB0
:108090000A23A3F1300A0E46F1E712F8013CA3F1DE
:1080A00030010929E5D80A2101FB0434303C164689
:1080B000D3E74FF0000A324612F8011B01F0FB0033
:1080C00068281646F8D0692916D054D8582970D097
:1080D0000ED825297DD03378002BA2D12B7B002B05
:1080E00000F0D980284603B0BDE8F04FFFF7D2BEBC
:1080F000632968D06429EED1D8F80020111DC8F892
:108100000010D2F8009089EAE972A2EBE9724FF010
:10811000010B092A61DCD34538BFD3462CB1B9F134
:10812000000F01DB790700D5013CBA0702D5BAF18F
:10813000000F04D0FB0702D4002C54D10024B9F165
:10814000000F58DAC9F100092D212846FFF7E0FE9B
:1081500007F00302022A05D1BAF1000F02D1002C68
:108160004DD10024CDE9004753460A22494628460E
:10817000FFF7DEFEAFE7732954D016D87029AAD1D5
:10818000D8F800301A1DC8F80020302128461C6895
:10819000FFF7BEFE78212846FFF7BAFE002208232B
:1081A000CDE9003221461022E1E775292FD0782948
:1081B00091D1D8F800100A1DC8F80020CDE9004779
:1081C000534610222CE0D8F800301A1DC8F80020C1
:1081D00019782846FFF79CFE7DE70A230BF1010B77
:1081E00092FBF3F295E7A345A9D220212846013C52
:1081F000FFF78EFEA0E77807AAD52B21A5E7A345B8
:10820000B0D230212846013CFFF782FEA7E7D8F81C
:108210000010CDE900470A1DC8F8002053460A2285
:108220000968A4E7D8F800301A1DC8F80020F9073B
:10823000D3F8009012D54F46A7EB090B17F8011B96
:1082400041B9A345BFF447AF20212846013CFFF7C1
:108250005FFEF6E72846FFF75BFEEDE7B9F1000F9A
:1082600017D0484604F08CFB0746BC4200D954B9ED
:1082700009F1FF3919F8011F00293FF42CAF2846F6
:10828000FFF746FEF6E720212846013CFFF740FEB7
:10829000EBE74F46E9E703B0BDE8F08FDF320300BC
:1082A0007047000007B5044B0093044A402300F0D8
:1082B00032F803B05DF804FBC182020039B000203F
:1082C0002DE9F84389461446B2B10F4B0F4E0325F2
:1082D000002743F00108224609EB07010020FEF7C2
:1082E00063FC0744241A48B933782BB14FF47A4021
:1082F000C047013D02D13570BDE8F88301233370DA
:10830000002CE8D1F8E700BF4033030038B000206C
:108310007047FEF79BBCF0B595B01C461646084664
:108320000D4600F032FD1A9B0D93CDE90864002440
:108330002346082205A928460A948DF82C400C945F
:1083400000F04CFD079B0293BDF81830ADF80C30DF
:10835000BDF81A30ADF80E309DF814308DF811408C
:1083600003F00302012A1DD1BDF81440059EC3F39A
:10837000C203C4F383148DF81030A20008230EA9A1
:10838000284600F02BFDC6F3952608AB0093224645
:1083900002AB0EA9304600F09DFB284600F0F9FC28
:1083A00015B0F0BD022AF8D1BDF81640C3F3C203E0
:1083B000A4098DF810300827082C264628BF082667
:1083C0003B4632460EA9284600F008FDA41B08AB28
:1083D00002AA31460EA8374400F0E0FB002CEBD196
:1083E000DBE7000008B5FFF794FF0421064800F022
:1083F000D7FA002803DA0549412003F08DFE044B2B
:1084000001225A7108BD00BF4C45030054330300DC
:10841000B8980020037813F0040216D003F0030389
:10842000012B03D0022B09D0012070470A68008875
:108430000232C0F3831002440A60F5E70B684288F9
:10844000023303EB92130B60EEE710467047000017
:108450002DE9F04F89B00646871C08A8484C0092C9
:1084600000230D4600F8113DFFF7E4F923682B6067
:10847000D4E901231344226801339B1A04F21C48F7
:1084800004F5836B04F21449BB421AD3009A00230B
:10849000002A6DD0012262F3010343F0040366F366
:1084A00089132168A2689DF80F000A4003320F4427
:1084B00044F822302760FFF7EDF9012009B0BDE84C
:1084C000F08F01214046FFF7C9FA5846FFF7DCFA62
:1084D0000DF1200A4846FFF7D7FA60684AF8100DF8
:1084E000A5682840033004EB80005146FFF792FF57
:1084F00002460498002AF4D105EA000304EB830342
:10850000811CDB6805930130054004EB850503F011
:108510000303012B0491ED6823D0022B08D01949E5
:1085200001924FF4BF7003F0F7FD019A154607E082
:10853000BDF816309B0903332D0C01EB9303049314
:108540004846FFF7A4FA08B1049B636029464046F9
:10855000FFF784FAD4E901231344226801339B1AFC
:1085600092E7BDF81430C3F383132D0C0B44E6E7F8
:10857000022262F3010343F0040366F39F5390E782
:108580004CB10020C33303000B4B0C48FF2210B545
:108590009A600022C3F81824C3E90022C3F8142407
:1085A000012283F8202400F0A9FB044610B90448F6
:1085B00000F02AFC204610BD4CB100209C44030072
:1085C0001C34030030B50A4C71B10A4A0A49121B27
:1085D000D20800239A4201D1002030BD31F8235047
:1085E000854202D00133F5E7034654F83300F4E73F
:1085F000044403009C44030088A20020094B013975
:1086000003EBC000032909D8DFE801F00A020406E1
:108610000420704700797047407970470020704708
:108620000220704704440300034BD3E90030C31A0F
:1086300058425841704700BF4CB100202DE9F0432B
:1086400087B0FFF7F1FF0646002840F0FC807F4D21
:10865000C5F81804BFF34F8F6868AC6806AF47F8D9
:10866000100D2040033005EB80003946FFF7D2FEA5
:10867000029B18B1D5F81824002A5FD004EA03023F
:10868000991C013305EB8202234005EB8303D2687A
:10869000DB68049302F00303022B0392029162D180
:1086A000BDF80E306A484FEA9318B8F1500FC14632
:1086B00028BF4FF0500969F38F1309F10801ADF895
:1086C0000E3000F033FB0746002800F0A78000F0D2
:1086D0005CFB03A900230822384600F069FB0299DD
:1086E00024EA01060136B600B14535D95FFA89F9A9
:1086F0007EB3F6B2A9EB0609214003315FFA89F493
:10870000B146544E05EB810108234A46384600F035
:108710004FFB36B109F1080322463146384600F0D6
:1087200047FB029B08F1030803EB98030293D5F87B
:108730001834002B4BD1D5F810445BE02A689A42DC
:1087400004D86A60304607B0BDE8F08304EA03004D
:1087500088E740493446D7E72140033108234A4699
:1087600005EB8101DAE7012B58D1BDF80C30384810
:10877000C3F38311062928BF062161F3891302314F
:108780008900ADF80C3000F0D1FA0746002845D03A
:1087900000F0FBFA0023082203A9384600F008FB8A
:1087A0000026BDF80C20C2F38312B31C96424FEA98
:1087B0008303BCD202994A1C21400331029205EB8B
:1087C00081010422384600F0F3FA0136E9E7384621
:1087D00000F0DFFAFFF728FF80F00100C6B2B1E732
:1087E000E3685B7923B1236839461B6820469847C4
:1087F000E3681C68002CF3D1384600F0CAFA06A8DA
:1088000000F8114DFFF716F8D5F818340BB9029B94
:108810006B609DF80700FFF73DF8DBE7D5F81044E3
:1088200054B90D4B0D480E49C01AC008000440F061
:10883000020000F083F8CDE7236820469B68984744
:10884000E3681C68ECE700267CE700BF4CB1002021
:108850009C44030058B10020044403005C4403001E
:10886000283403002DE9F74F2F4C80460F469146E0
:1088700001A9012218469B46D4F808A0FFF7E8FD9D
:1088800000283DD0019D0026A91C5E4506EB010293
:1088900040D100212548FFF7C1F880F3100B244B8D
:1088A000244A4FEA18499B1AB9EBD30F04D3224943
:1088B00040F2A31003F030FC6B1C03EA0A0304EB44
:1088C000830349EA0B42DA6005EA0A030333012114
:1088D00014F8232068F3C50204F8232034F8232079
:1088E00066F3891224F8232054F8232067F39F228B
:1088F00044F8232061F301026FF3820204F823207D
:1089000094F820341BB1FFF799FE0028FBD103B087
:10891000BDE8F08F0AEA020204EB820259F8263021
:10892000D3600136B1E700BF4CB1002068B500202C
:108930009C44030004440300C333030000231A468D
:10894000FFF790BF13B502AC012344F8042D224673
:10895000FFF788FF02B010BD07B5CDE90023022361
:108960006A46FFF77FFF03B05DF804FB1FB5CDE952
:108970000123069B039301AA0323FFF773FF05B0AE
:108980005DF804FB1FB5CDE90023069B0293079B0E
:1089900003936A460423FFF765FF05B05DF804FB07
:1089A00030B5134AD2F810440023214651B9C468A7
:1089B0002371D2F810445CB9C2F81004C268116087
:1089C000184630BDC9680D799D420AD00968EDE7A7
:1089D000E468C16824680C60D2F81024D268106082
:1089E000EEE701330A2BE0D14FF0FF33E8E700BF99
:1089F0004CB1002038B5094A0123D2F8104482F85E
:108A000020341D4604B938BDE3685D7123682046F3
:108A10005B689847E3681C68F4E700BF4CB100202E
:108A200010B5037A052B0C460FD0437A23B1084AC0
:108A300008492046FFF740FA07492046FFF73CFA6D
:108A40002046BDE81040FFF725BA002AF8D0F3E72A
:108A50007334030078340300AC28030073B5C38873
:108A600004460D4633B1144A00921449144A28466C
:108A7000FFF722FA217A05291CD0637A4BB1A0882E
:108A8000FFF7BCFD0F4B104953F820202846FFF795
:108A900013FA227A0D4BA08853F822600021FFF7C9
:108AA00091FD0B4903463246284602B0BDE87040AE
:108AB000FFF702BA02B070BD7334030083340300C1
:108AC0007B3403004034030078340300A8340300EF
:108AD0009B3403002DE9F04385B01F460C9D002315
:108AE00006460C46904695F80C902B73294638465E
:108AF000FFF7B4FFB8F1060F09D8DFE808F0041259
:108B0000181F2833400031462846FFF7D5F90022C8
:108B100029463846FFF784FF85F80C9005B0BDE87C
:108B2000F083226831462846FFF7C6F9EFE7D4E91B
:108B3000002331462846FFF7BFF9E8E7A368009312
:108B40003146D4E900232846FFF7B6F9DFE7E368AA
:108B50000193A36800933146D4E900232846FFF728
:108B6000ABF9D4E723690293E3680193A368009308
:108B70003146D4E900232846FFF79EF9C7E7636929
:108B8000039323690293E3680193A368009331463A
:108B9000D4E900232846FFF78FF9B8E708292DE923
:108BA000F84F80460E4617461C4635D8002593F8E8
:108BB0000C901D7319461046FFF750FFDFF88CA08C
:108BC000DFF88CB0AE4229D918F805205946204666
:108BD000FFF772F90135082DF4D11A49DFF874B0A6
:108BE0002046FFF769F94FF0000A564524D918F8D6
:108BF0000A507E2D17D92E2259462046FFF75CF9E0
:108C00000AF1010ABAF1080FEFD1012221463846D4
:108C1000FFF706FF84F80C90BDE8F88F5146204618
:108C2000FFF74AF9D6E703F04FFC2844427812F0E8
:108C3000970FE0D02A46DFE703492046FFF73CF9CB
:108C4000DEE700BF6E3403006C3403006A340300B7
:108C500064340300703403002DE9F74F99469DF802
:108C60003030019388461746054618B92249B62088
:108C700003F052FAEA8895F805B00BFB02FBABF162
:108C8000040BCB4503D81C49C42003F045FA3E68C9
:108C9000B5F806A006EB09025A4509F1040188BFA0
:108CA000ABEB0906B1FBFAF43E600AFB141144B9C0
:108CB000AAEB0107B74228BF37462EB903B0BDE87B
:108CC000F08F2D68013CF2E7019A043108EB0403B0
:108CD000681872B101463A461846F61B03F018FCB4
:108CE000B2453C442D6857464FF0000128BF374637
:108CF000E3E73A461946F0E707350300FEF7CABE38
:108D0000F8B546790146721E0546002393422D6848
:108D100003D30024A64202D8F8BD0133F6E70F685A
:108D20002846FEF723FF01343946F3E72DE9F843DF
:108D3000CD1C068A0746FEF7EBFE043E354404468A
:108D4000B5FBF6F5F0B14FF48073EDB28380C680C9
:108D5000013D076081464FF00008A84512D2384611
:108D6000FEF7D6FE064648B163790133637108F118
:108D70000108C9F8000007608146EEE72046FFF7CA
:108D8000BFFF34462046BDE8F88301210430FEF7DA
:108D900065BE10B5012104460430FEF76AFE10F0EE
:108DA000FF0F04D12046BDE81040FFF7A9BF10BD5A
:108DB00030B585B0144604AA002542F8044D00954C
:108DC000FFF74AFF039BA34203D00349F62003F0B9
:108DD000A3F905B030BD00BF0735030030B585B03D
:108DE000144604AA012542F8044D0095FFF734FF0C
:108DF000039BA34204D003494FF4807003F08CF925
:108E000005B030BD07350300826800239360826897
:108E10001361826853618268D3608268536082689C
:108E200013607047026813685268934291BFD01A6A
:108E300080680130801888BFC01A704738B50C466A
:108E4000054618B90449772003F066F9AB68A342D8
:108E50008CBF601C002038BD603503002DE9F8434D
:108E600003681D685C68A54284BF836801331746A8
:108E7000884694BF641B5C1BC2684168BC420646BE
:108E800005FB02110CD37A43404603F041FBB36863
:108E90003D449D4288BF002533681D60BDE8F883CE
:108EA00004FB02F94A46404603F032FBF26871685F
:108EB0003C1B624308EB090003F02AFB33681C608B
:108EC000ECE7000073B50E461446054620B912497A
:108ED00040F2D51003F020F926B90F494FF4EB709A
:108EE00003F01AF9A4B102A8002300F8013DFEF72F
:108EF000A1FC2846FFF796FF844228BF044622467D
:108F000028463146FFF7AAFF9DF80700FEF7C2FC8E
:108F1000204602B070BD00BF6035030037B504467F
:108F200020B90B4940F2EF1003F0F6F802A8002533
:108F300000F8015DFEF77EFC0C222946206803F054
:108F400081FB9DF80700FEF7A5FC03B030BD00BF14
:108F50006035030013B5044620B90B4940F2FD10FB
:108F600003F0DAF802A8002300F8013DFEF762FCE6
:108F70002046FFF757FF04469DF80700FEF78AFCDE
:108F8000204602B010BD00BF6035030010B5044696
:108F900020B9064940F20A2003F0BEF82368186899
:108FA0005B68C31A5842584110BD00BF60350300CA
:108FB00038B5044620B9054940F2122003F0ACF858
:108FC0002046A568FFF7C6FF281A38BD60350300A4
:108FD0002DE9F843044616468846FFF7E9FF236863
:108FE000A5685A680135AD1A8146E2685868636819
:108FF000B54202FB003017D37243414603F088FAB2
:109000002268A168536833448B4296BF5368002698
:10901000F61856602046FFF705FF23689A688242DB
:1090200038BF9860BDE8F88305FB02F73A46414631
:1090300003F06EFAE2686068751B6A4308EB07018B
:1090400003F066FA2368B1455D60E3D225682046E7
:109050006968FFF7F3FE2860DCE7000073B50E4691
:109060001446054620B915494FF4B47003F054F87E
:1090700026B9124940F2691003F04EF8A4B102A8D3
:10908000002300F8013DFEF7D5FB2B7C7BB9AB68D4
:109090009C4228BF1C46284622463146FFF798FFCF
:1090A0009DF80700FEF7F6FB204602B070BD28468B
:1090B000FFF77EFF844228BF0446ECE760350300DB
:1090C00038B50D46044618B90849502003F024F875
:1090D0001DB90649512003F01FF825602B68636015
:1090E0006A68934204BF0023636038BDAE35030055
:1090F00010B5044618B90B49632003F00DF8236836
:109100001BB90849642003F007F8636843B122687B
:1091100091680B4463605268934204BF002363600C
:1091200010BD00BFAE35030043691B68DB6803B1A7
:1091300018477047012303707047000010B50446BC
:1091400018B90849922002F0E7FF2368012B03D0E9
:109150000449932002F0E0FFBFF35F8F00232360F8
:1091600010BD00BF1736030010B4074C0378E35C52
:1091700023B104305DF8044B02F072B90C305DF895
:10918000044B01F02BBE00BF80BC002010B4074C84
:109190000378E35C23B104305DF8044B02F0E0B9DE
:1091A0000C305DF8044B01F095BE00BF80BC002080
:1091B00070B50578012D06460C4603D029D3022D43
:1091C00025D070BD4B69027A1B6841685B681868DE
:1091D000FFF744FF337A834205D903212046BDE8D7
:1091E0007040FFF7A1BF29462046FFF79DFF636946
:1091F0001B689B6820465A7A5968FFF7C7FF00280A
:10920000DFD011499B20BDE8704002F085BF2946A0
:10921000E4E74B691B685A689D6856680021204640
:10922000FFF782FF2A7A29683046FFF74BFE0028B5
:10923000C7D0C2B229682046FFF796FF0028C0D0E9
:109240000149B220DFE700BFB136030010B5044684
:1092500018B90749852002F05FFF01212046FEF77B
:10926000DDFBBFF35F8FB0FA80F0400910BD00BF97
:10927000173603000378044AD35C13B1043002F0BC
:1092800063B90C3001F01ABE80BC002003681A7864
:1092900012B11B6903B11847704700002DE97043F4
:1092A00004464FF4FA784FF400404FF00009E0FB19
:1092B0000189164600234FF47A724046494609F068
:1092C000F5F80428054604D8012333700020BDE8D2
:1092D0007083074A00212046FEF732FA0028F6D1B3
:1092E000324629462068BDE87043FEF73BBA00BF0E
:1092F000359102002DE9F04743691B68064618784E
:109300000F46144618BBFF2A28BFFF24DFF84C90F5
:109310002546274406F10C0A337819F80330A7EBE9
:10932000050883B1301D02F0B3F900B115B9601B17
:10933000BDE8F087012241463046FFF727FF0028AD
:10934000F5D1013DE8E7504601F05AFEEDE75B68D4
:10935000BDE8F0471868FFF7B5BD00BF80BC00202E
:10936000F0B50E4689B01546044608B101B11AB9E8
:109370004449BF2002F0D0FE63691B68002B7ED1F8
:109380002B783BB16B680BB1AB681BB93D49C92069
:1093900002F0C2FE31462022684603F0B9F82B786D
:1093A0000494991E4A424A41002B8DF81D206946BB
:1093B000354A204608BF0022FEF72EFD064600284B
:1093C00038D163691D6063691B685B6843B1586885
:1093D000FFF7A4FD63691B685B681868FFF79EFDD3
:1093E000656915F1080F03D12849722002F094FE37
:1093F0000023AB60BFF35F8F67693A1D1D4603D141
:109400002249722002F088FE7D60BFF35F8F63699E
:1094100003221A73009B013301BF6269137B23F09F
:1094200002031373019A6369013206D11A7B22F099
:1094300001021A73304609B0F0BD1B681B78022B7D
:1094400009D163691B689B6820465A7A5968FFF7FF
:109450009DFE0646EEE723780D4AD35C53B10D49D5
:1094600040F25A2002F058FE63691B681B78002BFB
:10947000E7D1DFE704F10C0001F0CAFDF4E785262F
:10948000D8E700BFB1360300B191020017360300E0
:1094900080BC00206336030010B5044620B91C4987
:1094A0004FF4827002F038FE6069036873B30430D1
:1094B000FFF7CCFE40B160690830FFF7C7FE28B95E
:1094C00060690430FFF73AFE112019E02378114A51
:1094D000D35CB3B1201D01F069FF63691B685B6851
:1094E00043B15868FFF71AFD63691B685B68186829
:1094F000FFF714FD10220021606903F0A3F800209B
:1095000010BD04F10C0001F00FFCE6E78020F7E746
:10951000B136030080BC00202DE9F7430A9F88463E
:1095200016469946044620B9344940F2A31002F089
:10953000F3FD60690368002B57D0037BDA0756D52B
:10954000002E38D00830FFF781FE002851D00023CC
:109550008DF804307B1C30D135462A4641462046E2
:10956000FFF7C8FE2D1A80440ED09DF804306069C4
:10957000002B37D003681B7833B12378204AD35CA3
:109580005BB3201D02F08CF8B9F1000F02D0761BFE
:10959000C9F800609DF804302BB9013703D0E369A6
:1095A0001868FEF723F960690830FFF7C7FD15B1A9
:1095B0009DF80430FBB900250BE001AA3946E069AB
:1095C000FFF76CFE05460028C6D060690830FFF73B
:1095D000B5FD284603B0BDE8F08304F10C0001F0AE
:1095E0002DFDD1E7FFF752FEB7E78025F1E708250B
:1095F000EFE71125EDE70D25EBE700BFB1360300DE
:1096000080BC002073B50E46044620B92B494FF4A8
:10961000FD7002F081FD60690368002B46D0027B7B
:10962000920745D51B78002B3ED00430FFF70EFE85
:1096300000283FD000238DF80430731C0DD001AA00
:109640003146A069FFF72AFE054630B16069043053
:10965000FFF774FD284602B070BD63691B685B6844
:109660005868FFF793FC054640B96069FFF70EFEA6
:109670009DF80430002BF0D0002504E02046FFF7D1
:10968000F9FD0028F1D19DF804302BB9013603D043
:10969000A3691868FEF7AAF860690430FFF74EFD69
:1096A00015B99DF804303BB90025D3E78025D1E7F3
:1096B0000825CFE71125CDE70D25CBE7B13603000F
:1096C00013B5044620B9154940F2592002F024FD93
:1096D00060690368E3B1037BDB071BD50830FFF744
:1096E000B5FDC8B101220DF107012046FFF702FECA
:1096F0000028F7D163691B685B68186808B1FFF739
:109700000DFC60690830FFF719FD002002B010BDA4
:109710008020FBE70820F9E71120F7E7B1360300C6
:109720000D4930B5A1F594720225914201D800206F
:109730000EE08B1ADB1093FBF5F302EBC30452F837
:109740003330834205D802D204F10802EDE76068A5
:1097500030BD2146E9E700BF3C38030008B5FFF7FC
:10976000DFFF024B002808BF184608BD0137030081
:1097700010B5044618B90749A02002F0CDFC064BED
:10978000187920B901221C601A71587110BD85200A
:10979000FCE700BFF63B030008B6002008B50B4B02
:1097A0001B791BB90A49B92002F0B6FC094B1A68AB
:1097B000D2075FBFE02283F8002301221A604FF036
:1097C00080430122C3F8182508BD00BF08B6002059
:1097D000F63B030000E100E037B5144B1B791BB9E1
:1097E0001349E62002F098FC124B00221A601B6815
:1097F0000193019B4FF080430222C3F804230E4AD9
:10980000D06840F08073D3600C4B1C6844F00101B9
:1098100019605D685968491BB1F50A5FFAD31C608D
:10982000074BD06001221A6003B030BD08B600209B
:10983000F63B030004010040F0ED00E0001000E002
:109840000800004008B5084B1B791BB90749F320F5
:1098500002F062FC064B01221A604FF08042D2F8FF
:109860001834DB03FBD408BD08B60020F63B030028
:109870000C00004007B5154B1A687AB100221A6037
:109880001B680093009B4FF080430122C3F808231C
:109890000F4B587910B95A711B6898470D4B1A68CD
:1098A00082B100221A601B680193019B4FF0804334
:1098B0000222C3F80823064B1B68012003B05DF8A1
:1098C00004EB184703B05DF804FB00BF0001004043
:1098D00008B600200401004000F1804000F5C040BF
:1098E000002382B0036003680193019B02B07047BC
:1098F000054B4FF0FF32072843F8202084BF1B1888
:1099000083F84820704700BF10B6002002494FF48A
:10991000F37002F001BC00BFA52A03001F2838B570
:1099200004460D4601D9FFF7F1FFA00000F1A04069
:10993000D0F8003723F44033C0F80037D0F80037B0
:1099400043EA0543C0F8003738BD000010B5164C97
:1099500094F8583033BBFF21E2180133202B82F8F2
:109960003010F9D10021C8B2FFF7C2FF01310C2934
:10997000F9D1042200210D4802F064FE0C4BE022D4
:1099800083F8062340221A604FF4BE70FFF7A4FF4D
:10999000084B4FF00042C3F80423012384F85830E9
:1099A000002010BD0820FCE710B6002064B600209F
:1099B00000E100E000600040034B93F858000030E5
:1099C00018BF0120704700BF10B600201F2870B5D7
:1099D00004460D4604D941494FF4987002F09CFBAF
:1099E0003F4E96F85830012B04D03C4940F23110DC
:1099F00002F092FB25B939494FF4997002F08CFBC3
:109A0000331993F93020013265D1AA78002A54D055
:109A1000002356F8231001314FEA830248D131194F
:109A200002F1804281F83030002102F5C04246F850
:109A30002310D2F810052B78697820F498101B04B5
:109A4000090520F4F85001F4801103F44033C2F802
:109A500010050B432102D2F8100501F4F8510B4315
:109A60000343C2F810356B78012B4FF0010528D164
:109A70001F2C01D9FFF74AFF4FF0A043A540C3F8C0
:109A800008551F2C01D9FFF741FF04F5E0724FF094
:109A9000A043032143F82210E2081249012304F0F5
:109AA000070403FA04F48B5C1C438C54002003E08D
:109AB0000133082BADD1042070BDFE2283F8302085
:109AC000D1E71F2C01D9FFF721FF4FF0A043A5409C
:109AD000C3F80C55D5E70820EEE700BF493C03006A
:109AE00010B6002064B600201F28F8B5044604D93B
:109AF0001D494FF4B47002F00FFB1C4D2B1993F964
:109B00003030013304D1184940F2691002F004FBEF
:109B1000291991F83000072809D8FFF7E9FE91F9D3
:109B20003030134A03F5A273002142F82310254474
:109B3000FF23104F85F83030E60804F007030125B5
:109B40009D40BB5D2B420ED01F2C01D9FFF7DEFEDE
:109B50004FF0A04304F5E074022243F82420BB5DDB
:109B600023EA0505BD55F8BD493C030010B60020A9
:109B70000060004064B600201F2838B5054604D9AF
:109B800012494FF4BE7002F0C7FA114C621992F9F3
:109B90003020013204D10D4940F27D1002F0BCFAB0
:109BA000631993F83030072B04D808494FF4BF707D
:109BB00002F0B2FA1F2D01D9FFF7A8FE012303FA24
:109BC00005F54FF0A043C3F8085538BD493C0300E4
:109BD00010B600201F2838B5054604D912494FF4A5
:109BE000C37002F099FA114C621992F930200132D7
:109BF00004D10D4940F2871002F08EFA631993F8F0
:109C00003030072B04D808494FF4C47002F084FAAE
:109C10001F2D01D9FFF77AFE012303FA05F54FF056
:109C2000A043C3F80C5538BD493C030010B60020D2
:109C30001F2838B5054604D914494FF4CD7002F0F9
:109C40006BFA134C631993F93030013304D10F4987
:109C500040F29B1002F060FA631993F83030072B42
:109C600004D90A494FF4CE7002F056FA2C4494F904
:109C700030309B0003F1804303F5C043D3F8102537
:109C800042F00302C3F8102538BD00BF493C030071
:109C900010B600201F2838B5054604D90D4940F2FA
:109CA000B91002F039FA0C4C631993F83030072BD5
:109CB00004D908494FF4DD7002F02EFA601990F9CA
:109CC00030000C308000C0B200F1804000F5C04090
:109CD00038BD00BF493C030010B600201F2838B52E
:109CE000054604D90D494FF4E37002F015FA0C4C07
:109CF000631993F83030072B04D9084940F2C71094
:109D000002F00AFA601990F9300018308000C0B2F1
:109D100000F1804000F5C04038BD00BF493C030061
:109D200010B600201F2870B506460D4604D9174905
:109D30004FF4E97002F0F0F9154CA31993F93030A3
:109D4000013304D1114940F2D31002F0E5F9A3190F
:109D500093F83030072B04D90C494FF4EA7002F025
:109D6000DBF93444003594F930304FEA830303F1D2
:109D7000804303F5C04318BF0125D3F8101521F423
:109D8000801141EA0551C3F8101570BD493C03002C
:109D900010B600202DE9F04F87B000245B4A5C4EDE
:109DA0005C4D039401211368A2F5C040012B80B2E1
:109DB00006D1D6F804330B4202D0FFF78DFD0C43D9
:109DC0000432AA424FEA4101EDD1534B1B68012BEB
:109DD0000AD14FF4BE70FFF77FFD4FF0A04344F06F
:109DE0000044D3F81035039314F0FF0F1AD04B4FF3
:109DF00000250126344210D0AB0003F1804303F567
:109E0000C043D3F81005D3F8101557F82530C0F328
:109E10000420C1F3014103B198470135082D4FEAF1
:109E20004606E7D1002C6EDA00224FF0FF33CDE971
:109E300004233A4F4FF0000A56464FF0A04907EB73
:109E40000A0393F95040631C46D0E4B2012224F087
:109E5000C00504F0070B02FA0BFBEB0806AAD118A9
:109E600011F8042C12EA0B0F36D07A19A40992F9D2
:109E7000302057F82280B8F1000F0AD1032C2BD1E3
:109E80000DF1100C1CF8030040EA0B000CF8030065
:109E900001E0032CF4D01F2D03D90191FFF736FD0B
:109EA000019911F80C1C05F5E07311EA0B0F59F834
:109EB0002330C3F3014320D0022B0DD1032C05D155
:109EC00021462846FFF72AFD0136F6B2B8F1000F09
:109ED00002D021462846C0470AF1010ABAF1040F10
:109EE000ADD186B14FF0A043039AD3F810359A4212
:109EF00009D00393049B05939CE7032BECD1032C1F
:109F0000E4D10221DDE707B0BDE8F08F0061004039
:109F100000600040206100407C61004010B60020DD
:109F20002DE9F74F4FF00009154D164E07464FF03B
:109F3000040AC8465FFA89FB01240DF1070004FA00
:109F40000BF48DF80780FDF775FC2C4208D03368C0
:109F500014EA030201BF2343336087F800B092463E
:109F60009DF80700FDF796FCBAF1000F03D0A5435A
:109F700009F10109DED1504603B0BDE8F08F00BF02
:109F8000FFFF01006CB6002037B501258540C5F301
:109F90001003A3B10B4B02A80024C3F8085500F826
:109FA000014DFDF747FC084A9DF80700136823EAB6
:109FB00005051560FDF76EFC204603B030BD072097
:109FC000FBE700BF00F001406CB6002010B5A1B166
:109FD0009AB101238340C3F3100484B10A4C24686E
:109FE00023420ED0C00000F1804000F5F830C0F8E8
:109FF0001015C0F81425002010BD0E20FCE7072026
:10A00000FAE70820F8E700BF6CB60020012303FA46
:10A0100000F0430C5B044BB918B1064B1B681842A7
:10A0200006D0054BC3F80405002070470720704791
:10A03000082070476CB6002000F00140012303FAAD
:10A0400000F0430C5B044BB918B1064B1B68184277
:10A0500006D0054BC3F8080500207047072070475D
:10A06000082070476CB6002000F0014010B5054C88
:10A0700022681AB90449512002F04EF82368BDE85D
:10A080001040184770B60020A23C030037B50D46BB
:10A0900030B90F49772002F03FF8002003B030BDFF
:10A0A0000C4B9842F9D102A8002300F8013DFDF7BE
:10A0B000C1FB094B1C7914B901221D601A719DF86E
:10A0C0000700FDF7E7FB002CE7D01120E6E700BF13
:10A0D000A23C03000020004070B6002018B90649D9
:10A0E0009B2002F019B8054B984201BF044B002297
:10A0F0001A601A71704700BFA23C030000200040A4
:10A1000070B600200023435082B043580193019B56
:10A1100002B0704770B5D0F8103105460C4653B107
:10A120004FF48871FFF7EEFF63795A0703D5236870
:10A130000BB101209847D5F814315BB14FF48A7107
:10A140002846FFF7DFFF63791B0703D523680BB1B0
:10A1500002209847D5F81C315BB128464FF48E7128
:10A16000FFF7D0FF607910F0100002D1236803B12F
:10A170009847D5F8043163B14FF482712846FFF750
:10A18000C1FF0123237123681BB10320BDE8704088
:10A19000184770BD01490248FFF7BCBF78B60020E0
:10A1A00000C0014001490248FFF7B4BF80B600205B
:10A1B0000010024001490248FFF7ACBF88B60020FA
:10A1C0000020024000F1804000F5E040002382B012
:10A1D000036003680193019B02B07047F0B5514BD7
:10A1E000514C1B6885B0DBB14FF4827094F82E207F
:10A1F000FFF7E8FF12B194F82F30A3B16368029320
:10A200002389ADF80C30E36800218DF80410002B91
:10A2100044D12374236801A89847002384F82F3081
:10A2200094F82E3003B3414B1B68EBB14FF48070B0
:10A23000FFF7C8FF94F82D20638B91B28B4238D979
:10A240005B1A21899BB26383CB1A616801EB4301DE
:10A25000374BC3F82C16C3F830264FF48270FFF743
:10A26000B1FF344B01221A60334B1B685BB14FF4D2
:10A270008870FFF7A7FF002304A82374022300F8C7
:10A280000C3D236898472D4B1B6813B34FF48A701D
:10A29000FFF798FF0023237405B0F0BD208B608387
:10A2A00063602081E160002AB4D1214B01221A6051
:10A2B000B0E7D2D1E368012184F82F103BB100212F
:10A2C00061831B49C1F82C36C1F83026C5E763838A
:10A2D000C3E766694FF000470125002EDCD0B6FACF
:10A2E00086F227FA02F34632920026EA030602F1CA
:10A2F000804303F5E0431B68002BEED01046FFF7C8
:10A3000061FFA2F58C72D30882F00402C2F38002CE
:10A310008DF808308DF804508DF80920236801A8C5
:10A320009847DAE70471004090B6002000710040C1
:10A330000070004004700040107100401471004033
:10A3400002494FF4F37001F0E7BE00BFA52A0300F5
:10A350001F2810B5044601D9FFF7F2FF012303FAC5
:10A3600004F44FF0A043C3F80C4510BD1F2810B5EE
:10A37000044601D9FFF7E4FF012303FA04F44FF088
:10A38000A043C3F8084510BD13B54FF04023D3F8E0
:10A3900018310BB3114B124C00221A601B68019349
:10A3A000019B236823B90F494FF4277001F0B4FED5
:10A3B000E07FFF2803D0A37F5BB1FFF7C9FF002335
:10A3C00063772372D4E90031074802B0BDE810403A
:10A3D0001847FFF7CBFFF2E702B010BD184100406D
:10A3E000C0B60020FF3C0300C8B600202DE9F743AB
:10A3F000002406460F4600F5A0754FF48038A146AC
:10A4000004F150002B68800080B26BB1D6F80433A1
:10A4100008FA04F21A4207D0C5F800902B6801939D
:10A42000019BD7E9003198470134042C05F104055C
:10A43000E6D103B0BDE8F0832DE9F347544B07792B
:10A44000154602689A4204460E4603D151494820F7
:10A4500001F062FE1EB94F494A2001F05DFE1DB9B0
:10A460004C494B2001F058FE4B4A0C2303FB0723B9
:10A4700090461B7A002B40F089802368444A93421F
:10A480000FD002F5805293420BD002F580529342D6
:10A4900007D002F58032934203D002F580529342F6
:10A4A00002D1B378032B03D93A495F2001F034FE7F
:10A4B0000C237B4308EB030248F803507368536096
:10A4C0000022154660792168D3B2984202F1010258
:10A4D00054D8F578AB1E4FEA113A012B4FFA8AF99E
:10A4E00006D96B1F022B03D92C496B2001F014FEF7
:10A4F000B9F1000FAEBF09F160430AF00F03284A1B
:10A5000028484FEA4515EDB2AABF03F56143D5547B
:10A5100083F8005323681B0B59B24909012203F049
:10A520001F0302FA03F340F8213020687378D0F853
:10A53000041503F0030321F003010B43C0F80435B5
:10A540002068B378D0F8081503F0030321F0030165
:10A550000B43C0F8083520683378D0F8101503F0A5
:10A560000F0321F00F010B43C0F810350C2303FB40
:10A57000078700203A7202B0BDE8F0879B0003F520
:10A58000A073CD50CB580193019B9BE70820F2E7C5
:10A5900000800040503D0300E4B600209D3D0300D4
:10A5A00014ED00E000E100E038B50B4C02790C211D
:10A5B00001FB02420546127A012A03D007498F2087
:10A5C00001F0AAFD2B6801221A602B790C2202FBF4
:10A5D000034302221A7238BDE4B60020503D030046
:10A5E00038B50A4C02790C2101FB02420546127A69
:10A5F0001AB90749972001F08FFD2B6801221A61D3
:10A600002B790C2101FB03431A7238BDE4B60020FC
:10A61000503D030038B503681B0B5AB201215209A3
:10A6200003F01F0301FA03F320320C4941F82230F2
:10A6300003680025D3F80022C3F8005203684FF0E6
:10A64000FF320446C3F80823FFF7CAFF2379044A00
:10A650000C2101FB03231D7238BD00BF00E100E0A7
:10A66000E4B6002010B5084A03790C2101FB03234E
:10A6700004461B7A1BB90549B32001F04DFD236840
:10A680000122DA6010BD00BFE4B60020503D030097
:10A6900073B54FF480348C4005688BB101F15003E1
:10A6A0009B000026EE50EB580193019B0368C3F812
:10A6B0000443036801F5A87143F8212002B070BD7E
:10A6C000C5F80843F5E7F0B407689DF810C0D7F85F
:10A6D000004240F201158D4024EA0504C7F800420B
:10A6E0000568D5F800422343C5F80032F0BC634644
:10A6F000FFF7CEBF37B5134A03790D460C2101FB96
:10A70000032304461B7A1BB90F49FB2001F004FD0B
:10A710006379AB4203D80C49FC2001F0FDFC05F144
:10A7200050039B0022689BB20021D150D358019363
:10A73000019B23684FF48031A940C3F8041303B090
:10A7400030BD00BFE4B60020503D030038B50E4ACE
:10A7500003790D460C2101FB032304461B7A23B920
:10A760000A4940F2071001F0D7FC6379AB4204D8E4
:10A7700006494FF4847001F0CFFC23684FF4803118
:10A78000A940C3F8081338BDE4B60020503D0300CB
:10A7900001490248FFF72ABEE4B6002000800040CD
:10A7A00001490248FFF722BEF0B6002000900040A9
:10A7B0000023435082B043580193019B02B070477D
:10A7C000F0B5504C236887B023B94F4940F245207B
:10A7D00001F0A2FC4D4AD2F824311546A3B14FF442
:10A7E00092711046FFF7E4FFD2F8043163B9A36811
:10A7F000C2F808330223A360A368C2F8043301231C
:10A800001362536107B0F0BDD5F80431002B49D075
:10A810003F4F3E484FF48271FFF7CAFF0FCF01AEA2
:10A820000FC63B68336094F82E307BB1237B012B3D
:10A830000CBFD5F83C25D5F84C250292022B334BA2
:10A840000CBFD3F83C35D3F84C3503934FF4B071BB
:10A850002E48FFF7ADFF4FF4AE712C48FFF7A8FF6D
:10A8600094F8303013B194F82E303BB1274B0022CE
:10A87000C3F80022A260274AC3F80823234AD2F86B
:10A88000C434C2F8C4349A0736D501238DF8003099
:10A8900094F830300BB984F82F30D4E90031684691
:10A8A0009847AFE74FF4A4711848FFF781FF237B67
:10A8B00083B9174F0FCF01AE0FC63B68336094F8D2
:10A8C0003030002BDAD1C5F80032A360114BC5F847
:10A8D0000833D3E74FF40073C5F8003240F2022387
:10A8E000A36003F1CE73C5F80833A368C5F8043339
:10A8F0000123AB602B6285E713F0040318BF02232A
:10A90000C4E700BFFCB60020E73D03000030004074
:10A9100008B7002002029C010023435082B0435834
:10A920000193019B02B070470A4610B54FF48E7137
:10A93000FFF7F2FF136A9168C95C136A013313626F
:10A94000C0F81C1510BD08B502464FF4927100689E
:10A95000FFF7E2FF4FF484711068FFF7DDFF136823
:10A9600001221A6008BD10B58B690A464FF4847144
:10A9700023B9FFF7D1FFD0F8183510BDFFF7CCFF92
:10A98000536AD168D0F81805C854536A013353622A
:10A99000F3E7000002494FF4F37001F0BDBB00BFC4
:10A9A000A52A03001F2810B5044601D9FFF7F2FFBE
:10A9B00004F5E0744FF0A043022243F8242010BDB8
:10A9C0001FB501238DF80030044BCDE90110D3E908
:10A9D00000126846904705B05DF804FB30B70020D0
:10A9E00030B54D4AD2F8043313F4007F85B01546D4
:10A9F0004FD0D2F82431002B4BD04FF49271104637
:10AA0000FFF78AFF4FF40173C2F80833434B93F802
:10AA1000291009B9012151603F4902228DF8002017
:10AA2000D1F88024C1F8802403929A690292DA68EE
:10AA300001920022C3E906226846D3E9001290473A
:10AA40003548D0F81C315BB134490A6A4B699A42E7
:10AA50000A464CD291F82830002B48D1FFF764FF0A
:10AA60002D4AD2F8443193B14FF4A2711046FFF74A
:10AA700053FF2A4B93F8291009B1012111609A69FB
:10AA80002AB100229A61586AD968FFF799FF05B088
:10AA900030BDD5F804335B07D2D5D5F80831002B8B
:10AAA000CED01E4C1C482146FFF75DFF636AA269A9
:10AAB0009A422346C4D1E26952B12369E168E36056
:10AAC0000023606AA261E3616362FFF779FFB7E781
:10AAD00094F829200AB901226A600F4A4FF40171E3
:10AAE000C2F8081300229A61586AD968EDE74FF45A
:10AAF0008E710948FFF710FF51690029B0D000237B
:10AB0000029191688DF80030019153616846D2E955
:10AB100000139847A4E700BF0020004030B7002092
:10AB20002DE9F84F054692460C4619B97749AA20F7
:10AB300001F0F2FA764B2E792C2202FB063298466F
:10AB400092F82A20002A40F0DD8072492868FFF739
:10AB50009DFA0746002840F0D780D4F80090B9F15C
:10AB6000FF3F18D0B9F11F0F01D9FFF713FF4FF0C6
:10AB7000A043012202FA09F2C3F80825D4F800B074
:10AB8000BBF11F0F994601D9FFF704FF0BF5E07BDE
:10AB9000032349F82B30D4F80490B9F1FF3F0BD0D0
:10ABA000B9F11F0F01D9FFF7F5FE09F5E0794FF074
:10ABB000A043002243F829202B68A269C3F824256A
:10ABC000217D637D2A680B43C2F86C35D4E90021EE
:10ABD0002B68C3F81415C3F80C25237D012B35D140
:10ABE000D4F80890B9F1FF3F0BD0B9F11F0F01D98C
:10ABF000FFF7D0FE09F5E0794FF0A043002243F8BB
:10AC00002920D4F80C90B9F1FF3F18D0B9F11F0FEB
:10AC100001D9FFF7BFFE4FF0A043012202FA09F26B
:10AC2000C3F80825D4F80CB0BBF11F0F994601D921
:10AC3000FFF7B0FE0BF5E07B032349F82B30D4E996
:10AC400002212B68C3F80815C3F810252C23734381
:10AC500008EB0302C2F804A0226948F80320BAF105
:10AC6000000F3CD04FF48E712868247FFFF754FE0C
:10AC70004FF4A2712868FFF74FFE2B68264AC3F8ED
:10AC800004232B684FEA133AA31E012B4FFA8AF9CB
:10AC900006D9631F022B03D920496B2001F03CFA2F
:10ACA000B9F1000FACBF09F160431D4B4FEA4414EA
:10ACB000B8BF0AF00F0AE4B2AABF03F5614303F874
:10ACC0000A4083F800432B681B0B5AB2012103F0A2
:10ACD0001F0301FA03F35209124941F822302B688D
:10ACE0000422C3F800252C2303FB06830022C3E9BA
:10ACF000062283F829205A61012283F82A20384647
:10AD0000BDE8F88F0827FAE71127F8E7383E030077
:10AD100030B70020E1A90200800002009D3D030041
:10AD200014ED00E000E100E02DE9F8430368057947
:10AD3000274E0022C3F800252C2303FB056304469D
:10AD40005B6883B10368234AC3F8082303681B0BBD
:10AD50005AB20121520903F01F0301FA03F3203212
:10AD60001D4941F8223023684FF0FF32D3F80C051B
:10AD7000D3F81495D3F80875D3F81085C3F81425C3
:10AD8000C3F80C2523689042C3F80825C3F81025A2
:10AD900001D0FFF707FEB9F1FF3F02D04846FFF7A9
:10ADA00001FEB8F1FF3F02D04046FFF7FBFD7B1CE0
:10ADB00002D03846FFF7F6FD2068FFF78FF92C2305
:10ADC00003FB0565002385F82A306B60BDE8F88336
:10ADD00030B700208402020000E100E02DE9F84FC6
:10ADE000344E90F804802C2303FB0863074693F845
:10ADF0002A30012B8A46934604D02F4940F2151081
:10AE000001F08AF9BAF1000F04D12B494FF48B708D
:10AE100001F082F9BBF1000F04D1274940F217106D
:10AE200001F07AF93B792C2404FB03635D69002D62
:10AE30003BD108FB04694FF48E71C9F82050C9F862
:10AE400014B0C9F808A089F828503868FFF764FDE5
:10AE50003B6801229A6049463868FFF765FDD9F8DA
:10AE600004304C461BBB3D68226A63699A4211D389
:10AE70003B68D3F81C21002AFBD00122DA600020B5
:10AE80002C2303FB086600237361BDE8F88F94F858
:10AE9000283043B9D5F81C31002BF8D04946284654
:10AEA000FFF742FDE0E70F20EAE71120EDE7284633
:10AEB000EBE700BF30B70020383E03000379044AB7
:10AEC0002C2101FB03235869003018BF0120704773
:10AED00030B700202DE9F843474E05792C2303FBBA
:10AEE0000563074693F82A30012B8846144604D0A0
:10AEF000424940F2691001F00FF9B8F1000F04D196
:10AF00003E494FF4B57001F007F924B93B4940F2CE
:10AF10006B1001F001F92C2303FB0563596821B183
:10AF20003B684FF40172C3F808232C2303FB05632D
:10AF30009A6952B1DA69002A3FD021B13B684FF4D7
:10AF40000172C3F80423112035E09C61C3F80C8022
:10AF50005A62DA612C2303FB056393F829301BB98D
:10AF600012B93846FFF7EFFC4FF02C0909FB0568D2
:10AF70003868D8F80430002B35D14FF4A271FFF7B0
:10AF8000CBFCC1463868D0F82431D0F80821D0F87D
:10AF90004441BAB90CB9002BF4D02C2202FB056550
:10AFA0000022AA6123BB2CBB95F829103B68012223
:10AFB000B9B11A600020BDE8F883C3F81080DC61E5
:10AFC0000122C7E7002BE8D1002CE6D14946FFF764
:10AFD000CAFCD8F82430D8F818209A42D2D8234690
:10AFE000DBE75A60E6E74FF40173C0F80433E1E7AA
:10AFF0000320E0E70F20DEE730B70020383E0300F3
:10B000000368D3F80801003018BF01207047000022
:10B0100070B50279084C2C2505FB0242064692F8D1
:10B0200029303BB9FFF78FFC337905FB034301223D
:10B0300083F8292070BD00BF30B7002003684FF4AB
:10B040000172C3F80823036801225A607047002385
:10B05000435082B043580193019B02B070470000F7
:10B0600002494FF4F37001F057B800BFA52A03005E
:10B070001F2810B5044601D9FFF7F2FF04F5E0746C
:10B080004FF0A043022243F8242010BD1FB5012336
:10B090008DF80030044BCDE90110D3E90012684669
:10B0A000904705B05DF804FB5CB700207FB5374AD8
:10B0B000D2F82461002E48D010464FF49271FFF769
:10B0C000C6FF02238DF80030D2F88034C2F88034F5
:10B0D0000393D2F83C3502932D4BDA68019200229B
:10B0E000C3E906226846D3E900129047274AD2F8FE
:10B0F00044317BB14FF4A2711046FFF7A8FF244BF7
:10B10000996939B10021C3E90611D968D2F83C0523
:10B11000FFF7BCFF1D4AD2F82031A3B14FF4907164
:10B120001046FFF794FF1A4B596961B1D2F84C15DC
:10B130000291002299688DF8002001915A616846B9
:10B14000D3E90012904704B070BDD2F81031002B43
:10B15000CCD04FF488711046FFF779FF0C4BD2F832
:10B160003C0599698842C1D1DC69D96864B1D2F8DB
:10B17000005225F02005C2F800521A699C61DA607D
:10B18000DE61FFF783FFB1E79C61FAE70020004032
:10B190005CB700202DE9F84F054692460C4619B9D8
:10B1A0007B49CD2000F0B8FF7A4B2E79242202FB98
:10B1B0000632984692F82020002A40F0E580764931
:10B1C0002868FEF763FF0746002840F0DF80D4F8C8
:10B1D0000090B9F1FF3F18D0B9F11F0F01D9FFF767
:10B1E0003FFF4FF0A043012202FA09F2C3F80825FD
:10B1F000D4F800B0BBF11F0F994601D9FFF730FF1B
:10B200000BF5E07B032349F82B30D4F80490B9F117
:10B21000FF3F0BD0B9F11F0F01D9FFF721FF09F54F
:10B22000E0794FF0A043002243F829202B68A2695F
:10B23000C3F82425217D637D2A680B43C2F86C3551
:10B24000D4E900122B68C3F80C15C3F81425237D2C
:10B25000012B35D1D4F80890B9F1FF3F0BD0B9F1EB
:10B260001F0F01D9FFF7FCFE09F5E0794FF0A0436D
:10B27000002243F82920D4F80C90B9F1FF3F18D0F0
:10B28000B9F11F0F01D9FFF7EBFE4FF0A0430122E8
:10B2900002FA09F2C3F80825D4F80CB0BBF11F0F6D
:10B2A000994601D9FFF7DCFE0BF5E07B032349F853
:10B2B0002B30D4E902212B68C3F80815C3F81025F8
:10B2C0002423734308EB0302C2F804A0226948F860
:10B2D0000320BAF1000F46D04FF488712868247F0C
:10B2E000FFF7B5FE4FF490712868FFF7B0FE4FF4FA
:10B2F00092712868FFF7ABFE4FF4A2712868FFF740
:10B30000A6FE2B68254AC3F804232B684FEA133A9C
:10B31000A31E012B4FFA8AF906D9631F022B03D90A
:10B320001F496B2000F0F8FEB9F1000FACBF09F126
:10B3300060431C4B4FEA4414B8BF0AF00F0AE4B252
:10B34000AABF03F5614303F80A4083F800432B6862
:10B350001B0B5AB2012103F01F0301FA03F3520938
:10B36000114941F822302B680822C3F80025242314
:10B3700003FB06830022C3E906225A61012283F8F7
:10B3800020203846BDE8F88F0827FAE71127F8E7AC
:10B39000893E03005CB70020ADB00200100302003C
:10B3A0009D3D030014ED00E000E100E02DE9F843CD
:10B3B00003680579274E0022C3F80025242303FBE8
:10B3C000056304465B6883B10368234AC3F8082316
:10B3D00003681B0B5AB20121520903F01F0301FA43
:10B3E00003F320321D4941F8223023684FF0FF3229
:10B3F000D3F80C05D3F81495D3F80875D3F8108555
:10B40000C3F80C25C3F8142523689042C3F8082517
:10B41000C3F8102501D0FFF72BFEB9F1FF3F02D092
:10B420004846FFF725FEB8F1FF3F02D04046FFF740
:10B430001FFE7B1C02D03846FFF71AFE2068FEF77D
:10B440004DFE242303FB0565002385F820306B6047
:10B45000BDE8F8835CB700201003020000E100E0C3
:10B460002DE9F843364E0779242303FB076304468E
:10B4700093F82030012B8846914604D031494FF48F
:10B48000927000F049FEB8F1000F04D12D4940F24E
:10B49000251000F041FEB9F1000F04D129494FF405
:10B4A000937000F039FE237913B9B9F1FF0F04D975
:10B4B000244940F2271000F02FFE08F06043B3F15A
:10B4C000005F37D12379242505FB03635A69002ADD
:10B4D00032D105FB07654FF49071C5F81490C5F89B
:10B4E00008802068FFF7B3FD4FF4AC712068FFF7C8
:10B4F000AEFD23686969A868C3F84405C3F8481518
:10B500002368012199606B68C3B92268D2F82011C1
:10B51000D2F8583149B9002BF8D00F20242303FB6F
:10B52000076600237361BDE8F883002B14BF0F206A
:10B530000020F3E71020F6E71120F4E71046F2E7C9
:10B540005CB70020893E03000379044A242101FBF3
:10B5500003235869003018BF012070475CB70020F2
:10B560002DE9F041484E0479242303FB046305468A
:10B5700093F82030012B8846174604D043494FF4F6
:10B58000B77000F0C9FDB8F1000F04D13F4940F297
:10B590006F1000F0C1FD27B93C494FF4B87000F0BE
:10B5A000BBFD2B790BB9FF2F04D9384940F271103C
:10B5B00000F0B2FD08F06043B3F1005F61D12423D5
:10B5C00003FB0463596821B12B684FF40472C3F87C
:10B5D0000823242303FB04639A6952B1DA69002A21
:10B5E0003DD021B12B684FF40472C3F8042311201D
:10B5F00033E09F61C3F80C80DA614FF488712868EA
:10B60000FFF725FD4FF4A2712868FFF720FD2B6896
:10B61000C3F83485C3F838752B682ABB01221A6039
:10B620002A792B68242101FB0261496819BBD3F8F0
:10B630001041D3F84411D3F8240114B909B90028F2
:10B64000F5D0242303FB02660023984214BF032095
:10B6500018469942B36118BF0F20BDE8F081C3F8C6
:10B660001080DF610122C8E7D3F8002242F02002F7
:10B67000C3F80022D4E74FF40472C3F80423002077
:10B68000EBE71020E9E700BF5CB70020893E03002C
:10B690000368D3F81001003018BF01207047000084
:10B6A0000379084A242101FB0323DB6933B10268D3
:10B6B000D2F8003223F02003C2F8003203680122DE
:10B6C0005A6070475CB7002070B5C0B14AB11688A7
:10B6D0000024B44203D305196D789D4208D0A142DD
:10B6E00001D800200BE0055D01352C44A4B2F0E741
:10B6F000A142F6D9A31C1380005D013880B270BD51
:10B7000037B502AC002324F8023D13462246054615
:10B71000FFF7DAFF10B1BDF80600284403B030BDD2
:10B7200072DF704773DF704738B5012204460D465B
:10B73000B0F83812D0F83402FFF7E2FF00B105701C
:10B7400004F13C0204F50D7104F15400BDE83840E9
:10B75000FFF7E6BFF8B5077804460D46002F00F066
:10B76000058100F24A26A17007220021304600F030
:10B7700069FFE38813B1A378012B04D0E3794BB1BF
:10B78000A378022B06D1636BA3B1012284F8512266
:10B7900008209847334604F5147113F8012F12B9A5
:10B7A0009942FAD117466B1E032B53D8DFE803F0FA
:10B7B000050B0F1284F85132ECE7A3791BB194F812
:10B7C000243003B95FB9E3790BB1002F44D1237A58
:10B7D000002B43D1637A002B0CBF00250425636B3B
:10B7E000A570002B3CD0033D012D39D86279002A89
:10B7F00036D094F85222002A32D184F85422012201
:10B8000084F853220720984704F13C0518220021B0
:10B81000284600F017FFE36A94F824200121581EFF
:10B82000884288BF0B4684F83C1084F8513032B10E
:10B83000884296BFA36A84F8521084F85230A178E7
:10B84000002384F8503004291BD8DFE801F0770D7D
:10B85000223559000025C2E70225C0E70325BEE7CF
:10B86000002384F85332CFE7C4F84432C4E91063AC
:10B870000223012284F83C30802384F83120A4F88C
:10B880004830A378002B5CD1636B002B6AD1002079
:10B8900067E0022384F8313062B1072384F83C303A
:10B8A0002369A4F848300023C4F84432E3682664CE
:10B8B0006364E6E70323F1E763696364A369A4F8BB
:10B8C000483012B1062384F83C306379B3B194F860
:10B8D00052329BB994F8543283B1022384F8503029
:10B8E00004212046FFF720FF0028CAD1052384F851
:10B8F000313004F50D73C4F84432C2E70323F6E790
:10B90000E3696364236AA4F8483012B1062384F81B
:10B910003C30637983B194F852326BB994F8543265
:10B9200053B1022384F8503004212046FFF7FCFE77
:10B930000028A6D10623DAE70423D8E784F83130BB
:10B940009FE72A46D4F8441204F15400FFF7E8FEBA
:10B9500038B994F8301094F85400FFF7E3FE00284B
:10B9600092D0F8BD94F83100984790E70820F8E7A6
:10B9700010B50388112B0C460AD0262B1FD0102B94
:10B9800005D1C37B012B02D18388A1F8483210BDB9
:10B99000002381F852328288B1F848329A42F6D1B7
:10B9A0000B79002BF3D101212046FFF7D3FE0028AD
:10B9B000EDD0A36B002BEAD0BDE810401847037A06
:10B9C000013B012BE3D889780523013191FBF3F387
:10B9D00003EB8303C91AC9B2E6E77047034B1A8821
:10B9E00082420CBF18460020704700BF9CB7002061
:10B9F000024B9B6903B11847704700BF80B7002016
:10BA000013B50B46497A0F4C024669B9D4E90110C7
:10BA10001C7A002C18BF01465868FBF7A3FE08B13A
:10BA2000FFF7E6FF02B010BD002119726369002B19
:10BA3000F8D00121ADF806008DF8041001A8984750
:10BA4000F0E700BF80B7002030B583880588B3F5E4
:10BA5000FA7F24BF6FF4F9729C184A8838BF00241B
:10BA600095420CD84088904209D38A88A24206D3D6
:10BA700003F2F310904234BF0020012030BD0020BB
:10BA8000FCE7000070B50388112B014648D002D8AE
:10BA9000102B1ED070BD122B52D0502BFAD12F4B31
:10BAA000C288DB899A42F5D1038A022BF2D18688BB
:10BAB0003046FFF793FF05460028EBD001F1120056
:10BAC00000F050F830BB6868FBF790FE0028E1D02A
:10BAD00009E0C37B012BDDD14FF6FF70FFF77EFF3E
