:020000022000DC
:1060000000000120F9B9020021BA0200E97902007A
:1060100025BA020027BA020029BA020000000000D7
:106020000000000000000000000000002BBA020089
:106030002DBA0200000000002FBA020031BA02009F
:10604000E590020033BA0200DD98020031A00200A0
:10605000F99B020033BA0200059602004D9A020035
:1060600001A0020011A0020033BA020033BA0200FC
:1060700033BA020033BA020033BA020033BA020064
:1060800033BA02001D73020033BA020033BA0200B1
:10609000B973020033BA0200ADB4020033BA020091
:1060A00033BA020033BA020033BA020033BA020034
:1060B000059A020033BA0200000000000000000050
:1060C00033BA0200159A0200259A020033BA020080
:1060D00033BA020033BA020033BA020000000000F3
:1060E00000000000000000000000000000000000B0
:1060F00000000000000000000000000000000000A0
:10610000000000000000000000000000000000008F
:10611000000000000000000000000000000000007F
:10612000000000000000000000000000000000006F
:10613000000000000000000000000000000000005F
:10614000000000000000000000000000000000004F
:10615000000000000000000000000000000000003F
:10616000000000000000000000000000000000002F
:10617000000000000000000000000000000000001F
:10618000000000000000000000000000000000000F
:1061900000000000000000000000000000000000FF
:1061A00000000000000000000000000000000000EF
:1061B00000000000000000000000000000000000DF
:1061C00000000000000000000000000000000000CF
:1061D00000000000000000000000000000000000BF
:1061E00000000000000000000000000000000000AF
:1061F000000000000000000000000000000000009F
:1062000010B5054C237833B9044B13B10448AFF3F0
:1062100000800123237010BD90A200200000000028
:10622000A838030008B5034B1BB103490348AFF37B
:10623000008008BD0000000094A20020A8380300E0
:10624000154B002B08BF134B9D46A3F5803A002148
:106250008B460F461348144A121A05F0EBFC0F4BFD
:10626000002B00D098470E4B002B00D09847002001
:10627000002104000D000D48002802D00C4807F052
:1062800041FD05F0E7FB2000290000F03DFA05F094
:10629000D1FB00BF0000080000000120000000004A
:1062A0000000000090A200200CB9002005DD0200D3
:1062B000D5EE02000000000008B501F079FA0BF0FD
:1062C00073F805A3D3E900230BF002FA0BF0AEFB41
:1062D00008BD00BFAFF30080FCA9F1D24D62404081
:1062E0000B1A814238BF03F1FA6318467047000069
:1062F0002DE9F04F2DED028BA54C83B00746FFF73B
:10630000DBFF25888046002D00F02E81A14DAB7863
:1063100013F0010FA04B1B7814BF29262A26002B4F
:1063200000F09081238805EB43035B8908EE103A67
:10633000032BBAEECF8A40F27B8118EE100A0BF0E5
:1063400045F802460B46804689468BA1D1E90001FB
:106350000AF0DCFE8AA3D3E900230BF08FF886A3B2
:10636000D3E900230BF0B4F942464B460BF0B0F9E9
:1063700041EC100B0AF010FD0BF016F882A3D3E9E4
:1063800000230BF07BF80BF029FB2288834B07EEF0
:10639000902A1B88F8EEE76A07EE903A804BF8EEF9
:1063A000E77A93ED007AE6EE877AB0EE677A07EE49
:1063B000900AF8EEE77A77EE277A9FED7A7AF5EE93
:1063C000C07AF1EE10FA40F1358177EE877AFCEE73
:1063D000E77A754917EE903A5B0001339BB25B0890
:1063E00007EE903A0A230B70531CEA7881ED028A7B
:1063F0009BB2FAEECD7A06F001069A424FF0000009
:106400002380C1ED017A0E7398BF208003B0BDECEC
:10641000028BBDE8F08F01A801F052FA0028FAD1F2
:10642000FFF74AFF0146614805F04EFC019A002A39
:106430000DDBBBF1090F2AD8DFE80BF0051A20238A
:10644000464A595D8F91AA2A21D04FF0000BD946B8
:10645000CB46FFF731FF01464046FFF741FFB84208
:10646000D9D9BBF10A0F00F084806FF00100CDE7AD
:106470004F4B45F2AA511980552AE5E74D4B1A803A
:1064800005E04C490B8803EB02230B80D5B20BF1DE
:106490000109B9F10A0F0AF80B20D9D1FFF70CFF57
:1064A0003C4ADFF824A180466D0000269144FFF7A6
:1064B00003FF01464046FFF713FFB84240F28680D3
:1064C000AE4200F0A080D0E7D007BED5334BD6E770
:1064D0003249DFF8DCC00B88BCF8000003EB022374
:1064E0009BB258405B08ACF800000B80CFE7D107A7
:1064F000ABD5314BC3E7304930480B8803EB02235F
:106500009BB20380012D4FEA53030B80244902D133
:1065100000230B60BBE72148B0F800C02848634562
:1065200007D2BCF5874F16D9B3F5B45F13D203F584
:10653000B443A3EB0C0307EE903A6B1E07EE103A40
:10654000F8EEE77AB8EEC77AC7EE876AC1ED006A5F
:10655000C0ED006A9BE70368DBE7328097E733888A
:1065600003EB0223338092E7AB46DFF828A0154EF9
:106570006FE74FF0000991E79A99999999696340FB
:10658000CDCCCCCCCCCC35408FC2F528DCA5AC40F2
:10659000CEA30020C4A20020A8980020B0A2002012
:1065A000B4A200200000B446D0A30020841D030044
:1065B000AEA20020C0A20020BCA20020BEA20020EB
:1065C000B8A20020ACA20020C2A2002001A801F0C5
:1065D00077F90028FAD1019A002AFFF668AFF3078D
:1065E00091B222D5BAF8003003EB0123164908888E
:1065F0009BB2AAF8003043400B8009F80620013610
:10660000B5427FF454AF104A1049138809884B40B3
:106610000F4909884B4013800E4A12889A420E4B4C
:1066200014BF002201221A7070E6AAF80010E4E7F5
:106630000020AAE6F4EEC77AF1EE10FAC8BF77EEB2
:10664000C77AC4E6238010E7AEA20020C0A20020D3
:10665000BEA20020ACA20020A898002010B5034BD9
:1066600004460FCB84E80F00204610BDD0A30020C5
:10667000014B01221A70704700A4002070470000EF
:106680000378022B04D1054A5E21406800F0BBBAB2
:10669000012B02D1014A6321F7E77047401E030036
:1066A00038B5054C05462A460021204600F000FC7E
:1066B0001128F8D038BD00BF9C1D0300014800F030
:1066C000A3BD00BF9C1D03001FB50A4B0A4A0093DF
:1066D0004FF48073CDE902230193084A0848072349
:1066E000694601F0ABF8044601F002F9204604B017
:1066F00010BD00BF01A4002028A500208166020073
:10670000A41D030001F0F6B8F0B54FF400418DB0C0
:10671000002001F0BBFF18B1384AAF2100F073FA36
:1067200001F0E2FE3648374D05F0CEFA4FF0A043B7
:106730004FF40002C3F818254FF08072C3F81825F3
:106740004FF00072C3F818250FCD07AC0FC42B68AB
:106750002D4A2E48236007A900F0B4FB18B1274A40
:10676000C62100F050FA00F061F8294A29482A4E63
:10677000012100F0B7FF00224FF40041274800F04C
:10678000C3FF274805F0A0FA3220FFF789FFFFF783
:1067900095FF244805F098FA234805F095FAFFF78D
:1067A00093FF0028FBD14FF4FA60FFF7A1FD10BB67
:1067B00003A8FFF753FF9DED057AF2EE047AC7EECA
:1067C000277A4FF4B47517EE900A0AF0FFFDDDED5D
:1067D000047A9DF80C300093FDEEE77A024617EE3E
:1067E000904A0B4694FBF5F7304605FB174105F040
:1067F0006BFA01F07DF8FFF785FFD0E7401E03003C
:10680000C41D0300881D0300716602009C1D030067
:106810007D6602003C1E0300141E0300E0A300205E
:10682000D61D0300EB1D0300FA1D030010B501F097
:1068300073FA852804D018B1094A352100F0E3F92C
:10684000002001F085FA00F009FF8528044604D0F5
:1068500018B1034A3B2100F0D6F9204610BD00BF15
:10686000471E030038B5054D044645F001054FF4B9
:106870007A40A847013CFAD138BD00BF701F030021
:106880007FB505460E46144672B602F035F901F0A2
:1068900057FF0028FBD13E4805F016FA41F20103EC
:1068A0009D4264D006D8012D12D03146394805F0FA
:1068B0000BFA10E044F201039D425AD044F2020365
:1068C0009D42F2D122886168334805F0FDF902E06B
:1068D000324805F0F9F902F0A7FC08B902F06EFCA5
:1068E0000023ADF80C308DF80E3003A901231920D8
:1068F0008DF80D3002F0A2FC03A9182002F09EFCD6
:1069000003A9172002F09AFC192002F09BFD182021
:1069100002F098FD172002F095FD4FF4FA70FFF792
:10692000A1FF192002F060FD182002F05DFD172084
:1069300002F05AFD3220FFF795FF192002F082FD88
:10694000182002F07FFD172002F07CFD4FF4FA7052
:10695000FFF788FF192002F047FD182002F044FDE0
:10696000172002F041FDFA20FFF77CFFCCE70C482E
:10697000AFE7A568284602F029FB2368019600933B
:10698000024663680748294605F09EF9A3E700BF61
:10699000AB1E0300481F0300031F0300C41E0300B7
:1069A000E11E03001E1F030007B502F03DFC08B9FD
:1069B00002F004FC0023ADF804308DF8063001A984
:1069C000012319208DF8053002F038FC01A91820A8
:1069D00002F034FC01A9172002F030FC192002F06B
:1069E00031FD182002F02EFD172002F02BFD4FF490
:1069F000FA70FFF737FF192002F0F6FC182002F0BA
:106A0000F3FC172002F0F0FC3220FFF72BFF1920D7
:106A100002F018FD182002F015FD172002F012FDFB
:106A20004FF4FA70FFF71EFF192002F0DDFC18206A
:106A300002F0DAFC172002F0D7FCFA20FFF712FF71
:106A4000CCE70369C1688B429DBF8268D21802F10E
:106A5000FF3203F1FF3394BF501A581A70472DE9E3
:106A6000F041D0E902670446F61B4068964288462A
:106A70001546384405D905F043F83D44E560BDE8C6
:106A8000F0813246AD1B05F03BF82A4608EB0601C3
:106A9000606805F035F8F1E72DE9F843C56806466A
:106AA000894617464FF000083469B3687068A542FC
:106AB00028BFE418013C621B5C1BBC4228BF3C465B
:106AC000944228BF144649462844224605F018F847
:106AD000B3682544AB4208BF00253F1BA044A14436
:106AE000F560E1D14046BDE8F883000010B5114CD7
:106AF000114AA2610223C4E90433104BE361A2648A
:106B00004FF400730E4A2362E264002310220D4901
:106B1000A362E01D6362E362A3656365E3652265CA
:106B200005F0AEF90849204605F0AAF92023A37123
:106B300010BD00BF50B80020761F030058AA0020E7
:106B400048AA00207F1F0300831F0300F8B5184CDC
:106B5000182300FB033503FB00402544C46A012CC5
:106B60000F46164611D003D3022C1BD000240AE096
:106B70002846FFF766FF864205D832463946284642
:106B8000FFF76DFF34462046F8BD2846FFF759FF52
:106B90008642344628BF0446224639462846FFF737
:106BA0005EFFF0E72846BDE8F840FFF775BF00BF7D
:106BB00050B8002073B50D4B1B7804460D461646A1
:106BC0000BB9FFF793FF02A8002300F8013D00F086
:106BD000B3FE324629462046FFF7B8FF04469DF82B
:106BE000070000F0D9FE204602B070BD50B800206A
:106BF000FFF77CBF10B511461C461A460020FFF770
:106C0000D9FF204610BD00B583B0029000910192DB
:106C100044F2010071466A46FFF732FE03B000BD40
:106C20002DE9F8430468054694F8200002F0E4FDDD
:106C300004F11807FF264FF0FF394FF00008207AC3
:106C4000FF2802D002F0D8FD2672607AFF2802D019
:106C500002F0D2FD66722068431C03D002F07CFB78
:106C6000C4F8009084F80B800C34BC42E7D168680B
:106C7000BDE8F84303F006B92DE9F041134DDFF804
:106C800050800E460024012705EB41052B5D5BB1CA
:106C90002B5D013BDBB22B552B5D93B958F82630A9
:106CA0001B683046DB6998474CB167B1084B53F815
:106CB000263002215868BDE8F04103F07FB9012475
:106CC000E4E70027F0E7BDE8F08100BFC8B8002086
:106CD00058AC002040680C4902798B5CDBB2FF2B7A
:106CE0000DD0FE2B0DD0006803F5A87350F82330AB
:106CF000064850F82200984203D1FF238B5400200D
:106D000070470120704700BF6CAC002074AC0020BD
:106D10002DE9F84F012904460D469046066804D92E
:106D20005E4940F25B2004F0EFFC0C2303FB05639B
:106D3000DB7A012B04D059494FF4177004F0E4FCBE
:106D400096F82130022B40F0A4800C276F43F319F2
:106D50005B68984508D1F36913B90020BDE8F88F46
:106D6000626810799847F8E72046FFF7B3FF83463B
:106D7000002840F090806368DFF830A11B79FE2284
:106D80000AF80320266896F8200002F08FFDD1460D
:106D9000B8F1000F1FD13744787A02F087FD387AB6
:106DA00002F06CFD63681B79FF220AF803200C23B4
:106DB00003FB0566C6F804802368DB69002BCCD092
:106DC00063681A79364B03EB420302215955606818
:106DD00003F0C8F8C1E7B169884507D337441FFA03
:106DE00081F8387A02F062FD787AD9E705EB450739
:106DF000BF00F31960685A68914245D0002A43D019
:106E0000904541D25B46032103F07AF8D4F804A000
:106E100096F820B09AF80530032B04D8214940F2A7
:106E2000751004F071FCDAF80030F05903F5A67A19
:106E30000C2303FB05639B7A1BB302F087FB02461E
:106E40005146584602F0FAFC96F8200002F016FD72
:106E500063681B7909F8035063681A79124B43F889
:106E600022800C2707FB05670023424629466068FD
:106E700003F046F8387A02F001FD787A02F0FEFC61
:106E800095E702F03FFBDAE70379FF2209F80320D8
:106E9000E7E7082062E7112060E700BF8A1F0300D0
:106EA000C8B80020D41F030074AC00206CAC0020D4
:106EB00003681B8B5A436423B2FBF3F292B2FFF7D1
:106EC00027BF00002DE9F04F89B08A46059204469D
:106ED00020B9C34940F2113004F016FCBAF1000F9A
:106EE00000F07981266896F82130002B40F07581FA
:106EF00000F0D6FF08B1852821D102F095F900B342
:106F0000B84B1B6803F0F003302B20D10023B64AA6
:106F100000211370FF234FF0FF3286F82030F1720A
:106F2000337273723260F17532757375F26006F107
:106F3000200002F02DFC60B12046FFF771FE042511
:106F400018E002F03BF90028DAD0032512E0012313
:106F5000DDE705465AF825B0EBB2BBF1FF3F0493DD
:106F600000F0AE80276897F8211049B10825204627
:106F7000FFF756FE284609B0BDE8F08F0125E9E786
:106F80000AEB05024FF00C0808FB05F8137A029390
:106F900007EB08024FF001095160937203228DF84C
:106FA00018202268424406A9927A8DF81A90B2FA03
:106FB00082F2520958468DF8192002F03FF9E8B9DB
:106FC000029B47F808B0002B00F0EB80BBF11F0FCD
:106FD00004D986494FF4F37004F096FB4FF0A042B9
:106FE00009FA0BF3C2F80C354FF00C0909FB05F94F
:106FF00009F10800384402F0CBFB08B10425B6E7DC
:1070000009F10900384402F0C3FB0028F6D1B94465
:1070100099F8080002F04AFC99F8090002F046FCD1
:10702000029B57F80800002B00F0CA8002F08EFA8D
:10703000814657F8080002F065FA0C2303FB05733C
:10704000049993F808B063685A798A42804606D852
:107050006749029340F2751004F056FB029B1B68CF
:1070600005F150014A4603EB8101584602F0E6FB68
:107070000C2303FB0573D4F804B093F809909BF834
:107080000530022B04D85A4940F2751004F03CFB3D
:10709000DBF80010424601F5A471484602F0CEFB31
:1070A0000C2303FB05770123FB726368514A1B79AC
:1070B000049902EB4303204600225A55FFF728FEAD
:1070C000002D3FF45BAFDAF810200023B2F5805FAB
:1070D00001D3092B7CD1444A127812B1002B08BF8E
:1070E00001238DF8183000238DF819308DF81A30EF
:1070F0006068414A07238DF81B300379079306A97E
:1071000002F0D2FD054600287FF431AF6368DAF85B
:1071100010001B68D3F81015C9B2050FC1F1200C7F
:107120000001A1F1200720FA01F805FA0CFC48EA59
:107130000C0825FA07F725FA01F948EA0708B9F11A
:10714000010F08BFB8F1000F08D32C4940F2B1205D
:10715000CDE9028904F0D8FADDE90289C6F8188081
:107160006068CDE9028902F0B5FEDDE902890125FA
:107170000095042342460221606802F0DCFE0221F1
:10718000606802F01BFF059BF36163681C4A1B7972
:1071900086F8215042F823401A4AFF21D154002595
:1071A000E8E6BBF11F0F04D910494FF4F37004F067
:1071B000ABFA4FF0A04209FA0BF3C2F8083513E717
:1071C00002F0A0F9814657F8080002F0BFF934E751
:1071D000520801337AE70B25CCE60825CAE600BF42
:1071E0008A1F0300E80F00F088AC00202520030070
:1071F000D41F0300C8B80020796C02006820030087
:1072000058AC00206CAC00202DE9F047076897F8D7
:107210002130044623B91B4940F2973004F074FA38
:107220000026DFF868903D46B0464FF00C0A6368D0
:107230001B7909EB430303F80680EB7A73B12368EB
:1072400028680AFB0633997AB1FA81F1490902F0FC
:10725000A1F9286802F024F9C5F804800C357EB144
:107260006368094A1B79FF21D154606802F032FE3D
:10727000606802F0D1FD022387F82130BDE8F08775
:107280000126D4E78A1F03006CAC0020C8B8002098
:10729000094A537891780133DBB2994208BF002341
:1072A000117899421FBF03705078182303FB002008
:1072B00014BF0430002070478CAC002073B5054625
:1072C00002A8002400F8014D0E4600F035FB0DF138
:1072D0000600FFF7DDFF90B106700A4B9DF806200F
:1072E00045605A709DF8070000F056FB24B9064B24
:1072F0004FF48012C3F80021204602B070BD042470
:10730000F0E700BF8CAC002000E100E0024B4FF43E
:107310003C6043F001031847B0200300F8B51F4953
:107320001F4B0025C1F84051C1F84451C1F84851E4
:10733000C1F84C51C1F80051C1F804511B684BB35E
:10734000D1F8044517490968641A24F07F442F4690
:107350001A68A24209D8A41A15441A7CDE691AB127
:107360001F74D3E905209047AEB90F4B0F4A197827
:1073700013788B4205D10133DBB2022B08BF002307
:10738000137012780A4B43F822500A4B4FF48012C4
:10739000C3F80021F8BD3346DAE700BF0010014012
:1073A000ACAD0020A8AD0020A4AD0020A5AD00200C
:1073B0009CAD002000E100E02DE9F74F9C4A9D497B
:1073C000137809789C4D99423CD00133DBB2022BF3
:1073D00008BF0023137099491278994B0F6853F82E
:1073E00022003B1823F07F4300220B602B681646D7
:1073F0001446944613B942B12B6006E019688142E5
:107400000ED902B12B60091A19604FF001082B68E0
:10741000DFF834A200930027BEB9DFF834B260E091
:10742000401A0C44D968C3F800C0D3F81CE031B14D
:107430003A1922F07F42C3E90121DE611E46012292
:107440007346D7E70026B046E1E73446F6697B4A43
:1074500063681268DFF8FCC1A068991A21F07F41C7
:10746000614500F2A58001442160012222742A684E
:107470000023C4E90133E361002A40F0A2802C60BC
:10748000CAE75A1C9BF80210D2B291428BF8002036
:1074900004BF00228BF80020182202FB03B32A68E5
:1074A00019799C68022974D003297ED0012918D14A
:1074B000217CB1B9DA6862601A69A2605A69E26037
:1074C0009B69A3615F4B1B78002BC0D06160BEE756
:1074D0009C4200F090809946DB69002BF8D1002394
:1074E00023749BF800309BF801209A42C9D12B6885
:1074F0002FB9009A934202D1B8F1000F43D0002B6C
:1075000041D0D3F800A0504D4C4BD5F804751C6801
:10751000DFF844813E1B98F8003026F07F460336A2
:107520009BB94FF48033C5F84433C5F80433474B57
:107530004FF400324FF00109C3F880211A60C5F8FA
:107540000090FFF7E3FE88F80090B2452CBF54444A
:10755000A41924F07F44C5F84045D5F80435DB1B59
:1075600023F07F43E41B033324F07F44A3420AD972
:10757000D5F80435C5F84035FFF7C8FE334B4FF456
:107580000032C3F800212F4B00221A7003B0BDE86F
:10759000F08F13469146A0E71174D2690123002AA7
:1075A000FAD1002B9DD02A609BE700231946F6E70D
:1075B000D31A23F07F43834234BFC31A00232360CE
:1075C00053E721681368994213D8591A1160E26190
:1075D00055E7091AD8691A4638B10346186888422F
:1075E000F7D3401A1860184613462160E061DC6149
:1075F00012E71346F2E74C450DD1D3692B6053B91E
:107600000E4801920121CAF8081003600D4B197051
:10761000FFF77CFE019AE1692368C9F81C1011B1DB
:10762000086803440B602B689A4218BF012756E78D
:10763000A4AD0020A5AD0020ACAD0020A8AD002079
:107640009CAD002098AD00200010014000E100E05A
:107650008CAC0020FEFF7F0099AD0020F8B5194EDC
:10766000194D1A4F4FF40033C6F8803001244FF4FF
:107670008033C5F84833C5F808336C60FFF746FE21
:10768000AC6000243C60FFF741FE114B1C70114BB5
:107690000B221C809A70104B1C60104B1C70104BFE
:1076A0004FF480121C70E023C6F8802186F8143352
:1076B0003260C5F8084586F81133D5F804353B60CB
:1076C0002046F8BD00E100E000100140A8AD002018
:1076D00099AD00208CAC0020ACAD0020A4AD002002
:1076E000A5AD0020074B9B784BB132B128B10368A0
:1076F000187C20B959745A617047072070470820D8
:10770000704700BF8CAC00202DE9F7431D4FBB78BC
:1077100005460E4690469BB390B304292ED9436983
:1077200073B3437C02A80024012B00F8014D0CBF69
:107730008946A14600F000F90DF10600FFF7A8FD0B
:10774000D0B101230370104B4560D3F80435C0E974
:107750000498C0E902369DF806307B709DF807005A
:1077600000F01AF924B9094B4FF48012C3F8002134
:10777000204603B0BDE8F0830424EFE70724F7E7D1
:107780000824F5E78CAC00200010014000E100E087
:10779000064A92783AB130B1426922B100220274AD
:1077A0000221FFF78BBD0820704700BF8CAC002082
:1077B000014BD3F804057047001001400648074A02
:1077C00003780749D35C012213B1043003F0DCB91C
:1077D0000C3002F03BBF00BFAC980020E0B80020A6
:1077E000B4AD002013B50478012C10D104238DF81A
:1077F000003043681B788DF80430FFF7DFFF0D4B36
:107800001C700D4B1B686846984702B010BD022CD7
:1078100006D1C3688DF800400193FFF7CFFFF0E772
:10782000002CF2D102A8032300F8083D024B1B688C
:10783000EAE700BFB5AD0020B0AD0020F0B51B4DAC
:10784000064617469C460FCD89B06C460FC495E896
:107850000F0084E80F0073690693337C8DF81CC019
:10786000003318BF01238DF81430737C1048002BAF
:1078700014BF0E2300238DF81530F3680293B3680C
:10788000039333680193736800930A4B1F600A4B9C
:1078900000221A706946094A00F040FB20B933689B
:1078A000013301D0FFF78AFF09B0F0BDB820030013
:1078B000AC980020B0AD0020B5AD0020E577020007
:1078C00010B5044618B90749762003F01DFF064B92
:1078D0001A782AB1054A002012782270187010BD5B
:1078E0000520FCE7D8200300B5AD0020B4AD002092
:1078F0000020704708B50748074A0378D35C23B1D6
:10790000043003F0E7F8002008BD0C3002F044FE1C
:10791000F9E700BFAC980020E0B80020EFF3058342
:10792000C3F308032BB9EFF31480C04300F0010048
:10793000704701207047000070B50446FFF7EEFF66
:10794000012803D01049432003F0DEFEEFF3108638
:1079500072B60E4A9068012398B993600C4B0D4D96
:10796000D3F8801029401160C3F88050D3F88410F8
:1079700051604FF0FF32C3F88420207006B962B620
:1079800070BD2370FAE700BF24210300D4B80020A3
:1079900000E100E0FC06FFBD10B50446FFF7BEFFA6
:1079A000012803D00949512003F0AEFE084B9A6824
:1079B0005AB154B9EFF3108172B6064A18681060D4
:1079C000586850609C6001B962B610BD2421030064
:1079D000D4B8002000E100E0024B1B680021986849
:1079E00004F086B9D49800201EF0040F1CBFEFF3FA
:1079F00009800AE0EFF308800549064A884201D869
:107A0000904202D88D464FF00000034B184700000B
:107A10000000012000E000201D7A02002DE9F3475C
:107A2000054601F069F800F08BFE0028FBD12F4BD2
:107A30002F4C9F6A2F4BE41AE408240444F00104FD
:107A4000002D4ED0AA692C49204600F0FDFFEB68BE
:107A50000193AB6800932949D5E90023204601F042
:107A600013F8EB6900932649D5E90423204600F07A
:107A7000FFFF1E4BDB6A980703D52249204600F022
:107A8000DFFFDFF89490DFF894A000264FF00108A4
:107A900008FA06F33B4206D059F826201AB151469F
:107AA000204600F0D1FF01361A2EF1D1390605D556
:107AB0000E4B15495A6B204600F0C6FF3A0405D517
:107AC0000A4B12499A6B204600F0BEFF104B1B6810
:107AD000DB0700D500BE2846FEF766FF02B0BDE812
:107AE000F0870C49204600F0ABFFC2E700ED00E054
:107AF00024390300BC380300792103008E210300E0
:107B0000C32103001E2203006D2203008D22030007
:107B1000F0ED00E0EB210300A82203006222030045
:107B200050E8002F0B4640E8003C9CF0000FF7D1D6
:107B30001046704750E8003F43EA010240E8002C3D
:107B40009CF0000FF6D11046704750E8002F02EA73
:107B5000010340E8003C9CF0000FF6D1104670474E
:107B600050E8003F03EB010240E8002C9CF0000FBE
:107B7000F6D11046704750E8003FA3EB010240E801
:107B8000002C9CF0000FF6D1104670470121FFF742
:107B9000D1BF0021FFF7D9BF10B50446002834D06B
:107BA00003681BB91A49FF2003F0AEFD636823B9CF
:107BB00017494FF4807003F0A7FDA36823B9144957
:107BC00040F2011003F0A0FDE36823B910494FF41F
:107BD000817003F099FD238A23B90D4940F2031007
:107BE00003F092FDD4E9012321689B1ADBB20A60FD
:107BF000013BDBB2FF2B226802D10020107110BDC7
:107C00001168481C10600B70F2E70E20F7E700BF08
:107C1000D027030037B5054620B914494FF49270B8
:107C200003F072FD02A8002400F8014DFFF784FE66
:107C30002A68696813688B4210D9591E116013F8BD
:107C4000014C2A8AEB6802FB04342A68AB6811688D
:107C50005B1A1179DBB2994238BF13719DF80700A6
:107C6000FFF79AFE204603B030BD00BFD0270300C7
:107C700037B50C46054620B9104940F2471003F0CD
:107C800043FD24B90D494FF4A47003F03DFD02A853
:107C9000002300F8013DFFF74FFE2A681368591CC6
:107CA0001160EA68A41A2A8AB4FBF2F41C709DF8E9
:107CB0000700FFF771FE03B030BD00BFD0270300FF
:107CC00038B5084C04F108030546002818BF1C46C7
:107CD00023682BB11A6822605B6828469847F7E74B
:107CE00038BD00BFC0AD002020B9054B01225A703D
:107CF000FFF7E6BF012802D1014A9070F8E770470C
:107D0000B8AD002020B9034B01225A70FFF7D8BF4D
:107D1000704700BFB8AD002038B50B4C237883B94D
:107D20000A486360A3602361E36001F059F90546E6
:107D300003F0A2FB08B901F069F90123237028467A
:107D400038BD8525FBE700BFB8AD0020E97C020007
:107D500037B51E4C237805461BB91D49E92003F0B1
:107D6000D3FCA37803F0FF02D3B115B16B680120F7
:107D7000984700230DF107008DF80730FFF7DCFD71
:107D8000E3689DF807000133E360FFF705FEE36851
:107D900023B90F4940F2051003F0B6FC03B030BD23
:107DA0000DF107008DF80720FFF7C6FD25B1226908
:107DB00013463BB92A602561E368002BE0D101F04E
:107DC00043F9DDE79D42F7D01B68F2E7B8AD00202C
:107DD0002028030013B5154C237823B914494FF418
:107DE000857003F091FCE36823B9114940F20B1050
:107DF00003F08AFC02A8002300F8013DFFF79CFD78
:107E0000E368013BE360E36853B903F035FB18B165
:107E10000749792003F078FC01F04CF90023A370A6
:107E20009DF80700FFF7B8FD02B010BDB8AD002007
:107E300020280300012813B509D003D303281BD041
:107E400002B010BD134B0122C3F88020F8E702A84E
:107E50000023114C00F8013DFFF76EFD23780BB9AC
:107E6000FFF75AFFE3689DF807000133E360012341
:107E7000A370FFF791FDE3E7074B1B7823B9074990
:107E800040F2452003F040FC01F0C0F8FFF7A2FFEC
:107E9000D6E700BF00E100E0B8AD002020280300D5
:107EA000034B187810B901221A707047852070476B
:107EB000CCAD00201FB503788DF8003043680193E6
:107EC00083688DF80830C3680393054A054B6846FC
:107ED00053F8213052F82110984705B05DF804FBA3
:107EE000D0AD0020D4AD00201FB503788DF8003050
:107EF0004368019383688DF80830C3680393054A8B
:107F0000054B684653F8213052F82110984705B0C8
:107F10005DF804FBD0AD0020D4AD0020F0B5194BC6
:107F2000067891F81DE043F82620174B94460A691D
:107F300043F82620154B03F806E00C4607460FCC05
:107F400089B06D460FC594E80F0085E80F000496D0
:107F5000BEF1000F0AD0BCF1000F0D4A694608BF00
:107F60000022381D02F0AAFC09B0F0BDBCF1000FE0
:107F7000084A694608BF002207F10C0002F008FA1F
:107F8000F2E700BFD4AD0020D0AD0020E0B8002063
:107F9000B57E0200E97E020010B5044618B9064914
:107FA000312003F0B1FBA2682AB16369216820691E
:107FB00098470023A36010BD752803000EB433B5A5
:107FC000059D044618B91249422003F09DFB6369E0
:107FD0001BB90F49432003F097FB23681BB90C49D9
:107FE000442003F091FB63681BB90949452003F065
:107FF0008BFB3DB102AA06AB42F8043D2946204660
:1080000000F06EF802B0BDE8304003B0704700BF2A
:1080100075280300826830B40468551C8560A1543B
:10802000D0E901329A4202D330BCFFF7B5BF30BC71
:10803000704700002DE9F84F9946DDE90A431746DD
:10804000824688460A460126BA420FD24E4538BFBC
:108050004E4613F0010B01D164B900240125B9F19A
:10806000010F1AD909F1FF397D43F8E7B2FBF7F2A6
:108070000136E9E79B070ED5B9F1000F0CBF30259B
:108080002025A642EAD2013C29465046FFF7C2FF0E
:10809000002CF6D1E1E72025F3E7B8FBF5F39F428A
:1080A000E2D9DFF83890B8FBF5F3504619F8031021
:1080B00005FB1388FFF7AEFFB5FBF7F5002DF2D1F6
:1080C000BBF1000F02D00CB1A64201D3BDE8F88F7E
:1080D00020215046013CFFF79DFFF4E7BB28030039
:1080E0002DE9F74F0E469046054620B9AC494FF4AE
:1080F000A27003F009FB6B6923B9A9494FF4A3707F
:1081000003F002FB2B6823B9A54940F2471003F0A6
:10811000FBFA6B6823B9A2494FF4A47003F0F4FA98
:10812000002E00F03A8116F8011B002958D02529AD
:1081300040F0D180002702E047F0010716463246A2
:1081400012F8013B2D2BF7D0302B04D02B2B05D16F
:1081500047F00407F2E747F00207EFE700242A2B75
:1081600006F101021BD1D8F80030191DC8F8001023
:108170001B6816461C4433782E2B1CD101364FF059
:10818000000A314611F8012BA2F13000092814D859
:108190000A2303FB0A23A3F1300A0E46F1E712F883
:1081A000013CA3F130010929E5D80A2101FB04347F
:1081B000303C1646D3E74FF0000A324612F8011B56
:1081C00001F0FB0068281646F8D0692916D054D86B
:1081D000582970D00ED825297DD03378002BA2D114
:1081E0002B7B002B00F0D980284603B0BDE8F04F70
:1081F000FFF7D2BE632968D06429EED1D8F80020F9
:10820000111DC8F80010D2F8009089EAE972A2EBBB
:10821000E9724FF0010B092A61DCD34538BFD34620
:108220002CB1B9F1000F01DB790700D5013CBA0789
:1082300002D5BAF1000F04D0FB0702D4002C54D1B0
:108240000024B9F1000F58DAC9F100092D212846A0
:10825000FFF7E0FE07F00302022A05D1BAF1000F92
:1082600002D1002C4DD10024CDE9004753460A220B
:1082700049462846FFF7DEFEAFE7732954D016D8EB
:108280007029AAD1D8F800301A1DC8F80020302172
:1082900028461C68FFF7BEFE78212846FFF7BAFE85
:1082A00000220823CDE9003221461022E1E775299A
:1082B0002FD0782991D1D8F800100A1DC8F80020D5
:1082C000CDE90047534610222CE0D8F800301A1DA3
:1082D000C8F8002019782846FFF79CFE7DE70A239E
:1082E0000BF1010B92FBF3F295E7A345A9D22021F4
:1082F0002846013CFFF78EFEA0E77807AAD52B2180
:10830000A5E7A345B0D230212846013CFFF782FE05
:10831000A7E7D8F80010CDE900470A1DC8F80020EB
:1083200053460A220968A4E7D8F800301A1DC8F895
:108330000020F907D3F8009012D54F46A7EB090BA0
:1083400017F8011B41B9A345BFF447AF20212846C8
:10835000013CFFF75FFEF6E72846FFF75BFEEDE71F
:10836000B9F1000F17D0484603F0EAFD0746BC42BA
:1083700000D954B909F1FF3919F8011F00293FF458
:108380002CAF2846FFF746FEF6E720212846013CA1
:10839000FFF740FEEBE74F46E9E703B0BDE8F08F9B
:1083A000CB2803007047000007B5044B0093044A34
:1083B000402300F032F803B05DF804FBC5830200EF
:1083C000D9AD00202DE9F84389461446B2B10F4BD0
:1083D0000F4E0325002743F00108224609EB070151
:1083E0000020FEF7B3FB0744241A48B933782BB1B9
:1083F0004FF47A40C047013D02D13570BDE8F883A3
:1084000001233370002CE8D1F8E700BF30290300C6
:10841000D8AD00207047FEF7EBBBF0B595B01C4619
:10842000164608460D4600F032FD1A9B0D93CDE925
:10843000086400242346082205A928460A948DF8DA
:108440002C400C9400F04CFD079B0293BDF81830B3
:10845000ADF80C30BDF81A30ADF80E309DF8143080
:108460008DF8114003F00302012A1DD1BDF814401C
:10847000059EC3F3C203C4F383148DF81030A20029
:1084800008230EA9284600F02BFDC6F3952608AB5D
:108490000093224602AB0EA9304600F09DFB284611
:1084A00000F0F9FC15B0F0BD022AF8D1BDF8164075
:1084B000C3F3C203A4098DF810300827082C264600
:1084C00028BF08263B4632460EA9284600F008FD84
:1084D000A41B08AB02AA31460EA8374400F0E0FB0B
:1084E000002CEBD1DBE7000008B5FFF794FF042177
:1084F000064800F0D7FA002803DA0549412003F0C6
:1085000003F9044B01225A7108BD00BFDC39030096
:1085100044290300C0980020037813F0040216D009
:1085200003F00303012B03D0022B09D00120704775
:108530000A6800880232C0F3831002440A60F5E73B
:108540000B684288023303EB92130B60EEE7104690
:10855000704700002DE9F04F89B00646871C08A837
:10856000484C009200230D4600F8113DFFF7E4F956
:1085700023682B60D4E901231344226801339B1A3A
:1085800004F21C4804F5836B04F21449BB421AD36D
:10859000009A0023002A6DD0012262F3010343F008
:1085A000040366F389132168A2689DF80F000A404E
:1085B00003320F4444F822302760FFF7EDF9012021
:1085C00009B0BDE8F08F01214046FFF7C9FA5846CF
:1085D000FFF7DCFA0DF1200A4846FFF7D7FA60688A
:1085E0004AF8100DA5682840033004EB800051467E
:1085F000FFF792FF02460498002AF4D105EA00032F
:1086000004EB8303811CDB6805930130054004EB18
:10861000850503F00303012B0491ED6823D0022BA1
:1086200008D0194901924FF4BF7003F06DF8019A18
:10863000154607E0BDF816309B0903332D0C01EBFE
:10864000930304934846FFF7A4FA08B1049B6360C0
:1086500029464046FFF784FAD4E9012313442268EF
:1086600001339B1A92E7BDF81430C3F383132D0C2A
:108670000B44E6E7022262F3010343F0040366F3CE
:108680009F5390E7ECAE0020B32903000B4B0C483E
:10869000FF2210B59A600022C3F81824C3E9002213
:1086A000C3F81424012283F8202400F0A9FB044617
:1086B00010B9044800F02AFC204610BDECAE0020A2
:1086C000543903000C2A030030B50A4C71B10A4A30
:1086D0000A49121BD20800239A4201D1002030BD62
:1086E00031F82350854202D00133F5E7034654F8B0
:1086F0003300F4E7BC3803005439030090A2002093
:10870000094B013903EBC000032909D8DFE801F068
:108710000A020406042070470079704740797047C8
:108720000020704702207047BC380300034BD3E998
:108730000030C31A58425841704700BFECAE0020C9
:108740002DE9F04387B0FFF7F1FF0646002840F01F
:10875000FC807F4DC5F81804BFF34F8F6868AC6884
:1087600006AF47F8100D2040033005EB8000394676
:10877000FFF7D2FE029B18B1D5F81824002A5FD06B
:1087800004EA0302991C013305EB8202234005EB46
:108790008303D268DB68049302F00303022B039285
:1087A000029162D1BDF80E306A484FEA9318B8F1D1
:1087B000500FC14628BF4FF0500969F38F1309F1DC
:1087C0000801ADF80E3000F033FB0746002800F03A
:1087D000A78000F05CFB03A900230822384600F0C4
:1087E00069FB029924EA01060136B600B14535D984
:1087F0005FFA89F97EB3F6B2A9EB0609214003318D
:108800005FFA89F4B146544E05EB810108234A46CC
:10881000384600F04FFB36B109F1080322463146D5
:10882000384600F047FB029B08F1030803EB98036E
:108830000293D5F81834002B4BD1D5F810445BE0E7
:108840002A689A4204D86A60304607B0BDE8F083CF
:1088500004EA030088E740493446D7E72140033162
:1088600008234A4605EB8101DAE7012B58D1BDF810
:108870000C303848C3F38311062928BF062161F361
:10888000891302318900ADF80C3000F0D1FA0746A7
:10889000002845D000F0FBFA0023082203A938463F
:1088A00000F008FB0026BDF80C20C2F38312B31CB5
:1088B00096424FEA8303BCD202994A1C21400331FD
:1088C000029205EB81010422384600F0F3FA0136EA
:1088D000E9E7384600F0DFFAFFF728FF80F00100F3
:1088E000C6B2B1E7E3685B7923B1236839461B68F8
:1088F00020469847E3681C68002CF3D1384600F006
:10890000CAFA06A800F8114DFFF716F8D5F8183482
:108910000BB9029B6B609DF80700FFF73DF8DBE7A2
:10892000D5F8104454B90D4B0D480E49C01AC00873
:10893000000440F0020000F083F8CDE723682046F1
:108940009B689847E3681C68ECE700267CE700BF5B
:10895000ECAE002054390300F8AE0020BC38030010
:1089600014390300182A03002DE9F74F2F4C8046D5
:108970000F46914601A9012218469B46D4F808A04B
:10898000FFF7E8FD00283DD0019D0026A91C5E45AB
:1089900006EB010240D100212548FFF7C1F880F322
:1089A000100B244B244A4FEA18499B1AB9EBD30FFA
:1089B00004D3224940F2A31002F0A6FE6B1C03EA86
:1089C0000A0304EB830349EA0B42DA6005EA0A036F
:1089D0000333012114F8232068F3C50204F823208F
:1089E00034F8232066F3891224F8232054F8232036
:1089F00067F39F2244F8232061F301026FF38202A0
:108A000004F8232094F820341BB1FFF799FE0028C6
:108A1000FBD103B0BDE8F08F0AEA020204EB820248
:108A200059F82630D3600136B1E700BFECAE002024
:108A300008B3002054390300BC380300B3290300F5
:108A400000231A46FFF790BF13B502AC012344F888
:108A5000042D2246FFF788FF02B010BD07B5CDE90F
:108A6000002302236A46FFF77FFF03B05DF804FB93
:108A70001FB5CDE90123069B039301AA0323FFF74A
:108A800073FF05B05DF804FB1FB5CDE90023069B1D
:108A90000293079B03936A460423FFF765FF05B023
:108AA0005DF804FB30B5134AD2F810440023214688
:108AB00051B9C4682371D2F810445CB9C2F81004EB
:108AC000C2681160184630BDC9680D799D420AD050
:108AD0000968EDE7E468C16824680C60D2F81024E6
:108AE000D2681060EEE701330A2BE0D14FF0FF337C
:108AF000E8E700BFECAE002038B5094A0123D2F800
:108B0000104482F820341D4604B938BDE3685D7115
:108B1000236820465B689847E3681C68F4E700BF59
:108B2000ECAE002010B5037A052B0C460FD0437A2B
:108B300023B1084A08492046FFF740FA0749204672
:108B4000FFF73CFA2046BDE81040FFF725BA002A9F
:108B5000F8D0F3E7632A0300682A0300111E03001C
:108B600073B5C38804460D4633B1144A00921449C4
:108B7000144A2846FFF722FA217A05291CD0637A85
:108B80004BB1A088FFF7BCFD0F4B104953F82020D4
:108B90002846FFF713FA227A0D4BA08853F822607B
:108BA0000021FFF791FD0B4903463246284602B0EB
:108BB000BDE87040FFF702BA02B070BD632A03003F
:108BC000732A03006B2A0300302A0300682A03007B
:108BD000982A03008B2A03002DE9F04385B01F4635
:108BE0000C9D002306460C46904695F80C902B737E
:108BF00029463846FFF7B4FFB8F1060F09D8DFE879
:108C000008F00412181F2833400031462846FFF7A9
:108C1000D5F9002229463846FFF784FF85F80C90E5
:108C200005B0BDE8F083226831462846FFF7C6F953
:108C3000EFE7D4E9002331462846FFF7BFF9E8E71C
:108C4000A36800933146D4E900232846FFF7B6F91C
:108C5000DFE7E3680193A36800933146D4E900237A
:108C60002846FFF7ABF9D4E723690293E368019341
:108C7000A36800933146D4E900232846FFF79EF904
:108C8000C7E76369039323690293E3680193A368C9
:108C900000933146D4E900232846FFF78FF9B8E75F
:108CA00008292DE9F84F80460E4617461C4635D850
:108CB000002593F80C901D7319461046FFF750FFDE
:108CC000DFF88CA0DFF88CB0AE4229D918F8052067
:108CD00059462046FFF772F90135082DF4D11A499B
:108CE000DFF874B02046FFF769F94FF0000A5645E7
:108CF00024D918F80A507E2D17D92E22594620461D
:108D0000FFF75CF90AF1010ABAF1080FEFD101226D
:108D100021463846FFF706FF84F80C90BDE8F88F2F
:108D200051462046FFF74AF9D6E702F0C5FE28442F
:108D3000427812F0970FE0D02A46DFE70349204639
:108D4000FFF73CF9DEE700BF5E2A03005C2A030060
:108D50005A2A0300542A0300602A03002DE9F74F22
:108D600099469DF83030019388461746054618B954
:108D70002249B62002F0C8FCEA8895F805B00BFB42
:108D800002FBABF1040BCB4503D81C49C42002F015
:108D9000BBFC3E68B5F806A006EB09025A4509F18E
:108DA000040188BFABEB0906B1FBFAF43E600AFB95
:108DB000141144B9AAEB0107B74228BF37462EB9B0
:108DC00003B0BDE8F08F2D68013CF2E7019A043151
:108DD00008EB0403681872B101463A461846F61BC0
:108DE00002F08EFEB2453C442D6857464FF000011C
:108DF00028BF3746E3E73A461946F0E7F72A03006B
:108E0000FEF7CABEF8B546790146721E0546002334
:108E100093422D6803D30024A64202D8F8BD013343
:108E2000F6E70F682846FEF723FF01343946F3E7DB
:108E30002DE9F843CD1C068A0746FEF7EBFE043EFB
:108E400035440446B5FBF6F5F0B14FF48073EDB24E
:108E50008380C680013D076081464FF00008A84529
:108E600012D23846FEF7D6FE064648B16379013382
:108E7000637108F10108C9F8000007608146EEE758
:108E80002046FFF7BFFF34462046BDE8F8830121A6
:108E90000430FEF765BE10B5012104460430FEF72C
:108EA0006AFE10F0FF0F04D12046BDE81040FFF726
:108EB000A9BF10BD30B585B0144604AA002542F8FC
:108EC000044D0095FFF74AFF039BA34203D00349DB
:108ED000F62002F019FC05B030BD00BFF72A0300F0
:108EE00030B585B0144604AA012542F8044D00951A
:108EF000FFF734FF039BA34204D003494FF4807073
:108F000002F002FC05B030BDF72A0300826800239E
:108F1000936082681361826853618268D36082685B
:108F2000536082681360704738B50D46044618B91F
:108F30000849502002F0E8FB1DB90649512002F013
:108F4000E3FB25602B6863606A68934204BF0023DB
:108F5000636038BD502B030010B5044618B90B49A7
:108F6000632002F0D1FB23681BB90849642002F09A
:108F7000CBFB636843B1226891680B44636052681D
:108F8000934204BF0023636010BD00BF502B030059
:108F90000D4930B5A1F594720225914201D8002007
:108FA0000EE08B1ADB1093FBF5F302EBC30452F8CF
:108FB0003330834205D802D204F10802EDE760683D
:108FC00030BD2146E9E700BFF42C030008B5FFF7E8
:108FD000DFFF024B002808BF184608BDB92B03006D
:108FE00010B5044618B90749A02002F08DFB064BC6
:108FF000187920B901221C601A71587110BD8520A2
:10900000FCE700BFAE300300A8B3002008B50B4B4F
:109010001B791BB90A49B92002F076FB094B1A6883
:10902000D2075FBFE02283F8002301221A604FF0CD
:1090300080430122C3F8182508BD00BFA8B3002053
:10904000AE30030000E100E037B5144B1B791BB9CB
:109050001349E62002F058FB124B00221A601B68ED
:109060000193019B4FF080430222C3F804230E4A70
:10907000D06840F08073D3600C4B1C6844F0010151
:1090800019605D685968491BB1F50A5FFAD31C6025
:10909000074BD06001221A6003B030BDA8B3002096
:1090A000AE30030004010040F0ED00E0001000E0ED
:1090B0000800004008B5084B1B791BB90749F3208D
:1090C00002F022FB064B01221A604FF08042D2F8D8
:1090D0001834DB03FBD408BDA8B30020AE30030076
:1090E0000C00004007B5154B1A687AB100221A60CF
:1090F0001B680093009B4FF080430122C3F80823B4
:109100000F4B587910B95A711B6898470D4B1A6864
:1091100082B100221A601B680193019B4FF08043CB
:109120000222C3F80823064B1B68012003B05DF838
:1091300004EB184703B05DF804FB00BF00010040DA
:10914000A8B300200401004000F1804000F5C040B9
:10915000002382B0036003680193019B02B0704753
:10916000054B4FF0FF32072843F8202084BF1B181F
:1091700083F84820704700BFB0B3002002494FF485
:10918000F37002F0C1BA00BF252003001F2838B5D4
:1091900004460D4601D9FFF7F1FFA00000F1A04001
:1091A000D0F8003723F44033C0F80037D0F8003748
:1091B00043EA0543C0F8003738BD000010B5164C2F
:1091C00094F8583033BBFF21E2180133202B82F88A
:1091D0003010F9D10021C8B2FFF7C2FF01310C29CC
:1091E000F9D1042200210D4802F024FD0C4BE022AD
:1091F00083F8062340221A604FF4BE70FFF7A4FFE5
:10920000084B4FF00042C3F80423012384F8583080
:10921000002010BD0820FCE7B0B3002004B40020FB
:1092200000E100E000600040034B93F8580000307C
:1092300018BF0120704700BFB0B300201F2870B5D1
:1092400004460D4604D941494FF4987002F05CFA87
:109250003F4E96F85830012B04D03C4940F2311073
:1092600002F052FA25B939494FF4997002F04CFADC
:10927000331993F93020013265D1AA78002A54D0ED
:10928000002356F8231001314FEA830248D13119E7
:1092900002F1804281F83030002102F5C04246F8E8
:1092A0002310D2F810052B78697820F498101B044D
:1092B000090520F4F85001F4801103F44033C2F89A
:1092C00010050B432102D2F8100501F4F8510B43AD
:1092D0000343C2F810356B78012B4FF0010528D1FC
:1092E0001F2C01D9FFF74AFF4FF0A043A540C3F858
:1092F00008551F2C01D9FFF741FF04F5E0724FF02C
:10930000A043032143F82210E2081249012304F08C
:10931000070403FA04F48B5C1C438C54002003E024
:109320000133082BADD1042070BDFE2283F830201C
:10933000D1E71F2C01D9FFF721FF4FF0A043A54033
:10934000C3F80C55D5E70820EEE700BF0131030054
:10935000B0B3002004B400201F28F8B5044604D997
:109360001D494FF4B47002F0CFF91C4D2B1993F93D
:109370003030013304D1184940F2691002F0C4F9C9
:10938000291991F83000072809D8FFF7E9FE91F96B
:109390003030134A03F5A273002142F8231025440C
:1093A000FF23104F85F83030E60804F0070301254D
:1093B0009D40BB5D2B420ED01F2C01D9FFF7DEFE76
:1093C0004FF0A04304F5E074022243F82420BB5D73
:1093D00023EA0505BD55F8BD01310300B0B30020F7
:1093E0000060004004B400201F2838B5054604D9A9
:1093F00012494FF4BE7002F087F9114C621992F9CC
:109400003020013204D10D4940F27D1002F07CF988
:10941000631993F83030072B04D808494FF4BF7014
:1094200002F072F91F2D01D9FFF7A8FE012303FAFC
:1094300005F54FF0A043C3F8085538BD01310300CE
:10944000B0B300201F2838B5054604D912494FF49F
:10945000C37002F059F9114C621992F930200132AF
:1094600004D10D4940F2871002F04EF9631993F8C8
:109470003030072B04D808494FF4C47002F044F987
:109480001F2D01D9FFF77AFE012303FA05F54FF0EE
:10949000A043C3F80C5538BD01310300B0B3002020
:1094A0001F2838B5054604D914494FF4CD7002F091
:1094B0002BF9134C631993F93030013304D10F4960
:1094C00040F29B1002F020F9631993F83030072B1B
:1094D00004D90A494FF4CE7002F016F92C4494F9DD
:1094E00030309B0003F1804303F5C043D3F81025CF
:1094F00042F00302C3F8102538BD00BF013103005C
:10950000B0B300201F2838B5054604D90D4940F2F4
:10951000B91002F0F9F80C4C631993F83030072BAE
:1095200004D908494FF4DD7002F0EEF8601990F9A3
:1095300030000C308000C0B200F1804000F5C04027
:1095400038BD00BF01310300B0B300201F2838B57B
:10955000054604D90D494FF4E37002F0D5F80C4CE0
:10956000631993F83030072B04D9084940F2C7102B
:1095700002F0CAF8601990F9300018308000C0B2CB
:1095800000F1804000F5C04038BD00BF013103004C
:10959000B0B300201F2870B506460D4604D9174900
:1095A0004FF4E97002F0B0F8154CA31993F930307C
:1095B000013304D1114940F2D31002F0A5F8A319E8
:1095C00093F83030072B04D90C494FF4EA7002F0BD
:1095D0009BF83444003594F930304FEA830303F1AB
:1095E000804303F5C04318BF0125D3F8101521F4BB
:1095F000801141EA0551C3F8101570BD0131030017
:10960000B0B300202DE9F04F87B000245B4A5C4ED8
:109610005C4D039401211368A2F5C040012B80B278
:1096200006D1D6F804330B4202D0FFF78DFD0C4370
:109630000432AA424FEA4101EDD1534B1B68012B82
:109640000AD14FF4BE70FFF77FFD4FF0A04344F006
:109650000044D3F81035039314F0FF0F1AD04B4F8A
:1096600000250126344210D0AB0003F1804303F5FE
:10967000C043D3F81005D3F8101557F82530C0F3C0
:109680000420C1F3014103B198470135082D4FEA89
:109690004606E7D1002C6EDA00224FF0FF33CDE909
:1096A00004233A4F4FF0000A56464FF0A04907EB0B
:1096B0000A0393F95040631C46D0E4B2012224F01F
:1096C000C00504F0070B02FA0BFBEB0806AAD11841
:1096D00011F8042C12EA0B0F36D07A19A40992F96A
:1096E000302057F82280B8F1000F0AD1032C2BD17B
:1096F0000DF1100C1CF8030040EA0B000CF80300FD
:1097000001E0032CF4D01F2D03D90191FFF736FDA2
:10971000019911F80C1C05F5E07311EA0B0F59F8CB
:109720002330C3F3014320D0022B0DD1032C05D1EC
:1097300021462846FFF72AFD0136F6B2B8F1000FA0
:1097400002D021462846C0470AF1010ABAF1040FA7
:10975000ADD186B14FF0A043039AD3F810359A42A9
:1097600009D00393049B05939CE7032BECD1032CB6
:10977000E4D10221DDE707B0BDE8F08F00610040D1
:1097800000600040206100407C610040B0B30020D8
:109790002DE9F74F4FF00009154D164E07464FF0D3
:1097A000040AC8465FFA89FB01240DF1070004FA98
:1097B0000BF48DF80780FEF7BFF82C4208D0336811
:1097C00014EA030201BF2343336087F800B09246D6
:1097D0009DF80700FEF7E0F8BAF1000F03D0A543AB
:1097E00009F10109DED1504603B0BDE8F08F00BF9A
:1097F000FFFF01000CB4002037B501258540C5F3FB
:109800001003A3B10B4B02A80024C3F8085500F8BD
:10981000014DFEF791F8084A9DF80700136823EA06
:1098200005051560FEF7B8F8204603B030BD0720E7
:10983000FBE700BF00F001400CB4002010B5A1B15F
:109840009AB101238340C3F3100484B10A4C246805
:1098500023420ED0C00000F1804000F5F830C0F87F
:109860001015C0F81425002010BD0E20FCE70720BD
:10987000FAE70820F8E700BF0CB40020012303FA40
:1098800000F0430C5B044BB918B1064B1B6818423F
:1098900006D0054BC3F80405002070470720704729
:1098A000082070470CB4002000F00140012303FAA7
:1098B00000F0430C5B044BB918B1064B1B6818420F
:1098C00006D0054BC3F808050020704707207047F5
:1098D000082070470CB4002000F0014010B5054C82
:1098E00022681AB90449512001F00EFF2368BDE82F
:1098F0001040184710B400205A31030037B50D4608
:1099000030B90F49772001F0FFFE002003B030BDD1
:109910000C4B9842F9D102A8002300F8013DFEF754
:109920000BF8094B1C7914B901221D601A719DF8BE
:109930000700FEF731F8002CE7D01120E6E700BF62
:109940005A3103000020004010B4002018B9064925
:109950009B2001F0D9BE054B984201BF044B002269
:109960001A601A71704700BF5A310300002000408E
:1099700010B400200023435082B043580193019B50
:1099800002B0704770B5D0F8103105460C4653B19F
:109990004FF48871FFF7EEFF63795A0703D5236808
:1099A0000BB101209847D5F814315BB14FF48A719F
:1099B0002846FFF7DFFF63791B0703D523680BB148
:1099C00002209847D5F81C315BB128464FF48E71C0
:1099D000FFF7D0FF607910F0100002D1236803B1C7
:1099E0009847D5F8043163B14FF482712846FFF7E8
:1099F000C1FF0123237123681BB10320BDE8704020
:109A0000184770BD01490248FFF7BCBF18B40020D9
:109A100000C0014001490248FFF7B4BF20B4002054
:109A20000010024001490248FFF7ACBF28B40020F3
:109A30000020024000F1804000F5E040002382B0A9
:109A4000036003680193019B02B07047F0B5514B6E
:109A5000514C1B6885B0DBB14FF4827094F82E2016
:109A6000FFF7E8FF12B194F82F30A3B163680293B7
:109A70002389ADF80C30E36800218DF80410002B29
:109A800044D12374236801A89847002384F82F3019
:109A900094F82E3003B3414B1B68EBB14FF4807048
:109AA000FFF7C8FF94F82D20638B91B28B4238D911
:109AB0005B1A21899BB26383CB1A616801EB430176
:109AC000374BC3F82C16C3F830264FF48270FFF7DB
:109AD000B1FF344B01221A60334B1B685BB14FF46A
:109AE0008870FFF7A7FF002304A82374022300F85F
:109AF0000C3D236898472D4B1B6813B34FF48A70B5
:109B0000FFF798FF0023237405B0F0BD208B60831E
:109B100063602081E160002AB4D1214B01221A60E8
:109B2000B0E7D2D1E368012184F82F103BB10021C6
:109B300061831B49C1F82C36C1F83026C5E7638321
:109B4000C3E766694FF000470125002EDCD0B6FA66
:109B500086F227FA02F34632920026EA030602F161
:109B6000804303F5E0431B68002BEED01046FFF75F
:109B700061FFA2F58C72D30882F00402C2F3800266
:109B80008DF808308DF804508DF80920236801A85D
:109B90009847DAE70471004030B4002000710040BB
:109BA00000700040047000401071004014710040CB
:109BB00002494FF4F37001F0A7BD00BF2520030058
:109BC0001F2810B5044601D9FFF7F2FF012303FA5D
:109BD00004F44FF0A043C3F80C4510BD1F2810B586
:109BE000044601D9FFF7E4FF012303FA04F44FF020
:109BF000A043C3F8084510BD13B54FF04023D3F878
:109C000018310BB3114B124C00221A601B680193E0
:109C1000019B236823B90F494FF4277001F074FDAD
:109C2000E07FFF2803D0A37F5BB1FFF7C9FF0023CC
:109C300063772372D4E90031074802B0BDE81040D1
:109C40001847FFF7CBFFF2E702B010BD1841004004
:109C500060B40020B731030068B400202DE9F74359
:109C6000002406460F4600F5A0754FF48038A14643
:109C700004F150002B68800080B26BB1D6F8043339
:109C800008FA04F21A4207D0C5F800902B68019335
:109C9000019BD7E9003198470134042C05F10405F4
:109CA000E6D103B0BDE8F0832DE9F347544B0779C3
:109CB000154602689A4204460E4603D1514948208F
:109CC00001F022FD1EB94F494A2001F01DFD1DB9CA
:109CD0004C494B2001F018FD4B4A0C2303FB072392
:109CE00090461B7A002B40F089802368444A9342B7
:109CF0000FD002F5805293420BD002F5805293426E
:109D000007D002F58032934203D002F5805293428D
:109D100002D1B378032B03D93A495F2001F0F4FC58
:109D20000C237B4308EB030248F80350736853602D
:109D30000022154660792168D3B2984202F10102EF
:109D400054D8F578AB1E4FEA113A012B4FFA8AF935
:109D500006D96B1F022B03D92C496B2001F0D4FCD0
:109D6000B9F1000FAEBF09F160430AF00F03284AB2
:109D700028484FEA4515EDB2AABF03F56143D55413
:109D800083F8005323681B0B59B24909012203F0E1
:109D90001F0302FA03F340F8213020687378D0F8EB
:109DA000041503F0030321F003010B43C0F804354D
:109DB0002068B378D0F8081503F0030321F00301FD
:109DC0000B43C0F8083520683378D0F8101503F03D
:109DD0000F0321F00F010B43C0F810350C2303FBD8
:109DE000078700203A7202B0BDE8F0879B0003F5B8
:109DF000A073CD50CB580193019B9BE70820F2E75D
:109E0000008000400832030084B400205532030073
:109E100014ED00E000E100E038B50B4C02790C21B4
:109E200001FB02420546127A012A03D007498F201E
:109E300001F06AFC2B6801221A602B790C2202FBCC
:109E4000034302221A7238BD84B400200832030092
:109E500038B50A4C02790C2101FB02420546127A00
:109E60001AB90749972001F04FFC2B6801221A61AB
:109E70002B790C2101FB03431A7238BD84B40020F6
:109E80000832030038B503681B0B5AB2012152098E
:109E900003F01F0301FA03F320320C4941F822308A
:109EA00003680025D3F80022C3F8005203684FF07E
:109EB000FF320446C3F80823FFF7CAFF2379044A98
:109EC0000C2101FB03231D7238BD00BF00E100E03F
:109ED00084B4002010B5084A03790C2101FB032348
:109EE00004461B7A1BB90549B32001F00DFC236819
:109EF0000122DA6010BD00BF84B4002008320300E4
:109F000073B54FF480348C4005688BB101F1500378
:109F10009B000026EE50EB580193019B0368C3F8A9
:109F20000443036801F5A87143F8212002B070BD15
:109F3000C5F80843F5E7F0B407689DF810C0D7F8F6
:109F4000004240F201158D4024EA0504C7F80042A2
:109F50000568D5F800422343C5F80032F0BC6346DB
:109F6000FFF7CEBF37B5134A03790D460C2101FB2D
:109F7000032304461B7A1BB90F49FB2001F0C4FBE5
:109F80006379AB4203D80C49FC2001F0BDFB05F11D
:109F900050039B0022689BB20021D150D3580193FB
:109FA000019B23684FF48031A940C3F8041303B028
:109FB00030BD00BF84B400200832030038B50E4A1B
:109FC00003790D460C2101FB032304461B7A23B9B8
:109FD0000A4940F2071001F097FB6379AB4204D8BD
:109FE00006494FF4847001F08FFB23684FF48031F1
:109FF000A940C3F8081338BD84B400200832030018
:10A0000001490248FFF72ABE84B4002000800040C6
:10A0100001490248FFF722BE90B4002000900040A2
:10A020000023435082B043580193019B02B0704714
:10A03000F0B5504C236887B023B94F4940F2452012
:10A0400001F062FB4D4AD2F824311546A3B14FF41A
:10A0500092711046FFF7E4FFD2F8043163B9A368A8
:10A06000C2F808330223A360A368C2F804330123B3
:10A070001362536107B0F0BDD5F80431002B49D00D
:10A080003F4F3E484FF48271FFF7CAFF0FCF01AE3A
:10A090000FC63B68336094F82E307BB1237B012BD5
:10A0A0000CBFD5F83C25D5F84C250292022B334B3A
:10A0B0000CBFD3F83C35D3F84C3503934FF4B07153
:10A0C0002E48FFF7ADFF4FF4AE712C48FFF7A8FF05
:10A0D00094F8303013B194F82E303BB1274B002266
:10A0E000C3F80022A260274AC3F80823234AD2F803
:10A0F000C434C2F8C4349A0736D501238DF8003031
:10A1000094F830300BB984F82F30D4E90031684628
:10A110009847AFE74FF4A4711848FFF781FF237BFE
:10A1200083B9174F0FCF01AE0FC63B68336094F869
:10A130003030002BDAD1C5F80032A360114BC5F8DE
:10A140000833D3E74FF40073C5F8003240F202231E
:10A15000A36003F1CE73C5F80833A368C5F80433D0
:10A160000123AB602B6285E713F0040318BF0223C1
:10A17000C4E700BF9CB400209F32030000300040C1
:10A18000A8B4002002029C010023435082B043582F
:10A190000193019B02B070470A4610B54FF48E71CF
:10A1A000FFF7F2FF136A9168C95C136A0133136207
:10A1B000C0F81C1510BD08B502464FF49271006836
:10A1C000FFF7E2FF4FF484711068FFF7DDFF1368BB
:10A1D00001221A6008BD10B58B690A464FF48471DC
:10A1E00023B9FFF7D1FFD0F8183510BDFFF7CCFF2A
:10A1F000536AD168D0F81805C854536A01335362C2
:10A20000F3E7000002494FF4F37001F07DBA00BF9C
:10A21000252003001F2810B5044601D9FFF7F2FFDF
:10A2200004F5E0744FF0A043022243F8242010BD4F
:10A230001FB501238DF80030044BCDE90110D3E99F
:10A2400000126846904705B05DF804FBD0B40020CA
:10A2500030B54D4AD2F8043313F4007F85B015466B
:10A260004FD0D2F82431002B4BD04FF492711046CE
:10A27000FFF78AFF4FF40173C2F80833434B93F89A
:10A28000291009B9012151603F4902228DF80020AF
:10A29000D1F88024C1F8802403929A690292DA6886
:10A2A00001920022C3E906226846D3E900129047D2
:10A2B0003548D0F81C315BB134490A6A4B699A427F
:10A2C0000A464CD291F82830002B48D1FFF764FFA2
:10A2D0002D4AD2F8443193B14FF4A2711046FFF7E2
:10A2E00053FF2A4B93F8291009B1012111609A6993
:10A2F0002AB100229A61586AD968FFF799FF05B020
:10A3000030BDD5F804335B07D2D5D5F80831002B22
:10A31000CED01E4C1C482146FFF75DFF636AA26940
:10A320009A422346C4D1E26952B12369E168E360ED
:10A330000023606AA261E3616362FFF779FFB7E718
:10A3400094F829200AB901226A600F4A4FF401717A
:10A35000C2F8081300229A61586AD968EDE74FF4F1
:10A360008E710948FFF710FF51690029B0D0002312
:10A37000029191688DF80030019153616846D2E9ED
:10A3800000139847A4E700BF00200040D0B400208D
:10A390002DE9F84F054692460C4619B97749AA208F
:10A3A00001F0B2F9764B2E792C2202FB0632984648
:10A3B00092F82A20002A40F0DD8072492868FFF7D1
:10A3C0009DFA0746002840F0D780D4F80090B9F1F4
:10A3D000FF3F18D0B9F11F0F01D9FFF713FF4FF05E
:10A3E000A043012202FA09F2C3F80825D4F800B00C
:10A3F000BBF11F0F994601D9FFF704FF0BF5E07B76
:10A40000032349F82B30D4F80490B9F1FF3F0BD067
:10A41000B9F11F0F01D9FFF7F5FE09F5E0794FF00B
:10A42000A043002243F829202B68A269C3F8242501
:10A43000217D637D2A680B43C2F86C35D4E9002185
:10A440002B68C3F81415C3F80C25237D012B35D1D7
:10A45000D4F80890B9F1FF3F0BD0B9F11F0F01D923
:10A46000FFF7D0FE09F5E0794FF0A043002243F852
:10A470002920D4F80C90B9F1FF3F18D0B9F11F0F83
:10A4800001D9FFF7BFFE4FF0A043012202FA09F203
:10A49000C3F80825D4F80CB0BBF11F0F994601D9B9
:10A4A000FFF7B0FE0BF5E07B032349F82B30D4E92E
:10A4B00002212B68C3F80815C3F810252C23734319
:10A4C00008EB0302C2F804A0226948F80320BAF19D
:10A4D000000F3CD04FF48E712868247FFFF754FEA4
:10A4E0004FF4A2712868FFF74FFE2B68264AC3F885
:10A4F00004232B684FEA133AA31E012B4FFA8AF963
:10A5000006D9631F022B03D920496B2001F0FCF808
:10A51000B9F1000FACBF09F160431D4B4FEA441481
:10A52000B8BF0AF00F0AE4B2AABF03F5614303F80B
:10A530000A4083F800432B681B0B5AB2012103F039
:10A540001F0301FA03F35209124941F822302B6824
:10A550000422C3F800252C2303FB06830022C3E951
:10A56000062283F829205A61012283F82A203846DE
:10A57000BDE8F88F0827FAE71127F8E7F032030063
:10A58000D0B4002051A20200800002005532030026
:10A5900014ED00E000E100E02DE9F84303680579DF
:10A5A000274E0022C3F800252C2303FB0563044635
:10A5B0005B6883B10368234AC3F8082303681B0B55
:10A5C0005AB20121520903F01F0301FA03F32032AA
:10A5D0001D4941F8223023684FF0FF32D3F80C05B3
:10A5E000D3F81495D3F80875D3F81085C3F814255B
:10A5F000C3F80C2523689042C3F80825C3F810253A
:10A6000001D0FFF707FEB9F1FF3F02D04846FFF740
:10A6100001FEB8F1FF3F02D04046FFF7FBFD7B1C77
:10A6200002D03846FFF7F6FD2068FFF78FF92C239C
:10A6300003FB0565002385F82A306B60BDE8F883CD
:10A64000D0B400208402020000E100E02DE9F843CC
:10A65000474E05792C2303FB0563074693F82A3000
:10A66000012B8846144604D0424940F2691001F09B
:10A670004BF8B8F1000F04D13E494FF4B57001F02A
:10A6800043F824B93B4940F26B1001F03DF82C230C
:10A6900003FB0563596821B13B684FF40172C3F8AD
:10A6A00008232C2303FB05639A6952B1DA69002A57
:10A6B0003FD021B13B684FF40172C3F8042311204D
:10A6C00035E09C61C3F80C805A62DA612C2303FBED
:10A6D000056393F829301BB912B93846FFF76BFDB3
:10A6E0004FF02C0909FB05683868D8F80430002BB6
:10A6F00035D14FF4A271FFF747FDC1463868D0F855
:10A700002431D0F80821D0F84441BAB90CB9002B53
:10A71000F4D02C2202FB05650022AA6123BB2CBBCE
:10A7200095F829103B680122B9B11A600020BDE8F4
:10A73000F883C3F81080DC610122C7E7002BE8D161
:10A74000002CE6D14946FFF746FDD8F82430D8F86A
:10A7500018209A42D2D82346DBE75A60E6E74FF446
:10A760000173C0F80433E1E70320E0E70F20DEE7E0
:10A77000D0B40020F03203000023435082B043588D
:10A780000193019B02B0704702494FF4F37000F04F
:10A79000BBBF00BF252003001F2810B5044601D908
:10A7A000FFF7F2FF04F5E0744FF0A043022243F8F4
:10A7B000242010BD1FB501238DF80030044BCDE9D6
:10A7C0000110D3E900126846904705B05DF804FB1C
:10A7D000FCB400207FB5374AD2F82461002E48D05F
:10A7E00010464FF49271FFF7C7FF02238DF8003037
:10A7F000D2F88034C2F880340393D2F83C35029307
:10A800002D4BDA6801920022C3E906226846D3E99B
:10A8100000129047274AD2F844317BB14FF4A2711D
:10A820001046FFF7A9FF244B996939B10021C3E90C
:10A830000611D968D2F83C05FFF7BCFF1D4AD2F8D3
:10A840002031A3B14FF490711046FFF795FF1A4BDA
:10A85000596961B1D2F84C150291002299688DF8BE
:10A86000002001915A616846D3E90012904704B074
:10A8700070BDD2F81031002BCCD04FF48871104647
:10A88000FFF77AFF0C4BD2F83C0599698842C1D199
:10A89000DC69D96864B1D2F8005225F02005C2F80D
:10A8A00000521A699C61DA60DE61FFF783FFB1E74D
:10A8B0009C61FAE700200040FCB400202DE9F84F2D
:10A8C000054692460C4619B97B49CD2000F01CFF85
:10A8D0007A4B2E79242202FB0632984692F82020E9
:10A8E000002A40F0E58076492868FFF707F8074618
:10A8F000002840F0DF80D4F80090B9F1FF3F18D075
:10A90000B9F11F0F01D9FFF73FFF4FF0A04301221C
:10A9100002FA09F2C3F80825D4F800B0BBF11F0F02
:10A92000994601D9FFF730FF0BF5E07B032349F887
:10A930002B30D4F80490B9F1FF3F0BD0B9F11F0FC1
:10A9400001D9FFF721FF09F5E0794FF0A04300227C
:10A9500043F829202B68A269C3F82425217D637D53
:10A960002A680B43C2F86C35D4E900122B68C3F88F
:10A970000C15C3F81425237D012B35D1D4F808908C
:10A98000B9F1FF3F0BD0B9F11F0F01D9FFF7FCFE62
:10A9900009F5E0794FF0A043002243F82920D4F8CC
:10A9A0000C90B9F1FF3F18D0B9F11F0F01D9FFF793
:10A9B000EBFE4FF0A043012202FA09F2C3F808258A
:10A9C000D4F80CB0BBF11F0F994601D9FFF7DCFE9C
:10A9D0000BF5E07B032349F82B30D4E902212B68E7
:10A9E000C3F80815C3F810252423734308EB0302AA
:10A9F000C2F804A0226948F80320BAF1000F46D03B
:10AA00004FF488712868247FFFF7B6FE4FF49071E9
:10AA10002868FFF7B1FE4FF492712868FFF7ACFE8B
:10AA20004FF4A2712868FFF7A7FE2B68254AC3F8E8
:10AA300004232B684FEA133AA31E012B4FFA8AF91D
:10AA400006D9631F022B03D91F496B2000F05CFE5F
:10AA5000B9F1000FACBF09F160431C4B4FEA44143D
:10AA6000B8BF0AF00F0AE4B2AABF03F5614303F8C6
:10AA70000A4083F800432B681B0B5AB2012103F0F4
:10AA80001F0301FA03F35209114941F822302B68E0
:10AA90000822C3F80025242303FB06830022C3E910
:10AAA00006225A61012283F820203846BDE8F88F3B
:10AAB0000827FAE71127F8E741330300FCB4002028
:10AAC000D5A70200100302005532030014ED00E088
:10AAD00000E100E02DE9F84303680579274E0022E4
:10AAE000C3F80025242303FB056304465B6883B198
:10AAF0000368234AC3F8082303681B0B5AB20121D9
:10AB0000520903F01F0301FA03F320321D4941F8F3
:10AB1000223023684FF0FF32D3F80C05D3F8149598
:10AB2000D3F80875D3F81085C3F80C25C3F814259D
:10AB300023689042C3F80825C3F8102501D0FFF719
:10AB40002BFEB9F1FF3F02D04846FFF725FEB8F1D2
:10AB5000FF3F02D04046FFF71FFE7B1C02D0384665
:10AB6000FFF71AFE2068FEF7F1FE242303FB0565BC
:10AB7000002385F820306B60BDE8F883FCB400202A
:10AB80001003020000E100E02DE9F041484E047995
:10AB9000242303FB0463054693F82030012B8846E9
:10ABA000174604D043494FF4B77000F0ADFDB8F13B
:10ABB000000F04D13F4940F26F1000F0A5FD27B906
:10ABC0003C494FF4B87000F09FFD2B790BB9FF2F73
:10ABD00004D9384940F2711000F096FD08F0604346
:10ABE000B3F1005F61D1242303FB0463596821B1F1
:10ABF0002B684FF40472C3F80823242303FB046377
:10AC00009A6952B1DA69002A3DD021B12B684FF41C
:10AC10000472C3F80423112033E09F61C3F80C8051
:10AC2000DA614FF488712868FFF7A6FD4FF4A2712E
:10AC30002868FFF7A1FD2B68C3F83485C3F8387581
:10AC40002B682ABB01221A602A792B68242101FB78
:10AC50000261496819BBD3F81041D3F84411D3F805
:10AC6000240114B909B90028F5D0242303FB026696
:10AC70000023984214BF032018469942B36118BFBD
:10AC80000F20BDE8F081C3F81080DF610122C8E722
:10AC9000D3F8002242F02002C3F80022D4E74FF498
:10ACA0000472C3F804230020EBE71020E9E700BF9B
:10ACB000FCB400204133030070B5C0B14AB116881E
:10ACC0000024B44203D305196D789D4208D0A142F7
:10ACD00001D800200BE0055D01352C44A4B2F0E75B
:10ACE000A142F6D9A31C1380005D013880B270BD6B
:10ACF00037B502AC002324F8023D13462246054630
:10AD0000FFF7DAFF10B1BDF80600284403B030BDEC
:10AD100072DF704773DF704738B5012204460D4675
:10AD2000B0F83812D0F83402FFF7E2FF00B1057036
:10AD300004F13C0204F50D7104F15400BDE8384003
:10AD4000FFF7E6BFF8B5077804460D46002F00F080
:10AD5000058100F24A26A17007220021304600F04A
:10AD600069FFE38813B1A378012B04D0E3794BB1D9
:10AD7000A378022B06D1636BA3B1012284F8512280
:10AD800008209847334604F5147113F8012F12B9BF
:10AD90009942FAD117466B1E032B53D8DFE803F014
:10ADA000050B0F1284F85132ECE7A3791BB194F82C
:10ADB000243003B95FB9E3790BB1002F44D1237A72
:10ADC000002B43D1637A002B0CBF00250425636B55
:10ADD000A570002B3CD0033D012D39D86279002AA3
:10ADE00036D094F85222002A32D184F8542201221B
:10ADF00084F853220720984704F13C0518220021CB
:10AE0000284600F017FFE36A94F824200121581E19
:10AE1000884288BF0B4684F83C1084F8513032B128
:10AE2000884296BFA36A84F8521084F85230A17801
:10AE3000002384F8503004291BD8DFE801F0770D97
:10AE4000223559000025C2E70225C0E70325BEE7E9
:10AE5000002384F85332CFE7C4F84432C4E91063C6
:10AE60000223012284F83C30802384F83120A4F8A6
:10AE70004830A378002B5CD1636B002B6AD1002093
:10AE800067E0022384F8313062B1072384F83C3054
:10AE90002369A4F848300023C4F84432E3682664E8
:10AEA0006364E6E70323F1E763696364A369A4F8D5
:10AEB000483012B1062384F83C306379B3B194F87A
:10AEC00052329BB994F8543283B1022384F8503043
:10AED00004212046FFF720FF0028CAD1052384F86B
:10AEE000313004F50D73C4F84432C2E70323F6E7AA
:10AEF000E3696364236AA4F8483012B1062384F836
:10AF00003C30637983B194F852326BB994F854327F
:10AF100053B1022384F8503004212046FFF7FCFE91
:10AF20000028A6D10623DAE70423D8E784F83130D5
:10AF30009FE72A46D4F8441204F15400FFF7E8FED4
:10AF400038B994F8301094F85400FFF7E3FE002865
:10AF500092D0F8BD94F83100984790E70820F8E7C0
:10AF600010B50388112B0C460AD0262B1FD0102BAE
:10AF700005D1C37B012B02D18388A1F8483210BDD3
:10AF8000002381F852328288B1F848329A42F6D1D1
:10AF90000B79002BF3D101212046FFF7D3FE0028C7
:10AFA000EDD0A36B002BEAD0BDE810401847037A20
:10AFB000013B012BE3D889780523013191FBF3F3A1
:10AFC00003EB8303C91AC9B2E6E77047034B1A883B
:10AFD00082420CBF18460020704700BF3CB50020DD
:10AFE000024B9B6903B11847704700BF20B5002092
:10AFF00013B50B46497A0F4C024669B9D4E90110E2
:10B000001C7A002C18BF01465868FCF77DFB08B17C
:10B01000FFF7E6FF02B010BD002119726369002B33
:10B02000F8D00121ADF806008DF8041001A898476A
:10B03000F0E700BF20B5002030B583880588B3F560
:10B04000FA7F24BF6FF4F9729C184A8838BF002435
:10B0500095420CD84088904209D38A88A24206D3F0
:10B0600003F2F310904234BF0020012030BD0020D5
:10B07000FCE7000070B50388112B014648D002D8C8
:10B08000102B1ED070BD122B52D0502BFAD12F4B4B
:10B09000C288DB899A42F5D1038A022BF2D18688D5
:10B0A0003046FFF793FF05460028EBD001F1120070
:10B0B00000F050F830BB6868FCF76AFB0028E1D06C
:10B0C00009E0C37B012BDDD14FF6FF70FFF77EFF58
:10B0D000054620B90420BDE87040FFF781BF8E8887
:10B0E0001B4A0680002303721368C5F80A300A3031
:10B0F000536843601031FFF79FFF144B6872DB8980
:10B10000002BBFD129463046BDE87040FFF770BF25
:10B110008088FFF75BFF04460028B3D04068FCF747
:10B1200037FB08B1FFF75CFF4FF6FF732380A9E7F9
:10B1300086883046FFF74AFF05460028A2D008312E
:10B140000A30FFF779FF6872DCE700BF20B5002006
:10B1500050B50020007800F00100704790DF704784
:10B16000A5DF7047B5DF70477FB50023ADF8081045
:10B17000ADF80A106A4602A9064603930093ADF89B
:10B180000430FFF7EBFF0546F8B1114B114CE41A00
:10B19000E408FDF71BFF240444F001040346324693
:10B1A0000D492046FDF75AFCBDF80020BDF80230DD
:10B1B00002B91BB109492046FDF750FCBDF8042037
:10B1C0001AB107492046FDF73FFC284604B070BD80
:10B1D000BC3803002C39030094330300DE33030032
:10B1E0001D34030013B5034680880C46A0B91A88A5
:10B1F000232A00F0AF8011D8102A25D0112A54D06C
:10B20000A37A4BB1E1880020FFF7AAFF002840F0A5
:10B21000A7800123A072E37202B010BD3A2A4ED07B
:10B22000552A68D0242AEBD11A7A0B694A73002B6D
:10B23000E6D04DF67A21ADF80400ADF80010ADF877
:10B2400002008DF8042081E00A790A73DB7B012B70
:10B2500013D0022B14D0E18823898B4205D2002021
:10B26000FFF77EFF70B90123E372217B637B8B4282
:10B27000C6D20020FFF778FFC2E70B88E380EAE739
:10B280004B88FBE7112802D10123A372EDE7FDF7FC
:10B290009DFE3C4A3C4B3D499B1ADB081B04024681
:10B2A00043F00100FDF7D0FBDFE7F723CB80172346
:10B2B0000B8141F6FB338872C8728B81A0E75B89F2
:10B2C000CA88934228BF1346172B0A6938BF172331
:10B2D0000B8162B1C97A51B140F67721ADF8001007
:10B2E000ADF80200ADF804306946204690470023CF
:10B2F000E372A37284E7DB88C988A072172B38BF7A
:10B3000017238B4228BF0B462381FFF72BFF60B129
:10B31000FDF75CFE1B4A1C4B1D499B1ADB081B04F6
:10B32000024643F00100FDF78FFBE27A002A7FF42A
:10B3300067AF2369002B3FF463AF40F67721ADF888
:10B3400002202289ADF80010ADF80420694620469D
:10B35000984755E7197A237B994228BF194689E710
:10B3600011283FF459AFFDF731FE064A064B074955
:10B370009B1ADB081B04024643F00100FDF764FB47
:10B380004AE700BFBC3803002C39030073340300C4
:10B39000A4340300B0DF704766DF704710B5034682
:10B3A00000214088FFF7F8FF024608B91A7210BD65
:10B3B000112801D10122F9E75B68BDE81040184768
:10B3C00028B10378DE2B04D14180002070470E2085
:10B3D000704708207047F0B5054685B00C46F1B1BE
:10B3E000E8B10B78DE2B1AD182884B889A4204D1BF
:10B3F0000B7A13B10846FFF7D1FF2B88112B32D0FF
:10B40000512B0ED0012B0AD12B7A012B07D1A98801
:10B410006288914203D123722046FFF7BFFF05B037
:10B42000F0BDAE886388B342F9D1AF79022FF6D16F
:10B43000AD7B2B1F022BF2D800211022684600F0B2
:10B44000F9FB052D14BF4FF4C07300236946304645
:10B450008DF80070ADF80430FFF79CFF0028DED0B7
:10B4600063689847DBE76388AA889A4204BF4FF66F
:10B47000FF736380D3E70000014B1878704700BF6B
:10B4800058B5002007B508496846FDF74DFD019BFA
:10B4900013B903B05DF804FBD3E900209047684678
:10B4A000FDF75AFDF3E700BFE0340300FFF7EABF02
:10B4B00061DF704730B5134DADF5017D4FF4FA747F
:10B4C0000DF1020103A8ADF80240FFF7F1FF70B9DA
:10B4D000294601A8FDF728FD029B002BF0D003A808
:10B4E000D3E90021904701A8FDF736FDF4E70528D0
:10B4F00004D0054A40F23911FBF785FB0DF5017DBB
:10B5000030BD00BF48350300F4340300024B1B7804
:10B510000BB1FFF7CFBF704759B5002076DF7047FA
:10B520007FDF704786DF70478ADF70478FDF7047A5
:10B53000B1DF704733DF704737B503881D2B0446F2
:10B5400000F0AC801DD8132B7CD00AD8102B3DD036
:10B55000112B5DD0604B13B12046AFF3008003B0D8
:10B5600030BD142B00F08C801B2BF3D1037A012B00
:10B57000F0D1FFF7DFFF0028ECD0584A4FF4CC7130
:10B580006DE0502B52D00ED8212B00F096803B2B33
:10B59000E0D113218088FFF7C1FF0028DAD04F4A9D
:10B5A0004FF4D0715BE0522B5CD045D3562BD1D1F8
:10B5B0008379002BCED14A4B13211888FFF7AEFFB9
:10B5C0000028C7D0454A40F2A71148E0444D818881
:10B5D00044482980FFF7F4FE20B1404A4FF49D71A2
:10B5E000FBF711FB00231A4619462888FFF7A0FF36
:10B5F00020B13A4A4FF4A171FBF705FB3A4800F03D
:10B6000063FB3A4B002BA5D02046AFF30080A1E7A7
:10B61000334B37484FF6FF721A8000F055FB354B1D
:10B62000002B97D02046AFF3008093E7324B002BDE
:10B6300090D0AFF300808DE7304B002B8AD0AFF372
:10B64000008087E7264800231A4685210088FFF7F7
:10B6500067FF00283FF47EAF204A40F28111FBF7DC
:10B66000D2FA77E71E4800231A4619460088FFF7EA
:10B670005FFF00283FF46EAF184A40F28711EEE7F3
:10B68000174800231A4619460088FFF74BFF002889
:10B690003FF460AF114A40F29111E0E7184B0BB153
:10B6A000AFF3008017490020FFF73EFF00283FF46A
:10B6B00051AF0A4A40F2C711D1E702A9002321F88D
:10B6C000043D8088FFF732FF00283FF443AF034A70
:10B6D00040F2D111C3E700BF000000008535030030
:10B6E000E2B80020C8B70020B43503000000000015
:10B6F000C43503000000000000000000000000004E
:10B7000000000000C898002038B50D4604460448E3
:10B7100000F0DAFA2A4621460248FBF774FA38BDEF
:10B7200060350300EFBEADDE0C4B1B78062B10D14D
:10B730000B4B1B681A070CD10A4B186800F0F0037A
:10B74000302B08D000F0E000A0F1400358425841EF
:10B750007047002070470120704700BFE00F00F0E5
:10B76000E40F00F0E80F00F0094B1B78062B0CD11A
:10B77000084B1B681A0708D1074B186800F0F00047
:10B78000A0F130035842584170470020704700BF75
:10B79000E00F00F0E40F00F0E80F00F008B5FFF74D
:10B7A000C3FF28B17D4B7E4A1B68C3F3042313609B
:10B7B000FFF7DAFF10B17B4B7B4A1A60FFF7B4FF4B
:10B7C00028B17A4B7A4A1B68C3F342331360FFF700
:10B7D000CBFF20B1774AD36823F08073D360FFF7A3
:10B7E000A3FF40B14FF080430022C3F80C21C3F8FF
:10B7F0001021C3F83825FFF7B7FF10B16E4B0322B5
:10B800001A60FFF7B1FF40B16C4B05221A600122AC
:10B810009A6700229A603F225A60694B1B78062B78
:10B8200050D1684B1B6819074CD1674B1B6803F05C
:10B83000F003502B46D14FF08052644BD2F80414E1
:10B84000C3F82015D2F80814C3F82415D2F80C1444
:10B85000C3F82815D2F81014C3F82C15D2F8141414
:10B86000C3F83015D2F81814C3F83415D2F81C14E4
:10B87000C3F84015D2F82014C3F84415D2F82414A4
:10B88000C3F84815D2F82814C3F84C15D2F82C1474
:10B89000C3F85015D2F83014C3F85415D2F8341444
:10B8A000C3F86015D2F83814C3F86415D2F83C1404
:10B8B000C3F86815D2F84014C3F86C15D2F84424C4
:10B8C000C3F87025FFF730FF28B1414B414A1B6890
:10B8D00003F04F031360FFF727FF48B14FF0804399
:10B8E000D3F80024D20744BF6FF00102C3F800244C
:10B8F000394B1B68062B08D1384B1B68062B01BF40
:10B90000374A136843F480631360364AD2F88830AC
:10B9100043F47003C2F88830BFF34F8FBFF36F8FCB
:10B920004FF01023D3F80022002A03DBD3F80432AF
:10B93000002B2FDA2C4B0122C3F80425D3F8002466
:10B94000002AFBD04FF010221521C2F80012D3F8C4
:10B950000024002AFBD04FF010231522C3F8042244
:10B96000214B1A46D3F800140029FBD00021C3F85C
:10B970000415D2F80034002BFBD0BFF34F8F1949C8
:10B980001A4BCA6802F4E0621343CB60BFF34F8FD7
:10B9900000BFFDE7164B174A1A6008BD24030010CC
:10B9A0004035014074C007400DF0ADBA44020010AC
:10B9B0003C050040F0ED00E0A005004010560040BE
:10B9C000E00F00F0E40F00F0E80F00F000C00040CE
:10B9D00058020010E40E0040300100103401001045
:10B9E0003C17004000ED00E000E001400400FA05D3
:10B9F000D09800200090D0030649074A074B9B1AB5
:10BA000003DD043BC858D050FBDCFFF7C7FEFAF754
:10BA100017FC0000F4390300A898002090A2002031
:10BA2000FEE7FEE7FEE7FEE7FEE7FEE7FEE7FEE7EE
:10BA3000FEE7FEE708B50021044602F0EFF8044BEC
:10BA40001868C36B03B19847204605F0A1F900BF01
:10BA5000D835030070B50D4E0D4D761BB61006D0CF
:10BA60000024013455F8043B9847A642F9D1094E09
:10BA7000094D761B06F07AF9B61006D00024013481
:10BA800055F8043B9847A642F9D170BD80A200202A
:10BA900080A200208CA2002080A20020044B054A36
:10BAA0001B685B6B002B08BF134693F82801704797
:10BAB000D4980020009D0020044B054A1B685B6B56
:10BAC000002B08BF1346D3F8EC007047D498002031
:10BAD000009D002082B049B15AB16BB113780B6060
