:020000022000DC
:10600000000001207DB60200A5B602001574020052
:10601000A9B60200ABB60200ADB602000000000057
:10602000000000000000000000000000AFB6020009
:10603000B1B6020000000000B3B60200B5B602001F
:1060400069890200B7B60200619102003D98020022
:1060500005940200B7B60200898E02005992020030
:106060000D9802001D980200B7B60200B7B60200F4
:10607000B7B60200B7B60200B7B60200B7B6020064
:10608000B7B60200B56E0200B7B60200B7B602009E
:10609000516F0200B7B602005DA90200B7B6020058
:1060A000B7B60200B7B60200B7B60200B7B6020034
:1060B00011920200B7B602000000000000000000CC
:1060C000B7B602002192020031920200B7B6020078
:1060D000B7B60200B7B60200B7B602000000000073
:1060E00000000000000000000000000000000000B0
:1060F00000000000000000000000000000000000A0
:10610000000000000000000000000000000000008F
:10611000000000000000000000000000000000007F
:10612000000000000000000000000000000000006F
:10613000000000000000000000000000000000005F
:10614000000000000000000000000000000000004F
:10615000000000000000000000000000000000003F
:10616000000000000000000000000000000000002F
:10617000000000000000000000000000000000001F
:10618000000000000000000000000000000000000F
:1061900000000000000000000000000000000000FF
:1061A00000000000000000000000000000000000EF
:1061B00000000000000000000000000000000000DF
:1061C00000000000000000000000000000000000CF
:1061D00000000000000000000000000000000000BF
:1061E00000000000000000000000000000000000AF
:1061F000000000000000000000000000000000009F
:1062000010B5054C237833B9044B13B10448AFF3F0
:1062100000800123237010BDD0A2002000000000E8
:10622000BC32030008B5034B1BB103490348AFF36D
:10623000008008BD00000000D4A20020BC32030092
:10624000154B002B08BF134B9D46A3F5803A002148
:106250008B460F461348144A121A05F02DFB0F4BBC
:10626000002B00D098470E4B002B00D09847002001
:10627000002104000D000D48002802D00C4807F052
:1062800081FB05F029FA2000290000F02DF805F027
:1062900013FA00BF00000800000001200000000009
:1062A00000000000D0A20020D0B5002085D9020057
:1062B00055EB0200014B01221A707047F0A200203A
:1062C00038B5054C05462A460021204600F0BCFBA7
:1062D0001128F8D038BD00BF68160300014800F04F
:1062E0005FBD00BF68160300F0B52DED028B354889
:1062F000354C364F364E8BB004F02CFF354B1860C2
:10630000204604F06FFF344B01970121CDE9024391
:10631000042500231A460846009504F087FF2F4BFA
:106320000121CDE9024300230846CDE900561A4673
:1063300004F07CFF4FF40041002001F009FE18B189
:10634000274AA22100F02BFA01F030FD2548264D06
:1063500005F0FCFA4FF0A0434FF40002C3F81825F3
:106360004FF08072C3F818254FF00072C3F818255B
:106370000FCD05AC0FC42B681C4A1D48236005A92E
:1063800000F06CFB18B1164ACB2100F008FA14207B
:10639000FFF796FFFFF7A2FF164805F0D7FA04F0C3
:1063A000CBFF154805F0D2FAB7EE008AD7ED007A98
:1063B000336877EE887A0133C7ED007A336004F0F2
:1063C000BDFEF3E7B8980020D4980020ECA200208E
:1063D000B4980020ECB40020C8980020A8980020B1
:1063E000C31603007816030054160300B5620200BA
:1063F000681603008A1603009916030038B5054D88
:10640000044645F001054FF47A40A847013CFAD113
:1064100038BD00BF901703007FB505460E461446F1
:1064200072B601F0CBFF01F0EDFD0028FBD13E4834
:1064300005F08CFA41F201039D4264D006D8012D8B
:1064400012D03146394805F081FA10E044F20103D8
:106450009D425AD044F202039D42F2D122886168E3
:10646000334805F073FA02E0324805F06FFA02F0A3
:106470001DFB08B902F0E4FA0023ADF80C308DF8EA
:106480000E3003A9012319208DF80D3002F018FBFE
:1064900003A9182002F014FB03A9172002F010FB37
:1064A000192002F011FC182002F00EFC172002F057
:1064B0000BFC4FF4FA70FFF7A1FF192002F0D6FB96
:1064C000182002F0D3FB172002F0D0FB3220FFF798
:1064D00095FF192002F0F8FB182002F0F5FB1720B9
:1064E00002F0F2FB4FF4FA70FFF788FF192002F078
:1064F000BDFB182002F0BAFB172002F0B7FBFA2010
:10650000FFF77CFFCCE70C48AFE7A568284602F010
:10651000D5F9236801960093024663680748294627
:1065200005F014FAA3E700BFCA16030067170300BB
:1065300022170300E3160300001703003D170300B2
:1065400007B502F0B3FA08B902F07AFA0023ADF801
:1065500004308DF8063001A9012319208DF805308B
:1065600002F0AEFA01A9182002F0AAFA01A9172038
:1065700002F0A6FA192002F0A7FB182002F0A4FBF3
:10658000172002F0A1FB4FF4FA70FFF737FF192034
:1065900002F06CFB182002F069FB172002F066FB8A
:1065A0003220FFF72BFF192002F08EFB182002F09B
:1065B0008BFB172002F088FB4FF4FA70FFF71EFFE9
:1065C000192002F053FB182002F050FB172002F0B4
:1065D0004DFBFA20FFF712FFCCE70369C1688B423D
:1065E0009DBF8268D21802F1FF3203F1FF3394BFDE
:1065F000501A581A70472DE9F041D0E90267044655
:10660000F61B4068964288461546384405D905F081
:10661000B9F83D44E560BDE8F0813246AD1B05F0B8
:10662000B1F82A4608EB0601606805F0ABF8F1E71F
:106630002DE9F843C5680646894617464FF000081D
:106640003469B3687068A54228BFE418013C621B36
:106650005C1BBC4228BF3C46944228BF14464946B6
:106660002844224605F08EF8B3682544AB4208BFA3
:1066700000253F1BA044A144F560E1D14046BDE8A0
:10668000F883000010B5114C114AA2610223C4E93D
:106690000433104BE361A2644FF400730E4A23628B
:1066A000E264002310220D49A362E01D6362E362ED
:1066B000A3656365E365226505F024FA0849204671
:1066C00005F020FA2023A37110BD00BF14B50020EF
:1066D0009617030048A7002038A700209F17030043
:1066E000A3170300F8B5184C182300FB033503FB70
:1066F00000402544C46A012C0F46164611D003D32E
:10670000022C1BD000240AE02846FFF766FF8642D1
:1067100005D8324639462846FFF76DFF34462046F5
:10672000F8BD2846FFF759FF8642344628BF044685
:10673000224639462846FFF75EFFF0E72846BDE8C7
:10674000F840FFF775BF00BF14B5002073B50D4BBF
:106750001B7804460D4616460BB9FFF793FF02A8B7
:10676000002300F8013D00F0FDFD32462946204699
:10677000FFF7B8FF04469DF8070000F023FE20460F
:1067800002B070BD14B50020FFF77CBF10B51146F4
:106790001C461A460020FFF7D9FF204610BD00B561
:1067A00083B002900091019244F2010071466A4662
:1067B000FFF732FE03B000BD2DE9F843046805463B
:1067C00094F8200002F05AFC04F11807FF264FF05D
:1067D000FF394FF00008207AFF2802D002F04EFC6B
:1067E0002672607AFF2802D002F048FC66722068A8
:1067F000431C03D002F0F2F9C4F8009084F80B8037
:106800000C34BC42E7D16868BDE8F84302F040BFF1
:106810002DE9F041134DDFF850800E46002401278A
:1068200005EB41052B5D5BB12B5D013BDBB22B55CD
:106830002B5D93B958F826301B683046DB699847C2
:106840004CB167B1084B53F8263002215868BDE8B7
:10685000F04102F0B9BF0124E4E70027F0E7BDE80A
:10686000F08100BF8CB5002048A9002040680C4989
:1068700002798B5CDBB2FF2B0DD0FE2B0DD00068B4
:1068800003F5A87350F82330064850F822009842C8
:1068900003D1FF238B54002070470120704700BFB5
:1068A0005CA9002064A900202DE9F84F01290446C5
:1068B0000D469046066804D95E4940F25B2004F01C
:1068C000D3FA0C2303FB0563DB7A012B04D059496F
:1068D0004FF4177004F0C8FA96F82130022B40F0FC
:1068E000A4800C276F43F3195B68984508D1F369BE
:1068F00013B90020BDE8F88F626810799847F8E76F
:106900002046FFF7B3FF8346002840F0908063687D
:10691000DFF830A11B79FE220AF80320266896F8DA
:10692000200002F005FCD146B8F1000F1FD137441A
:10693000787A02F0FDFB387A02F0E2FB63681B799B
:10694000FF220AF803200C2303FB0566C6F8048027
:106950002368DB69002BCCD063681A79364B03EBD4
:10696000420302215955606802F002FFC1E7B16994
:10697000884507D337441FFA81F8387A02F0D8FBEC
:10698000787AD9E705EB4507BF00F31960685A68C4
:10699000914245D0002A43D0904541D25B46032125
:1069A00002F0B4FED4F804A096F820B09AF80530AE
:1069B000032B04D8214940F2751004F055FADAF897
:1069C0000030F05903F5A67A0C2303FB05639B7A8C
:1069D0001BB302F0FDF902465146584602F070FB27
:1069E00096F8200002F08CFB63681B7909F80350CD
:1069F00063681A79124B43F822800C2707FB05675E
:106A0000002342462946606802F080FE387A02F090
:106A100077FB787A02F074FB95E702F0B5F9DAE7D4
:106A20000379FF2209F80320E7E7082062E7112035
:106A300060E700BFAA1703008CB50020F41703001D
:106A400064A900205CA9002003681B8B5A436423BF
:106A5000B2FBF3F292B2FFF727BF00002DE9F04F2F
:106A600089B08A460592044620B9C34940F21130E4
:106A700004F0FAF9BAF1000F00F07981266896F86F
:106A80002130002B40F0758100F0DEFE08B1852832
:106A900021D102F00BF800B3B84B1B6803F0F003F0
:106AA000302B20D10023B64A00211370FF234FF072
:106AB000FF3286F82030F172337273723260F175F2
:106AC00032757375F26006F1200002F0A3FA60B12E
:106AD0002046FFF771FE042518E001F0B1FF002801
:106AE000DAD0032512E00123DDE705465AF825B088
:106AF000EBB2BBF1FF3F049300F0AE80276897F83C
:106B0000211049B108252046FFF756FE284609B056
:106B1000BDE8F08F0125E9E70AEB05024FF00C080C
:106B200008FB05F8137A029307EB08024FF00109FE
:106B30005160937203228DF818202268424406A9FE
:106B4000927A8DF81A90B2FA82F2520958468DF86C
:106B5000192001F0B5FFE8B9029B47F808B0002BF7
:106B600000F0EB80BBF11F0F04D986494FF4F3709E
:106B700004F07AF94FF0A04209FA0BF3C2F80C3591
:106B80004FF00C0909FB05F909F10800384402F03F
:106B900041FA08B10425B6E709F10900384402F0CA
:106BA00039FA0028F6D1B94499F8080002F0C0FA81
:106BB00099F8090002F0BCFA029B57F80800002B74
:106BC00000F0CA8002F004F9814657F8080002F08C
:106BD000DBF80C2303FB0573049993F808B0636892
:106BE0005A798A42804606D86749029340F2751066
:106BF00004F03AF9029B1B6805F150014A4603EB89
:106C00008101584602F05CFA0C2303FB0573D4F8AB
:106C100004B093F809909BF80530022B04D85A4928
:106C200040F2751004F020F9DBF80010424601F53F
:106C3000A471484602F044FA0C2303FB05770123B4
:106C4000FB726368514A1B79049902EB43032046A7
:106C500000225A55FFF728FE002D3FF45BAFDAF80B
:106C600010200023B2F5805F01D3092B7CD1444A68
:106C7000127812B1002B08BF01238DF818300023C1
:106C80008DF819308DF81A306068414A07238DF865
:106C90001B300379079306A902F00CFC0546002877
:106CA0007FF431AF6368DAF810001B68D3F8101571
:106CB000C9B2050FC1F1200C0001A1F1200720FA93
:106CC00001F805FA0CFC48EA0C0825FA07F725FA42
:106CD00001F948EA0708B9F1010F08BFB8F1000F40
:106CE00008D32C4940F2B120CDE9028904F0BCF868
:106CF000DDE90289C6F818806068CDE9028902F0F2
:106D0000EFFCDDE9028901250095042342460221BA
:106D1000606802F016FD0221606802F055FD059BD7
:106D2000F36163681C4A1B7986F8215042F82340BE
:106D30001A4AFF21D1540025E8E6BBF11F0F04D900
:106D400010494FF4F37004F08FF84FF0A04209FAA5
:106D50000BF3C2F8083513E702F016F8814657F82E
:106D6000080002F035F834E7520801337AE70B25C2
:106D7000CCE60825CAE600BFAA170300E80F00F01A
:106D800078A9002045180300F41703008CB50020F3
:106D9000116802008818030048A900205CA900209F
:106DA0002DE9F047076897F82130044623B91B49BD
:106DB00040F2973004F058F80026DFF868903D461E
:106DC000B0464FF00C0A63681B7909EB430303F8E4
:106DD0000680EB7A73B1236828680AFB0633997A38
:106DE000B1FA81F1490902F017F8286801F09AFF19
:106DF000C5F804800C357EB16368094A1B79FF2110
:106E0000D154606802F06CFC606802F00BFC022355
:106E100087F82130BDE8F0870126D4E7AA170300E0
:106E20005CA900208CB50020094A53789178013381
:106E3000DBB2994208BF0023117899421FBF03704B
:106E40005078182303FB002014BF04300020704743
:106E50007CA9002073B5054602A8002400F8014D66
:106E60000E4600F07FFA0DF10600FFF7DDFF90B14E
:106E700006700A4B9DF8062045605A709DF8070081
:106E800000F0A0FA24B9064B4FF48012C3F8002199
:106E9000204602B070BD0424F0E700BF7CA90020AA
:106EA00000E100E0024B4FF43C6043F0010318475F
:106EB000D0180300F8B51F491F4B0025C1F84051F9
:106EC000C1F84451C1F84851C1F84C51C1F80051C2
:106ED000C1F804511B684BB3D1F804451749096840
:106EE000641A24F07F442F461A68A24209D8A41AD3
:106EF00015441A7CDE691AB11F74D3E90520904746
:106F0000AEB90F4B0F4A197813788B4205D1013374
:106F1000DBB2022B08BF0023137012780A4B43F830
:106F200022500A4B4FF48012C3F80021F8BD3346BB
:106F3000DAE700BF001001409CAA002098AA0020B8
:106F400094AA002095AA00208CAA002000E100E06D
:106F50002DE9F74F9C4A9D49137809789C4D994239
:106F60003CD00133DBB2022B08BF002313709949D8
:106F70001278994B0F6853F822003B1823F07F4397
:106F800000220B602B6816461446944613B942B192
:106F90002B6006E0196881420ED902B12B60091AF4
:106FA00019604FF001082B68DFF834A20093002726
:106FB000BEB9DFF834B260E0401A0C44D968C3F8B7
:106FC00000C0D3F81CE031B13A1922F07F42C3E986
:106FD0000121DE611E4601227346D7E70026B04636
:106FE000E1E73446F6697B4A63681268DFF8FCC162
:106FF000A068991A21F07F41614500F2A580014403
:107000002160012222742A680023C4E90133E3616C
:10701000002A40F0A2802C60CAE75A1C9BF802109C
:10702000D2B291428BF8002004BF00228BF80020DE
:10703000182202FB03B32A6819799C68022974D0CC
:1070400003297ED0012918D1217CB1B9DA686260A8
:107050001A69A2605A69E2609B69A3615F4B1B7861
:10706000002BC0D06160BEE79C4200F09080994642
:10707000DB69002BF8D1002323749BF800309BF8C8
:1070800001209A42C9D12B682FB9009A934202D1AC
:10709000B8F1000F43D0002B41D0D3F800A0504DE1
:1070A0004C4BD5F804751C68DFF844813E1B98F8FA
:1070B000003026F07F4603369BB94FF48033C5F885
:1070C0004433C5F80433474B4FF400324FF0010905
:1070D000C3F880211A60C5F80090FFF7E3FE88F836
:1070E0000090B2452CBF5444A41924F07F44C5F845
:1070F0004045D5F80435DB1B23F07F43E41B033305
:1071000024F07F44A3420AD9D5F80435C5F84035A8
:10711000FFF7C8FE334B4FF40032C3F800212F4B6A
:1071200000221A7003B0BDE8F08F13469146A0E725
:107130001174D2690123002AFAD1002B9DD02A6054
:107140009BE700231946F6E7D31A23F07F438342D7
:1071500034BFC31A0023236053E7216813689942A0
:1071600013D8591A1160E26155E7091AD8691A460D
:1071700038B1034618688842F7D3401A1860184699
:1071800013462160E061DC6112E71346F2E74C45EB
:107190000DD1D3692B6053B90E4801920121CAF871
:1071A000081003600D4B1970FFF77CFE019AE1692E
:1071B0002368C9F81C1011B1086803440B602B68E0
:1071C0009A4218BF012756E794AA002095AA0020EA
:1071D0009CAA002098AA00208CAA002088AA00203F
:1071E0000010014000E100E07CA90020FEFF7F00CC
:1071F00089AA0020F8B5194E194D1A4F4FF40033E3
:10720000C6F8803001244FF48033C5F84833C5F800
:1072100008336C60FFF746FEAC6000243C60FFF76B
:1072200041FE114B1C70114B0B221C809A70104BAD
:107230001C60104B1C70104B4FF480121C70E0232C
:10724000C6F8802186F814333260C5F8084586F800
:107250001133D5F804353B602046F8BD00E100E06D
:107260000010014098AA002089AA00207CA90020D3
:107270009CAA002094AA002095AA0020074B9B7886
:107280004BB132B128B10368187C20B959745A61E6
:107290007047072070470820704700BF7CA9002076
:1072A0002DE9F7431D4FBB7805460E4690469BB32C
:1072B00090B304292ED9436973B3437C02A80024F8
:1072C000012B00F8014D0CBF8946A14600F04AF899
:1072D0000DF10600FFF7A8FDD0B101230370104B9C
:1072E0004560D3F80435C0E90498C0E902369DF83A
:1072F00006307B709DF8070000F064F824B9094B54
:107300004FF48012C3F80021204603B0BDE8F0839B
:107310000424EFE70724F7E70824F5E77CA9002019
:107320000010014000E100E0064A92783AB130B125
:10733000426922B1002202740221FFF78BBD0820AE
:10734000704700BF7CA90020EFF30583C3F3080357
:107350002BB9EFF31480C04300F001007047012007
:107360007047000070B50446FFF7EEFF012803D018
:107370001049432003F078FDEFF3108672B60E4AF1
:107380009068012398B993600C4B0D4DD3F8801091
:1073900029401160C3F88050D3F8841051604FF039
:1073A000FF32C3F88420207006B962B670BD237026
:1073B000FAE700BFD618030098B5002000E100E00E
:1073C000FC06FFBD10B50446FFF7BEFF012803D041
:1073D0000949512003F048FD084B9A685AB154B945
:1073E000EFF3108172B6064A186810605868506052
:1073F0009C6001B962B610BDD618030098B5002094
:1074000000E100E0024B1B680021986804F0B2BA6A
:10741000149900201EF0040F1CBFEFF309800AE04E
:10742000EFF308800549064A884201D8904202D805
:107430008D464FF00000034B18470000000001206C
:1074400000E00020497402002DE9F347054600F0F2
:10745000B5FF00F0D7FD0028FBD12F4B2F4C9F6AC2
:107460002F4BE41AE408240444F00104002D4ED00C
:10747000AA692C49204600F049FFEB680193AB68EC
:1074800000932949D5E90023204600F05FFFEB690E
:1074900000932649D5E90423204600F04BFF1E4BFC
:1074A000DB6A980703D52249204600F02BFFDFF85E
:1074B0009490DFF894A000264FF0010808FA06F334
:1074C0003B4206D059F826201AB15146204600F01A
:1074D0001DFF01361A2EF1D1390605D50E4B15497F
:1074E0005A6B204600F012FF3A0405D50A4B1249A8
:1074F0009A6B204600F00AFF104B1B68DB0700D593
:1075000000BE2846FFF71CF802B0BDE8F0870C4922
:10751000204600F0F7FEC2E700ED00E0383303003C
:10752000D03203002B190300401903007519030022
:10753000D01903001F1A03003F1A0300F0ED00E00A
:107540009D1903005C1A0300141A030050E8002F71
:107550000B4640E8003C9CF0000FF7D11046704706
:1075600050E8003F43EA010240E8002C9CF0000F85
:10757000F6D11046704750E8002F02EA010340E8B8
:10758000003C9CF0000FF6D11046704750E8003FD9
:1075900003EB010240E8002C9CF0000FF6D11046EE
:1075A000704750E8003FA3EB010240E8002C9CF03C
:1075B000000FF6D1104670470121FFF7D1BF00211F
:1075C000FFF7D9BF10B50446002834D003681BB9B3
:1075D0001A49FF2003F048FC636823B917494FF4A8
:1075E000807003F041FCA36823B9144940F20110F4
:1075F00003F03AFCE36823B910494FF4817003F0BB
:1076000033FC238A23B90D4940F2031003F02CFC0C
:10761000D4E9012321689B1ADBB20A60013BDBB28B
:10762000FF2B226802D10020107110BD1168481C88
:1076300010600B70F2E70E20F7E700BF841F030015
:1076400037B5054620B914494FF4927003F00CFC8D
:1076500002A8002400F8014DFFF784FE2A6869683B
:1076600013688B4210D9591E116013F8014C2A8AF5
:10767000EB6802FB04342A68AB6811685B1A117965
:10768000DBB2994238BF13719DF80700FFF79AFEED
:10769000204603B030BD00BF841F030037B50C4641
:1076A000054620B9104940F2471003F0DDFB24B92C
:1076B0000D494FF4A47003F0D7FB02A8002300F893
:1076C000013DFFF74FFE2A681368591C1160EA68F4
:1076D000A41A2A8AB4FBF2F41C709DF80700FFF785
:1076E00071FE03B030BD00BF841F030038B5084CE5
:1076F00004F108030546002818BF1C4623682BB177
:107700001A6822605B6828469847F7E738BD00BFD3
:10771000A8AA002020B9054B01225A70FFF7E6BF46
:10772000012802D1014A9070F8E77047A0AA002012
:1077300020B9034B01225A70FFF7D8BF704700BF32
:10774000A0AA002038B50B4C237883B90A4863609F
:10775000A3602361E36001F0BBF8054603F0E4F8A1
:1077600008B901F0CBF801232370284638BD8525E0
:10777000FBE700BFA0AA00201577020013B5154C47
:10778000237823B914494FF4857003F06DFBE36847
:1077900023B9114940F20B1003F066FB02A8002345
:1077A00000F8013DFFF7DEFDE368013BE360E368BD
:1077B00053B903F0B9F818B10749792003F054FB25
:1077C00001F0BAF80023A3709DF80700FFF7FAFD57
:1077D00002B010BDA0AA0020D41F0300012813B5D9
:1077E00009D003D303281BD002B010BD134B0122D4
:1077F000C3F88020F8E702A80023114C00F8013DEF
:10780000FFF7B0FD23780BB9FFF79CFFE3689DF805
:1078100007000133E3600123A370FFF7D3FDE3E723
:10782000074B1B7823B9074940F2452003F01CFBA6
:1078300001F064F8FFF7A2FFD6E700BF00E100E027
:10784000A0AA0020D41F0300034B187810B901220E
:107850001A70704785207047B4AA002010B50446FE
:1078600018B90649312003F0FFFAA2682AB163690A
:107870002168206998470023A36010BD29200300D8
:107880000EB433B5059D044618B91249422003F0E1
:10789000EBFA63691BB90F49432003F0E5FA23684B
:1078A0001BB90C49442003F0DFFA63681BB909498E
:1078B000452003F0D9FA3DB102AA06AB42F8043DD7
:1078C0002946204600F06EF802B0BDE8304003B013
:1078D000704700BF29200300826830B40468551C3B
:1078E0008560A154D0E901329A4202D330BCFFF73F
:1078F000B5BF30BC704700002DE9F84F9946DDE96F
:107900000A431746824688460A460126BA420FD2E3
:107910004E4538BF4E4613F0010B01D164B9002427
:107920000125B9F1010F1AD909F1FF397D43F8E7B3
:10793000B2FBF7F20136E9E79B070ED5B9F1000F6C
:107940000CBF30252025A642EAD2013C29465046EC
:10795000FFF7C2FF002CF6D1E1E72025F3E7B8FBE3
:10796000F5F39F42E2D9DFF83890B8FBF5F35046C3
:1079700019F8031005FB1388FFF7AEFFB5FBF7F509
:10798000002DF2D1BBF1000F02D00CB1A64201D301
:10799000BDE8F88F20215046013CFFF79DFFF4E73A
:1079A0006F2003002DE9F74F0E469046054620B99B
:1079B000AC494FF4A27003F057FA6B6923B9A94997
:1079C0004FF4A37003F050FA2B6823B9A54940F295
:1079D000471003F049FA6B6823B9A2494FF4A47029
:1079E00003F042FA002E00F03A8116F8011B00293C
:1079F00058D0252940F0D180002702E047F0010748
:107A00001646324612F8013B2D2BF7D0302B04D00E
:107A10002B2B05D147F00407F2E747F00207EFE709
:107A200000242A2B06F101021BD1D8F80030191DC1
:107A3000C8F800101B6816461C4433782E2B1CD146
:107A400001364FF0000A314611F8012BA2F1300047
:107A5000092814D80A2303FB0A23A3F1300A0E468F
:107A6000F1E712F8013CA3F130010929E5D80A2118
:107A700001FB0434303C1646D3E74FF0000A32468F
:107A800012F8011B01F0FB0068281646F8D069299E
:107A900016D054D8582970D00ED825297DD03378E7
:107AA000002BA2D12B7B002B00F0D980284603B0FD
:107AB000BDE8F04FFFF7D2BE632968D06429EED14C
:107AC000D8F80020111DC8F80010D2F8009089EAFB
:107AD000E972A2EBE9724FF0010B092A61DCD34590
:107AE00038BFD3462CB1B9F1000F01DB790700D5BF
:107AF000013CBA0702D5BAF1000F04D0FB0702D44B
:107B0000002C54D10024B9F1000F58DAC9F1000952
:107B10002D212846FFF7E0FE07F00302022A05D1D7
:107B2000BAF1000F02D1002C4DD10024CDE900475D
:107B300053460A2249462846FFF7DEFEAFE773297F
:107B400054D016D87029AAD1D8F800301A1DC8F818
:107B50000020302128461C68FFF7BEFE7821284609
:107B6000FFF7BAFE00220823CDE900322146102299
:107B7000E1E775292FD0782991D1D8F800100A1D96
:107B8000C8F80020CDE90047534610222CE0D8F871
:107B900000301A1DC8F8002019782846FFF79CFE0F
:107BA0007DE70A230BF1010B92FBF3F295E7A34566
:107BB000A9D220212846013CFFF78EFEA0E77807D6
:107BC000AAD52B21A5E7A345B0D230212846013CF8
:107BD000FFF782FEA7E7D8F80010CDE900470A1D9D
:107BE000C8F8002053460A220968A4E7D8F80030F4
:107BF0001A1DC8F80020F907D3F8009012D54F4697
:107C0000A7EB090B17F8011B41B9A345BFF447AF18
:107C100020212846013CFFF75FFEF6E72846FFF7E4
:107C20005BFEEDE7B9F1000F17D0484603F0C8FF3F
:107C30000746BC4200D954B909F1FF3919F8011FB0
:107C400000293FF42CAF2846FFF746FEF6E7202137
:107C50002846013CFFF740FEEBE74F46E9E703B05B
:107C6000BDE8F08F7F2003007047000007B5044B8C
:107C70000093044A402300F032F803B05DF804FB9F
:107C8000897C0200B6AA00202DE9F84389461446F3
:107C9000B2B10F4B0F4E0325002743F001082246D7
:107CA00009EB07010020FEF71DFD0744241A48B91F
:107CB00033782BB14FF47A40C047013D02D1357083
:107CC000BDE8F88301233370002CE8D1F8E700BF4A
:107CD000E0200300B5AA00207047FEF755BDF0B5BF
:107CE00095B01C46164608460D4600F032FD1A9B1C
:107CF0000D93CDE9086400242346082205A92846EF
:107D00000A948DF82C400C9400F04CFD079B0293D4
:107D1000BDF81830ADF80C30BDF81A30ADF80E30A3
:107D20009DF814308DF8114003F00302012A1DD193
:107D3000BDF81440059EC3F3C203C4F383148DF849
:107D40001030A20008230EA9284600F02BFDC6F330
:107D5000952608AB0093224602AB0EA9304600F0F0
:107D60009DFB284600F0F9FC15B0F0BD022AF8D1C1
:107D7000BDF81640C3F3C203A4098DF810300827DC
:107D8000082C264628BF08263B4632460EA9284620
:107D900000F008FDA41B08AB02AA31460EA8374428
:107DA00000F0E0FB002CEBD1DBE7000008B5FFF7AB
:107DB00094FF0421064800F0D7FA002803DA0549A9
:107DC000412003F051F8044B01225A7108BD00BF55
:107DD000F0330300F4200300FC980020037813F034
:107DE000040216D003F00303012B03D0022B09D0A9
:107DF000012070470A6800880232C0F383100244F1
:107E00000A60F5E70B684288023303EB92130B60BC
:107E1000EEE71046704700002DE9F04F89B00646A6
:107E2000871C08A8484C009200230D4600F8113D1D
:107E3000FFF798FA23682B60D4E9012313442268E2
:107E400001339B1A04F21C4804F5836B04F21449B5
:107E5000BB421AD3009A0023002A6DD0012262F39C
:107E6000010343F0040366F389132168A2689DF8B7
:107E70000F000A4003320F4444F822302760FFF716
:107E8000A1FA012009B0BDE8F08F01214046FFF7BB
:107E90007DFB5846FFF790FB0DF1200A4846FFF79F
:107EA0008BFB60684AF8100DA5682840033004EB8E
:107EB00080005146FFF792FF02460498002AF4D151
:107EC00005EA000304EB8303811CDB6805930130A2
:107ED000054004EB850503F00303012B0491ED68D5
:107EE00023D0022B08D0194901924FF4BF7002F041
:107EF000BBFF019A154607E0BDF816309B09033316
:107F00002D0C01EB930304934846FFF758FB08B18F
:107F1000049B636029464046FFF738FBD4E9012300
:107F20001344226801339B1A92E7BDF81430C3F35F
:107F300083132D0C0B44E6E7022262F3010343F0A6
:107F4000040366F39F5390E7C8AB0020632103004E
:107F50000B4B0C48FF2210B59A600022C3F818247E
:107F6000C3E90022C3F81424012283F8202400F07E
:107F7000A9FB044610B9044800F040FC204610BD9F
:107F8000C8AB002068330300BC21030030B50A4CA5
:107F900071B10A4A0A49121BD20800239A4201D140
:107FA000002030BD31F82350854202D00133F5E77F
:107FB000034654F83300F4E7D0320300683303007B
:107FC000D0A20020094B013903EBC000032909D8D6
:107FD000DFE801F00A0204060420704700797047C8
:107FE000407970470020704702207047D03203006C
:107FF000034BD3E90030C31A58425841704700BFC1
:10800000C8AB00202DE9F04387B0FFF7F1FF06462B
:10801000002840F0FC807F4DC5F81804BFF34F8F57
:108020006868AC6806AF47F8100D2040033005EBD8
:1080300080003946FFF7D2FE029B18B1D5F818240C
:10804000002A5FD004EA0302991C013305EB820287
:10805000234005EB8303D268DB68049302F003033B
:10806000022B0392029162D1BDF80E306A484FEAAA
:108070009318B8F1500FC14628BF4FF0500969F36B
:108080008F1309F10801ADF80E3000F033FB0746FD
:10809000002800F0A78000F05CFB03A90023082261
:1080A000384600F069FB029924EA01060136B60061
:1080B000B14535D95FFA89F97EB3F6B2A9EB060965
:1080C000214003315FFA89F4B146544E05EB81013A
:1080D00008234A46384600F04FFB36B109F1080341
:1080E00022463146384600F047FB029B08F1030860
:1080F00003EB98030293D5F81834002B4BD1D5F835
:1081000010445BE02A689A4204D86A60304607B09F
:10811000BDE8F08304EA030088E740493446D7E726
:108120002140033108234A4605EB8101DAE7012BA0
:1081300058D1BDF80C303848C3F38311062928BF45
:10814000062161F3891302318900ADF80C3000F08B
:10815000D1FA0746002845D000F0FBFA0023082298
:1081600003A9384600F008FB0026BDF80C20C2F336
:108170008312B31C96424FEA8303BCD202994A1C75
:1081800021400331029205EB81010422384600F0C0
:10819000F3FA0136E9E7384600F0DFFAFFF728FF87
:1081A00080F00100C6B2B1E7E3685B7923B12368D0
:1081B00039461B6820469847E3681C68002CF3D1B9
:1081C000384600F0CAFA06A800F8114DFFF7CAF8C1
:1081D000D5F818340BB9029B6B609DF80700FFF7C8
:1081E000F1F8DBE7D5F8104454B90D4B0D480E49B2
:1081F000C01AC008000440F0020000F083F8CDE788
:10820000236820469B689847E3681C68ECE70026D3
:108210007CE700BFC8AB002068330300D4AB00206C
:10822000D032030028330300C82103002DE9F74FA3
:108230002F4C80460F46914601A9012218469B46C5
:10824000D4F808A0FFF7E8FD00283DD0019D0026E6
:10825000A91C5E4506EB010240D100212548FFF72D
:1082600075F980F3100B244B244A4FEA18499B1AE6
:10827000B9EBD30F04D3224940F2A31002F0F4FD6E
:108280006B1C03EA0A0304EB830349EA0B42DA603E
:1082900005EA0A030333012114F8232068F3C50219
:1082A00004F8232034F8232066F3891224F82320CD
:1082B00054F8232067F39F2244F8232061F301023E
:1082C0006FF3820204F8232094F820341BB1FFF7E7
:1082D00099FE0028FBD103B0BDE8F08F0AEA020244
:1082E00004EB820259F82630D3600136B1E700BFB3
:1082F000C8AB0020E4AF002068330300D032030095
:108300006321030000231A46FFF790BF13B502ACA8
:10831000012344F8042D2246FFF788FF02B010BD68
:1083200007B5CDE9002302236A46FFF77FFF03B0BC
:108330005DF804FB1FB5CDE90123069B039301AA59
:108340000323FFF773FF05B05DF804FB1FB5CDE90C
:108350000023069B0293079B03936A460423FFF7BF
:1083600065FF05B05DF804FB30B5134AD2F8104440
:108370000023214651B9C4682371D2F810445CB976
:10838000C2F81004C2681160184630BDC9680D7982
:108390009D420AD00968EDE7E468C16824680C6072
:1083A000D2F81024D2681060EEE701330A2BE0D136
:1083B0004FF0FF33E8E700BFC8AB002038B5094AEB
:1083C0000123D2F8104482F820341D4604B938BD88
:1083D000E3685D71236820465B689847E3681C6822
:1083E000F4E700BFC8AB002010B5037A052B0C469C
:1083F0000FD0437A23B1084A08492046FFF740FAD4
:1084000007492046FFF73CFA2046BDE81040FFF739
:1084100025BA002AF8D0F3E713220300182203003C
:10842000B016030073B5C38804460D4633B1144A31
:1084300000921449144A2846FFF722FA217A0529A6
:108440001CD0637A4BB1A088FFF7BCFD0F4B1049DD
:1084500053F820202846FFF713FA227A0D4BA08804
:1084600053F822600021FFF791FD0B490346324685
:10847000284602B0BDE87040FFF702BA02B070BDF6
:1084800013220300232203001B220300E021030028
:1084900018220300482203003B2203002DE9F04389
:1084A00085B01F460C9D002306460C46904695F865
:1084B0000C902B7329463846FFF7B4FFB8F1060F2E
:1084C00009D8DFE808F00412181F283340003146AD
:1084D0002846FFF7D5F9002229463846FFF784FFE2
:1084E00085F80C9005B0BDE8F08322683146284637
:1084F000FFF7C6F9EFE7D4E9002331462846FFF736
:10850000BFF9E8E7A36800933146D4E90023284681
:10851000FFF7B6F9DFE7E3680193A36800933146FC
:10852000D4E900232846FFF7ABF9D4E72369029387
:10853000E3680193A36800933146D4E900232846F9
:10854000FFF79EF9C7E76369039323690293E36822
:108550000193A36800933146D4E900232846FFF72E
:108560008FF9B8E708292DE9F84F80460E461746DF
:108570001C4635D8002593F80C901D7319461046FB
:10858000FFF750FFDFF88CA0DFF88CB0AE4229D99E
:1085900018F8052059462046FFF772F90135082DD5
:1085A000F4D11A49DFF874B02046FFF769F94FF0AB
:1085B000000A564524D918F80A507E2D17D92E22C4
:1085C00059462046FFF75CF90AF1010ABAF1080F93
:1085D000EFD1012221463846FFF706FF84F80C90C0
:1085E000BDE8F88F51462046FFF74AF9D6E703F079
:1085F000A5F82844427812F0970FE0D02A46DFE72A
:1086000003492046FFF73CF9DEE700BF0E220300D6
:108610000C2203000A22030004220300102203009C
:108620002DE9F74F99469DF830300193884617465B
:10863000054618B92249B62002F016FCEA8895F8DA
:1086400005B00BFB02FBABF1040BCB4503D81C4977
:10865000C42002F009FC3E68B5F806A006EB09024A
:108660005A4509F1040188BFABEB0906B1FBFAF4E6
:108670003E600AFB141144B9AAEB0107B74228BFB8
:1086800037462EB903B0BDE8F08F2D68013CF2E704
:10869000019A043108EB0403681872B101463A46A6
:1086A0001846F61B03F06EF8B2453C442D68574659
:1086B0004FF0000128BF3746E3E73A461946F0E796
:1086C000A7220300FEF77EBFF8B546790146721E69
:1086D0000546002393422D6803D30024A64202D806
:1086E000F8BD0133F6E70F682846FEF7D7FF0134DF
:1086F0003946F3E72DE9F843CD1C068A0746FEF715
:108700009FFF043E35440446B5FBF6F5F0B14FF447
:108710008073EDB28380C680013D076081464FF0D3
:108720000008A84512D23846FEF78AFF064648B12F
:1087300063790133637108F10108C9F8000007602B
:108740008146EEE72046FFF7BFFF34462046BDE8EE
:10875000F88301210430FEF719BF10B5012104464A
:108760000430FEF71EFF10F0FF0F04D12046BDE8D5
:108770001040FFF7A9BF10BD30B585B0144604AA5C
:10878000002542F8044D0095FFF74AFF039BA342E2
:1087900003D00349F62002F067FB05B030BD00BFEF
:1087A000A722030030B585B0144604AA012542F87B
:1087B000044D0095FFF734FF039BA34204D0034907
:1087C0004FF4807002F050FB05B030BDA7220300CB
:1087D000064B10B500241C70054B1C60BFF35F8F67
:1087E0000449054800F018F8204610BD8CB0002060
:1087F00090B00020F822030084B00020826800239B
:10880000936082681361826853618268D360826872
:10881000536082681360704738B50D46044618B936
:108820000849502002F020FB1DB90649512002F0F2
:108830001BFB25602B6863606A68934204BF0023BA
:10884000636038BD0D23030010B5044618B90B4909
:10885000632002F009FB23681BB90849642002F079
:1088600003FB636843B1226891680B4463605268FC
:10887000934204BF0023636010BD00BF0D230300BB
:108880000D4930B5A1F594720225914201D800201E
:108890000EE08B1ADB1093FBF5F302EBC30452F8E6
:1088A0003330834205D802D204F10802EDE7606854
:1088B00030BD2146E9E700BFB424030008B5FFF747
:1088C000DFFF024B002808BF184608BD76230300CF
:1088D00010B5044618B90749A02002F0C5FA064BA6
:1088E000187920B901221C601A71587110BD8520B9
:1088F000FCE700BF6E28030094B0002008B50B4BC6
:108900001B791BB90A49B92002F0AEFA094B1A6863
:10891000D2075FBFE02283F8002301221A604FF0E4
:1089200080430122C3F8182508BD00BF94B0002081
:108930006E28030000E100E008B5084B1B791BB965
:108940000749F32002F090FA064B01221A604FF01B
:108950008042D2F81834DB03FBD408BD94B0002069
:108960006E2803000C00004007B5154B1A687AB159
:1089700000221A601B680093009B4FF08043012285
:10898000C3F808230F4B587910B95A711B689847E0
:108990000D4B1A6882B100221A601B680193019B7B
:1089A0004FF080430222C3F80823064B1B680120C6
:1089B00003B05DF804EB184703B05DF804FB00BF9B
:1089C0000001004094B000200401004000F180400C
:1089D00000F5C040002382B0036003680193019B4F
:1089E00002B07047054B4FF0FF32072843F82020B4
:1089F00084BF1B1883F84820704700BF9CB000203C
:108A000002494FF4F37002F02FBA00BF451803007B
:108A10001F2838B504460D4601D9FFF7F1FFA00025
:108A200000F1A040D0F8003723F44033C0F80037FD
:108A3000D0F8003743EA0543C0F8003738BD0000DE
:108A400010B5164C94F8583033BBFF21E2180133AF
:108A5000202B82F83010F9D10021C8B2FFF7C2FFF5
:108A600001310C29F9D1042200210D4802F024FF24
:108A70000C4BE02283F8062340221A604FF4BE70AC
:108A8000FFF7A4FF084B4FF00042C3F80423012373
:108A900084F85830002010BD0820FCE79CB000206E
:108AA000F0B0002000E100E000600040034B93F8CC
:108AB0005800003018BF0120704700BF9CB0002054
:108AC0001F2870B504460D4604D941494FF49870EB
:108AD00002F0CAF93F4E96F85830012B04D03C49B9
:108AE00040F2311002F0C0F925B939494FF49970BC
:108AF00002F0BAF9331993F93020013265D1AA781E
:108B0000002A54D0002356F8231001314FEA830283
:108B100048D1311902F1804281F83030002102F54C
:108B2000C04246F82310D2F810052B78697820F45B
:108B300098101B04090520F4F85001F4801103F487
:108B40004033C2F810050B432102D2F8100501F49E
:108B5000F8510B430343C2F810356B78012B4FF0EB
:108B6000010528D11F2C01D9FFF74AFF4FF0A04380
:108B7000A540C3F808551F2C01D9FFF741FF04F5A4
:108B8000E0724FF0A043032143F82210E20812499B
:108B9000012304F0070403FA04F48B5C1C438C5497
:108BA000002003E00133082BADD1042070BDFE226C
:108BB00083F83020D1E71F2C01D9FFF721FF4FF0B8
:108BC000A043A540C3F80C55D5E70820EEE700BF49
:108BD000C12803009CB00020F0B000201F28F8B589
:108BE000044604D91D494FF4B47002F03DF91C4D00
:108BF0002B1993F93030013304D1184940F2691030
:108C000002F032F9291991F83000072809D8FFF746
:108C1000E9FE91F93030134A03F5A273002142F8BE
:108C200023102544FF23104F85F83030E60804F068
:108C3000070301259D40BB5D2B420ED01F2C01D99F
:108C4000FFF7DEFE4FF0A04304F5E074022243F884
:108C50002420BB5D23EA0505BD55F8BDC1280300EE
:108C60009CB0002000600040F0B000201F2838B504
:108C7000054604D912494FF4BE7002F0F5F8114CC4
:108C8000621992F93020013204D10D4940F27D1071
:108C900002F0EAF8631993F83030072B04D808493A
:108CA0004FF4BF7002F0E0F81F2D01D9FFF7A8FEC6
:108CB000012303FA05F54FF0A043C3F8085538BD6A
:108CC000C12803009CB000201F2838B5054604D9F0
:108CD00012494FF4C37002F0C7F8114C621992F9AF
:108CE0003020013204D10D4940F2871002F0BCF867
:108CF000631993F83030072B04D808494FF4C47037
:108D000002F0B2F81F2D01D9FFF77AFE012303FA12
:108D100005F54FF0A043C3F80C5538BDC12803003A
:108D20009CB000201F2838B5054604D914494FF4DB
:108D3000CD7002F099F8134C631993F93030013378
:108D400004D10F4940F29B1002F08EF8631993F89A
:108D50003030072B04D90A494FF4CE7002F084F862
:108D60002C4494F930309B0003F1804303F5C04359
:108D7000D3F8102542F00302C3F8102538BD00BF18
:108D8000C12803009CB000201F2838B5054604D92F
:108D90000D4940F2B91002F067F80C4C631993F8D2
:108DA0003030072B04D908494FF4DD7002F05CF82D
:108DB000601990F930000C308000C0B200F18040A2
:108DC00000F5C04038BD00BFC12803009CB00020A2
:108DD0001F2838B5054604D90D494FF4E37002F059
:108DE00043F80C4C631993F83030072B04D9084929
:108DF00040F2C71002F038F8601990F930001830CE
:108E00008000C0B200F1804000F5C04038BD00BF16
:108E1000C12803009CB000201F2870B506460D46EF
:108E200004D917494FF4E97002F01EF8154CA31944
:108E300093F93030013304D1114940F2D31002F0DC
:108E400013F8A31993F83030072B04D90C494FF4C9
:108E5000EA7002F009F83444003594F930304FEAF2
:108E6000830303F1804303F5C04318BF0125D3F802
:108E7000101521F4801141EA0551C3F8101570BD99
:108E8000C12803009CB000202DE9F04F87B00024DA
:108E90005B4A5C4E5C4D039401211368A2F5C0400F
:108EA000012B80B206D1D6F804330B4202D0FFF773
:108EB0008DFD0C430432AA424FEA4101EDD1534BE0
:108EC0001B68012B0AD14FF4BE70FFF77FFD4FF0F6
:108ED000A04344F00044D3F81035039314F0FF0F7F
:108EE0001AD04B4F00250126344210D0AB0003F1BD
:108EF000804303F5C043D3F81005D3F8101557F895
:108F00002530C0F30420C1F3014103B19847013576
:108F1000082D4FEA4606E7D1002C6EDA00224FF00A
:108F2000FF33CDE904233A4F4FF0000A56464FF085
:108F3000A04907EB0A0393F95040631C46D0E4B202
:108F4000012224F0C00504F0070B02FA0BFBEB082A
:108F500006AAD11811F8042C12EA0B0F36D07A1990
:108F6000A40992F9302057F82280B8F1000F0AD1F5
:108F7000032C2BD10DF1100C1CF8030040EA0B0060
:108F80000CF8030001E0032CF4D01F2D03D901914C
:108F9000FFF736FD019911F80C1C05F5E07311EA95
:108FA0000B0F59F82330C3F3014320D0022B0DD10E
:108FB000032C05D121462846FFF72AFD0136F6B2DB
:108FC000B8F1000F02D021462846C0470AF1010A35
:108FD000BAF1040FADD186B14FF0A043039AD3F894
:108FE00010359A4209D00393049B05939CE7032B09
:108FF000ECD1032CE4D10221DDE707B0BDE8F08F0E
:109000000061004000600040206100407C61004041
:109010009CB000202DE9F74F4FF00009154D164E7A
:1090200007464FF0040AC8465FFA89FB01240DF198
:10903000070004FA0BF48DF80780FEF793F92C4231
:1090400008D0336814EA030201BF2343336087F872
:1090500000B092469DF80700FEF7B4F9BAF1000F90
:1090600003D0A54309F10109DED1504603B0BDE8A4
:10907000F08F00BFFFFF0100F8B0002037B50125D9
:109080008540C5F31003A3B10B4B02A80024C3F81D
:10909000085500F8014DFEF765F9084A9DF80700EC
:1090A000136823EA05051560FEF78CF9204603B026
:1090B00030BD0720FBE700BF00F00140F8B0002002
:1090C00010B5A1B19AB101238340C3F3100484B158
:1090D0000A4C246823420ED0C00000F1804000F505
:1090E000F830C0F81015C0F81425002010BD0E206F
:1090F000FCE70720FAE70820F8E700BFF8B00020F7
:10910000012303FA00F0430C5B044BB918B1064B82
:109110001B68184206D0054BC3F8040500207047B1
:109120000720704708207047F8B0002000F0014089
:10913000012303FA00F0430C5B044BB918B1064B52
:109140001B68184206D0054BC3F80805002070477D
:109150000720704708207047F8B0002000F0014059
:1091600010B5054C22681AB90449512001F07CFE63
:109170002368BDE810401847FCB000201A290300FE
:109180000023435082B043580193019B02B07047C3
:1091900070B5D0F8103105460C4653B14FF48871C4
:1091A000FFF7EEFF63795A0703D523680BB101205F
:1091B0009847D5F814315BB14FF48A712846FFF710
:1091C000DFFF63791B0703D523680BB102209847A3
:1091D000D5F81C315BB128464FF48E71FFF7D0FFF4
:1091E000607910F0100002D1236803B19847D5F8D8
:1091F000043163B14FF482712846FFF7C1FF0123A8
:10920000237123681BB10320BDE87040184770BD6F
:1092100001490248FFF7BCBF04B1002000C0014073
:1092200001490248FFF7B4BF0CB100200010024012
:1092300001490248FFF7ACBF14B1002000200240F2
:1092400000F1804000F5E040002382B00360036835
:109250000193019B02B07047F0B5514B514C1B6814
:1092600085B0DBB14FF4827094F82E20FFF7E8FF51
:1092700012B194F82F30A3B1636802932389ADF83B
:109280000C30E36800218DF80410002B44D12374C6
:10929000236801A89847002384F82F3094F82E30D3
:1092A00003B3414B1B68EBB14FF48070FFF7C8FF6D
:1092B00094F82D20638B91B28B4238D95B1A2189A7
:1092C0009BB26383CB1A616801EB4301374BC3F850
:1092D0002C16C3F830264FF48270FFF7B1FF344BE1
:1092E00001221A60334B1B685BB14FF48870FFF7A3
:1092F000A7FF002304A82374022300F80C3D236871
:1093000098472D4B1B6813B34FF48A70FFF798FFF3
:109310000023237405B0F0BD208B6083636020813F
:10932000E160002AB4D1214B01221A60B0E7D2D10A
:10933000E368012184F82F103BB1002161831B49B0
:10934000C1F82C36C1F83026C5E76383C3E76669E8
:109350004FF000470125002EDCD0B6FA86F227FA3E
:1093600002F34632920026EA030602F1804303F537
:10937000E0431B68002BEED01046FFF761FFA2F51B
:109380008C72D30882F00402C2F380028DF8083098
:109390008DF804508DF80920236801A89847DAE772
:1093A000047100401CB100200071004000700040BA
:1093B00004700040107100401471004002494FF4E5
:1093C000F37001F051BD00BF451803001F2810B510
:1093D000044601D9FFF7F2FF012303FA04F44FF02A
:1093E000A043C3F80C4510BD1F2810B5044601D991
:1093F000FFF7E4FF012303FA04F44FF0A043C3F89E
:10940000084510BD13B54FF04023D3F818310BB306
:10941000114B124C00221A601B680193019B2368B8
:1094200023B90F494FF4277001F01EFDE07FFF289C
:1094300003D0A37F5BB1FFF7C9FF002363772372DB
:10944000D4E90031074802B0BDE810401847FFF7E3
:10945000CBFFF2E702B010BD184100404CB1002034
:109460007729030054B100202DE9F7430024064674
:109470000F4600F5A0754FF48038A14604F1500066
:109480002B68800080B26BB1D6F8043308FA04F27E
:109490001A4207D0C5F800902B680193019BD7E9C9
:1094A000003198470134042C05F10405E6D103B0DE
:1094B000BDE8F0832DE9F347544B07791546026860
:1094C0009A4204460E4603D15149482001F0CCFC93
:1094D0001EB94F494A2001F0C7FC1DB94C494B2029
:1094E00001F0C2FC4B4A0C2303FB072390461B7A76
:1094F000002B40F089802368444A93420FD002F544
:10950000805293420BD002F58052934207D002F56D
:109510008032934203D002F58052934202D1B37855
:10952000032B03D93A495F2001F09EFC0C237B43B7
:1095300008EB030248F80350736853600022154695
:1095400060792168D3B2984202F1010254D8F578CB
:10955000AB1E4FEA113A012B4FFA8AF906D96B1F5D
:10956000022B03D92C496B2001F07EFCB9F1000FCE
:10957000AEBF09F160430AF00F03284A28484FEABA
:109580004515EDB2AABF03F56143D55483F80053E6
:1095900023681B0B59B24909012203F01F0302FA89
:1095A00003F340F8213020687378D0F8041503F0F5
:1095B000030321F003010B43C0F804352068B3789E
:1095C000D0F8081503F0030321F003010B43C0F8A2
:1095D000083520683378D0F8101503F00F0321F018
:1095E0000F010B43C0F810350C2303FB0787002045
:1095F0003A7202B0BDE8F0879B0003F5A073CD502E
:10960000CB580193019B9BE70820F2E700800040C4
:10961000C829030070B10020152A030014ED00E0F2
:1096200000E100E038B50B4C02790C2101FB02424D
:109630000546127A012A03D007498F2001F014FC55
:109640002B6801221A602B790C2202FB03430222B1
:109650001A7238BD70B10020C829030038B50A4C11
:1096600002790C2101FB02420546127A1AB9074918
:10967000972001F0F9FB2B6801221A612B790C214C
:1096800001FB03431A7238BD70B10020C8290300E2
:1096900038B503681B0B5AB20121520903F01F03AE
:1096A00001FA03F320320C4941F822300368002507
:1096B000D3F80022C3F8005203684FF0FF3204468B
:1096C000C3F80823FFF7CAFF2379044A0C2101FBE2
:1096D00003231D7238BD00BF00E100E070B100201F
:1096E00010B5084A03790C2101FB032304461B7AB9
:1096F0001BB90549B32001F0B7FB23680122DA60EA
:1097000010BD00BF70B10020C829030073B54FF42D
:1097100080348C4005688BB101F150039B0000261A
:10972000EE50EB580193019B0368C3F804430368B0
:1097300001F5A87143F8212002B070BDC5F80843B7
:10974000F5E7F0B407689DF810C0D7F8004240F282
:1097500001158D4024EA0504C7F800420568D5F8D4
:1097600000422343C5F80032F0BC6346FFF7CEBF8A
:1097700037B5134A03790D460C2101FB0323044638
:109780001B7A1BB90F49FB2001F06EFB6379AB42DA
:1097900003D80C49FC2001F067FB05F150039B0046
:1097A00022689BB20021D150D3580193019B2368BA
:1097B0004FF48031A940C3F8041303B030BD00BF9B
:1097C00070B10020C829030038B50E4A03790D4650
:1097D0000C2101FB032304461B7A23B90A4940F2FA
:1097E000071001F041FB6379AB4204D806494FF4FE
:1097F000847001F039FB23684FF48031A940C3F82D
:10980000081338BD70B10020C8290300014902487F
:10981000FFF72ABE70B100200080004001490248D5
:10982000FFF722BE7CB1002000900040002343508F
:1098300082B043580193019B02B07047F0B5504C81
:10984000236887B023B94F4940F2452001F00CFB53
:109850004D4AD2F824311546A3B14FF49271104607
:10986000FFF7E4FFD2F8043163B9A368C2F8083304
:109870000223A360A368C2F8043301231362536177
:1098800007B0F0BDD5F80431002B49D03F4F3E481A
:109890004FF48271FFF7CAFF0FCF01AE0FC63B68CE
:1098A000336094F82E307BB1237B012B0CBFD5F8AD
:1098B0003C25D5F84C250292022B334B0CBFD3F834
:1098C0003C35D3F84C3503934FF4B0712E48FFF775
:1098D000ADFF4FF4AE712C48FFF7A8FF94F830307D
:1098E00013B194F82E303BB1274B0022C3F800226D
:1098F000A260274AC3F80823234AD2F8C434C2F826
:10990000C4349A0736D501238DF8003094F83030EE
:109910000BB984F82F30D4E9003168469847AFE797
:109920004FF4A4711848FFF781FF237B83B9174FC9
:109930000FCF01AE0FC63B68336094F83030002B78
:10994000DAD1C5F80032A360114BC5F80833D3E76C
:109950004FF40073C5F8003240F20223A36003F114
:10996000CE73C5F80833A368C5F804330123AB6090
:109970002B6285E713F0040318BF0223C4E700BF7E
:1099800088B100205F2A03000030004094B100201D
:1099900002029C016DDF704779DF70477DDF704701
:1099A00064DF70472DE9F74F0C9CBDF834B0278871
:1099B000002580468A4691462E46B8F80020B242DD
:1099C0000BDC35B12288013AD21B92B2FF2A39D87A
:1099D000DA55002003B0BDE8F08FD8F8042052F823
:1099E0002600019000220DF1030101A8FFF7D8FF26
:1099F0000028EFD19DF803204A4521D12288002D6F
:109A000014BF0020022002EB09010144594519DC72
:109A10003DB9013292B2228003F802A022880132BD
:109A2000228022880DF103011A4401A8FFF7B8FF34
:109A30000028CFD121889DF803200A4422800125E7
:109A40000136BAE70C20C5E72DE9F341089CBDF8C3
:109A500024501746CDE9004502220646FFF7A2FF33
:109A600048B9102239463046CDE9084502B0BDE874
:109A7000F041FFF797BF02B0BDE8F0812DE9F04F4C
:109A800000231688138090F82D3085B007460D46C8
:109A9000144653B3082E01D80C2026E102A8FFF784
:109AA00079FF002840F0218113880822CA542388B6
:109AB00001339BB21B222380CA542088013080B21C
:109AC000208006220DF10901284401F05BFE238865
:109AD0009DF8082006339BB212F0FE0218BF012247
:109AE0002380EA54238801332380BB78FBB1238889
:109AF0000433B342D0D802A8FFF74EFF002840F04D
:109B0000F48023880322EA54238801339BB219226C
:109B10002380EA542388BDF8082001339BB2E9185A
:109B20002380EA54120A4A70238802332380FA7889
:109B30009AB12388D91CB142AED80221E9542388B6
:109B400001339BB201212380E95423880B449BB24B
:109B50002380EA5423880B4423807A68AAB123889F
:109B6000D91CB14298D8022192F90020E9542388E7
:109B700001339BB20A212380E954238801339BB22D
:109B80002380EA542388013323803B89002B40F053
:109B9000A0803B8A5BB1CDE900462B46072203211A
:109BA00007F11000FFF750FF002840F09E803B8B2C
:109BB0005BB1CDE900462B461522142107F11800B0
:109BC000FFF742FF002840F090803A6A002A40F0F8
:109BD0008F80D7F82480B8F1000F30D0B8F8043067
:109BE0002188981C8A1C0244B2423FF655AFFE28D9
:109BF0003FF652AF03336B54238801339BB2FF22ED
:109C00002380EA54238801339BB22380B8F80020D4
:109C1000EA54E918120A4A702088023080B2208083
:109C2000B8F804205AB1D8F8081000296AD028449E
:109C300001F0A8FD2388B8F804201344238097F886
:109C40002C30002B40F09980387800284DD03B888C
:109C5000012B57D021888A1CB2423FF61DAF012844
:109C600005D17B7802330B449E42FFF415AF023ED0
:109C7000761A04A9B6B221F8086DA818FFF78EFE6F
:109C800098BB3978BDF80820022900F0BB807B78AA
:109C9000934202D3B24240F2B380012940F0B48033
:109CA0009BB29E42C0F0B080ADF808300821BDF8EC
:109CB0000830FE2B3FF6F0AE22880133AB542288E9
:109CC000013292B22280A9542288134423800020BA
:109CD0000BE0CDE900462B460622022107F10800E1
:109CE000FFF7B2FE00283FF454AF05B0BDE8F08F97
:109CF000B4F800C00CF10603B3423FF6CDAE1188B4
:109D0000052901D80720F0E76FF4486E01EB0E0338
:109D10009BB24FF27D3E7345F4D95388052BF1D9A0
:109D20006FF44860181880B27045EBD94FF6FF7099
:109D3000814203D0834201D09942E3D8052305F83C
:109D40000C30238801339BB212212380E9542388ED
:109D500001339BB223801188E954E818090A417045
:109D6000238802339BB223805288EA54E918120AEE
:109D70004A702388023323802BE7BB6A002BC1D0B3
:109D80004FF000094FF00C0A4FF0160B97F82C30EB
:109D90005FFA89F293427FF657AFB96A0AFB02F283
:109DA00001EB0208B8F80430981CFE283FF674AEA8
:109DB000208803332B54238801339BB2238005F87A
:109DC00003B0238801339BB223808A5AEA54E918EE
:109DD000120A4A702088023080B22080B8F804202D
:109DE0005AB1D8F8081000298CD0284401F0CAFCD8
:109DF0002388B8F804201344238009F10109C5E73A
:109E0000092154E7B242FBD9ADF808604EE770B5BE
:109E1000C0B14AB116880024B44203D305196D7845
:109E20009D4208D0A14201D800200BE0055D01351C
:109E30002C44A4B2F0E7A142F6D9A31C1380005D24
:109E4000013880B270BD37B502AC002324F8023D62
:109E5000134622460546FFF7DAFF10B1BDF80600AB
:109E6000284403B030BD72DF704773DF704738B5E8
:109E7000012204460D46B0F83812D0F83402FFF73C
:109E8000E2FF00B1057004F13C0204F50D7104F12C
:109E90005400BDE83840FFF7E6BF80F83010704747
:109EA000F8B504460F46002975D0002873D091F804
:109EB0007A301BB191F89830002B6ED1D7F8A030D2
:109EC000042B6AD0D7F89C30042B66D04FF0000CDE
:109ED00084F802C007F178060FCE251D0FC50FCEFE
:109EE0000FC596E8070085E8070084F830C0D7F86A
:109EF000A4306363D7F8A830A3634FF6FF7504F569
:109F00000D73C4F84432A4F848520722614604F2A3
:109F10004A2001F0D1FC23780BB984F8545094F80E
:109F2000243004F15501C4F8341283B3EE23A4F8AD
:109F3000383204F50E723846FFF7A0FD30BB94F8B6
:109F4000243004F24311C4F83C1213B3EE23A4F8F6
:109F5000403204F5107207F13C00FFF78FFDA8B9FD
:109F6000A269A4F8482001236269206484F85000A3
:109F70006264014684F8513084F83C3004F13C02BC
:109F800004F15400FFF76FFF00B92370F8BD1F23E1
:109F9000CDE71F23DBE70E20F8E70720F6E7F8B54B
:109FA000077804460D46002F00F0058100F24A268E
:109FB000A17007220021304601F07EFCE38813B136
:109FC000A378012B04D0E3794BB1A378022B06D1FF
:109FD000636BA3B1012284F85122082098473346CD
:109FE00004F5147113F8012F12B99942FAD11746EA
:109FF0006B1E032B53D8DFE803F0050B0F1284F818
:10A000005132ECE7A3791BB194F8243003B95FB95E
:10A01000E3790BB1002F44D1237A002B43D1637A2B
:10A02000002B0CBF00250425636BA570002B3CD0D2
:10A03000033D012D39D86279002A36D094F8522296
:10A04000002A32D184F85422012284F853220720B6
:10A05000984704F13C0518220021284601F02CFC09
:10A06000E36A94F824200121581E884288BF0B46D9
:10A0700084F83C1084F8513032B1884296BFA36A0C
:10A0800084F8521084F85230A178002384F85030BC
:10A0900004291BD8DFE801F0770D2235590000258F
:10A0A000C2E70225C0E70325BEE7002384F8533248
:10A0B000CFE7C4F84432C4E910630223012284F8D4
:10A0C0003C30802384F83120A4F84830A378002B5A
:10A0D0005CD1636B002B6AD1002067E0022384F817
:10A0E000313062B1072384F83C302369A4F848304A
:10A0F0000023C4F84432E36826646364E6E703237C
:10A10000F1E763696364A369A4F8483012B10623D8
:10A1100084F83C306379B3B194F852329BB994F827
:10A12000543283B1022384F8503004212046FFF7D3
:10A130009EFE0028CAD1052384F8313004F50D7342
:10A14000C4F84432C2E70323F6E7E3696364236A91
:10A15000A4F8483012B1062384F83C30637983B107
:10A1600094F852326BB994F8543253B1022384F804
:10A17000503004212046FFF77AFE0028A6D106239E
:10A18000DAE70423D8E784F831309FE72A46D4F889
:10A19000441204F15400FFF766FE38B994F8301009
:10A1A00094F85400FFF761FE002892D0F8BD94F8AF
:10A1B0003100984790E70820F8E710B50388112B85
:10A1C0000C460AD0262B1FD0102B05D1C37B012BA8
:10A1D00002D18388A1F8483210BD002381F85232A1
:10A1E0008288B1F848329A42F6D10B79002BF3D12C
:10A1F00001212046FFF7D3FE0028EDD0A36B002BF2
:10A20000EAD0BDE810401847037A013B012BE3D8A0
:10A2100089780523013191FBF3F303EB8303C91A1A
:10A22000C9B2E6E7704775DF704776DF70477ADFBF
:10A2300070477BDF70470000034B1A8882420CBFD7
:10A2400018460020704700BFD8B10020024B9B6920
:10A2500003B11847704700BFBCB1002037B585B2C5
:10A260002846FFF7E9FF034670B1164C017A227BBE
:10A2700091420BD200F10A012846FFF7D4FFE8B162
:10A28000112801D0FFF7E2FF03B030BD237C00228C
:10A29000027243B13B212846FFF7C7FF30F00803A5
:10A2A00001D0FFF7D3FF6369002BEDD000228DF8BA
:10A2B0000420ADF8065001A89847E5E71A7A013264
:10A2C0001A72E1E7BCB1002013B50B46497A0F4C76
:10A2D000024669B9D4E901101C7A002C18BF014666
:10A2E0005868FCF7DDFF08B1FFF7B0FF02B010BD02
:10A2F000002119726369002BF8D00121ADF8060026
:10A300008DF8041001A89847F0E700BFBCB1002009
:10A3100030B583880588B3F5FA7F24BF6FF4F972EE
:10A320009C184A8838BF002495420CD84088904237
:10A3300009D38A88A24206D303F2F310904234BFB5
:10A340000020012030BD0020FCE7000070B503882C
:10A35000112B014648D002D8102B1ED070BD122BF5
:10A3600052D0502BFAD12F4BC288DB899A42F5D1BB
:10A37000038A022BF2D186883046FFF75DFF05463F
:10A380000028EBD001F1120000F08AF830BB6868B9
:10A39000FCF7CAFF0028E1D009E0C37B012BDDD127
:10A3A0004FF6FF70FFF748FF054620B90420BDE8CF
:10A3B0007040FFF74BBF8E881B4A06800023037254
:10A3C0001368C5F80A300A30536843601031FFF74C
:10A3D0009FFF144B6872DB89002BBFD129463046A2
:10A3E000BDE87040FFF770BF8088FFF725FF044687
:10A3F0000028B3D04068FCF797FF08B1FFF726FFAD
:10A400004FF6FF732380A9E786883046FFF714FFD5
:10A4100005460028A2D008310A30FFF779FF68729C
:10A42000DCE700BFBCB10020ECB10020F8B5064667
:10A4300050B305460FCD154F3C460FC495E80700B5
:10A4400084E807003068124B3B60B8B1FFF7EFFEBD
:10A45000C8B931680A681A604A685A600D480E4ADD
:10A460004FF6FF7303800D4B40F8043F0021FCF7CB
:10A4700005FF002814BF0320002004E01846FFF762
:10A48000D8FE0028EAD0F8BD0E20FCE7BCB10020C1
:10A49000ECB10020D8B100205DA20200F4B1002090
:10A4A000007800F00100704790DF7047A5DF70472B
:10A4B000B5DF70477FB50023ADF80810ADF80A107E
:10A4C0006A4602A9064603930093ADF80430FFF7ED
:10A4D000EBFF0546F8B1114B114CE41AE408FEF706
:10A4E000EDF9240444F00104034632460D492046A8
:10A4F000FDF716FFBDF80020BDF8023002B91BB110
:10A5000009492046FDF70CFFBDF804201AB10749A0
:10A510002046FDF7FBFE284604B070BDD032030094
:10A5200040330300BB2A0300052B0300442B030028
:10A5300088B14FF0F7130360FB230371F723C38047
:10A540001723038141F6FB32002301618372C3723A
:10A550008281184670470E207047000013B50346ED
:10A5600080880C46A0B91A88232A00F0AF8011D841
:10A57000102A25D0112A54D0A37A4BB1E1880020AB
:10A58000FFF794FF002840F0A7800123A072E37238
:10A5900002B010BD3A2A4ED0552A68D0242AEBD1F9
:10A5A0001A7A0B694A73002BE6D04DF67A21ADF882
:10A5B0000400ADF80010ADF802008DF8042081E031
:10A5C0000A790A73DB7B012B13D0022B14D0E188AC
:10A5D00023898B4205D20020FFF768FF70B9012361
:10A5E000E372217B637B8B42C6D20020FFF762FFC0
:10A5F000C2E70B88E380EAE74B88FBE7112802D12A
:10A600000123A372EDE7FEF759F93C4A3C4B3D4963
:10A610009B1ADB081B04024643F00100FDF776FE9F
:10A62000DFE7F723CB8017230B8141F6FB338872DA
:10A63000C8728B81A0E75B89CA88934228BF134602
:10A64000172B0A6938BF17230B8162B1C97A51B140
:10A6500040F67721ADF80010ADF80200ADF80430F7
:10A660006946204690470023E372A37284E7DB88A3
:10A67000C988A072172B38BF17238B4228BF0B46FF
:10A680002381FFF715FF60B1FEF718F91B4A1C4B39
:10A690001D499B1ADB081B04024643F00100FDF72D
:10A6A00035FEE27A002A7FF467AF2369002B3FF47E
:10A6B00063AF40F67721ADF802202289ADF8001093
:10A6C000ADF8042069462046984755E7197A237B60
:10A6D000994228BF194689E711283FF459AFFEF780
:10A6E000EDF8064A064B07499B1ADB081B04024695
:10A6F00043F00100FDF70AFE4AE700BFD032030035
:10A70000403303009A2B0300CB2B0300B0DF7047CC
:10A7100066DF704710B5034600214088FFF7F8FF59
:10A72000024608B91A7210BD112801D10122F9E7B9
:10A730005B68BDE81040184760B159B10378DE2B63
:10A740000AD00B684360DE2303704FF6FF7343802B
:10A75000002070470E2070470820704728B103780A
:10A76000DE2B04D14180002070470E207047082066
:10A770007047F0B5054685B00C46F1B1E8B10B78ED
:10A78000DE2B1AD182884B889A4204D10B7A13B1FE
:10A790000846FFF7BFFF2B88112B32D0512B0ED06C
:10A7A000012B0AD12B7A012B07D1A988628891420B
:10A7B00003D123722046FFF7ADFF05B0F0BDAE8890
:10A7C0006388B342F9D1AF79022FF6D1AD7B2B1F4D
:10A7D000022BF2D800211022684601F06DF8052DF9
:10A7E00014BF4FF4C0730023694630468DF80070E3
:10A7F000ADF80430FFF78AFF0028DED06368984781
:10A80000DBE76388AA889A4204BF4FF6FF73638030
:10A81000D3E710DF7047000013B5044609496846C6
:10A82000FDF7FAFF019808B902B010BDD0E9003178
:10A830002046984718B16846FEF706F8F2E711205F
:10A84000F2E700BF0C2C030013B504460749684625
:10A85000FDF7E2FF019B0BB902B010BD2046D3E922
:10A86000002190476846FDF7EFFFF3E7242C030033
:10A870000C4991F816335A09EC231341DB0706D52E
:10A88000094B9A684AB94FF480030B607047074A36
:10A89000A12142F20200FBF782BF1A6842F4800253
:10A8A0001A60704700E100E098B50020302C0300EA
:10A8B000F7B5184F3C785CBB174E01252046357024
:10A8C000FFF7AAFF112820D02046FFF7BDFF134B4A
:10A8D0001868019002A800F8054DFCF743FD1049E7
:10A8E00001A8FFF796FF0446B0FA80F040093870DF
:10A8F0009DF80300FCF766FD3CB90A4B34701C70F0
:10A90000FFF7B6FF2846FFF79FFF204603B0F0BDD4
:10A910000824FAE715B2002014B20020072C030027
:10A920001964020016B20020014B1878704700BF6E
:10A9300015B2002007B508496846FDF76DFF019B79
:10A9400013B903B05DF804FBD3E9002090476846D3
:10A95000FDF77AFFF3E700BF182C0300FFF7EABF0B
:10A9600060DF704769DF704761DF704730B5134DB6
:10A97000ADF5017D4FF4FA740DF1020103A8ADF8B5
:10A980000240FFF7F1FF70B9294601A8FDF744FF27
:10A99000029B002BF0D003A8D3E90021904701A827
:10A9A000FDF752FFF4E7052804D0054A40F23911BB
:10A9B000FBF7F5FE0DF5017D30BD00BF482F03000C
:10A9C000F62E0300024B1B780BB1FFF7CFBF704789
:10A9D00017B2002030B5054685B00C46002900F0BE
:10A9E000B6805C4B0B600C22002101A800F064FFD4
:10A9F00001238DF8063022688DF80450062301A942
:10AA00002020ADF80830FFF7ADFF60B1FDF756FF2D
:10AA1000514A524B52499B1ADB081B04024643F031
:10AA20000100FDF773FC0C22002101A800F044FF97
:10AA300001238DF805302268002301A940208DF8FC
:10AA400006308DF80730FFF78DFF60B1FDF736FF58
:10AA5000414A424B43499B1ADB081B04024643F020
:10AA60000100FDF753FC0C22002101A800F024FF97
:10AA7000F72322688DF8045001A92320ADF8063091
:10AA8000FFF770FF60B1FDF719FF334A334B3649CA
:10AA90009B1ADB081B04024643F00100FDF736FC5D
:10AAA0000C22002101A800F007FF0A2322688DF87C
:10AAB000043001A90120FFF755FF60B1FDF7FEFE4C
:10AAC000254A264B29499B1ADB081B04024643F002
:10AAD0000100FDF71BFC0C22002101A800F0ECFE98
:10AAE0004FF4B0632268019301A9A120FFF73AFF58
:10AAF00060B1FDF7E3FE184A184B1D499B1ADB08AD
:10AB00001B04024643F00100FDF700FC0C2200216B
:10AB100001A800F0D1FE9DF8043022686FF3000315
:10AB200001A9A0208DF80430FFF71CFF68B1FDF7E4
:10AB3000C5FE094A094B0F499B1ADB081B04024654
:10AB400043F00100FDF7E2FB002005B030BD0E2010
:10AB5000FBE700BFA8980020D03203005833030061
:10AB6000862C0300CC2C0300182D03005F2D03005E
:10AB7000AB2D0300FC2D0300F8B506460768FFF770
:10AB8000EFFE3368BB4205461DD9194B194C1A49D3
:10AB9000E41AE408240444F002042046FDF7B2FB62
:10ABA000336816493A462046FDF7BAFB4FF080530A
:10ABB0003268D3F80C3112499B0203F100539A1A00
:10ABC0002046FDF7A3FB25B90E4B01221A7028463B
:10ABD000F8BD2846FDF772FE054A064B0A499B1A46
:10ABE000DB081B04024643F00100FDF78FFBEEE794
:10ABF000D0320300583303004F2E03007E2E030093
:10AC0000AF2E030017B20020D92E03006CDF70476F
:10AC100072DF704774DF704776DF704778DF704708
:10AC20007ADF70477CDF70477FDF704786DF7047D1
:10AC30008ADF70478FDF7047A8DF7047AADF704751
:10AC4000B1DF704762DF704733DF704741DF704725
:10AC50007047000037B503881D2B044600F0AC8018
:10AC60001DD8132B7CD00AD8102B3DD0112B5DD0D2
:10AC7000604B13B12046AFF3008003B030BD142BFE
:10AC800000F08C801B2BF3D1037A012BF0D1FFF75E
:10AC9000DBFF0028ECD0584A4FF4CC716DE0502B0C
:10ACA00052D00ED8212B00F096803B2BE0D11321FF
:10ACB0008088FFF7B1FF0028DAD04F4A4FF4D071F7
:10ACC0005BE0522B5CD045D3562BD1D18379002B3E
:10ACD000CED14A4B13211888FFF79EFF0028C7D01A
:10ACE000454A40F2A71148E0444D818844482980F4
:10ACF000FFF734FD20B1404A4FF49D71FBF74FFD43
:10AD000000231A4619462888FFF79AFF20B13A4ACD
:10AD10004FF4A171FBF743FD3A4800F017FE3A4BA0
:10AD2000002BA5D02046AFF30080A1E7334B374876
:10AD30004FF6FF721A8000F009FE354B002B97D0BA
:10AD40002046AFF3008093E7324B002B90D0AFF357
:10AD500000808DE7304B002B8AD0AFF3008087E76F
:10AD6000264800231A4685210088FFF75DFF00284A
:10AD70003FF47EAF204A40F28111FBF710FD77E7E8
:10AD80001E4800231A4619460088FFF759FF00287D
:10AD90003FF46EAF184A40F28711EEE717480023E0
:10ADA0001A4619460088FFF741FF00283FF460AFBC
:10ADB000114A40F29111E0E7184B0BB1AFF300805C
:10ADC00017490020FFF734FF00283FF451AF0A4A2B
:10ADD00040F2C711D1E702A9002321F8043D808881
:10ADE000FFF728FF00283FF443AF034A40F2D11198
:10ADF000C3E700BF00000000912F0300A4B50020AE
:10AE000088B40020C02F030000000000D02F0300F2
:10AE10000000000000000000000000000000000032
:10AE20000899002008B5024AB021FBF7B8FC08BD1C
:10AE3000912F030008B503784BB9054B3B211888C7
:10AE4000FFF7EAFE18B1034ABA21FBF7A8FC08BDD8
:10AE5000A4B50020912F030008B5024AAC21FBF7EE
:10AE60009EFC08BD912F030038B50D4604460448EA
:10AE700000F06CFD2A4621460248FBF790FC38BDE5
:10AE80006C2F0300EFBEADDE1FB51B4C00230293F9
:10AE9000ADF80030CDF80B3023681B788DF8023008
:10AEA000E5238DF8033098238DF804300622C02363
:10AEB00069460DF109008DF8053000F063FC236848
:10AEC0005B884FF6FF7293420AD08DF8003006225D
:10AED0001B0A69460DF109008DF8013000F052FCA3
:10AEE00002A8FFF793FE20B1044A40F22B21FBF7A2
:10AEF00056FC04B010BD00BF18B20020912F030013
:10AF000013B5FFF7D5FC20B10F4A40F23321FBF710
:10AF100046FC02AC002344F8043D01202146FFF723
:10AF200059FD20B1084A40F23921FBF738FC204690
:10AF3000FFF722FE20B1044A40F26E21FBF72FFCFE
:10AF4000FFF7A2FF02B010BD912F03007FB51F4C89
:10AF500004AD112305F80C3D23685E68304600F00F
:10AF60002FFE314682B22846FFF75CFE20B1184A18
:10AF70004FF42071FBF713FC4FF47070FFF74EFE97
:10AF800020B1134A4FF42171FBF709FC08220DEBA5
:10AF90000200002100F090FC23685A899B89ADF8DB
:10AFA0000A300C4BADF808201B68ADF80C300A4B8A
:10AFB00002A81B68ADF80E30FFF732FE20B1044A3C
:10AFC00040F28F21FBF7EBFB04B070BD18B20020FC
:10AFD000912F0300682F0300602F030000B5ADB070
:10AFE000AC22002101A800F067FC022306228DF8A4
:10AFF00004308DF807200123104A8DF80630ADF893
:10B00000143006928DF880304FF4F07244F25063A1
:10B01000CDE9232301A90A4B0A482A93FEF740FFF2
:10B0200020B1094A40F2B221FBF7B9FB01210548E2
:10B03000FEF733FF2DB05DF804FB00BF049900203C
:10B0400051AC02001CB20020912F030000B589B062
:10B050001C22002101A800F02FFC0F4A00231268D7
:10B0600001930292ADF812304FF470228DF8143033
:10B070000A4B039206930322094B8DF8102001A876
:10B080000793FFF7D3F920B1064A4FF43271FBF76B
:10B0900086FB09B05DF804FB642F030035AE0200A7
:10B0A00025AE0200912F030007B502A9074B41F816
:10B0B000043D0748FFF740FB20B1064A40F2D32188
:10B0C000FBF76DFB03B05DF804FB00BF59AE020057
:10B0D00088B40020912F030008B5FCF78BF820B14D
:10B0E000024A40F22531FBF75AFB08BD912F0300BD
:10B0F00008B503210548FEF752FF30F0080304D0DD
:10B10000034A40F23231FBF74AFB08BD1CB2002073
:10B11000912F030008B5074B93F85400FFF77AFD11
:10B1200030F0080304D0044A4FF44F71FBF737FBAB
:10B1300008BD00BF1CB20020912F030008B5FFF727
:10B1400085FD20B1024A40F25131FBF728FB08BDD2
:10B15000912F030008B51A4B1860FDF739FB20B199
:10B16000184A40F25E31FBF71AFBFFF7B5FFFFF715
:10B17000C7FE154800F0EAFBFFF7E8FE134800F0B1
:10B18000E5FB00211248FFF7D3F920B10D4A40F248
:10B190009621FBF704FB0F4800F0D8FBFFF71EFFDA
:10B1A0000D4800F0D3FBFFF77FFF0C4800F0CEFB0B
:10B1B000FFF74CFF0A484FF6FF73038008BD00BF3E
:10B1C00018B20020912F0300E22F0300F32F030099
:10B1D00074B40020FE2F03000A3003001D3003006A
:10B1E000A4B5002010B5038A044623B9427B037B33
:10B1F00043EA0223038204F112012046FFF722FDF5
:10B2000020B1094A40F28E31FBF7C9FA04F1140269
:10B2100004F110010120FFF70FFD20B1024A40F2B6
:10B220009331FBF7BCFA10BD912F03002DE9F04FCD
:10B2300091B0DDE91C459946A37C8DF80E3080461F
:10B240000F462B88BDF86860ADF80C300DF10E018B
:10B2500020469246FFF7F6FC20B1364A40F2A23172
:10B26000FBF79DFA1C22002109A800F025FB9DF8A0
:10B27000243068F3410367F3C3036AF304130DF149
:10B28000040B4FF0000A0322514658468DF8243033
:10B29000CDF828A0CDE90CAACDE90EAA00F00CFB50
:10B2A00041F21113ADF804309DF80630CDF838B0F6
:10B2B00001220DF1080B62F3420351460322584666
:10B2C0008DF8063000F0F8FAB8F1000F02D0112323
:10B2D0008DF8083017B111238DF809309DF80A3028
:10B2E000022262F3420303F0E70369F3000314222E
:10B2F000002104A88DF80A3000F0DEFA03ABCDE996
:10B30000043B0023ADF81A301B9B089304AAAB1C26
:10B3100009A9A08AADF81860ADF81C60FFF78EFC93
:10B3200020B1044A40F2CD31FBF739FA11B0BDE843
:10B33000F08F00BF912F030000B591B0FFF7EAFE38
:10B340003C22002101A800F0B7FA154A02238DF82B
:10B350000430062302F155018DF807301F23C2F88F
:10B360003412A2F8383201A802F50E72FEF786FBFD
:10B3700020B10C4A40F2C441FBF711FA0A4A02F527
:10B38000FC7102F11800FFF743FC20B1054A4FF4AD
:10B390009961FBF704FAFFF7ABFE11B05DF804FB0F
:10B3A0001CB20020912F030058B200200C4B1B78D8
:10B3B000062B10D10B4B1B681A070CD10A4B1868CF
:10B3C00000F0F003302B08D000F0E000A0F14003C3
:10B3D000584258417047002070470120704700BF15
:10B3E000E00F00F0E40F00F0E80F00F0094B1B78CD
:10B3F000062B0CD1084B1B681A0708D1074B18689D
:10B4000000F0F000A0F1300358425841704700208E
:10B41000704700BFE00F00F0E40F00F0E80F00F00D
:10B4200008B5FFF7C3FF28B17D4B7E4A1B68C3F305
:10B4300004231360FFF7DAFF10B17B4B7B4A1A60DD
:10B44000FFF7B4FF28B17A4B7A4A1B68C3F3423343
:10B450001360FFF7CBFF20B1774AD36823F08073E6
:10B46000D360FFF7A3FF40B14FF080430022C3F841
:10B470000C21C3F81021C3F83825FFF7B7FF10B12E
:10B480006E4B03221A60FFF7B1FF40B16C4B0522EF
:10B490001A6001229A6700229A603F225A60694B23
:10B4A0001B78062B50D1684B1B6819074CD1674B92
:10B4B0001B6803F0F003502B46D14FF08052644BD1
:10B4C000D2F80414C3F82015D2F80814C3F82415D0
:10B4D000D2F80C14C3F82815D2F81014C3F82C15A0
:10B4E000D2F81414C3F83015D2F81814C3F8341570
:10B4F000D2F81C14C3F84015D2F82014C3F8441530
:10B50000D2F82414C3F84815D2F82814C3F84C15FF
:10B51000D2F82C14C3F85015D2F83014C3F85415CF
:10B52000D2F83414C3F86015D2F83814C3F864158F
:10B53000D2F83C14C3F86815D2F84014C3F86C155F
:10B54000D2F84424C3F87025FFF730FF28B1414BEF
:10B55000414A1B6803F04F031360FFF727FF48B110
:10B560004FF08043D3F80024D20744BF6FF00102AC
:10B57000C3F80024394B1B68062B08D1384B1B68D5
:10B58000062B01BF374A136843F480631360364AC1
:10B59000D2F8883043F47003C2F88830BFF34F8F7D
:10B5A000BFF36F8F4FF01023D3F80022002A03DB84
:10B5B000D3F80432002B2FDA2C4B0122C3F80425D8
:10B5C000D3F80024002AFBD04FF010221521C2F836
:10B5D0000012D3F80024002AFBD04FF010231522CC
:10B5E000C3F80422214B1A46D3F800140029FBD0DB
:10B5F0000021C3F80415D2F80034002BFBD0BFF3B0
:10B600004F8F19491A4BCA6802F4E0621343CB60AA
:10B61000BFF34F8F00BFFDE7164B174A1A6008BDF6
:10B62000240300104035014074C007400DF0ADBA4E
:10B63000440200103C050040F0ED00E0A005004091
:10B6400010560040E00F00F0E40F00F0E80F00F0AB
:10B6500000C0004058020010E40E0040300100100D
:10B66000340100103C17004000ED00E000E0014014
:10B670000400FA05109900200090D0030649074AFB
:10B68000074B9B1A03DD043BC858D050FBDCFFF787
:10B69000C7FEFAF7D5FD000008340300A898002083
:10B6A000D0A20020FEE7FEE7FEE7FEE7FEE7FEE7AA
:10B6B000FEE7FEE7FEE7FEE708B50021044602F0DC
:10B6C000EDF8044B1868C36B03B19847204605F0AA
:10B6D0009FF900BF3030030070B50D4E0D4D761B45
:10B6E000B61006D00024013455F8043B9847A64212
:10B6F000F9D1094E094D761B05F0A0FFB61006D012
:10B700000024013455F8043B9847A642F9D170BD96
:10B71000C0A20020C0A20020CCA20020C0A2002015
:10B72000044B054A1B685B6B002B08BF134693F85C
:10B730002801704714990020409D0020044B054AC1
:10B740001B685B6B002B08BF1346D3F8EC007047F7
:10B7500014990020409D002082B049B15AB16BB1CC
:10B7600013780B601278101C18BF012002B07047CC
:10B7700001A9002AF3D1104602B070476FF0010012
:10B78000F4E700BF844641EA000313F003036DD1E0
:10B79000403A41D351F8043B40F8043B51F8043B94
:10B7A00040F8043B51F8043B40F8043B51F8043B9B
:10B7B00040F8043B51F8043B40F8043B51F8043B8B
:10B7C00040F8043B51F8043B40F8043B51F8043B7B
:10B7D00040F8043B51F8043B40F8043B51F8043B6B
:10B7E00040F8043B51F8043B40F8043B51F8043B5B
:10B7F00040F8043B51F8043B40F8043B51F8043B4B
:10B8000040F8043B51F8043B40F8043B51F8043B3A
:10B8100040F8043B403ABDD2303211D351F8043BDA
:10B8200040F8043B51F8043B40F8043B51F8043B1A
:10B8300040F8043B51F8043B40F8043B103AEDD289
:10B840000C3205D351F8043B40F8043B043AF9D2DA
:10B85000043208D0D2071CBF11F8013B00F8013BAD
:10B8600001D30B8803806046704700BF082A13D3BA
:10B870008B078DD010F003038AD0C3F10403D21AD2
:10B88000DB071CBF11F8013B00F8013B80D331F806
:10B89000023B20F8023B7BE7043AD9D3013A11F886
:10B8A000013B00F8013BF9D20B7803704B784370F1
:10B8B0008B78837060467047F0B4860743D0541E7F
:10B8C000002A3ED0CAB2034602E014F1FF3438D356
:10B8D00003F8012B9D07F8D1032C2BD9CDB245EAF3
:10B8E00005250F2C45EA054516D9A4F110073F0997
:10B8F00003F1200606EB071603F1100242E9045596
:10B9000042E902551032B242F8D104F00F04013777
:10B91000032C03EB07130DD91E462246043A032AD3
:10B9200046F8045BFAD8221F22F0030204321344C3
:10B9300004F003042CB1C9B21C4403F8011B9C425F
:10B94000FBD1F0BC704714460346C5E70FB400B501
:10B95000074983B004AB086853F8042B816801934E
:10B9600000F09EF903B05DF804EB04B0704700BF2F
:10B970001499002000290CBF022200224FF480639A
:10B9800000F000B82DE9F0435D4C256883B0044613
:10B99000884616461F4615B1AB6B002B7ED0022E93
:10B9A00005D0012E00F2A980002FC0F2A680636EA0
:10B9B000DA0735D52146284603F038F8216B41B126
:10B9C00004F14003994202D0284603F02DF90023E8
:10B9D0002363B4F90C3000221806A261626061D4BE
:10B9E00023F44A6323F00303022EA3811FD1002511
:10B9F000616E002004F1430243F00203A060C90716
:10BA00004FF00100A3812260C4E9042004D49B0507
:10BA100002D4A06D03F03AFA284603B0BDE8F083E3
:10BA2000A3899B05C6D4A06D03F02EFAC2E701AB33
:10BA30006A462146284603F02BFAA3891843A081C1
:10BA4000002F36D1009F384603F09AFA804600282E
:10BA500042D0A38943F08003A381AB6B7BB3009AF0
:10BA6000B4F90C30C4F80080BA421CBF43F4006340
:10BA7000A381012E04BF43F00103A3819BB213F005
:10BA80000802C4E904871ED1A260656E15F00105A5
:10BA9000BDD00025284603B0BDE8F083284603F05A
:10BAA00021F87CE72169284603F0BEF8B4F90C3090
:10BAB00096E7B8F1000FC6D0AB6B002BCFD128466C
:10BAC00003F010F8CBE7DA0704D57F420022A76124
:10BAD000A260DAE7A760D8E7DDF80090B94504D1A5
