:1000000000000120D5350000FD350000290C00005E
:100010000136000003360000053600000000000035
:100020000000000000000000000000000736000093
:1000300009360000000000000B3600000D360000FD
:10004000AD1F00000F360000652400002D280000C1
:100050004D2700000F360000D9220000A125000026
:10006000FD2700000D2800000F3600000F360000AD
:100070000F3600000F3600000F3600000F3600006C
:100080000F360000250700000F3600000F36000075
:10009000C10700000F3600000F3600000F360000C9
:1000A0000F3600000F3600000F3600000F3600003C
:1000B000592500000F36000000000000000000007D
:1000C0000F36000069250000792500000F3600007A
:1000D0000F3600000F3600000F3600000000000051
:1000E0000000000000000000000000000000000010
:1000F0000000000000000000000000000000000000
:1001000000000000000000000000000000000000EF
:1001100000000000000000000000000000000000DF
:1001200000000000000000000000000000000000CF
:1001300000000000000000000000000000000000BF
:1001400000000000000000000000000000000000AF
:10015000000000000000000000000000000000009F
:10016000000000000000000000000000000000008F
:10017000000000000000000000000000000000007F
:10018000000000000000000000000000000000006F
:10019000000000000000000000000000000000005F
:1001A000000000000000000000000000000000004F
:1001B000000000000000000000000000000000003F
:1001C000000000000000000000000000000000002F
:1001D000000000000000000000000000000000001F
:1001E000000000000000000000000000000000000F
:1001F00000000000000000000000000000000000FF
:1002000010B5054C237833B9044B13B10448AFF350
:1002100000800123237010BDE009002000000000D1
:1002200084AA000008B5034B1BB103490348AFF390
:10023000008008BD00000000E409002084AA00003E
:10024000154B002B08BF134B9D46A3F5803A0021A8
:100250008B460F461348144A121A03F0D9FA0F4B73
:10026000002B00D098470E4B002B00D09847002061
:10027000002104000D000D48002802D00C4805F0B4
:1002800041FB03F0D5F92000290000F025F803F028
:10029000BFF900BF000008000000012000000000BE
:1002A00000000000E0090020841B00200559000028
:1002B000D56A00000378022B05D1064A4FF48071FD
:1002C000406800F01ABA012B03D1024A4FF4827140
:1002D000F6E770471C96000030B54FF400418BB034
:1002E000002001F0FBF920B11E4A40F20D1100F090
:1002F00004FA01F025F91C481C4D03F0D3FA4FF025
:10030000A0430022C3F820274022C3F818250FCDB0
:1003100004AC0FC495E80300154B164A00934FF444
:10032000807384E80300CDE902230193124A072376
:10033000694604A800F0D6FB20B10A4A4FF4967132
:1003400000F0DBF90D480E4C03F0ACFA684600F003
:100350000BFC0028FAD19DF80010204603F0A2FA09
:10036000F4E700BF1C960000EC950000D495000057
:10037000FC090020FC0A0020B5020000FE950000E8
:100380001896000038B5054D044645F001054FF4B8
:100390007A40A847013CFAD138BD00BFA0960000C2
:1003A0007FB506460D46144672B601F0BFFB01F05C
:1003B000EFF90028FBD1374803F074FA44F2010347
:1003C0009E4254D044F202039E425ED1228861686C
:1003D000314803F067FA01F08BFE08B901F052FED4
:1003E0000023ADF80C308DF80E3003A9012319203D
:1003F0008DF80D3001F086FE03A9182001F082FE71
:1004000003A9172001F07EFE192001F037FF182004
:1004100001F034FF172001F031FF4FF4FA70FFF7BD
:10042000B1FF192001F0FCFE182001F0F9FE1720A1
:1004300001F0F6FE3220FFF7A5FF192001F01EFFA4
:10044000182001F01BFF172001F018FF4FF4FA707D
:10045000FFF798FF192001F0E3FE182001F0E0FEFD
:10046000172001F0DDFEFA20FFF78CFFCCE7A6682D
:10047000304601F091FD23680195009302466368C0
:100480000648314603F00EFAA5E72946044803F072
:1004900009FAA0E7239600003C960000579600005A
:1004A0008196000007B501F023FE08B901F0EAFDCE
:1004B0000023ADF804308DF8063001A9012319207E
:1004C0008DF8053001F01EFE01A9182001F01AFE7A
:1004D00001A9172001F016FE192001F0CFFE182007
:1004E00001F0CCFE172001F0C9FE4FF4FA70FFF7BF
:1004F00049FF192001F094FE182001F091FE172009
:1005000001F08EFE3220FFF73DFF192001F0B6FE0C
:10051000182001F0B3FE172001F0B0FE4FF4FA707E
:10052000FFF730FF192001F07BFE182001F078FE64
:10053000172001F075FEFA20FFF724FFCCE70369CE
:10054000C1688B429DBF8268D21802F1FF3203F16D
:10055000FF3394BF501A581A70472DE9F041D0E983
:1005600002670446F61B40689642884615463844A2
:1005700005D903F0B3F83D44E560BDE8F0813246AB
:10058000AD1B03F0ABF82A4608EB0601606803F0E8
:10059000A5F8F1E72DE9F843C568064689461746F0
:1005A0004FF000083469B3687068A54228BFE418AA
:1005B000013C621B5C1BBC4228BF3C46944228BFE6
:1005C000144649462844224603F088F8B368254477
:1005D000AB4208BF00253F1BA044A144F560E1D118
:1005E0004046BDE8F883000010B5114C114AA261E5
:1005F0000223C4E90433104BE361A2644FF4007397
:100600000E4A2362E264002310220D49A362E01D1A
:100610006362E362A3656365E365226503F01EFA26
:100620000849204603F01AFA2023A37110BD00BF29
:10063000E01A0020A69600002C1000201C100020BC
:10064000AF960000B3960000F8B5184C182300FBD5
:10065000033503FB00402544C46A012C0F461646AF
:1006600011D003D3022C1BD000240AE02846FFF748
:1006700066FF864205D8324639462846FFF76DFFA9
:1006800034462046F8BD2846FFF759FF86423446D7
:1006900028BF0446224639462846FFF75EFFF0E7AA
:1006A0002846BDE8F840FFF775BF00BFE01A0020FC
:1006B00070B50B4B1B7804460D4616460BB9FFF779
:1006C00093FF002000F088FA324629462046FFF7C3
:1006D000BBFF0446002000F08FFA204670BD00BF2B
:1006E000E01A0020FFF780BF10B511461C461A46DD
:1006F0000020FFF7DDFF204610BD00B583B002905B
:100700000091019244F2010071466A46FFF748FEEB
:1007100003B000BD024B4FF43C6043F001031847A7
:10072000C0960000F8B51F491F4B0025C1F8405185
:10073000C1F84451C1F84851C1F84C51C1F80051B9
:10074000C1F804511B684BB3D1F804451749096837
:10075000641A24F07F442F461A68A24209D8A41ACA
:1007600015441A7CDE691AB11F74D3E9052090473D
:10077000AEB90F4B0F4A197813788B4205D101336C
:10078000DBB2022B08BF0023137012780A4B43F828
:1007900022500A4B4FF48012C3F80021F8BD3346B3
:1007A000DAE700BF001001404C130020481300207E
:1007B00044130020451300203C13002000E100E01A
:1007C0002DE9F74F9C4A9D49137809789C4D994231
:1007D0003CD00133DBB2022B08BF002313709949D0
:1007E0001278994B0F6853F822003B1823F07F438F
:1007F00000220B602B6816461446944613B942B18A
:100800002B6006E0196881420ED902B12B60091AEB
:1008100019604FF001082B68DFF834A2009300271D
:10082000BEB9DFF834B260E0401A0C44D968C3F8AE
:1008300000C0D3F81CE031B13A1922F07F42C3E97D
:100840000121DE611E4601227346D7E70026B0462D
:10085000E1E73446F6697B4A63681268DFF8FCC159
:10086000A068991A21F07F41614500F2A5800144FA
:100870002160012222742A680023C4E90133E36164
:10088000002A40F0A2802C60CAE75A1C9BF8021094
:10089000D2B291428BF8002004BF00228BF80020D6
:1008A000182202FB03B32A6819799C68022974D0C4
:1008B00003297ED0012918D1217CB1B9DA686260A0
:1008C0001A69A2605A69E2609B69A3615F4B1B7859
:1008D000002BC0D06160BEE79C4200F0908099463A
:1008E000DB69002BF8D1002323749BF800309BF8C0
:1008F00001209A42C9D12B682FB9009A934202D1A4
:10090000B8F1000F43D0002B41D0D3F800A0504DD8
:100910004C4BD5F804751C68DFF844813E1B98F8F1
:10092000003026F07F4603369BB94FF48033C5F87C
:100930004433C5F80433474B4FF400324FF00109FC
:10094000C3F880211A60C5F80090FFF7E3FE88F82D
:100950000090B2452CBF5444A41924F07F44C5F83C
:100960004045D5F80435DB1B23F07F43E41B0333FC
:1009700024F07F44A3420AD9D5F80435C5F84035A0
:10098000FFF7C8FE334B4FF40032C3F800212F4B62
:1009900000221A7003B0BDE8F08F13469146A0E71D
:1009A0001174D2690123002AFAD1002B9DD02A604C
:1009B0009BE700231946F6E7D31A23F07F438342CF
:1009C00034BFC31A0023236053E721681368994298
:1009D00013D8591A1160E26155E7091AD8691A4605
:1009E00038B1034618688842F7D3401A1860184691
:1009F00013462160E061DC6112E71346F2E74C45E3
:100A00000DD1D3692B6053B90E4801920121CAF868
:100A1000081003600D4B1970FFF77CFE019AE16925
:100A20002368C9F81C1011B1086803440B602B68D7
:100A30009A4218BF012756E74413002045130020AF
:100A40004C130020481300203C13002038130020D2
:100A50000010014000E100E02C120020FEFF7F00AA
:100A6000391300200648074A03780749D35C01225E
:100A700013B1043002F0AEBB0C3002F079B900BF04
:100A800000000020581B00205413002013B50478E8
:100A9000012C10D104238DF8003043681B788DF8A9
:100AA0000430FFF7DFFF0D4B1C700D4B1B686846D1
:100AB000984702B010BD022C06D1C3688DF80040E3
:100AC0000193FFF7CFFFF0E7002CF2D102A8032338
:100AD00000F8083D024B1B68EAE700BF55130020F1
:100AE00050130020F0B51B4D064617469C460FCD0F
:100AF00089B06C460FC495E80F0084E80F00736955
:100B00000693337C8DF81CC0003318BF01238DF889
:100B10001430737C1048002B14BF0E2300238DF873
:100B20001530F3680293B3680393336801937368D5
:100B300000930A4B1F600A4B00221A706946094A4B
:100B400000F018FA20B93368013301D0FFF78AFFAB
:100B500009B0F0BDC896000000000020501300202E
:100B6000551300208D0A000010B5044618B9074936
:100B7000762000F0F5F8064B1A782AB1054A0020D5
:100B800012782270187010BD0520FCE7E89600006E
:100B9000551300205413002072B6024A1368013323
:100BA0001360704758130020034A1368013B136019
:100BB00003B962B6704700BF58130020EFF30583F6
:100BC000C3F308032BB9EFF31480C04300F0010016
:100BD000704701207047000008B5FFF7EFFF0128BC
:100BE00003D00449432000F0BBF8BDE80840FFF7FC
:100BF000D3BF00BF2E97000008B5FFF7DFFF012825
:100C000003D00449512000F0ABF8BDE80840FFF7DD
:100C1000CBBF00BF2E970000024B1B6800219868D5
:100C200002F054BE200000201EF0040F1CBFEFF3A2
:100C300009800AE0EFF308800549064A884201D896
:100C4000904202D88D464FF00000034B1847000039
:100C50000000012000E000205D0C00002DE9F347BA
:100C6000054600F063FF00F093FD0028FBD12F4BF9
:100C70002F4C9F6A2F4BE41AE408240444F001042B
:100C8000002D4ED0AA692C49204600F001FFEB68E8
:100C90000193AB6800932949D5E90023204600F071
:100CA0000DFFEB6900932649D5E90423204600F0A7
:100CB000F9FE1E4BDB6A980703D52249204600F057
:100CC000E3FEDFF89490DFF894A000264FF00108CF
:100CD00008FA06F33B4206D059F826201AB15146CD
:100CE000204600F0D5FE01361A2EF1D1390605D581
:100CF0000E4B15495A6B204600F0CAFE3A0405D542
:100D00000A4B12499A6B204600F0C2FE104B1B683A
:100D1000DB0700D500BE2846FFF7C4FB02B0BDE8E4
:100D2000F0870C49204600F0AFFEC2E700ED00E07E
:100D3000F0AA000088AA00007D97000092970000AA
:100D4000C797000022980000719800009198000059
:100D5000F0ED00E0EF970000AC980000669800000E
:100D600007B5ADF8000001916A46002144F2020087
:100D7000FFF716FB03B05DF804FB50E8002F0B46AD
:100D800040E8003C9CF0000FF7D11046704750E857
:100D9000003F43EA010240E8002C9CF0000FF6D12E
:100DA0001046704750E8002F02EA010340E8003C7B
:100DB0009CF0000FF6D11046704750E8003F03EB5F
:100DC000010240E8002C9CF0000FF6D1104670475D
:100DD00050E8003FA3EB010240E8002C9CF0000F1C
:100DE000F6D1104670470121FFF7D1BF0021FFF770
:100DF000D9BF000010B50446002834D003681BB9E1
:100E00001A49FF20FFF7ACFF636823B917494FF475
:100E10008070FFF7A5FFA36823B9144940F20110C1
:100E2000FFF79EFFE36823B910494FF48170FFF785
:100E300097FF238A23B90D4940F20310FFF790FF73
:100E4000D4E9012321689B1ADBB20A60013BDBB2C3
:100E5000FF2B226802D10020107110BD1168481CC0
:100E600010600B70F2E70E20F7E700BFD49D000082
:100E700038B5044620B912494FF49270FFF770FF5D
:100E80000020FFF7A9FE2268616813688B4215D91C
:100E9000591E116013F8015C228AE36802FB0535D4
:100EA0002268A36811685B1A1179DBB2994200D2FB
:100EB00013710020FFF7A0FE284638BD0025F8E793
:100EC000D49D000038B50C46054620B90E4940F2C5
:100ED0004710FFF745FF24B90B494FF4A470FFF703
:100EE0003FFF0020FFF778FE2A681368591C116045
:100EF000EA68A41A2A8AB4FBF2F41C700020BDE848
:100F00003840FFF779BE00BFD49D00001FB50378BD
:100F10008DF800304368019383688DF80830C3680A
:100F20000393054A054B684653F8213052F82110C7
:100F3000984705B05DF804FB5C13002060130020A7
:100F40001FB503788DF800304368019383688DF8EE
:100F50000830C3680393054A054B684653F82130AF
:100F600052F82110984705B05DF804FB5C1300208F
:100F700060130020F0B5194B067891F81DE043F896
:100F80002620174B94460A6943F82620154B03F890
:100F900006E00C4607460FCC89B06D460FC594E8B5
:100FA0000F0085E80F000496BEF1000F0AD0BCF1D7
:100FB000000F0D4A694608BF0022381D02F002F8F2
:100FC00009B0F0BDBCF1000F084A694608BF002215
:100FD00007F10C0001F0CCFDF2E700BF6013002028
:100FE0005C130020581B00200D0F0000410F000073
:100FF00010B5044618B906493120FFF7B1FEA268C2
:101000002AB163692168206998470023A36010BD55
:10101000249E00000EB433B5059D044618B912494C
:101020004220FFF79DFE63691BB90F494320FFF77C
:1010300097FE23681BB90C494420FFF791FE6368B3
:101040001BB909494520FFF78BFE3DB102AA06AB4B
:1010500042F8043D2946204600F06EF802B0BDE893
:10106000304003B0704700BF249E0000826830B457
:101070000468551C8560A154D0E901329A4202D31C
:1010800030BCFFF7B5BF30BC704700002DE9F84F0A
:101090009946DDE90A431746824688460A460126F4
:1010A000BA420FD24E4538BF4E4613F0010B01D164
:1010B00064B900240125B9F1010F1AD909F1FF39EA
:1010C0007D43F8E7B2FBF7F20136E9E79B070ED55F
:1010D000B9F1000F0CBF30252025A642EAD2013C11
:1010E00029465046FFF7C2FF002CF6D1E1E7202544
:1010F000F3E7B8FBF5F39F42E2D9DFF83890B8FB8D
:10110000F5F3504619F8031005FB1388FFF7AEFFFF
:10111000B5FBF7F5002DF2D1BBF1000F02D00CB1F9
:10112000A64201D3BDE8F88F20215046013CFFF7CD
:101130009DFFF4E7649E00002DE9F74F0E469046B0
:10114000054620B9AC494FF4A270FFF709FE6B6960
:1011500023B9A9494FF4A370FFF702FE2B6823B906
:10116000A54940F24710FFF7FBFD6B6823B9A24980
:101170004FF4A470FFF7F4FD002E00F03A8116F84A
:10118000011B002958D0252940F0D180002702E01A
:1011900047F001071646324612F8013B2D2BF7D0D7
:1011A000302B04D02B2B05D147F00407F2E747F092
:1011B0000207EFE700242A2B06F101021BD1D8F821
:1011C0000030191DC8F800101B6816461C443378FF
:1011D0002E2B1CD101364FF0000A314611F8012B9D
:1011E000A2F13000092814D80A2303FB0A23A3F133
:1011F000300A0E46F1E712F8013CA3F1300109294B
:10120000E5D80A2101FB0434303C1646D3E74FF001
:10121000000A324612F8011B01F0FB00682816464E
:10122000F8D0692916D054D8582970D00ED825295D
:101230007DD03378002BA2D12B7B002B00F0D980FE
:10124000284603B0BDE8F04FFFF7D2BE632968D04F
:101250006429EED1D8F80020111DC8F80010D2F88A
:10126000009089EAE972A2EBE9724FF0010B092ABA
:1012700061DCD34538BFD3462CB1B9F1000F01DB97
:10128000790700D5013CBA0702D5BAF1000F04D0A6
:10129000FB0702D4002C54D10024B9F1000F58DA16
:1012A000C9F100092D212846FFF7E0FE07F00302EF
:1012B000022A05D1BAF1000F02D1002C4DD1002431
:1012C000CDE9004753460A2249462846FFF7DEFE8D
:1012D000AFE7732954D016D87029AAD1D8F80030B6
:1012E0001A1DC8F80020302128461C68FFF7BEFEF2
:1012F00078212846FFF7BAFE00220823CDE9003204
:1013000021461022E1E775292FD0782991D1D8F80C
:1013100000100A1DC8F80020CDE9004753461022EE
:101320002CE0D8F800301A1DC8F80020197828469B
:10133000FFF79CFE7DE70A230BF1010B92FBF3F212
:1013400095E7A345A9D220212846013CFFF78EFE50
:10135000A0E77807AAD52B21A5E7A345B0D2302175
:101360002846013CFFF782FEA7E7D8F80010CDE938
:1013700000470A1DC8F8002053460A220968A4E75E
:10138000D8F800301A1DC8F80020F907D3F80090EB
:1013900012D54F46A7EB090B17F8011B41B9A3451E
:1013A000BFF447AF20212846013CFFF75FFEF6E778
:1013B0002846FFF75BFEEDE7B9F1000F17D048466E
:1013C00002F0BEFB0746BC4200D954B909F1FF390F
:1013D00019F8011F00293FF42CAF2846FFF746FEFD
:1013E000F6E720212846013CFFF740FEEBE74F4699
:1013F000E9E703B0BDE8F08F749E0000704700007D
:1014000007B5044B0093044A402300F032F803B0C0
:101410005DF804FB1D140000651300202DE9F8435E
:1014200089461446B2B10F4B0F4E0325002743F0F7
:101430000108224609EB07010020FFF705F90744E0
:10144000241A48B933782BB14FF47A40C047013D94
:1014500002D13570BDE8F88301233370002CE8D148
:10146000F8E700BFD09E0000641300207047FFF72C
:1014700039B9F0B595B01C46164608460D4600F041
:1014800020FD1A9B0D93CDE9086400242346082211
:1014900005A928460A948DF82C400C9400F03AFDDA
:1014A000079B0293BDF81830ADF80C30BDF81A3028
:1014B000ADF80E309DF814308DF8114003F00302A2
:1014C000012A1DD1BDF81440059EC3F3C203C4F325
:1014D00083148DF81030A20008230EA9284600F0CE
:1014E00019FDC6F3952608AB0093224602AB0EA960
:1014F000304600F08BFB284600F0E7FC15B0F0BD4D
:10150000022AF8D1BDF81640C3F3C203A4098DF82E
:1015100010300827082C264628BF08263B463246AE
:101520000EA9284600F0F6FCA41B08AB02AA31461F
:101530000EA8374400F0CEFB002CEBD1DBE7000017
:1015400008B5FFF794FF0421064800F0C5FA00280B
:1015500003DA05494120FFF703FC044B01225A71CD
:1015600008BD00BF44AB0000E49E00001400002052
:10157000037813F0040216D003F00303012B03D009
:10158000022B09D0012070470A6800880232C0F39C
:10159000831002440A60F5E70B684288023303EBCC
:1015A00092130B60EEE71046704700002DE9F04FF4
:1015B000484C87B00D460646871C00200092FFF776
:1015C0000BFB23682B60D4E9012313442268013309
:1015D0009B1A04F21C4804F5836B04F21449BB42C5
:1015E00019D3009A0023002A6CD0012262F3010370
:1015F00043F0040366F389132168A2680A400332AA
:101600000F44002044F822302760FFF7F5FA01204C
:1016100007B0BDE8F08F01214046FFF7CEFB5846EA
:10162000FFF7E1FB0DF1180A4846FFF7DCFB6068A5
:101630004AF8100DA5682840033004EB800051469D
:10164000FFF796FF02460298002AF4D105EA00034C
:1016500004EB8303811CDB6803930130054004EB3A
:10166000850503F00303012B0291ED6823D0022BC3
:1016700008D0194901924FF4BF70FFF771FB019A2E
:10168000154607E0BDF80E309B0903332D0C01EB26
:10169000930302934846FFF7A9FB08B1029B6360DE
:1016A00029464046FFF789FBD4E901231344226809
:1016B00001339B1A93E7BDF80C30C3F383132D0C51
:1016C0000B44E6E7022262F3010343F0040366F3EE
:1016D0009F5391E7781400204D9F00000B4B0C485E
:1016E000FF2210B59A600022C3F81824C3E9002233
:1016F000C3F81424012283F8202400F09BFB044645
:1017000010B9044800F01CFC204610BD78140020DD
:1017100008AB0000A09F000030B50A4C71B10A4A26
:101720000A49121BD20800239A4201D1002030BD81
:1017300031F82350854202D00133F5E7034654F8CF
:101740003300F4E788AA000008AB0000E00900209D
:10175000094B013903EBC000032909D8DFE801F088
:101760000A020406042070470079704740797047E8
:10177000002070470220704788AA0000034BD3E97D
:101780000030C31A58425841704700BF78140020F7
:101790002DE9F04385B0FFF7F1FF0646002840F041
:1017A000F9807D4DC5F81804BFF34F8F6868AC68A9
:1017B00004AF47F8100D2040033005EB8000394698
:1017C000FFF7D6FE009B18B1D5F81824002A5FD089
:1017D00004EA0302991C013305EB8202234005EB66
:1017E0008303D268DB68029302F00303022B0192A9
:1017F000009162D1BDF8063068484FEA9318B8F1FD
:10180000500FC14628BF4FF0500969F38F1309F1FB
:101810000801ADF8063000F025FB0746002800F06F
:10182000A48000F04EFB01A900230822384600F0F6
:101830005BFB009924EA01060136B600B14535D9B3
:101840005FFA89F97EB3F6B2A9EB060921400331AC
:101850005FFA89F4B146524E05EB810108234A46EE
:10186000384600F041FB36B109F108032246314603
:10187000384600F039FB009B08F1030803EB98039E
:101880000093D5F81834002B4BD1D5F810445BE009
:101890002A689A4204D86A60304605B0BDE8F083F1
:1018A00004EA030088E73E493446D7E72140033184
:1018B00008234A4605EB8101DAE7012B55D1BDF833
:1018C00004303648C3F38311062928BF062161F38B
:1018D000891302318900ADF8043000F0C3FA0746DD
:1018E000002842D000F0EDFA0023082201A9384672
:1018F00000F0FAFA0026BDF80420C2F38312B31CEC
:1019000096424FEA8303BCD200994A1C214003311E
:10191000009205EB81010422384600F0E5FA013619
:10192000E9E7384600F0D1FAFFF728FF80F0010020
:10193000C6B2B1E7E3685B7923B1236839461B6817
:1019400020469847E3681C68002CF3D1384600F025
:10195000BCFA2046FFF740F9D5F818340BB9009BC4
:101960006B600020FFF748F9DEE7D5F8104454B962
:101970000C4B0D480D49C01AC008000440F002008D
:1019800000F082F8D0E7236820469B689847E36818
:101990001C68ECE700267FE77814002008AB000005
:1019A0008414002088AA0000E0AA0000AC9F000078
:1019B0002DE9F74F2F4C80460F46914601A9012291
:1019C00018469B46D4F808A0FFF7F0FD00283DD04C
:1019D000019D0026A91C5E4506EB010240D10021B5
:1019E0002548FFF7CAF980F3100B244B244A4FEA2D
:1019F00018499B1AB9EBD30F04D3224940F2A31024
:101A0000FFF7AEF96B1C03EA0A0304EB830349EA10
:101A10000B42DA6005EA0A030333012114F823209C
:101A200068F3C50204F8232034F8232066F38912F2
:101A300024F8232054F8232067F39F2244F823201E
:101A400061F301026FF3820204F8232094F820343A
:101A50001BB1FFF79DFE0028FBD103B0BDE8F08F5E
:101A60000AEA020204EB820259F82630D3600136FA
:101A7000B1E700BF781400209418002008AB0000E4
:101A800088AA00004D9F000000231A46FFF790BF70
:101A900013B502AC012344F8042D2246FFF788FF5A
:101AA00002B010BD1FB5CDE90123069B039301AA27
:101AB0000323FFF77DFF05B05DF804FB1FB5CDE9FB
:101AC0000023069B0293079B03936A460423FFF7B8
:101AD0006FFF05B05DF804FB30B5134AD2F810442F
:101AE0000023214651B9C4682371D2F810445CB96F
:101AF000C2F81004C2681160184630BDC9680D797B
:101B00009D420AD00968EDE7E468C16824680C606A
:101B1000D2F81024D2681060EEE701330A2BE0D12E
:101B20004FF0FF33E8E700BF7814002038B5094ACA
:101B30000123D2F8104482F820341D4604B938BD80
:101B4000E3685D71236820465B689847E3681C681A
:101B5000F4E700BF7814002010B5037A052B0C467B
:101B60000FD0437A23B1084A08492046FFF752FABA
:101B700007492046FFF74EFA2046BDE81040FFF720
:101B800037BA002AF8D0F3E7F79F0000FC9F000067
:101B90001596000073B5C38804460D4633B1144A48
:101BA00000921449144A2846FFF734FA217A05298D
:101BB0001CD0637A4BB1A088FFF7CAFD0F4B1049C8
:101BC00053F820202846FFF725FA227A0D4BA088EB
:101BD00053F822600021FFF79FFD0B490346324670
:101BE000284602B0BDE87040FFF714BA02B070BDDD
:101BF000F79F000007A00000FF9F0000C49F0000A7
:101C0000FC9F00002CA000001FA000002DE9F04365
:101C100085B01F460C9D002306460C46904695F85D
:101C20000C902B7329463846FFF7B4FFB8F1060F26
:101C300009D8DFE808F00412181F283340003146A5
:101C40002846FFF7E7F9002229463846FFF784FFC8
:101C500085F80C9005B0BDE8F0832268314628462F
:101C6000FFF7D8F9EFE7D4E9002331462846FFF71C
:101C7000D1F9E8E7A36800933146D4E90023284668
:101C8000FFF7C8F9DFE7E3680193A36800933146E3
:101C9000D4E900232846FFF7BDF9D4E7236902936E
:101CA000E3680193A36800933146D4E900232846F2
:101CB000FFF7B0F9C7E76369039323690293E36809
:101CC0000193A36800933146D4E900232846FFF727
:101CD000A1F9B8E708292DE9F84F80460E461746C6
:101CE0001C4635D8002593F80C901D7319461046F4
:101CF000FFF750FFDFF88CA0DFF88CB0AE4229D997
:101D000018F8052059462046FFF784F90135082DBB
:101D1000F4D11A49DFF874B02046FFF77BF94FF091
:101D2000000A564524D918F80A507E2D17D92E22BC
:101D300059462046FFF76EF90AF1010ABAF1080F79
:101D4000EFD1012221463846FFF706FF84F80C90B8
:101D5000BDE8F88F51462046FFF75CF9D6E701F061
:101D600099FC2844427812F0970FE0D02A46DFE72A
:101D700003492046FFF74EF9DEE700BFF29F00005F
:101D8000F09F0000EE9F0000E89F0000F49F00001D
:101D90002DE9F74F99469DF8303001938846174654
:101DA000054618B92249B620FEF7DAFFEA8895F809
:101DB00005B00BFB02FBABF1040BCB4503D81C4970
:101DC000C420FEF7CDFF3E68B5F806A006EB090279
:101DD0005A4509F1040188BFABEB0906B1FBFAF4DF
:101DE0003E600AFB141144B9AAEB0107B74228BFB1
:101DF00037462EB903B0BDE8F08F2D68013CF2E7FD
:101E0000019A043108EB0403681872B101463A469E
:101E10001846F61B01F062FCB2453C442D6857465B
:101E20004FF0000128BF3746E3E73A461946F0E78E
:101E30008BA00000FEF7DEBFF8B546790146721EA2
:101E40000546002393422D6803D30024A64202D8FE
:101E5000F8BD0133F6E70F682846FFF733F8013481
:101E60003946F3E72DE9F843CD1C068A0746FEF70D
:101E7000FFFF043E35440446B5FBF6F5F0B14FF4E0
:101E80008073EDB28380C680013D076081464FF0CC
:101E90000008A84512D23846FEF7EAFF064648B1C8
:101EA00063790133637108F10108C9F80000076024
:101EB0008146EEE72046FFF7BFFF34462046BDE8E7
:101EC000F88301210430FEF778BF10B501210446E4
:101ED0000430FEF77DFF10F0FF0F04D12046BDE86F
:101EE0001040FFF7A9BF10BD30B585B0144604AA55
:101EF000002542F8044D0095FFF74AFF039BA342DB
:101F000003D00349F620FEF72BFF05B030BD00BF1C
:101F10008BA0000030B585B0144604AA012542F814
:101F2000044D0095FFF734FF039BA34204D00349FF
:101F30004FF48070FEF714FF05B030BD8BA0000099
:101F400082680023936082681361826853618268AB
:101F5000D360826853608268136070470D4930B562
:101F6000A1F58C720225914201D800200EE08B1A57
:101F7000DB1093FBF5F302EBC30452F833308342DA
:101F800005D802D204F10802EDE7606830BD2146B1
:101F9000E9E700BF0CA2000008B5FFF7DFFF024B26
:101FA000002808BF184608BDDEA0000007B5154B85
:101FB0001A687AB100221A601B680093009B4FF0E8
:101FC00080430122C3F808230F4B587910B95A7186
:101FD0001B6898470D4B1A6882B100221A601B6873
:101FE0000193019B4FF080430222C3F80823064B64
:101FF0001B68012003B05DF804EB184703B05DF8DF
:1020000004FB00BF0001004034190020040100401F
:1020100000F1804000F5C040002382B003600368F7
:102020000193019B02B07047054B4FF0FF32072828
:1020300043F8202084BF1B1883F84820704700BF56
:102040003C19002002494FF4F370FEF789BE00BF2F
:10205000A3A500001F2838B504460D4601D9FFF797
:10206000F1FFA00000F1A040D0F8003723F4403386
:10207000C0F80037D0F8003743EA0543C0F800370E
:1020800038BD000010B5164C94F8583033BBFF2112
:10209000E2180133202B82F83010F9D10021C8B2A8
:1020A000FFF7C2FF01310C29F9D1042200210D48AC
:1020B00001F0AEFB0C4BE02283F8062340221A60AD
:1020C0004FF4BE70FFF7A4FF084B4FF00042C3F877
:1020D0000423012384F85830002010BD0820FCE7B9
:1020E0003C1900209019002000E100E00060004051
:1020F000034B93F85800003018BF0120704700BF11
:102100003C1900201F2870B504460D4604D94149EA
:102110004FF49870FEF724FE3F4E96F85830012B8E
:1021200004D03C4940F23110FEF71AFE25B9394976
:102130004FF49970FEF714FE331993F930200132F1
:1021400065D1AA78002A54D0002356F82310013113
:102150004FEA830248D1311902F1804281F83030D0
:10216000002102F5C04246F82310D2F810052B7862
:10217000697820F498101B04090520F4F85001F444
:10218000801103F44033C2F810050B432102D2F84A
:10219000100501F4F8510B430343C2F810356B7876
:1021A000012B4FF0010528D11F2C01D9FFF74AFF61
:1021B0004FF0A043A540C3F808551F2C01D9FFF7E5
:1021C00041FF04F5E0724FF0A043032143F82210D1
:1021D000E2081249012304F0070403FA04F48B5CBB
:1021E0001C438C54002003E00133082BADD10420A4
:1021F00070BDFE2283F83020D1E71F2C01D9FFF7F4
:1022000021FF4FF0A043A540C3F80C55D5E70820A7
:10221000EEE700BFE0A500003C1900209019002067
:102220001F2838B5054604D912494FF4BE70FEF791
:1022300097FD114C621992F93020013204D10D49F9
:1022400040F27D10FEF78CFD631993F83030072BB8
:1022500004D808494FF4BF70FEF782FD1F2D01D945
:10226000FFF7F0FE012303FA05F54FF0A043C3F892
:10227000085538BDE0A500003C1900201F2838B5DE
:10228000054604D912494FF4C370FEF769FD114C9D
:10229000621992F93020013204D10D4940F28710C1
:1022A000FEF75EFD631993F83030072B04D8084918
:1022B0004FF4C470FEF754FD1F2D01D9FFF7C2FE85
:1022C000012303FA05F54FF0A043C3F80C5538BDC0
:1022D000E0A500003C1900202DE9F04F87B0002454
:1022E0005B4A5C4E5C4D039401211368A2F5C0402B
:1022F000012B80B206D1D6F804330B4202D0FFF78F
:1023000087FE0C430432AA424FEA4101EDD1534B00
:102310001B68012B0AD14FF4BE70FFF779FE4FF016
:10232000A04344F00044D3F81035039314F0FF0F9A
:102330001AD04B4F00250126344210D0AB0003F1D8
:10234000804303F5C043D3F81005D3F8101557F8B0
:102350002530C0F30420C1F3014103B19847013592
:10236000082D4FEA4606E7D1002C6EDA00224FF026
:10237000FF33CDE904233A4F4FF0000A56464FF0A1
:10238000A04907EB0A0393F95040631C46D0E4B21E
:10239000012224F0C00504F0070B02FA0BFBEB0846
:1023A00006AAD11811F8042C12EA0B0F36D07A19AC
:1023B000A40992F9302057F82280B8F1000F0AD111
:1023C000032C2BD10DF1100C1CF8030040EA0B007C
:1023D0000CF8030001E0032CF4D01F2D03D9019168
:1023E000FFF730FE019911F80C1C05F5E07311EAB6
:1023F0000B0F59F82330C3F3014320D0022B0DD12A
:10240000032C05D121462846FFF724FE0136F6B2FB
:10241000B8F1000F02D021462846C0470AF1010A50
:10242000BAF1040FADD186B14FF0A043039AD3F8AF
:1024300010359A4209D00393049B05939CE7032B24
:10244000ECD1032CE4D10221DDE707B0BDE8F08F29
:102450000061004000600040206100407C6100405D
:102460003C19002010B5054C22681AB904495120C6
:10247000FEF776FC2368BDE8104018479819002045
:1024800033A6000038B50D4628B90C497720FEF771
:1024900067FC002038BD0A4B9842FAD10020FEF7B5
:1024A0009BFB084B1C7914B901221D601A71002096
:1024B000FEF7A2FB002CECD01120EBE733A60000C6
:1024C00000200040981900200023435082B0435858
:1024D0000193019B02B0704770B5D0F810310546EA
:1024E0000C4653B14FF48871FFF7EEFF63795A073A
:1024F00003D523680BB101209847D5F814315BB19F
:102500004FF48A712846FFF7DFFF63791B0703D575
:1025100023680BB102209847D5F81C315BB12846DF
:102520004FF48E71FFF7D0FF607910F0100002D1E8
:10253000236803B19847D5F8043163B14FF4827131
:102540002846FFF7C1FF0123237123681BB1032035
:10255000BDE87040184770BD01490248FFF7BCBF95
:10256000A019002000C0014001490248FFF7B4BF94
:10257000A81900200010024001490248FFF7ACBF33
:10258000B01900200020024000F1804000F5E0403A
:10259000002382B0036003680193019B02B070477F
:1025A000F0B5514B514C1B6885B0DBB14FF48270D4
:1025B00094F82E20FFF7E8FF12B194F82F30A3B162
:1025C000636802932389ADF80C30E36800218DF82D
:1025D0000410002B44D12374236801A898470023DA
:1025E00084F82F3094F82E3003B3414B1B68EBB1C5
:1025F0004FF48070FFF7C8FF94F82D20638B91B2E1
:102600008B4238D95B1A21899BB26383CB1A6168EC
:1026100001EB4301374BC3F82C16C3F830264FF4B7
:102620008270FFF7B1FF344B01221A60334B1B68F5
:102630005BB14FF48870FFF7A7FF002304A8237451
:10264000022300F80C3D236898472D4B1B6813B3F9
:102650004FF48A70FFF798FF0023237405B0F0BD94
:10266000208B608363602081E160002AB4D1214B1C
:1026700001221A60B0E7D2D1E368012184F82F105B
:102680003BB1002161831B49C1F82C36C1F83026CB
:10269000C5E76383C3E766694FF000470125002E55
:1026A000DCD0B6FA86F227FA02F34632920026EA26
:1026B000030602F1804303F5E0431B68002BEED0D4
:1026C0001046FFF761FFA2F58C72D30882F0040276
:1026D000C2F380028DF808308DF804508DF809207F
:1026E000236801A89847DAE704710040B819002070
:1026F0000071004000700040047000401071004004
:102700001471004002494FF4F370FEF729BB00BF7B
:10271000A3A500001F2810B5044601D9FFF7F2FF5A
:10272000012303FA04F44FF0A043C3F80C4510BD95
:102730001F2810B5044601D9FFF7E4FF012303FA6F
:1027400004F44FF0A043C3F8084510BD13B54FF093
:102750004023D3F818310BB3114B124C00221A60EE
:102760001B680193019B236823B90F494FF427701D
:10277000FEF7F6FAE07FFF2803D0A37F5BB1FFF7F7
:10278000C9FF002363772372D4E90031074802B000
:10279000BDE810401847FFF7CBFFF2E702B010BDCD
:1027A00018410040E81900208AA60000F019002016
:1027B0002DE9F743002406460F4600F5A0754FF4B7
:1027C0008038A14604F150002B68800080B26BB1C4
:1027D000D6F8043308FA04F21A4207D0C5F800907C
:1027E0002B680193019BD7E9003198470134042CF1
:1027F00005F10405E6D103B0BDE8F08301490248C4
:10280000FFF7D6BF0C1A00200080004001490248A3
:10281000FFF7CEBF181A002000900040002343505D
:1028200082B043580193019B02B07047F0B5504C01
:10283000236887B023B94F4940F24520FEF790FA4C
:102840004D4AD2F824311546A3B14FF49271104687
:10285000FFF7E4FFD2F8043163B9A368C2F8083384
:102860000223A360A368C2F80433012313625361F7
:1028700007B0F0BDD5F80431002B49D03F4F3E489A
:102880004FF48271FFF7CAFF0FCF01AE0FC63B684E
:10289000336094F82E307BB1237B012B0CBFD5F82D
:1028A0003C25D5F84C250292022B334B0CBFD3F8B4
:1028B0003C35D3F84C3503934FF4B0712E48FFF7F5
:1028C000ADFF4FF4AE712C48FFF7A8FF94F83030FD
:1028D00013B194F82E303BB1274B0022C3F80022ED
:1028E000A260274AC3F80823234AD2F8C434C2F8A6
:1028F000C4349A0736D501238DF8003094F830306F
:102900000BB984F82F30D4E9003168469847AFE717
:102910004FF4A4711848FFF781FF237B83B9174F49
:102920000FCF01AE0FC63B68336094F83030002BF8
:10293000DAD1C5F80032A360114BC5F80833D3E7EC
:102940004FF40073C5F8003240F20223A36003F194
:10295000CE73C5F80833A368C5F804330123AB6010
:102960002B6285E713F0040318BF0223C4E700BFFE
:10297000241A0020DBA6000000300040301A00209E
:1029800002029C010023435082B043580193019BF3
:1029900002B070470A4610B54FF48E71FFF7F2FF90
:1029A000136A9168C95C136A01331362C0F81C157D
:1029B00010BD08B502464FF492710068FFF7E2FFC0
:1029C0004FF484711068FFF7DDFF136801221A606D
:1029D00008BD10B58B690A464FF4847123B9FFF71F
:1029E000D1FFD0F8183510BDFFF7CCFF536AD1687E
:1029F000D0F81805C854536A01335362F3E7000056
:102A000002494FF4F370FEF7ABB900BFA3A5000075
:102A10001FB501238DF80030044BCDE90110D3E937
:102A200000126846904705B05DF804FB581A002074
:102A300030B54D4AD2F8043313F4007F85B0154603
:102A40004FD0D2F82431002B4BD04FF49271104666
:102A5000FFF798FF4FF40173C2F80833434B93F824
:102A6000291009B9012151603F4902228DF8002047
:102A7000D1F88024C1F8802403929A690292DA681E
:102A800001920022C3E906226846D3E9001290476A
:102A90003548D0F81C315BB134490A6A4B699A4217
:102AA0000A464CD291F82830002B48D1FFF772FF2C
:102AB0002D4AD2F8443193B14FF4A2711046FFF77A
:102AC00061FF2A4B93F8291009B1012111609A691D
:102AD0002AB100229A61586AD968FFF799FF05B0B8
:102AE00030BDD5F804335B07D2D5D5F80831002BBB
:102AF000CED01E4C1C482146FFF76BFF636AA269CB
:102B00009A422346C4D1E26952B12369E168E36085
:102B10000023606AA261E3616362FFF779FFB7E7B0
:102B200094F829200AB901226A600F4A4FF4017112
:102B3000C2F8081300229A61586AD968EDE74FF489
:102B40008E710948FFF71EFF51690029B0D000239C
:102B5000029191688DF80030019153616846D2E985
:102B600000139847A4E700BF00200040581A002037
:102B70002DE9F84F054692460C4619B97549AA2029
:102B8000FEF7EEF8744B2E792C2202FB06329846A3
:102B900092F82A20002A40F0D98070492868FFF76F
:102BA00071FC0746002840F0D380D4F80090B9F1BA
:102BB000FF3F18D0B9F11F0F01D9FFF721FF4FF0E8
:102BC000A043012202FA09F2C3F80825D4F800B0A4
:102BD000BBF11F0F994601D9FFF712FF0BF5E07B00
:102BE000032349F82B30D4F80490B9F1FF3F0BD000
:102BF000B9F11F0F01D9FFF703FF09F5E0794FF095
:102C0000A043002243F829202B68A269C3F8242599
:102C1000217D637D2A680B43C2F86C35D4E900211D
:102C20002B68C3F81415C3F80C25237D012B35D16F
:102C3000D4F80890B9F1FF3F0BD0B9F11F0F01D9BB
:102C4000FFF7DEFE09F5E0794FF0A043002243F8DC
:102C50002920D4F80C90B9F1FF3F18D0B9F11F0F1B
:102C600001D9FFF7CDFE4FF0A043012202FA09F28D
:102C7000C3F80825D4F80CB0BBF11F0F994601D951
:102C8000FFF7BEFE0BF5E07B032349F82B30D4E9B8
:102C900002212B68C3F80815C3F810252C237343B1
:102CA00008EB0302C2F804A0226948F80320BAF135
:102CB000000F38D04FF48E712868247FFFF762FE32
:102CC0004FF4A2712868FFF75DFE2B68244AC3F811
:102CD00004232B68072C4FEA133A4FFA8AF903D9D9
:102CE00020496B20FEF73CF8B9F1000FACBF09F1A9
:102CF00060431D4B4FEA4414B8BF0AF00F0AE4B218
:102D0000AABF03F5614303F80A4083F800432B6828
:102D10001B0B5AB2012103F01F0301FA03F35209FE
:102D2000124941F822302B680422C3F800252C23D5
:102D300003FB06830022C3E9062283F829205A6197
:102D4000012283F82A203846BDE8F88F0827FAE7E1
:102D50001127F8E726A70000581A0020312A0000A2
:102D6000800002006CA7000014ED00E000E100E02C
:102D70002DE9F843474E05792C2303FB05630746ED
:102D800093F82A30012B8846144604D0424940F279
:102D90006910FDF7E5FFB8F1000F04D13E494FF48B
:102DA000B570FDF7DDFF24B93B4940F26B10FDF72C
:102DB000D7FF2C2303FB0563596821B13B684FF40F
:102DC0000172C3F808232C2303FB05639A6952B1EF
:102DD000DA69002A3FD021B13B684FF40172C3F891
:102DE0000423112035E09C61C3F80C805A62DA613B
:102DF0002C2303FB056393F829301BB912B938461D
:102E0000FFF7D7FD4FF02C0909FB05683868D8F8A3
:102E10000430002B35D14FF4A271FFF7B3FDC1464A
:102E20003868D0F82431D0F80821D0F84441BAB934
:102E30000CB9002BF4D02C2202FB05650022AA61FC
:102E400023BB2CBB95F829103B680122B9B11A604D
:102E50000020BDE8F883C3F81080DC610122C7E7D9
:102E6000002BE8D1002CE6D14946FFF7B2FDD8F897
:102E70002430D8F818209A42D2D82346DBE75A608B
:102E8000E6E74FF40173C0F80433E1E70320E0E71D
:102E90000F20DEE7581A002026A700000023435029
:102EA00082B043580193019B02B0704702494FF42E
:102EB000F370FDF755BF00BFA3A500001FB50123A8
:102EC0008DF80030044BCDE90110D3E900126846BB
:102ED000904705B05DF804FB841A00207FB5374A9F
:102EE000D2F82461002E48D010464FF49271FFF7BB
:102EF000D5FF02238DF80030D2F88034C2F8803438
:102F00000393D2F83C3502932D4BDA6801920022EC
:102F1000C3E906226846D3E900129047274AD2F84F
:102F200044317BB14FF4A2711046FFF7B7FF244B39
:102F3000996939B10021C3E90611D968D2F83C0575
:102F4000FFF7BCFF1D4AD2F82031A3B14FF49071B6
:102F50001046FFF7A3FF1A4B596961B1D2F84C151F
:102F60000291002299688DF8002001915A6168460B
:102F7000D3E90012904704B070BDD2F81031002B95
:102F8000CCD04FF488711046FFF788FF0C4BD2F875
:102F90003C0599698842C1D1DC69D96864B1D2F82D
:102FA000005225F02005C2F800521A699C61DA60CF
:102FB000DE61FFF783FFB1E79C61FAE70020004084
:102FC000841A00202DE9F84F054692460C4619B99F
:102FD0007949CD20FDF7C4FE784B2E79242202FBDF
:102FE0000632984692F82020002A40F0E180744989
:102FF0002868FFF747FA0746002840F0DB80D4F83E
:103000000090B9F1FF3F18D0B9F11F0F01D9FFF7B8
:103010004DFF4FF0A043012202FA09F2C3F8082540
:10302000D4F800B0BBF11F0F994601D9FFF73EFF5E
:103030000BF5E07B032349F82B30D4F80490B9F169
:10304000FF3F0BD0B9F11F0F01D9FFF72FFF09F593
:10305000E0794FF0A043002243F829202B68A269B1
:10306000C3F82425217D637D2A680B43C2F86C35A3
:10307000D4E900122B68C3F80C15C3F81425237D7E
:10308000012B35D1D4F80890B9F1FF3F0BD0B9F13D
:103090001F0F01D9FFF70AFF09F5E0794FF0A043B0
:1030A000002243F82920D4F80C90B9F1FF3F18D042
:1030B000B9F11F0F01D9FFF7F9FE4FF0A04301222C
:1030C00002FA09F2C3F80825D4F80CB0BBF11F0FBF
:1030D000994601D9FFF7EAFE0BF5E07B032349F897
:1030E0002B30D4E902212B68C3F80815C3F810254A
:1030F0002423734308EB0302C2F804A0226948F8B2
:103100000320BAF1000F42D04FF488712868247F61
:10311000FFF7C4FE4FF490712868FFF7BFFE4FF42D
:1031200092712868FFF7BAFE4FF4A2712868FFF782
:10313000B5FE2B68234AC3F804232B68072C4FEAFB
:10314000133A4FFA8AF903D91F496B20FDF708FE9D
:10315000B9F1000FACBF09F160431C4B4FEA4414B6
:10316000B8BF0AF00F0AE4B2AABF03F5614303F83F
:103170000A4083F800432B681B0B5AB2012103F06D
:103180001F0301FA03F35209114941F822302B6859
:103190000822C3F80025242303FB06830022C3E989
:1031A00006225A61012283F820203846BDE8F88FB4
:1031B0000827FAE71127F8E7AFA70000841A0020D4
:1031C000DD2E0000100302006CA7000014ED00E0EB
:1031D00000E100E02DE9F041484E0479242303FB8F
:1031E0000463054693F82030012B8846174604D027
:1031F00043494FF4B770FDF7B3FDB8F1000F04D1A8
:103200003F4940F26F10FDF7ABFD27B93C494FF441
:10321000B870FDF7A5FD2B790BB9FF2F04D93849FC
:1032200040F27110FDF79CFD08F06043B3F1005FC0
:1032300061D1242303FB0463596821B12B684FF447
:103240000472C3F80823242303FB04639A6952B170
:10325000DA69002A3DD021B12B684FF40472C3F81B
:103260000423112033E09F61C3F80C80DA614FF42E
:1032700088712868FFF712FE4FF4A2712868FFF7E3
:103280000DFE2B68C3F83485C3F838752B682ABB4C
:1032900001221A602A792B68242101FB0261496806
:1032A00019BBD3F81041D3F84411D3F8240114B951
:1032B00009B90028F5D0242303FB026600239842B5
:1032C00014BF032018469942B36118BF0F20BDE810
:1032D000F081C3F81080DF610122C8E7D3F8002233
:1032E00042F02002C3F80022D4E74FF40472C3F87E
:1032F00004230020EBE71020E9E700BF841A002038
:10330000AFA700000C4B1B78062B10D10B4B1B6892
:103310001A070CD10A4B186800F0F003302B08D0C4
:1033200000F0E000A0F140035842584170470020EF
:1033300070470120704700BFE00F00F0E40F00F07D
:10334000E80F00F0094B1B78062B0CD1084B1B68CB
:103350001A0708D1074B186800F0F000A0F13003FD
:103360005842584170470020704700BFE00F00F0FE
:10337000E40F00F0E80F00F008B5FFF7C3FF28B135
:103380007D4B7E4A1B68C3F304231360FFF7DAFF0B
:1033900010B17B4B7B4A1A60FFF7B4FF28B17A4B20
:1033A0007A4A1B68C3F342331360FFF7CBFF20B1A7
:1033B000774AD36823F08073D360FFF7A3FF40B14F
:1033C0004FF080430022C3F80C21C3F81021C3F84A
:1033D0003825FFF7B7FF10B16E4B03221A60FFF7D5
:1033E000B1FF40B16C4B05221A6001229A6700229E
:1033F0009A603F225A60694B1B78062B50D1684B6C
:103400001B6819074CD1674B1B6803F0F003502B66
:1034100046D14FF08052644BD2F80414C3F8201503
:10342000D2F80814C3F82415D2F80C14C3F82815E0
:10343000D2F81014C3F82C15D2F81414C3F83015B0
:10344000D2F81814C3F83415D2F81C14C3F8401578
:10345000D2F82014C3F84415D2F82414C3F8481540
:10346000D2F82814C3F84C15D2F82C14C3F8501510
:10347000D2F83014C3F85415D2F83414C3F86015D8
:10348000D2F83814C3F86415D2F83C14C3F86815A0
:10349000D2F84014C3F86C15D2F84424C3F8702550
:1034A000FFF730FF28B1414B414A1B6803F04F033F
:1034B0001360FFF727FF48B14FF08043D3F8002493
:1034C000D20744BF6FF00102C3F80024394B1B68D8
:1034D000062B08D1384B1B68062B01BF374A1368EF
:1034E00043F480631360364AD2F8883043F47003A3
:1034F000C2F88830BFF34F8FBFF36F8F4FF01023A8
:10350000D3F80022002A03DBD3F80432002B2FDA91
:103510002C4B0122C3F80425D3F80024002AFBD049
:103520004FF010221521C2F80012D3F80024002A0F
:10353000FBD04FF010231522C3F80422214B1A466A
:10354000D3F800140029FBD00021C3F80415D2F8E9
:103550000034002BFBD0BFF34F8F19491A4BCA68B8
:1035600002F4E0621343CB60BFF34F8F00BFFDE76F
:10357000164B174A1A6008BD24030010403501405D
:1035800074C007400DF0ADBA440200103C05004085
:10359000F0ED00E0A005004010560040E00F00F004
:1035A000E40F00F0E80F00F000C0004058020010E7
:1035B000E40E004030010010340100103C170040C0
:1035C00000ED00E000E001400400FA051C000020CE
:1035D0000090D0030649074A074B9B1A03DD043BC2
:1035E000C858D050FBDCFFF7C7FEFCF729FE0000EF
:1035F0005CAB000000000020E0090020FEE7FEE7D1
:10360000FEE7FEE7FEE7FEE7FEE7FEE7FEE7FEE792
:1036100008B50021044602F001F9044B1868C36B99
:1036200003B19847204605F0B3F900BFFCA700009E
:1036300070B50D4E0D4D761BB61006D0002401342A
:1036400055F8043B9847A642F9D1094E094D761B1F
:1036500005F0B4FFB61006D00024013455F8043B41
:103660009847A642F9D170BDD0090020D0090020AA
:10367000DC090020D0090020044B054A1B685B6B65
:10368000002B08BF134693F8280170472000002044
:1036900050040020044B054A1B685B6B002B08BFDD
:1036A0001346D3F8EC00704720000020500400209F
:1036B00082B049B15AB16BB113780B601278101C0B
:1036C00018BF012002B0704701A9002AF3D11046AB
:1036D00002B070476FF00100F4E700BF844641EA92
:1036E000000313F003036DD1403A41D351F8043B7A
:1036F00040F8043B51F8043B40F8043B51F8043BCC
:1037000040F8043B51F8043B40F8043B51F8043BBB
:1037100040F8043B51F8043B40F8043B51F8043BAB
:1037200040F8043B51F8043B40F8043B51F8043B9B
:1037300040F8043B51F8043B40F8043B51F8043B8B
:1037400040F8043B51F8043B40F8043B51F8043B7B
:1037500040F8043B51F8043B40F8043B51F8043B6B
:1037600040F8043B51F8043B40F8043B403ABDD2DA
:10377000303211D351F8043B40F8043B51F8043B7C
:1037800040F8043B51F8043B40F8043B51F8043B3B
:1037900040F8043B103AEDD20C3205D351F8043B0B
:1037A00040F8043B043AF9D2043208D0D2071CBFD7
:1037B00011F8013B00F8013B01D30B880380604600
:1037C000704700BF082A13D38B078DD010F0030376
:1037D0008AD0C3F10403D21ADB071CBF11F8013BE6
:1037E00000F8013B80D331F8023B20F8023B7BE735
:1037F000043AD9D3013A11F8013B00F8013BF9D260
:103800000B7803704B7843708B78837060467047F9
:10381000F0B4860743D0541E002A3ED0CAB20346F5
:1038200002E014F1FF3438D303F8012B9D07F8D1DF
:10383000032C2BD9CDB245EA05250F2C45EA0545C9
:1038400016D9A4F110073F0903F1200606EB07166D
:1038500003F1100242E9045542E902551032B24226
:10386000F8D104F00F040137032C03EB07130DD933
:103870001E462246043A032A46F8045BFAD8221F61
:1038800022F003020432134404F003042CB1C9B241
:103890001C4403F8011B9C42FBD1F0BC704714464A
:1038A0000346C5E70FB400B5074983B004AB086809
:1038B00053F8042B8168019300F0B2F903B05DF86E
:1038C00004EB04B0704700BF2000002000290CBFAB
:1038D000022200224FF4806300F000B82DE9F0438B
:1038E0005D4C256883B00446884616461F4615B1D0
:1038F000AB6B002B7ED0022E05D0012E00F2A980EA
:10390000002FC0F2A680636EDA0735D5214628461F
:1039100003F04CF8216B41B104F14003994202D00D
:10392000284603F041F900232363B4F90C30002248
:103930001806A261626061D423F44A6323F0030392
:10394000022EA3811FD10025616E002004F14302E5
:1039500043F00203A060C9074FF00100A381226079
:10396000C4E9042004D49B0502D4A06D03F04EFAF0
:10397000284603B0BDE8F083A3899B05C6D4A06D9B
:1039800003F042FAC2E701AB6A462146284603F03B
:103990003FFAA3891843A081002F36D1009F3846F3
:1039A00003F0AEFA8046002842D0A38943F080039A
:1039B000A381AB6B7BB3009AB4F90C30C4F80080E0
:1039C000BA421CBF43F40063A381012E04BF43F03D
:1039D0000103A3819BB213F00802C4E904871ED13E
:1039E000A260656E15F00105BDD00025284603B024
:1039F000BDE8F083284603F035F87CE721692846C6
:103A000003F0D2F8B4F90C3096E7B8F1000FC6D045
:103A1000AB6B002BCFD1284603F024F8CBE7DA07B5
:103A200004D57F420022A761A260DAE7A760D8E749
:103A3000DDF80090B94504D1B4F90C304FF0FF35F2
:103A400082E7484603F05CFA80460028F4D04F46EF
:103A5000ABE74FF0FF358BE72000002080EA010242
:103A6000844612F0030F4FD111F0030F32D14DF8FD
:103A7000044D11F0040F51F8043B0BD0A3F10132B7
:103A80009A4312F0803F04BF4CF8043B51F8043BCA
:103A900016D100BF51F8044BA3F101329A4312F042
:103AA000803FA4F101320BD14CF8043BA24312F049
:103AB000803F04BF51F8043B4CF8044BEAD0234646
:103AC0000CF8013B13F0FF0F4FEA3323F8D15DF8F8
:103AD000044B704711F0010F06D011F8012B0CF8C0
:103AE000012B002A08BF704711F0020FBFD031F838
:103AF000022B12F0FF0F16BF2CF8022B8CF80020BF
:103B000012F47F4FB3D1704711F8012B0CF8012B41
:103B1000002AF9D1704700BF00000000000000003B
:103B20000000000000000000000000000000000095
:103B30000000000000000000000000000000000085
:103B400090F800F06DE9024520F007016FF0000CDD
:103B500010F0070491F820F040F049804FF0000485
:103B60006FF00700D1E9002391F840F000F1080060
:103B700082FA4CF2A4FA8CF283FA4CF3A2FA8CF398
:103B80004BBBD1E9022382FA4CF200F10800A4FAFF
:103B90008CF283FA4CF3A2FA8CF3E3B9D1E9042353
:103BA00082FA4CF200F10800A4FA8CF283FA4CF38A
:103BB000A2FA8CF37BB9D1E9062301F1200182FA44
:103BC0004CF200F10800A4FA8CF283FA4CF3A2FA4A
:103BD0008CF3002BC6D0002A04BF04301A4612BA58
:103BE000B2FA82F2FDE8024500EBD2007047D1E95B
:103BF000002304F00305C4F100004FEAC50514F0EA
:103C0000040F91F840F00CFA05F562EA05021CBFBA
:103C100063EA050362464FF00004A9E700000000D4
:103C20002DE9F04FD7B01C4689461746054603904C
:103C300003F0D8F8036816931846FFF781FF08943D
:103C400015901DB1AB6B002B00F00781D9F8641003
:103C5000B9F90C20C80793B202D4990540F11F812D
:103C60009E040AD4D9F8641042F4005321F40051A0
:103C7000A9F80C30C9F864109BB21D0740F1B2805E
:103C8000D9F81020002A00F0AD8003F01A020A2AA9
:103C900000F0C98000239FED867B1093CDE92B3384
:103CA0001793CDE919331B93189305932DAB2A93E2
:103CB0009B463B78CDF81C908DED127B002B00F0DD
:103CC0005982252B3C4602D11DE0252B03D014F848
:103CD000013F002BF9D1E51B8DB1DDE92B3201331A
:103CE0002A44072BCBF80070CBF80450CDE92B32D7
:103CF00000F3CA800BF1080B059B2B440593237836
:103D0000002B00F0378200236678069398468DF8E2
:103D10008B3004F1010A4FF0FF392B250AF1010A1B
:103D2000A6F120035A2B00F22A84DFE813F0AA033D
:103D3000280428049C02280428042804A702280434
:103D40002804C602D2022804D702DC022804F602A4
:103D50006D026D026D026D026D026D026D026D02EB
:103D60006D022804280428042804280428042804B0
:103D7000FB0228043C03F303FB02FB02FB022804C2
:103D8000280428042804EE03280428049A002804A0
:103D900028042804500328047903280428049003E5
:103DA00028042804280428042804280428042804B3
:103DB000FB0228043C03C500FB02FB02FB02D1030B
:103DC000C50070002804B5032804C2039C00DE036C
:103DD00070002804500372002C02280428047C027E
:103DE000280472004946039801F0A8FCA0B1D9F854
:103DF0006430D80704D4B9F80C30990540F1B78382
:103E00004FF0FF330593059857B0BDE8F08F48F0A9
:103E100020089AF8006081E7B9F80C3003F01A0224
:103E20000A2A7FF437AFB9F90E20002AFFF632AF25
:103E3000D9F86420D20705D49B0503D4D9F85800DB
:103E400002F0E4FF23463A464946039801F026FC77
:103E50000590059857B0BDE8F08F039802F002FE78
:103E6000F4E648F0100818F0200F00F06C83089C6E
:103E7000073424F00703D3E9004503F10802089250
:103E800028F4806300228CE12AAA0799039803F0A2
:103E90004DFF002841F076830DF1B40B2CE7D9F8E3
:103EA000580002F0B1FFB9F90C2093B2D8E600BF78
:103EB000000000000000000043469F0640F12F83F1
:103EC000089C073424F00704D4E9000104F1080237
:103ED000089204460D46002871F1000205DA2D22F1
:103EE000644265EB45058DF88B2056AAB9F1FF3F7A
:103EF000049200F0B284012254EA050123F0800804
:103F000040F05981B9F1000F40F01986002A40F0C5
:103F1000088513F0010356AF099302D0302307F848
:103F2000013D00230A930F9314931193099B9DF86D
:103F30008B204B45B8BF4B46049312B1049B013311
:103F4000049318F002030B9302D0049B02330493F2
:103F500018F084032C9C0E933FD1069B04995D1AA4
:103F6000002D3ADD102D2B9A29DD5946204620964A
:103F70001023039C079EBB4604E0103D102D01F169
:103F8000080118DD0132BA4F1030072ACDE92B2085
:103F9000C1E90073F1DD2AAA314620460C9303F0F3
:103FA000C5FE002840F03D84103D102DDDE92B209A
:103FB0002DA90C9BE6DC209E5F4604468B46013211
:103FC000AB4B2C44072ACDE92B24CBE9003500F379
:103FD000FF849DF88B200BF1080B72B12B9A0132F4
:103FE00001340DF18B000121072ACDE92B24CBE907
:103FF000000100F318840BF1080B0B9B6BB12B9B9A
:104000000133023423A90222072BCDE92B34CBE95B
:10401000001200F315840BF1080B0E9B802B00F0AF
:104020003183099BA9EB0305002D37DD102D2B9A59
:10403000904B28DD59462046BB464FF010093746C5
:104040001C46079E04E0103D102D01F1080115DD0E
:1040500001321030072ACDE92B20C1E90049F2DDF9
:104060002AAA3146039803F061FE002840F0D98364
:10407000103D102DDDE92B202DA9E9DC3E4623461D
:104080005F4604468B4601322C44072ACDE92B2497
:10409000CBE9003500F3EF830BF1080B18F4807FB8
:1040A00040F080822B9B099ACBF8007001331444B6
:1040B000072B2C94CBF804202B9300F392830BF165
:1040C000080B18F0040F3BD0069B049A9D1A002D94
:1040D00036DD102D2B9B21DD1026039FDDF81C8083
:1040E00004E0103D102D0BF1080B17DD0133604A81
:1040F0001034072BCDE92B34CBE90026F1DD2AAAB9
:104100004146384603F012FE002840F06C85103D11
:10411000102DDDE92B340DF1B40BE7DC0133544AEB
:104120002C44072BCDE92B34CBE9002508DD2AAA46
:104130000799039803F0FAFD002840F0E9822C9CCF
:104140000499DDE905328A42ACBF9B185B180593E0
:10415000002C40F0D58200232B930A9B1BB10A99B7
:10416000039802F021FD0DF1B40B57463B78002B6C
:104170007FF4A7AD2C9BDDF81C90002B41F0E7806D
:1041800000232B93CBE243469A0640F14E81089CD4
:10419000073424F0070202F10801D2E90045089132
:1041A000012200218DF88B10B9F1FF3F56A904912F
:1041B0007FF4A2AE9846012A00F05083022A00F054
:1041C0001B8356A900E03946E20842EA4572E80836
:1041D00004F0070305461446303354EA050201F89B
:1041E000013C01F1FF37EED118F0010F00F014830C
:1041F000302B00F01183049A02393023521A07F849
:10420000013C09920F468CE6A6F1300300221AF811
:10421000016B02EB820203EB4202A6F13003092B91
:10422000F5D906927CE5144B179318F0200F00F097
:104230001481089C073424F00703D3E9004503F1F7
:104240000802089218F0010F09D054EA050306D0BD
:1042500030238DF88D6048F002088DF88C3028F4FA
:10426000806302229DE748F001089AF8006055E556
:1042700054A8000064A8000020A80000039E304657
:1042800002F0B0FD436818931846FFF759FC1B90E5
:104290000446304602F0A6FD83681A93002C3FF4D2
:1042A000B8AD9AF80060002B3FF438AD1B78002BB6
:1042B0003FF434AD48F4806830E5089B9AF800601C
:1042C0001A680692002A03F10403C0F29786089345
:1042D00024E58DF88B509AF800601FE59AF800608D
:1042E00048F004081AE59AF800602A2E0AF1010243
:1042F00001F0B081A6F13003092B92464FF000097E
:104300003FF60EAD1AF8016B09EB890903EB490979
:10431000A6F13003092BF5D902E548F080089AF898
:104320000060FBE4089C073424F0070494ED007B54
:1043300052EC171B22F000431D938DED1C7A0834BC
:10434000DDE91C014FF0FF32BA4B08948DED127B72
:1043500004F076FF002840F06F844FF0FF32B54B39
:10436000DDE91C0104F04EFF002840F065840022C6
:104370000023DDE9120104F03BFF002840F05B85DB
:104380009DF88B20AC4FAD4B0020032104910A9087
:1043900028F08008472ED8BF1F46099181460F900C
:1043A00014901190C9E50898002301688DF88B30AE
:1043B0001A468DF8F4100123011D04930A929146C8
:1043C0000F9214921192CDE908133DAFB9E5089B05
:1043D0001F6800258DF88B501C1D002F00F03986BA
:1043E000B9F1FF3F00F011874A462946384603F0ED
:1043F0003FF80A90002800F0E7850A9BDB1B099331
:10440000A94623EAE37308940493CDF82890CDF8E5
:104410003C90CDF85090CDF844909DF88B208CE5E1
:1044200048F010039A063FF5B2AE089ADF0602F193
:10443000040100F17E835D06089A00F1E4849C0586
:1044400040F177831478089100250122A9E67C4B7E
:10445000179318F0200F7FF4ECAE089A18F0100FA5
:1044600002F1040340F0548318F0400F089A40F022
:10447000D08418F4007F00F04B8314780893002553
:10448000E0E69DF88B309AF80060002B7FF446AC94
:1044900020238DF88B3041E49AF800606C2E03BF26
:1044A0009AF8016048F020080AF1010A48F0100863
:1044B00034E4089A18F0200F52F8043B089200F0F8
:1044C000A183059A1046D117C3E9000157464DE66E
:1044D0009AF80060682E03BF9AF8016048F40078EB
:1044E0000AF1010A48F0400818E40899554B0C6895
:1044F000179347F630020431ADF88C2048F00203E0
:1045000008910025022278264BE648F008089AF820
:10451000006003E448F010039F063FF5D1AC089912
:10452000DD0601F1040200F1FD825C06089900F14C
:104530007584980540F1F68291F900400892E517DC
:1045400020462946C7E4089A18F0100F02F1040328
:1045500040F0E38218F0400F089A40F0678418F4A6
:10456000007F00F0DA8214780893002588E4D9F8F7
:10457000580002F04BFC4FF0FF33059343E4002E4C
:104580003FF4F8AD002301211A4604918DF8F46040
:104590008DF88B300A9399460F93149311930991D8
:1045A0003DAFCEE4652E40F3CA8000220023DDE952
:1045B000120104F013FE002800F069812B9B224AAF
:1045C000CBF80020013301340122072BCDE92B3435
:1045D000CBF8042000F306840BF1080B249B109AFF
:1045E0002C9C934203DB18F0010F3FF46AAD2B9B28
:1045F000169ACBF80020159ACBF804200133144406
:10460000072BCDE92B3400F317850BF1080B109B1A
:104610005D1E002D7FF755AD102D2B9A0B4B40F3EF
:10462000E782194610262346039FDDF81C900C46AE
:1046300014E000BFFFFFEF7F14A8000010A80000E7
:1046400034A8000020A8000050A8000064A80000C2
:104650000BF1080B103D102D40F3C78201321033CF
:10466000072ACDE92B23CBE90046F1DD2AAA4946EA
:10467000384603F05BFB00284CD1DDE92B230DF11C
:10468000B40BE7E7069B049A9D1A002D7FF7C9AC8F
:10469000102D2B9ABC4B27DD59462046BB461C46A5
:1046A0003746079E04E0103D102D01F1080116DD8C
:1046B000013210301023072ACDE92B200C604B600B
:1046C000F1DD2AAA3146039803F030FB002840F0C0
:1046D000A880103D102DDDE92B202DA9E8DC3E46F9
:1046E00023465F4604468B4601322C44072ACDE917
:1046F0002B24CBE9003500F392820BF1080B90E4F8
:104700002AAA0799039803F011FB00283FF423AD70
:10471000DDF81C900A9911B1039802F045FAD9F816
:104720006420B9F80C30D00702D4990540F1D0814B
:104730005A063FF565AB059857B0BDE8F08F109A63
:104740002B9B012A04F1010403F101050BF108067A
:1047500040F31C810123072DCBF80070CDE92B54C9
:10476000CBF8043000F3BB81159B169A691C1C44DE
:1047700007290B91CDE92B14C6E9002300F3BB8177
:1047800008360B9A531C1D460995109D0E93002266
:104790000023DDE9120105F1FF3906F1080B04F0F1
:1047A0001DFD002840F0C280099DC6F80490013725
:1047B0004C44072D37602C942B9500F3F9800B9A0D
:1047C00006F1100302325E4609929B46199A726006
:1047D0001444099A2C9426AB072A2B9233607FF756
:1047E00070AC2AAA0799039803F0A0FA00288FD189
:1047F0002C9C0DF1B40B64E4179856AF230904F018
:104800000F0143EA05732A091C461546435C07F865
:10481000013D54EA0503F1D1049BDB1B0993FFF72B
:1048200080BBB14676E72AAA0799039803F07EFA7F
:1048300000287FF46DAF2C9C0DF1B40BFFF7DDBBAE
:104840002AAA0799039803F071FA00287FF460AF51
:104850002C9C0DF1B40BFFF7E0BB9846002D08BF70
:104860000A2C80F0708156AF3034012307F8014DD7
:104870000993FFF756BB2AAA0799039803F056FA43
:1048800000287FF445AF2C9C0DF1B40B06E4249B6B
:10489000002B40F37382DDE910239342A8BF134637
:1048A000002B1D460DDD2B9BCBF8007001332C44F3
:1048B000072B2C94CBF804502B9300F3C1820BF1FF
:1048C000080B119B002DA8BF5B1B002B1D4640F35E
:1048D0009980102D2B9A2C4B40F3DB8318462146F0
:1048E0005B461026BB46DDF80C90079C074604E0AB
:1048F0000833103D102D40F3C78301321031072AD1
:10490000CDE92B21C3E90076F2DD2AAA21464846EB
:1049100003F00CFA002840F0A584DDE92B212DAB33
:10492000E7E7CDF8249056AFFFF7FBBAB9F1000FD7
:104930007FF74CAFB9F1100F134B40F3598619466E
:10494000224633461027DDF80CB0079C0E9D0E461C
:1049500007E00833A9F11009B9F1100F40F35383B0
:1049600001351032072DCDE92B52C3E90067F0DD88
:104970002AAA2146584603F0D9F9002840F072844B
:10498000DDE92B522DABE5E764A8000018F0010F1C
:104990007FF4E0AE0122072DCBF80070CDE92B5457
:1049A000CBF8042004DC023309930BF1100B0DE764
:1049B0002AAA0799039803F0B9F900287FF4A8AE52
:1049C000DDE92B34013309930DF1BC0B2DAEFDE66F
:1049D0002AAA0799039803F0A9F900287FF498AE52
:1049E0009DF88B202C9C0DF1B40BFFF7F6BA2AAA88
:1049F0000799039803F09AF900287FF489AE2C9C5C
:104A00000DF1B40B119B18F4806F3B44994640F0B4
:104A10005783249B109A934249DB18F0010F46D12B
:104A2000109ABD18A5EB0905D31A9D42A8BF1D46D3
:104A3000002D0DDD2B9ACBF8009001322C44072A73
:104A40002C94CBF804502B9200F362840BF1080BEA
:104A5000002DACBF5D1B1D46002D7FF732AB102D26
:104A60002B9AC54B40F3C480194610262346039F5A
:104A7000DDF81C900C4605E00BF1080B103D102DE5
:104A800040F3B38001321033072ACDE92B23CBE961
:104A90000046F1DD2AAA4946384603F047F90028C6
:104AA0007FF438AEDDE92B230DF1B40BE6E72B9A4A
:104AB0001699CBF800101599CBF8041001320C446C
:104AC000072A2C942B9200F38C820BF1080BA7E79A
:104AD000D9F8580002F09AF9B9F80C3028E62AAA59
:104AE0000799039803F022F900287FF411AEDDE95D
:104AF0002B542DAE38E62AAA0799039803F016F92D
:104B000000287FF405AEDDE92B342DAE0B9338E69B
:104B1000146808930025FFF795BB146808930025D7
:104B2000FFF7AEB90C680892E51720462946FFF753
:104B3000D2B91468089101220025FFF732BB012A7F
:104B40007FF43CAB8FE608F480630022CDE909A630
:104B5000CDF82C8056AF9246DDF868801E460AE0FC
:104B60000023204629460A2204F0A8FB04460D46ED
:104B700054EA050329D00A2200232046294604F0DE
:104B80009DFB303207F8012C0AF1010A013F002E8B
:104B9000E6D098F800309A45E2D1BAF1FF0FDFD0A5
:104BA000002D08BF0A2CDBD31B9B1899FF1A1A464D
:104BB000384603F04DF898F80130002B00F0968449
:104BC00008F101084FF0000ACAE7049BCDF868809D
:104BD000DB1BCDF840A00A9EDDF824A0DDF82C8078
:104BE0000993FFF79EB9C14694E521461C460B4642
:104BF00001322C44072ACDE92B24CBE900357FF77D
:104C00005EAAEEE518F0100F40F0F88018F0400FA3
:104C100000F05183059A1A805746FFF7A7BA2AAACF
:104C20000799039803F082F800287FF471AD2C9C5B
:104C30000DF1B40BFFF7F5B9DDE9120102460B46A1
:104C400004F0FEFA002840F09184612E00F01181FA
:104C5000412E00F0778348F4807326F02002B9F1EA
:104C6000FF3F0E930492139B00F02D84472A00F01F
:104C70002484002BC0F2F9829DED127BCDE90A005D
:104C80008DED1E7B662E00F0EB83462E00F07E84B9
:104C9000049B0398452B0CBF09F101054D4628AA3A
:104CA00025ABCDE90032022124AB2A469DED1E0B37
:104CB00000F0C2FE672E074640F09C8418F0010FFA
:104CC00040F0F983289B4046DB1BDDF838801093C9
:104CD000249B1193049B472B00F0E781049B462BF8
:104CE00000F000830499119BF2B2412908BF0F32F2
:104CF00003F1FF3306BFD2B201210021002B249320
:104D0000B8BF119B8DF89820BABFC3F101032D22C3
:104D10002B22092B8DF8992000F3F983002940F00C
:104D2000878430228DF89A200DF19B023033137066
:104D3000531C26AA9B1A109A1993012A134409930B
:104D400040F34284099B159A1344099300230F935F
:104D500014931193099B20F4806023EAE37340F4D9
:104D6000807804930B9B002B40F0758299469DF848
:104D70008B20FFF7E2B800BF64A800002B9ABD4962
:104D8000CBF80010013201340121072ACDE92B2490
:104D9000CBF8041060DC0BF1080B2BB9109A1AB990
:104DA00018F0010F3FF48DA92B9A1699CBF800103B
:104DB0001599CBF8041001320C44072A2C942B923D
:104DC00000F382820BF1080B002BC0F2E782109BEC
:104DD00001321C44072ACDE92B24CBE900737FF76D
:104DE0006EA9FEE42AAA0799039802F09FFF002803
:104DF0007FF48EAC0DF1B40BFFF7F0BB059A1A608F
:104E00005746FFF7B3B91488089100250122FFF730
:104E1000C8B9148808930025FFF714BAB1F9004007
:104E20000892E51720462946FFF755B814880893DD
:104E30000025FFF725B82D228DF88B20FFF7A2BAA9
:104E40002AAA0799039802F071FF00287FF460AC4A
:104E50002C9C0DF1B40B34E52AAA0799039802F0B3
:104E600065FF00287FF454AC249B2C9C0DF1B40BFF
:104E700093E730238DF88C307823B9F1630F8DF8E8
:104E80008D3048F0020400F3B08248F481730E9331
:104E900026F0200304930022139B0A92A0463DAF04
:104EA000002BC0F2E3819DED127B8DED1E7B002374
:104EB0000B93612E00F05582412E7FF4E3AE24A8BF
:104EC0009DED1E0B02F03AFE00224FF07F5351EC95
:104ED000100B03F01BFF00220023CDE90C0104F0AE
:104EE0007DF9002840F00583634B0993CDE90FA6B7
:104EF00009F1FF34CDF850902197B946CDF844B070
:104F0000CDF88080DDF824A0DDE90C6703E004F033
:104F100065F920BBA9460022584B3046394603F0BC
:104F2000F5FE0F46064604F0A1F9804603F084FE24
:104F300002460B463046394603F030FD4D461AF81E
:104F400008C005F801CBB4F1FF3FA34606460F4663
:104F50004FF000024FF0000304F1FF34D7D1304688
:104F600039460022464BDDF83CA0109ECDF83CB0FF
:104F70004446CDF84090DDF88080DDF85090DDF8B3
:104F800044B0219FCDE90C0104F050F9002840F015
:104F90007681DDE90C010022394B04F01FF910B1D4
:104FA000E20700F16C810F9B002B07DB0F9B0133A5
:104FB0002B44302205F8012BAB42FBD1EB1B4046C2
:104FC0001093DDF8388083E6CDF81090CDF824906A
:104FD000089481460F90149011909DF88B20FEF755
:104FE000ACBF2AAA0799039802F0A0FE00287FF41C
:104FF0008FAB249B2C9C0DF1B40B11E55242069211
:105000000893FFF76DB9144632461E4613462A46EA
:105010000132099206F10802C6E90039099B2B9377
:105020004C44072B2C943FF7C3AC0133099302F196
:10503000080B1646FFF7CABB2AAA0799039802F085
:1050400075FE00287FF464AB2C9C0DF1B40BFFF7C8
:10505000DEBA4B46062B28BF0623B9460F97149796
:1050600011970A973A460493CDE90843054FFEF796
:1050700064BF00BF50A8000034A80000000030400A
:105080000000E03F48A800000C4639465F469B46BA
:105090000B4601322C44072ACDE92B24CBE90035FD
:1050A0003FF7A5AC0BF1080BACE4119BDA1C02DB5B
:1050B000994580F2B580023E26F02003049311E664
:1050C000109BCDF838805A46DDE91A8BFB18CDF8D5
:1050D0002CA00C97AF4EDDF81CA009934F46DDF8CD
:1050E0000C902146149B002B5BD00F9B002B54D1BE
:1050F000149B013B08F1FF3814932B9B1898106008
:1051000001335944072B2C91C2F804B02B9368DC6F
:105110000832099898F80030C51B9D42A8BF1D466B
:10512000002D0BDD2B9B176001332944072B2C919D
:1051300055602B935EDC98F800300832002DACBF30
:105140005D1B1D46002D26DD102D2B983CDD102407
:1051500003E00832103D102D36DD013010310728F4
:10516000CDE92B01C2E90064F3DD2AAA5146484685
:1051700002F0DCFD002850D1DDE92B012DAAE9E782
:105180002AAA5146484602F0D1FD002845D198F898
:1051900000302C992DAA1F44A4E70F9B013B0F93CD
:1051A000ABE70F9B002BF8D1B946109B0C9FCDF8B5
:1051B0006880FB189945DDF82CA0DDF8388093460F
:1051C0000C4628BF994624E4013029440728CDE93C
:1051D0002B01C2E90065D3DC98F8003008321F4487
:1051E00080E72AAA5146484602F0A0FDA8B92C99AA
:1051F0002DAA8EE72AAA5146484602F097FD60B9CB
:1052000098F800302C992DAA98E73846FEF798FCBC
:10521000A94603460990FFF7F4B8D146FFF77ABADA
:10522000109B1946119B994200F38280C40740F1FC
:105230006B81159A13440993410503D5119B002BEB
:1052400000F3E680099B23EAE373049367260023B7
:105250000F93149386E52D228DF88B204FF00009D3
:10526000FEF76CBEA146FFF755BA0A90DDE91212AF
:1052700002F100431F932D231E910B9319E6109BFF
:105280002893099B15F8012CD97B91422B4609D113
:10529000302003F8010C289B5A1E289213F8012C89
:1052A0009142F6D0392A0BBF099A0132927AD2B2D2
:1052B00003F8012C82E618F4007F3FF49FAD059AB5
:1052C0001A705746FEF752BF2AAA0799039802F0B0
:1052D0002DFD00287FF41CAA249BDDE92B240DF171
:1052E000B40B71E5119B002B40F36481119BB9F164
:1052F000000F40F00381C60700F100810993662684
:10530000430500F18680099B23EAE37304939EE73B
:105310002AAA0799039802F009FD00287FF4F8A94A
:10532000249B109A2C9CD31A0DF1B40BFFF790BB61
:10533000109B159A13440993119B002B40F349814C
:105340006726DDE730238DF88C30582395E50398E8
:105350002AAA494602F0EAFC00287FF4E0A9FEF7F9
:105360000FBF24A89DED1E0B02F0E8FB00224FF0BA
:105370007F5351EC100B03F0C9FC00220023CDE950
:105380000C0103F02BFF08B101232493024B099376
:10539000ACE500BF64A8000020A800005D42103307
:1053A000B94B80F29780194610262346DDF80C9001
:1053B0000C4605E00BF1080B103D102D40F38780E3
:1053C00001321033072ACDE92B23CBE90046F1DD6A
:1053D0002AAA0799484602F0A9FC00287FF498A958
:1053E000DDE92B230DF1B40BE6E709F10101039888
:1053F00001F096FD0746002800F03B8148F48173D8
:105400000E9326F020030493A046139B0A9047E5D1
:1054100067261A9800220F9214920378119AFF2B94
:105420000CD093420ADA4178D21AA9B1149B013305
:1054300014930B46FF2B00F10100F2D11192149B43
:105440000F9A09991A9013441B9A02FB03130993AC
:1054500023EAE373049385E40F9901310F91DEE7AA
:1054600028AA25ABCDE90032032124AB4A469DEDA5
:105470001E0B039800F0E0FA4D46074600EB0904C6
:105480003B78302B00F0BE80249D2C44002200236A
:10549000DDE91E0103F0A2FE08B1234613E4289BB8
:1054A000A342BFF410AC30215A1C28921970289BDB
:1054B0009C42F9D807E47C19E8E7B9F1000F00F045
:1054C00092800A90ECE40A904FF00609E8E4214645
:1054D0001C460B4601322C44072ACDE92B24CBE98C
:1054E000003500F3A9800BF1080B70E49A46FFF732
:1054F00037BB01232493654B0993F7E4159A1344B2
:105500004B4409936626FBE6119B099394E60DF143
:10551000A70C64465E4D00E01446A5FB0312D208BA
:1055200002EB8201A3EB410303F130011346092B87
:1055300004F8011C04F1FF32EEDC3033023CDBB234
:10554000A44502F8013C40F290800DF19A04114606
:1055500001E011F8013B04F8013B8C45F9D12AAB7D
:105560009B1A0DF19A021344FFF7E3BB139B494FBB
:10557000002BB6BF2D229DF88B208DF88B20464B3B
:10558000FEF702BFDDF81C90FFF7C9B828AA25ABCB
:10559000CDE90032032124AB4A469DED1E0B039852
:1055A00000F04AFA4D460746462E07EB05043FF445
:1055B00067AF6BE7B9F1000F31D1C5072FD40123D5
:1055C00004930993662642E6C3077FF5BFABFFF756
:1055D000B9BB099AC3F101031A4422EAE2730992A2
:1055E0000493672633E6CDF828904FF0010957E47D
:1055F0005A4611E5472E7FF45EAF18F0010F3FF4D5
:1056000061ABD1E700220023DDE91E0103F0E6FDD6
:1056100000287FF439AFC5F10105249535E7159BC6
:1056200001334B44099323EAE373049366260EE6A1
:105630000DF19A02FFF77ABB2AAA0799039802F0A4
:1056400075FB00287FF464A8DDE92B240DF1B40B71
:10565000FFF7BDBB08999AF801600B6843EAE3794C
:105660000B1D92460893FEF759BB0DF19A03FFF705
:1056700060BBDDF81C90B9F80C3043F04003A9F88A
:105680000C30FFF74CB800BF64A8000034A800003D
:10569000CDCCCCCC1CA8000018A800002DE9F0410E
:1056A0000C46ADF58D6D8989666EE589199621F0F8
:1056B00002010646E069ADF80C1017464FF4806110
:1056C000626AADF80E5098461AAD0023079016A8EE
:1056D00009920693009504950291059101F090FBC3
:1056E00043463A4669463046FEF79AFA051E07DBFE
:1056F0003046694601F05AF9002818BF4FF0FF35CF
:10570000BDF80C305B0603D5A38943F04003A381A9
:10571000169801F077FB28460DF58D6DBDE8F081F8
:1057200021B1FF2A04D80A7001207047084670474B
:105730008A2303604FF0FF30704700BF38B5314B0C
:105740001B6805460C4613B19A6B002A3AD0B4F98F
:105750000C2093B218070CD52069A8B113F00102F0
:1057600020D0636900225B42A361A26000B30020E5
:1057700038BDD9063ED5580728D4206942F0080321
:10578000A3819BB20028E9D103F42072B2F5007F17
:10579000E4D02846214601F069FBA389206913F073
:1057A0000102DED1990758BF6269A2600028DED1EC
:1057B000B4F90C301A06DBD543F04003A3814FF057
:1057C000FF3038BD184601F04DF9C0E7216B51B1EB
:1057D00004F14003994204D0284601F0E5F9B4F9F8
:1057E0000C200023236300232069636022F024023D
:1057F0002060C3E742F0400209232B604FF0FF30E6
:10580000A28138BD20000020024B13B1024800F0F5
:1058100079B8704700000000D56A00002DE9F04F0C
:10582000354B85B00F460390186801F0EDFA334B05
:105830001B68019303F5A4730293B946019BD3F847
:1058400048613EB3DDF808A04FF001087468651E9A
:105850000FD4013406EB84040027B9F1000F20D0E7
:10586000D4F800314B451CD0013D6B1CA4F104045D
:10587000F3D1234B73B1D6E90032002A34D1002B87
:1058800032D03046CAF8003001F042FBDAF800604E
:10589000002EDBD1184B186805B0BDE8F04F01F0C1
:1058A000B5BA73682268013BAB420CBF75602760D4
:1058B000002AD9D0D6F88811D6F804B008FA05F332
:1058C0000B4208D1904773685B45B7D1DAF80030D6
:1058D000B342C9D0B2E7D6F88C01D4F880100342A5
:1058E00007D103989047EEE7B2461E46002EADD191
:1058F000D0E708469047E6E7BC050020FCA700007B
:10590000116F0000002301461A46184602F018BA2B
:105910002DE9F04F03690F69BB4283B0C0F2868066
:10592000013F01F1140900F1140A59F827205AF82F
:105930002730BC000132B3FBF2F80AEB04030094F9
:1059400009EB040B0193B8F1000F38D000252E4667
:10595000CE46D4465EF8044BDCF80030A2B208FB19
:105960000255220C2C0C08FB0242ADB2751B96B2FC
:10597000C6EB134615FA83F306EB23469BB243EAC4
:105980000643F3454FEA12454CF8043B4FEA2646DE
:10599000E0D2009B5AF803308BB9019A131F9A4545
:1059A0000CD252F8043C4BB9A2F1080302E01A6889
:1059B000043B1AB99A4507F1FF37F8D3076104464B
:1059C00001F0C8FF00282DDB08F10108554600232F
:1059D00059F8041B28688AB29A1A0B0C12FA80F242
:1059E000C3EB104303EB224392B242EA0342CB459E
:1059F00045F8042B4FEA2343EAD25AF827200AEB52
:105A000087037AB91A1F92450BD253F8042C42B976
:105A1000083B02E01A68043B1AB99A4507F1FF37C0
:105A2000F8D32761404603B0BDE8F08F002003B0F3
:105A3000BDE8F08F000000002DE9F04F55EC104B51
:105A40009BB0066C0291814607920593CDE9004513
:105A500056B1426C726001239340B360314601F04D
:105A600089FD0023C9F84030B5F10008249AB4BF7D
:105A7000012300231360764BBCBF28F00048CDF80B
:105A8000048033EA080300F0A680DDE90067002205
:105A900000233046394603F0A1FB054678B1059A4C
:105AA00001231360259B002B00F0C080694B259AD1
:105AB00003F1FF3B136058461BB0BDE8F08F18AAF6
:105AC00019A947EC106B484601F0D6FF5FEA18545D
:105AD000824640F0A080DDE918542C4404F23243A1
