:1000000000000120054700002D470000E116000018
:100010003147000033470000354700000000000072
:100020000000000000000000000000003747000052
:1000300039470000000000003B4700003D4700003A
:10004000792A00003F4700004D3200005D39000072
:10005000353500003F470000992F0000893300002C
:100060002D3900003D3900003F4700003F470000A8
:100070003F4700003F4700003F4700003F47000068
:100080003F470000D11100003F4700003F470000FC
:100090006D1200003F4700003F4700003F4700004F
:1000A0003F4700003F4700003F4700003F47000038
:1000B000413300003F470000000000000000000046
:1000C0003F47000051330000613300003F4700000C
:1000D0003F4700003F4700003F470000000000008E
:1000E0000000000000000000000000000000000010
:1000F0000000000000000000000000000000000000
:1001000000000000000000000000000000000000EF
:1001100000000000000000000000000000000000DF
:1001200000000000000000000000000000000000CF
:1001300000000000000000000000000000000000BF
:1001400000000000000000000000000000000000AF
:10015000000000000000000000000000000000009F
:10016000000000000000000000000000000000008F
:10017000000000000000000000000000000000007F
:10018000000000000000000000000000000000006F
:10019000000000000000000000000000000000005F
:1001A000000000000000000000000000000000004F
:1001B000000000000000000000000000000000003F
:1001C000000000000000000000000000000000002F
:1001D000000000000000000000000000000000001F
:1001E000000000000000000000000000000000000F
:1001F00000000000000000000000000000000000FF
:1002000010B5054C237833B9044B13B10448AFF350
:1002100000800123237010BDE009002000000000D1
:1002200048C1000008B5034B1BB103490348AFF3B5
:10023000008008BD00000000E409002048C1000063
:10024000154B002B08BF134B9D46A3F5803A0021A8
:100250008B460F461348144A121A04F071FB0F4BD9
:10026000002B00D098470E4B002B00D09847002061
:10027000002104000D000D48002802D00C4806F0B3
:10028000E1FB04F06DFA2000290000F005FA04F00B
:1002900057FA00BF00000800000001200000000025
:1002A00000000000E0090020481D0020456A000011
:1002B000157C00000000000008B501F029F909F0E4
:1002C00013FF05A3D3E900230AF0A2F80AF04EFABF
:1002D00008BD00BFAFF30080FCA9F1D24D624040E1
:1002E0002DE9F04F2DED028BBD4C83B00646FFF794
:1002F000E3FF25880746002D00F02781B94DAB7834
:1003000013F0010FB84B1B7814BF29262A26002BA7
:1003100000F08C81238805EB43035B8908EE103ADB
:10032000032BBAEECF8A40F2778118EE100A09F05B
:10033000EDFE02460B4680468946A3A1D1E90001A5
:1003400009F084FDA2A3D3E9002309F037FF9EA39F
:10035000D3E900230AF05CF842464B460AF058F80D
:1003600041EC100B09F0B8FB09F0BEFE9AA3D3E9EB
:10037000002309F023FF0AF0D1F922889B4B07EEF6
:10038000902A1B88F8EEE76A07EE903A984BF8EE51
:10039000E77A93ED007AE6EE877AB0EE677A07EEB9
:1003A000900AF8EEE77A77EE277A9FED927AF5EEEB
:1003B000C07AF1EE10FA40F1318177EE877AFCEEE7
:1003C000E77A8D4917EE903A5B0001339BB25B08E8
:1003D00007EE903A0A230B70531CEA7881ED028AEB
:1003E0009BB2FAEECD7A06F001069A424FF0000079
:1003F0002380C1ED017A0E7398BF208003B0BDEC5D
:10040000028BBDE8F08F01A801F00AF90028FAD1AB
:10041000019A002A0DDBB9F1090F27D8DFE809F0AE
:1004200005171D20404453588B8EAA2A1ED04FF02A
:100430000009C846C146FFF73FFFC01BB042E2D9E2
:10044000B9F10A0F00F087806FF00100D6E76B4B1F
:1004500045F2AA511980552AE8E7694B1A8005E050
:1004600067490B8803EB02230B80D5B209F1010821
:100470005C4BB8F10A0F03F80920DBD1FFF71CFF32
:10048000584ADFF88CA107466D004FF000099044F0
:10049000FFF712FFC01B864260D2A9457CD0D3E78C
:1004A000D107C4D5514BD9E75049DFF850C10B886B
:1004B000BCF8000003EB02239BB258405B08ACF889
:1004C00000000B80D2E7D307B1D5ABF80020CDE711
:1004D000BBF800304B4903EB02239BB20B80012D8C
:1004E0004FEA5303ABF80030414902D100230B60BF
:1004F000BCE73E48B0F800C04348634507D2BCF5AE
:10050000874F16D9B3F5B45F13D203F5B443A3EB09
:100510000C0307EE903A6B1E07EE103AF8EEE77AFE
:10052000B8EEC77AC7EE876AC1ED006AC0ED006A0F
:100530009CE70368DBE7AAF8002097E7BAF80030E9
:1005400003EB0223AAF8003090E7A946DFF8BCA02D
:10055000DFF8C0B06FE74FF000088FE701A801F0A7
:100560005FF80028FAD1019A002A91DB19F0010FF7
:1005700091B223D0BAF8003003EB01231F49088859
:100580009BB2AAF8003043400B8008F8092009F11B
:1005900001094D457FF47CAF184A19491388098831
:1005A0004B40184909884B401380184A12889A42D8
:1005B0000D4B14BF002201221A709FE6AAF800100A
:1005C000E3E700BFAFF300809A9999999969634076
:1005D000CDCCCCCCCCCC35408FC2F528DCA5AC4002
:1005E0001E0B0020140A002000000020000A00203A
:1005F000040A00200000B446200B0020FE09002061
:10060000100A00200E0A0020080A0020FC09002021
:10061000120A00200C0A00200020AEE6F4EEC77A91
:10062000F1EE10FAC8BF77EEC77AC8E623800BE771
:1006300010B5034B04460FCB84E80F00204610BDD5
:10064000200B0020014B01221A707047300B002054
:100650000378022B04D1054A3F21406800F06BBAB1
:10066000012B02D1014A4321F7E7704772AB00002A
:1006700038B5054C05462A460021204600F0B0FB5F
:100680001128F8D038BD00BFD8AA0000014800F0FA
:1006900053BD00BFD8AA00002DE970438EB03B4B7C
:1006A0003B4A09934FF48073CDE90B230A93394AEF
:1006B0003948072309A900F071FF18B1374A7021A2
:1006C00000F039FA4FF40041002001F06DFD18B13F
:1006D000324A772100F02FFA01F098FC3048314D72
:1006E00004F078F94FF0A0434FF40002C3F8182546
:1006F0004FF08072C3F818254FF00072C3F8182528
:100700000FCD09AC0FC42B68274A2848236009A9DC
:1007100000F070FB18B1214AA02100F00CFA1E2055
:10072000FFF7A6FFFFF7B2FF2148224C224E04F04C
:1007300051F9224804F04EF944F001044FF4FA70E4
:10074000FFF7CEFDD8B905A8FFF772FF069809F0AC
:10075000DDFC9DED077A9DF814300293F2EE047AE9
:10076000C7EE277A8046894617EE900A09F0CEFC3C
:100770004246CDE900014B46304604F02BF9642592
:100780004FF47A40A047013DFAD1D7E7310B002062
:10079000580C002051060000E0AA000072AB0000D7
:1007A00010AB0000C4AA000045060000D8AA000053
:1007B00022AB000000AB00004BAB000031AB0000EF
:1007C00038B5054D044645F001054FF47A40A84779
:1007D000013CFAD138BD00BF00AC00007FB5064631
:1007E0000D46144672B601F007FF01F037FD0028F0
:1007F000FBD1374804F0EEF844F201039E4254D096
:1008000044F202039E425ED122886168314804F0BE
:10081000E1F802F0D3F908B902F09AF90023ADF833
:100820000C308DF80E3003A9012319208DF80D30FE
:1008300002F0CEF903A9182002F0CAF903A9172083
:1008400002F0C6F9192002F0C7FA182002F0C4FA23
:10085000172002F0C1FA4FF4FA70FFF7B1FF192028
:1008600002F08CFA182002F089FA172002F086FABA
:100870003220FFF7A5FF192002F0AEFA182002F08F
:10088000ABFA172002F0A8FA4FF4FA70FFF798FFBE
:10089000192002F073FA182002F070FA172002F003
:1008A0006DFAFA20FFF78CFFCCE7A668304602F01D
:1008B000D9F82368019500930246636806483146DB
:1008C00004F088F8A5E72946044804F083F8A0E777
:1008D00079AB000092AB0000ADAB0000D7AB0000DD
:1008E00007B502F06BF908B902F032F90023ADF850
:1008F00004308DF8063001A9012319208DF8053048
:1009000002F066F901A9182002F062F901A9172086
:1009100002F05EF9192002F05FFA182002F05CFA8A
:10092000172002F059FA4FF4FA70FFF749FF192027
:1009300002F024FA182002F021FA172002F01EFA21
:100940003220FFF73DFF192002F046FA182002F08E
:1009500043FA172002F040FA4FF4FA70FFF730FF25
:10096000192002F00BFA182002F008FA172002F002
:1009700005FAFA20FFF724FFCCE70369C1688B4230
:100980009DBF8268D21802F1FF3203F1FF3394BF9A
:10099000501A581A70472DE9F041D0E90267044611
:1009A000F61B4068964288461546384405D903F040
:1009B0002DFF3D44E560BDE8F0813246AD1B03F0FC
:1009C00025FF2A4608EB0601606803F01FFFF1E7E8
:1009D0002DE9F843C5680646894617464FF00008DA
:1009E0003469B3687068A54228BFE418013C621BF3
:1009F0005C1BBC4228BF3C46944228BF1446494673
:100A00002844224603F002FFB3682544AB4208BFE6
:100A100000253F1BA044A144F560E1D14046BDE85C
:100A2000F883000010B5114C114AA2610223C4E9F9
:100A30000433104BE361A2644FF400730E4A236247
:100A4000E264002310220D49A362E01D6362E362A9
:100A5000A3656365E365226504F098F808492046BC
:100A600004F094F82023A37110BD00BF9C1C00204B
:100A700006AC000088110020781100200FAC0000A7
:100A800013AC0000F8B5184C182300FB033503FB2A
:100A900000402544C46A012C0F46164611D003D3EA
:100AA000022C1BD000240AE02846FFF766FF86428E
:100AB00005D8324639462846FFF76DFF34462046B2
:100AC000F8BD2846FFF759FF8642344628BF044642
:100AD000224639462846FFF75EFFF0E72846BDE884
:100AE000F840FFF775BF00BF9C1C002070B50B4B92
:100AF0001B7804460D4616460BB9FFF793FF0020FE
:100B000000F0C6FD324629462046FFF7BBFF0446EB
:100B1000002000F0CDFD204670BD00BF9C1C0020D1
:100B2000FFF780BF10B511461C461A460020FFF79C
:100B3000DDFF204610BD00B583B002900091019208
:100B400044F2010071466A46FFF748FE03B000BD5B
:100B50002DE9F8430468054694F8200002F00EFBE6
:100B600004F11807FF264FF0FF394FF00008207AF4
:100B7000FF2802D002F002FB2672607AFF2802D022
:100B800002F0FCFA66722068431C03D002F0AEF853
:100B9000C4F8009084F80B800C34BC42E7D168683C
:100BA000BDE8F84302F004BE2DE9F041134DDFF833
:100BB00050800E460024012705EB41052B5D5BB1FB
:100BC0002B5D013BDBB22B552B5D93B958F82630DA
:100BD0001B683046DB6998474CB167B1084B53F846
:100BE000263002215868BDE8F04102F07DBE0124A4
:100BF000E4E70027F0E7BDE8F08100BF141D002006
:100C00008813002040680C4902798B5CDBB2FF2B13
:100C10000DD0FE2B0DD0006803F5A87350F82330DB
:100C2000064850F82200984203D1FF238B5400203D
:100C300070470120704700BF9C130020A4130020C0
:100C40002DE9F84F012904460D469046066804D95F
:100C50005E4940F25B2000F0DFFD0C2303FB0563DF
:100C6000DB7A012B04D059494FF4177000F0D4FD02
:100C700096F82130022B40F0A4800C276F43F31923
:100C80005B68984508D1F36913B90020BDE8F88F77
:100C9000626810799847F8E72046FFF7B3FF83466C
:100CA000002840F090806368DFF830A11B79FE22B5
:100CB0000AF80320266896F8200002F0B1FAD1461F
:100CC000B8F1000F1FD13744787A02F0A9FA387AC8
:100CD00002F090FA63681B79FF220AF803200C23C4
:100CE00003FB0566C6F804802368DB69002BCCD0C3
:100CF00063681A79364B03EB420302215955606849
:100D000002F0C6FDC1E7B169884507D337441FFA31
:100D100081F8387A02F084FA787AD9E705EB45074A
:100D2000BF00F31960685A68914245D0002A43D049
:100D3000904541D25B46032102F078FDD4F804A02F
:100D400096F820B09AF80530032B04D8214940F2D8
:100D5000751000F061FDDAF80030F05903F5A67A5D
:100D60000C2303FB05639B7A1BB302F0B9F8024620
:100D70005146584602F01EFA96F8200002F03AFA60
:100D800063681B7909F8035063681A79124B43F8BA
:100D900022800C2707FB056700234246294660682E
:100DA00002F044FD387A02F025FA787A02F022FA4D
:100DB00095E702F071F8DAE70379FF2209F80320DA
:100DC000E7E7082062E7112060E700BF1AAC0000E7
:100DD000141D00205EAC0000A41300209C13002012
:100DE00003681B8B5A436423B2FBF3F292B2FFF702
:100DF00027BF00002DE9F04F89B08A4605920446CE
:100E000020B9C34940F2113000F006FDBAF1000FDD
:100E100000F07981266896F82130002B40F075812A
:100E200000F0D0FD08B1852821D101F0C7FE00B344
:100E3000B84B1B6803F0F003302B20D10023B64AD7
:100E400000211370FF234FF0FF3286F82030F1723B
:100E5000337273723260F17532757375F26006F138
:100E6000200002F05FF960B12046FFF771FE042513
:100E700018E001F06DFE0028DAD0032512E001230E
:100E8000DDE705465AF825B0EBB2BBF1FF3F04930E
:100E900000F0AE80276897F8211049B10825204658
:100EA000FFF756FE284609B0BDE8F08F0125E9E7B7
:100EB0000AEB05024FF00C0808FB05F8137A0293C1
:100EC00007EB08024FF001095160937203228DF87D
:100ED00018202268424406A9927A8DF81A90B2FA34
:100EE00082F2520958468DF8192001F071FEE8B9D6
:100EF000029B47F808B0002B00F0EB80BBF11F0FFE
:100F000004D986494FF4F37000F086FC4FF0A042FC
:100F100009FA0BF3C2F80C354FF00C0909FB05F97F
:100F200009F10800384402F0FDF808B10425B6E7DD
:100F300009F10900384402F0F5F80028F6D1B94467
:100F400099F8080002F06CF999F8090002F068F9C4
:100F5000029B57F80800002B00F0CA8001F0C0FF88
:100F6000814657F8080001F097FF0C2303FB057337
:100F7000049993F808B063685A798A42804606D883
:100F80006749029340F2751000F046FC029B1B6813
:100F900005F150014A4603EB8101584602F00AF977
:100FA0000C2303FB0573D4F804B093F809909BF865
:100FB0000530022B04D85A4940F2751000F02CFC81
:100FC000DBF80010424601F5A471484602F0F2F841
:100FD0000C2303FB05770123FB726368514A1B79DD
:100FE000049902EB4303204600225A55FFF728FEDE
:100FF000002D3FF45BAFDAF810200023B2F5805FDC
:1010000001D3092B7CD1444A127812B1002B08BFBE
:1010100001238DF8183000238DF819308DF81A301F
:101020006068414A07238DF81B300379079306A9AE
:1010300002F0D8FA054600287FF431AF6368DAF889
:1010400010001B68D3F81015C9B2050FC1F1200CB0
:101050000001A1F1200720FA01F805FA0CFC48EA8A
:101060000C0825FA07F725FA01F948EA0708B9F14B
:10107000010F08BFB8F1000F08D32C4940F2B1208E
:10108000CDE9028900F0C8FBDDE90289C6F81880C5
:101090006068CDE9028902F0B3FBDDE90289012530
:1010A0000095042342460221606802F0DAFB022127
:1010B000606802F019FC059BF36163681C4A1B79A8
:1010C00086F8215042F823401A4AFF21D1540025C6
:1010D000E8E6BBF11F0F04D910494FF4F37000F09C
:1010E0009BFB4FF0A04209FA0BF3C2F8083513E757
:1010F00001F0D2FE814657F8080001F0F1FE34E716
:10110000520801337AE70B25CCE60825CAE600BF72
:101110001AAC0000E80F00F0B8130020A9AC0000E2
:101120005EAC0000141D0020A90B0000E6AC00001E
:10113000881300209C1300202DE9F047076897F8DA
:101140002130044623B91B4940F2973000F064FB7C
:101150000026DFF868903D46B0464FF00C0A636801
:101160001B7909EB430303F80680EB7A73B123681C
:1011700028680AFB0633997AB1FA81F1490901F02E
:10118000D3FE286801F056FEC5F804800C357EB108
:101190006368094A1B79FF21D154606802F030FB73
:1011A000606802F0CFFA022387F82130BDE8F087AB
:1011B0000126D4E71AAC00009C130020141D002067
:1011C000024B4FF43C6043F00103184730AD000080
:1011D000F8B51F491F4B0025C1F84051C1F84451D3
:1011E000C1F84851C1F84C51C1F80051C1F804513F
:1011F0001B684BB3D1F8044517490968641A24F0F9
:101200007F442F461A68A24209D8A41A15441A7CB2
:10121000DE691AB11F74D3E905209047AEB90F4BB0
:101220000F4A197813788B4205D10133DBB2022BB8
:1012300008BF0023137012780A4B43F822500A4B60
:101240004FF48012C3F80021F8BD3346DAE700BF3F
:1012500000100140DC140020D8140020D414002019
:10126000D5140020CC14002000E100E02DE9F74F58
:101270009C4A9D49137809789C4D99423CD0013392
:10128000DBB2022B08BF0023137099491278994BE7
:101290000F6853F822003B1823F07F4300220B60B5
:1012A0002B6816461446944613B942B12B6006E0EB
:1012B000196881420ED902B12B60091A19604FF0EA
:1012C00001082B68DFF834A200930027BEB9DFF8CD
:1012D00034B260E0401A0C44D968C3F800C0D3F8B7
:1012E0001CE031B13A1922F07F42C3E90121DE61ED
:1012F0001E4601227346D7E70026B046E1E7344692
:10130000F6697B4A63681268DFF8FCC1A068991A25
:1013100021F07F41614500F2A58001442160012256
:1013200022742A680023C4E90133E361002A40F0F3
:10133000A2802C60CAE75A1C9BF80210D2B29142DC
:101340008BF8002004BF00228BF80020182202FB3B
:1013500003B32A6819799C68022974D003297ED0C6
:10136000012918D1217CB1B9DA6862601A69A260DA
:101370005A69E2609B69A3615F4B1B78002BC0D068
:101380006160BEE79C4200F090809946DB69002BCB
:10139000F8D1002323749BF800309BF801209A4277
:1013A000C9D12B682FB9009A934202D1B8F1000F2E
:1013B00043D0002B41D0D3F800A0504D4C4BD5F872
:1013C00004751C68DFF844813E1B98F8003026F055
:1013D0007F4603369BB94FF48033C5F84433C5F8D4
:1013E0000433474B4FF400324FF00109C3F880211A
:1013F0001A60C5F80090FFF7E3FE88F80090B24548
:101400002CBF5444A41924F07F44C5F84045D5F8B6
:101410000435DB1B23F07F43E41B033324F07F44BC
:10142000A3420AD9D5F80435C5F84035FFF7C8FE00
:10143000334B4FF40032C3F800212F4B00221A70B7
:1014400003B0BDE8F08F13469146A0E71174D2694E
:101450000123002AFAD1002B9DD02A609BE70023AC
:101460001946F6E7D31A23F07F43834234BFC31AE9
:101470000023236053E721681368994213D8591A4F
:101480001160E26155E7091AD8691A4638B1034676
:1014900018688842F7D3401A18601846134621602E
:1014A000E061DC6112E71346F2E74C450DD1D369E8
:1014B0002B6053B90E4801920121CAF8081003604D
:1014C0000D4B1970FFF77CFE019AE1692368C9F89A
:1014D0001C1011B1086803440B602B689A4218BFB6
:1014E000012756E7D4140020D5140020DC14002076
:1014F000D8140020CC140020C81400200010014093
:1015000000E100E0BC130020FEFF7F00C9140020B2
:10151000014BD3F804057047001001400648074A04
:1015200003780749D35C012213B1043002F0EABE0C
:101530000C3002F0B5BC00BF040000201E1D0020CE
:10154000E414002013B50478012C10D104238DF885
:10155000003043681B788DF80430FFF7DFFF0D4B38
:101560001C700D4B1B686846984702B010BD022CDA
:1015700006D1C3688DF800400193FFF7CFFFF0E775
:10158000002CF2D102A8032300F8083D024B1B688F
:10159000EAE700BFE5140020E0140020F0B51B4D81
:1015A000064617469C460FCD89B06C460FC495E899
:1015B0000F0084E80F0073690693337C8DF81CC01C
:1015C000003318BF01238DF81430737C1048002BB2
:1015D00014BF0E2300238DF81530F3680293B3680F
:1015E000039333680193736800930A4B1F600A4B9F
:1015F00000221A706946094A00F022FA20B93368BD
:10160000013301D0FFF78AFF09B0F0BD38AD00000B
:1016100004000020E0140020E5140020451500001F
:1016200010B5044618B90749762000F0F5F8064BC6
:101630001A782AB1054A002012782270187010BD5D
:101640000520FCE758AD0000E5140020E41400205C
:1016500072B6024A1368013313607047E814002021
:10166000034A1368013B136003B962B6704700BFB9
:10167000E8140020EFF30583C3F308032BB9EFF35D
:101680001480C04300F00100704701207047000043
:1016900008B5FFF7EFFF012803D00449432000F00D
:1016A000BBF8BDE80840FFF7D3BF00BF9EAD000008
:1016B00008B5FFF7DFFF012803D00449512000F0EF
:1016C000ABF8BDE80840FFF7CBBF00BF9EAD000000
:1016D000024B1B680021986803F090B92400002099
:1016E0001EF0040F1CBFEFF309800AE0EFF308803F
:1016F0000549064A884201D8904202D88D464FF0EB
:101700000000034B184700000000012000E000200B
:10171000151700002DE9F347054600F06DFF00F0B6
:101720009DFD0028FBD12F4B2F4C9F6A2F4BE41AB5
:10173000E408240444F00104002D4ED0AA692C4989
:10174000204600F00BFFEB680193AB68009329493A
:10175000D5E90023204600F017FFEB6900932649E6
:10176000D5E90423204600F003FF1E4BDB6A9807EF
:1017700003D52249204600F0EDFEDFF89490DFF813
:1017800094A000264FF0010808FA06F33B4206D069
:1017900059F826201AB15146204600F0DFFE0136E6
:1017A0001A2EF1D1390605D50E4B15495A6B204634
:1017B00000F0D4FE3A0405D50A4B12499A6B204634
:1017C00000F0CCFE104B1B68DB0700D500BE28469E
:1017D000FFF786F802B0BDE8F0870C49204600F01C
:1017E000B9FEC2E700ED00E0B4C100004CC100004A
:1017F000EDAD000002AE000037AE000092AE00007A
:10180000E1AE000001AF0000F0ED00E05FAE0000CF
:101810001CAF0000D6AE000007B5ADF80000019186
:101820006A46002144F20200FEF7D8FF03B05DF8DB
:1018300004FB50E8002F0B4640E8003C9CF0000FF2
:10184000F7D11046704750E8003F43EA010240E8F4
:10185000002C9CF0000FF6D11046704750E8002F86
:1018600002EA010340E8003C9CF0000FF6D110466C
:10187000704750E8003F03EB010240E8002C9CF069
:10188000000FF6D11046704750E8003FA3EB01026D
:1018900040E8002C9CF0000FF6D110467047012163
:1018A000FFF7D1BF0021FFF7D9BF000010B50446F4
:1018B000002834D003681BB91A49FF20FFF7ACFF9A
:1018C000636823B917494FF48070FFF7A5FFA36839
:1018D00023B9144940F20110FFF79EFFE36823B9D2
:1018E00010494FF48170FFF797FF238A23B90D4900
:1018F00040F20310FFF790FFD4E9012321689B1AFF
:10190000DBB20A60013BDBB2FF2B226802D1002070
:10191000107110BD1168481C10600B70F2E70E20AA
:10192000F7E700BF44B4000038B5044620B91249B7
:101930004FF49270FFF770FF0020FFF7A9FE2268B6
:10194000616813688B4215D9591E116013F8015C48
:10195000228AE36802FB05352268A36811685B1AD6
:101960001179DBB2994200D213710020FFF7A0FE7B
:10197000284638BD0025F8E744B4000038B50C46C9
:10198000054620B90E4940F24710FFF745FF24B93C
:101990000B494FF4A470FFF73FFF0020FFF778FEDC
:1019A0002A681368591C1160EA68A41A2A8AB4FBD1
:1019B000F2F41C700020BDE83840FFF779BE00BF8C
:1019C00044B40000034B187810B901221A70704714
:1019D00085207047EC1400201FB503788DF8003087
:1019E0004368019383688DF80830C3680393054A00
:1019F000054B684653F8213052F82110984705B03E
:101A00005DF804FBF0140020F41400201FB50378E7
:101A10008DF800304368019383688DF80830C368FF
:101A20000393054A054B684653F8213052F82110BC
:101A3000984705B05DF804FBF0140020F414002072
:101A4000F0B5194B067891F81DE043F82620174BA6
:101A500094460A6943F82620154B03F806E00C4625
:101A600007460FCC89B06D460FC594E80F0085E896
:101A70000F000496BEF1000F0AD0BCF1000F0D4A12
:101A8000694608BF0022381D02F034FB09B0F0BDE2
:101A9000BCF1000F084A694608BF002207F10C009C
:101AA00002F0FEF8F2E700BFF4140020F01400206A
:101AB0001E1D0020D91900000D1A000010B50446A3
:101AC00018B906493120FFF7A7FEA2682AB1636959
:101AD0002168206998470023A36010BD94B40000DA
:101AE0000EB433B5059D044618B912494220FFF7DC
:101AF00093FE63691BB90F494320FFF78DFE2368EE
:101B00001BB90C494420FFF787FE63681BB90949DC
:101B10004520FFF781FE3DB102AA06AB42F8043D25
:101B20002946204600F06EF802B0BDE8304003B010
:101B3000704700BF94B40000826830B40468551C3C
:101B40008560A154D0E901329A4202D330BCFFF73C
:101B5000B5BF30BC704700002DE9F84F9946DDE96C
:101B60000A431746824688460A460126BA420FD2E1
:101B70004E4538BF4E4613F0010B01D164B9002425
:101B80000125B9F1010F1AD909F1FF397D43F8E7B1
:101B9000B2FBF7F20136E9E79B070ED5B9F1000F6A
:101BA0000CBF30252025A642EAD2013C29465046EA
:101BB000FFF7C2FF002CF6D1E1E72025F3E7B8FBE1
:101BC000F5F39F42E2D9DFF83890B8FBF5F35046C1
:101BD00019F8031005FB1388FFF7AEFFB5FBF7F507
:101BE000002DF2D1BBF1000F02D00CB1A64201D3FF
:101BF000BDE8F88F20215046013CFFF79DFFF4E738
:101C0000D4B400002DE9F74F0E469046054620B9A2
:101C1000AC494FF4A270FFF7FFFD6B6923B9A949E6
:101C20004FF4A370FFF7F8FD2B6823B9A54940F2E4
:101C30004710FFF7F1FD6B6823B9A2494FF4A47078
:101C4000FFF7EAFD002E00F03A8116F8011B00298B
:101C500058D0252940F0D180002702E047F0010745
:101C60001646324612F8013B2D2BF7D0302B04D00C
:101C70002B2B05D147F00407F2E747F00207EFE707
:101C800000242A2B06F101021BD1D8F80030191DBF
:101C9000C8F800101B6816461C4433782E2B1CD144
:101CA00001364FF0000A314611F8012BA2F1300045
:101CB000092814D80A2303FB0A23A3F1300A0E468D
:101CC000F1E712F8013CA3F130010929E5D80A2116
:101CD00001FB0434303C1646D3E74FF0000A32468D
:101CE00012F8011B01F0FB0068281646F8D069299C
:101CF00016D054D8582970D00ED825297DD03378E5
:101D0000002BA2D12B7B002B00F0D980284603B0FA
:101D1000BDE8F04FFFF7D2BE632968D06429EED149
:101D2000D8F80020111DC8F80010D2F8009089EAF8
:101D3000E972A2EBE9724FF0010B092A61DCD3458D
:101D400038BFD3462CB1B9F1000F01DB790700D5BC
:101D5000013CBA0702D5BAF1000F04D0FB0702D448
:101D6000002C54D10024B9F1000F58DAC9F1000950
:101D70002D212846FFF7E0FE07F00302022A05D1D5
:101D8000BAF1000F02D1002C4DD10024CDE900475B
:101D900053460A2249462846FFF7DEFEAFE773297D
:101DA00054D016D87029AAD1D8F800301A1DC8F816
:101DB0000020302128461C68FFF7BEFE7821284607
:101DC000FFF7BAFE00220823CDE900322146102297
:101DD000E1E775292FD0782991D1D8F800100A1D94
:101DE000C8F80020CDE90047534610222CE0D8F86F
:101DF00000301A1DC8F8002019782846FFF79CFE0D
:101E00007DE70A230BF1010B92FBF3F295E7A34563
:101E1000A9D220212846013CFFF78EFEA0E77807D3
:101E2000AAD52B21A5E7A345B0D230212846013CF5
:101E3000FFF782FEA7E7D8F80010CDE900470A1D9A
:101E4000C8F8002053460A220968A4E7D8F80030F1
:101E50001A1DC8F80020F907D3F8009012D54F4694
:101E6000A7EB090B17F8011B41B9A345BFF447AF16
:101E700020212846013CFFF75FFEF6E72846FFF7E2
:101E80005BFEEDE7B9F1000F17D0484602F0F8FE0F
:101E90000746BC4200D954B909F1FF3919F8011FAE
:101EA00000293FF42CAF2846FFF746FEF6E7202135
:101EB0002846013CFFF740FEEBE74F46E9E703B059
:101EC000BDE8F08FE4B400007047000007B5044B94
:101ED0000093044A402300F032F803B05DF804FB9D
:101EE000E91E0000F91400202DE9F8438946144644
:101EF000B2B10F4B0F4E0325002743F001082246D5
:101F000009EB07010020FEF7BDFD0744241A48B97C
:101F100033782BB14FF47A40C047013D02D1357080
:101F2000BDE8F88301233370002CE8D1F8E700BF47
:101F300040B50000F81400207047FEF7F1BDF0B581
:101F400095B01C46164608460D4600F020FD1A9B2B
:101F50000D93CDE9086400242346082205A92846EC
:101F60000A948DF82C400C9400F03AFD079B0293E4
:101F7000BDF81830ADF80C30BDF81A30ADF80E30A1
:101F80009DF814308DF8114003F00302012A1DD191
:101F9000BDF81440059EC3F3C203C4F383148DF847
:101FA0001030A20008230EA9284600F019FDC6F340
:101FB000952608AB0093224602AB0EA9304600F0EE
:101FC0008BFB284600F0E7FC15B0F0BD022AF8D1E3
:101FD000BDF81640C3F3C203A4098DF810300827DA
:101FE000082C264628BF08263B4632460EA928461E
:101FF00000F0F6FCA41B08AB02AA31460EA8374439
:1020000000F0CEFB002CEBD1DBE7000008B5FFF7BA
:1020100094FF0421064800F0C5FA002803DA0549B8
:102020004120FFF7F9FB044B01225A7108BD00BFA4
:102030001CC2000054B5000018000020037813F003
:10204000040216D003F00303012B03D0022B09D0A6
:10205000012070470A6800880232C0F383100244EE
:102060000A60F5E70B684288023303EB92130B60BA
:10207000EEE71046704700002DE9F04F484C87B05E
:102080000D460646871C00200092FFF701FB2368DF
:102090002B60D4E901231344226801339B1A04F214
:1020A0001C4804F5836B04F21449BB4219D3009A0F
:1020B0000023002A6CD0012262F3010343F00403E1
:1020C00066F389132168A2680A4003320F44002096
:1020D00044F822302760FFF7EBFA012007B0BDE893
:1020E000F08F01214046FFF7C4FB5846FFF7D7FBAE
:1020F0000DF1180A4846FFF7D2FB60684AF8100D48
:10210000A5682840033004EB80005146FFF796FF96
:1021100002460298002AF4D105EA000304EB830387
:10212000811CDB6803930130054004EB850503F057
:102130000303012B0291ED6823D0022B08D019492B
:1021400001924FF4BF70FFF767FB019A154607E055
:10215000BDF80E309B0903332D0C01EB9303029362
:102160004846FFF79FFB08B1029B63602946404643
:10217000FFF77FFBD4E901231344226801339B1A44
:1021800093E7BDF80C30C3F383132D0C0B44E6E743
:10219000022262F3010343F0040366F39F5391E7C5
:1021A0000C160020BDB500000B4B0C48FF2210B5EB
:1021B0009A600022C3F81824C3E90022C3F814244B
:1021C000012283F8202400F09BFB044610B9044848
:1021D00000F01CFC204610BD0C160020CCC10000F5
:1021E00010B6000030B50A4C71B10A4A0A49121BF8
:1021F000D20800239A4201D1002030BD31F823508B
:10220000854202D00133F5E7034654F83300F4E782
:102210004CC10000CCC10000E0090020094B01398D
:1022200003EBC000032909D8DFE801F00A02040625
:10223000042070470079704740797047002070474C
:10224000022070474CC10000034BD3E90030C31A91
:1022500058425841704700BF0C1600202DE9F0434A
:1022600085B0FFF7F1FF0646002840F0F9807D4D6C
:10227000C5F81804BFF34F8F6868AC6804AF47F81F
:10228000100D2040033005EB80003946FFF7D6FEE5
:10229000009B18B1D5F81824002A5FD004EA030285
:1022A000991C013305EB8202234005EB8303D268BE
:1022B000DB68029302F00303022B0192009162D1CA
:1022C000BDF8063068484FEA9318B8F1500FC14680
:1022D00028BF4FF0500969F38F1309F10801ADF8D9
:1022E000063000F025FB0746002800F0A48000F02F
:1022F0004EFB01A900230822384600F05BFB009941
:1023000024EA01060136B600B14535D95FFA89F9EC
:102310007EB3F6B2A9EB0609214003315FFA89F4D6
:10232000B146524E05EB810108234A46384600F07B
:1023300041FB36B109F1080322463146384600F028
:1023400039FB009B08F1030803EB98030093D5F8D1
:102350001834002B4BD1D5F810445BE02A689A4220
:1023600004D86A60304605B0BDE8F08304EA030093
:1023700088E73E493446D7E72140033108234A46DF
:1023800005EB8101DAE7012B55D1BDF80430364861
:10239000C3F38311062928BF062161F38913023193
:1023A0008900ADF8043000F0C3FA0746002842D097
:1023B00000F0EDFA0023082201A9384600F0FAFAED
:1023C0000026BDF80420C2F38312B31C96424FEAE4
:1023D0008303BCD200994A1C21400331009205EBD3
:1023E00081010422384600F0E5FA0136E9E7384673
:1023F00000F0D1FAFFF728FF80F00100C6B2B1E784
:10240000E3685B7923B1236839461B682046984707
:10241000E3681C68002CF3D1384600F0BCFA204673
:10242000FFF736F9D5F818340BB9009B6B60002024
:10243000FFF73EF9DEE7D5F8104454B90C4B0D48D0
:102440000D49C01AC008000440F0020000F082F8F4
:10245000D0E7236820469B689847E3681C68ECE750
:1024600000267FE70C160020CCC1000018160020C3
:102470004CC10000A4C100001CB600002DE9F74FBC
:102480002F4C80460F46914601A9012218469B46D3
:10249000D4F808A0FFF7F0FD00283DD0019D0026EC
:1024A000A91C5E4506EB010240D100212548FFF73B
:1024B000C0F980F3100B244B244A4FEA18499B1AA9
:1024C000B9EBD30F04D3224940F2A310FFF7A4F9CC
:1024D0006B1C03EA0A0304EB830349EA0B42DA604C
:1024E00005EA0A030333012114F8232068F3C50227
:1024F00004F8232034F8232066F3891224F82320DB
:1025000054F8232067F39F2244F8232061F301024B
:102510006FF3820204F8232094F820341BB1FFF7F4
:102520009DFE0028FBD103B0BDE8F08F0AEA02024D
:1025300004EB820259F82630D3600136B1E700BFC0
:102540000C160020281A0020CCC100004CC100004D
:10255000BDB5000000231A46FFF790BF13B502ACCB
:10256000012344F8042D2246FFF788FF02B010BD76
:102570001FB5CDE90123069B039301AA0323FFF7AF
:102580007DFF05B05DF804FB1FB5CDE90023069B78
:102590000293079B03936A460423FFF76FFF05B07E
:1025A0005DF804FB30B5134AD2F8104400232146ED
:1025B00051B9C4682371D2F810445CB9C2F8100450
:1025C000C2681160184630BDC9680D799D420AD0B5
:1025D0000968EDE7E468C16824680C60D2F810244B
:1025E000D2681060EEE701330A2BE0D14FF0FF33E1
:1025F000E8E700BF0C16002038B5094A0123D2F8DD
:10260000104482F820341D4604B938BDE3685D717A
:10261000236820465B689847E3681C68F4E700BFBE
:102620000C16002010B5037A052B0C460FD0437A08
:1026300023B1084A08492046FFF752FA07492046C5
:10264000FFF74EFA2046BDE81040FFF737BA002AE0
:10265000F8D0F3E767B600006CB6000048AB0000A6
:1026600073B5C38804460D4633B1144A0092144929
:10267000144A2846FFF734FA217A05291CD0637AD8
:102680004BB1A088FFF7CAFD0F4B104953F820202B
:102690002846FFF725FA227A0D4BA08853F82260CE
:1026A0000021FFF79FFD0B4903463246284602B042
:1026B000BDE87040FFF714BA02B070BD67B6000005
:1026C00077B600006FB6000034B600006CB60000AC
:1026D0009CB600008FB600002DE9F04385B01F4680
:1026E0000C9D002306460C46904695F80C902B73E3
:1026F00029463846FFF7B4FFB8F1060F09D8DFE8DE
:1027000008F00412181F2833400031462846FFF70E
:10271000E7F9002229463846FFF784FF85F80C9038
:1027200005B0BDE8F083226831462846FFF7D8F9A6
:10273000EFE7D4E9002331462846FFF7D1F9E8E76F
:10274000A36800933146D4E900232846FFF7C8F96F
:10275000DFE7E3680193A36800933146D4E90023DF
:102760002846FFF7BDF9D4E723690293E368019394
:10277000A36800933146D4E900232846FFF7B0F957
:10278000C7E76369039323690293E3680193A3682E
:1027900000933146D4E900232846FFF7A1F9B8E7B2
:1027A00008292DE9F84F80460E4617461C4635D8B5
:1027B000002593F80C901D7319461046FFF750FF43
:1027C000DFF88CA0DFF88CB0AE4229D918F80520CC
:1027D00059462046FFF784F90135082DF4D11A49EE
:1027E000DFF874B02046FFF77BF94FF0000A56453A
:1027F00024D918F80A507E2D17D92E225946204682
:10280000FFF76EF90AF1010ABAF1080FEFD10122C0
:1028100021463846FFF706FF84F80C90BDE8F88F94
:1028200051462046FFF75CF9D6E701F0CBFF28447C
:10283000427812F0970FE0D02A46DFE7034920469E
:10284000FFF74EF9DEE700BF62B6000060B6000099
:102850005EB6000058B6000064B600002DE9F74FE0
:1028600099469DF83030019388461746054618B9B9
:102870002249B620FEF7D0FFEA8895F805B00BFB99
:1028800002FBABF1040BCB4503D81C49C420FEF777
:10289000C3FF3E68B5F806A006EB09025A4509F1E8
:1028A000040188BFABEB0906B1FBFAF43E600AFBFA
:1028B000141144B9AAEB0107B74228BF37462EB915
:1028C00003B0BDE8F08F2D68013CF2E7019A0431B6
:1028D00008EB0403681872B101463A461846F61B25
:1028E00001F094FFB2453C442D6857464FF000017B
:1028F00028BF3746E3E73A461946F0E7FBB6000043
:10290000FEF7D4BFF8B546790146721E054600238E
:1029100093422D6803D30024A64202D8F8BD0133A8
:10292000F6E70F682846FFF729F801343946F3E740
:102930002DE9F843CD1C068A0746FEF7F5FF043E55
:1029400035440446B5FBF6F5F0B14FF48073EDB2B3
:102950008380C680013D076081464FF00008A8458E
:1029600012D23846FEF7E0FF064648B163790133DC
:10297000637108F10108C9F8000007608146EEE7BD
:102980002046FFF7BFFF34462046BDE8F88301210B
:102990000430FEF76EBF10B5012104460430FEF787
:1029A00073FF10F0FF0F04D12046BDE81040FFF781
:1029B000A9BF10BD30B585B0144604AA002542F861
:1029C000044D0095FFF74AFF039BA34203D0034940
:1029D000F620FEF721FF05B030BD00BFFBB60000BA
:1029E00030B585B0144604AA012542F8044D00957F
:1029F000FFF734FF039BA34204D003494FF48070D8
:102A0000FEF70AFF05B030BDFBB600008268002368
:102A1000936082681361826853618268D3608268C0
:102A200053608268136070470D4930B5A1F58C7210
:102A30000225914201D800200EE08B1ADB1093FB97
:102A4000F5F302EBC30452F83330834205D802D2C7
:102A500004F10802EDE7606830BD2146E9E700BFF8
:102A60007CB8000008B5FFF7DFFF024B002808BF65
:102A7000184608BD4EB7000007B5154B1A687AB165
:102A800000221A601B680093009B4FF080430122D4
:102A9000C3F808230F4B587910B95A711B6898472F
:102AA0000D4B1A6882B100221A601B680193019BCA
:102AB0004FF080430222C3F80823064B1B68012015
:102AC00003B05DF804EB184703B05DF804FB00BFEA
:102AD00000010040C81A00200401004000F18040BD
:102AE00000F5C040002382B0036003680193019B9E
:102AF00002B07047054B4FF0FF32072843F8202003
:102B000084BF1B1883F84820704700BFD01A0020EC
:102B100002494FF4F370FEF77FBE00BFA9AC00007E
:102B20001F2838B504460D4601D9FFF7F1FFA00074
:102B300000F1A040D0F8003723F44033C0F800374C
:102B4000D0F8003743EA0543C0F8003738BD00002D
:102B500010B5164C94F8583033BBFF21E2180133FE
:102B6000202B82F83010F9D10021C8B2FFF7C2FF44
:102B700001310C29F9D1042200210D4801F0E0FEB9
:102B80000C4BE02283F8062340221A604FF4BE70FB
:102B9000FFF7A4FF084B4FF00042C3F804230123C2
:102BA00084F85830002010BD0820FCE7D01A00201F
:102BB000241B002000E100E000600040034B93F87C
:102BC0005800003018BF0120704700BFD01A002005
:102BD0001F2870B504460D4604D941494FF498703A
:102BE000FEF71AFE3F4E96F85830012B04D03C49B0
:102BF00040F23110FEF710FE25B939494FF49970B3
:102C0000FEF70AFE331993F93020013265D1AA7814
:102C1000002A54D0002356F8231001314FEA8302D2
:102C200048D1311902F1804281F83030002102F59B
:102C3000C04246F82310D2F810052B78697820F4AA
:102C400098101B04090520F4F85001F4801103F4D6
:102C50004033C2F810050B432102D2F8100501F4ED
:102C6000F8510B430343C2F810356B78012B4FF03A
:102C7000010528D11F2C01D9FFF74AFF4FF0A043CF
:102C8000A540C3F808551F2C01D9FFF741FF04F5F3
:102C9000E0724FF0A043032143F82210E2081249EA
:102CA000012304F0070403FA04F48B5C1C438C54E6
:102CB000002003E00133082BADD1042070BDFE22BB
:102CC00083F83020D1E71F2C01D9FFF721FF4FF007
:102CD000A043A540C3F80C55D5E70820EEE700BF98
:102CE00013BC0000D01A0020241B00201F28F8B5B8
:102CF000044604D91D494FF4B470FEF78DFD1C4DF8
:102D00002B1993F93030013304D1184940F269107E
:102D1000FEF782FD291991F83000072809D8FFF73E
:102D2000E9FE91F93030134A03F5A273002142F80D
:102D300023102544FF23104F85F83030E60804F0B7
:102D4000070301259D40BB5D2B420ED01F2C01D9EE
:102D5000FFF7DEFE4FF0A04304F5E074022243F8D3
:102D60002420BB5D23EA0505BD55F8BD13BC00005A
:102D7000D01A002000600040241B00201F2838B516
:102D8000054604D912494FF4BE70FEF745FD114CBB
:102D9000621992F93020013204D10D4940F27D10C0
:102DA000FEF73AFD631993F83030072B04D8084931
:102DB0004FF4BF70FEF730FD1F2D01D9FFF7A8FEBD
:102DC000012303FA05F54FF0A043C3F8085538BDB9
:102DD00013BC0000D01A00201F2838B5054604D9BE
:102DE00012494FF4C370FEF717FD114C621992F9A6
:102DF0003020013204D10D4940F28710FEF70CFD5E
:102E0000631993F83030072B04D808494FF4C47085
:102E1000FEF702FD1F2D01D9FFF77AFE012303FA09
:102E200005F54FF0A043C3F80C5538BD13BC0000A6
:102E3000D01A00201F2838B5054604D914494FF48C
:102E4000CD70FEF7E9FC134C631993F93030013370
:102E500004D10F4940F29B10FEF7DEFC631993F892
:102E60003030072B04D90A494FF4CE70FEF7D4FC5A
:102E70002C4494F930309B0003F1804303F5C043A8
:102E8000D3F8102542F00302C3F8102538BD00BF67
:102E900013BC0000D01A00201F2838B5054604D9FD
:102EA0000D4940F2B910FEF7B7FC0C4C631993F8CA
:102EB0003030072B04D908494FF4DD70FEF7ACFC25
:102EC000601990F930000C308000C0B200F18040F1
:102ED00000F5C04038BD00BF13BC0000D01A002070
:102EE0001F2838B5054604D90D494FF4E370FEF7A5
:102EF00093FC0C4C631993F83030072B04D9084924
:102F000040F2C710FEF788FC601990F930001830C5
:102F10008000C0B200F1804000F5C04038BD00BF65
:102F200013BC0000D01A00201F2870B506460D46BD
:102F300004D917494FF4E970FEF76EFC154CA3193C
:102F400093F93030013304D1114940F2D310FEF728
:102F500063FCA31993F83030072B04D90C494FF4C4
:102F6000EA70FEF759FC3444003594F930304FEAEA
:102F7000830303F1804303F5C04318BF0125D3F851
:102F8000101521F4801141EA0551C3F8101570BDE8
:102F900013BC0000D01A00202DE9F04F87B00024A8
:102FA0005B4A5C4E5C4D039401211368A2F5C0405E
:102FB000012B80B206D1D6F804330B4202D0FFF7C2
:102FC0008DFD0C430432AA424FEA4101EDD1534B2F
:102FD0001B68012B0AD14FF4BE70FFF77FFD4FF045
:102FE000A04344F00044D3F81035039314F0FF0FCE
:102FF0001AD04B4F00250126344210D0AB0003F10C
:10300000804303F5C043D3F81005D3F8101557F8E3
:103010002530C0F30420C1F3014103B198470135C5
:10302000082D4FEA4606E7D1002C6EDA00224FF059
:10303000FF33CDE904233A4F4FF0000A56464FF0D4
:10304000A04907EB0A0393F95040631C46D0E4B251
:10305000012224F0C00504F0070B02FA0BFBEB0879
:1030600006AAD11811F8042C12EA0B0F36D07A19DF
:10307000A40992F9302057F82280B8F1000F0AD144
:10308000032C2BD10DF1100C1CF8030040EA0B00AF
:103090000CF8030001E0032CF4D01F2D03D901919B
:1030A000FFF736FD019911F80C1C05F5E07311EAE4
:1030B0000B0F59F82330C3F3014320D0022B0DD15D
:1030C000032C05D121462846FFF72AFD0136F6B22A
:1030D000B8F1000F02D021462846C0470AF1010A84
:1030E000BAF1040FADD186B14FF0A043039AD3F8E3
:1030F00010359A4209D00393049B05939CE7032B58
:10310000ECD1032CE4D10221DDE707B0BDE8F08F5C
:103110000061004000600040206100407C61004090
:10312000D01A00202DE9F84F124D134F80464FF072
:10313000000A04264FF001095FFA8AFB002009FA11
:103140000BF4FEF7A5FA2C4208D03B6814EA030200
:1031500001BF23433B6088F800B016460020FEF70D
:10316000A7FA1EB1A5430AF1010AE5D13046BDE830
:10317000F88F00BFFFFF0F002C1B002010B50124AB
:103180008440C4F313037BB1084B0020C3F8084507
:10319000FEF77EFA064A1368002023EA040414604E
:1031A000FEF786FA002010BD0720FCE700F0014082
:1031B0002C1B002010B5A1B19AB101238340C3F3A9
:1031C000130484B10A4C246823420ED0C00000F1DD
:1031D000804000F5F830C0F81015C0F81425002024
:1031E00010BD0E20FCE70720FAE70820F8E700BF33
:1031F0002C1B0020012303FA00F0C0F313031BB1C2
:10320000054B1B68184204D0044BC3F8040500208A
:1032100070470820704700BF2C1B002000F00140C1
:10322000012303FA00F0C0F313031BB1054B1B6825
:10323000184204D0044BC3F808050020704708204A
:10324000704700BF2C1B002000F0014010B5054C5A
:1032500022681AB904495120FEF7DEFA2368BDE856
:1032600010401847301B002066BC000038B50D46E2
:1032700028B90C497720FEF7CFFA002038BD0A4B59
:103280009842FAD10020FEF703FA084B1C7914B9D2
:1032900001221D601A710020FEF70AFA002CECD002
:1032A0001120EBE766BC000000200040301B00202E
:1032B0000023435082B043580193019B02B07047F2
:1032C00070B5D0F8103105460C4653B14FF48871F3
:1032D000FFF7EEFF63795A0703D523680BB101208E
:1032E0009847D5F814315BB14FF48A712846FFF73F
:1032F000DFFF63791B0703D523680BB102209847D2
:10330000D5F81C315BB128464FF48E71FFF7D0FF22
:10331000607910F0100002D1236803B19847D5F806
:10332000043163B14FF482712846FFF7C1FF0123D6
:10333000237123681BB10320BDE87040184770BD9E
:1033400001490248FFF7BCBF381B002000C0014004
:1033500001490248FFF7B4BF401B002000100240A3
:1033600001490248FFF7ACBF481B00200020024083
:1033700000F1804000F5E040002382B00360036864
:103380000193019B02B07047F0B5514B514C1B6843
:1033900085B0DBB14FF4827094F82E20FFF7E8FF80
:1033A00012B194F82F30A3B1636802932389ADF86A
:1033B0000C30E36800218DF80410002B44D12374F5
:1033C000236801A89847002384F82F3094F82E3002
:1033D00003B3414B1B68EBB14FF48070FFF7C8FF9C
:1033E00094F82D20638B91B28B4238D95B1A2189D6
:1033F0009BB26383CB1A616801EB4301374BC3F87F
:103400002C16C3F830264FF48270FFF7B1FF344B0F
:1034100001221A60334B1B685BB14FF48870FFF7D1
:10342000A7FF002304A82374022300F80C3D23689F
:1034300098472D4B1B6813B34FF48A70FFF798FF22
:103440000023237405B0F0BD208B6083636020816E
:10345000E160002AB4D1214B01221A60B0E7D2D139
:10346000E368012184F82F103BB1002161831B49DF
:10347000C1F82C36C1F83026C5E76383C3E7666917
:103480004FF000470125002EDCD0B6FA86F227FA6D
:1034900002F34632920026EA030602F1804303F566
:1034A000E0431B68002BEED01046FFF761FFA2F54A
:1034B0008C72D30882F00402C2F380028DF80830C7
:1034C0008DF804508DF80920236801A89847DAE7A1
:1034D00004710040501B002000710040007000404B
:1034E00004700040107100401471004002494FF414
:1034F000F370FEF791B900BFA9AC00001F2810B50A
:10350000044601D9FFF7F2FF012303FA04F44FF058
:10351000A043C3F80C4510BD1F2810B5044601D9BF
:10352000FFF7E4FF012303FA04F44FF0A043C3F8CC
:10353000084510BD13B54FF04023D3F818310BB335
:10354000114B124C00221A601B680193019B2368E7
:1035500023B90F494FF42770FEF75EF9E07FFF288B
:1035600003D0A37F5BB1FFF7C9FF0023637723720A
:10357000D4E90031074802B0BDE810401847FFF712
:10358000CBFFF2E702B010BD18410040801B0020C5
:10359000BDBC0000881B00202DE9F743002406462F
:1035A0000F4600F5A0754FF48038A14604F1500095
:1035B0002B68800080B26BB1D6F8043308FA04F2AD
:1035C0001A4207D0C5F800902B680193019BD7E9F8
:1035D000003198470134042C05F10405E6D103B00D
:1035E000BDE8F0832DE9F3470446154606790F46FA
:1035F00019B94E494A20FEF70FF91DB94B494B2026
:10360000FEF70AF94A4A0C2303FB062390461B7A6D
:10361000002B40F088802368464A93420FD002F581
:10362000805293420BD002F58052934207D002F5AC
:103630008032934203D002F58052934202D1BB788C
:10364000032B03D939495F20FEF7E6F80C237343B7
:1036500008EB030248F803507B68536000210D46D5
:1036600060792368CAB2904201F1010153D897F8FA
:1036700003901D0BB9F1070F4FFA85FA03D92E49B4
:103680006B20FEF7C9F8BAF1000FAEBF0AF1604334
:1036900005F00F03294A2A484FEA49195FFA89F9C8
:1036A000AABF03F5614302F8039083F800932368EF
:1036B0001B0B59B24909012203F01F0302FA03F35D
:1036C00040F8213020687B78D0F8041503F003031C
:1036D00021F003010B43C0F804352068BB78D0F813
:1036E000081503F0030321F003010B43C0F808356C
:1036F00020683B78D0F8101503F00F0321F00F017C
:103700000B43C0F810350C2303FB068600203272F1
:1037100002B0BDE8F087920002F5A0729D509B5860
:103720000193019B9CE70820F2E700BF08BD000061
:10373000A41B0020008000404FBD000014ED00E0FD
:1037400000E100E038B50B4C02790C2101FB02428C
:103750000546127A012A03D007498F20FEF75CF84C
:103760002B6801221A602B790C2202FB03430222F0
:103770001A7238BDA41B002008BD000038B50A4CE1
:1037800002790C2101FB02420546127A1AB9074957
:103790009720FEF741F82B6801221A612B790C2142
:1037A00001FB03431A7238BDA41B002008BD0000B2
:1037B00038B503681B0B5AB20121520903F01F03ED
:1037C00001FA03F320320C4941F822300368002546
:1037D000D3F80022C3F8005203684FF0FF320446CA
:1037E000C3F80823FFF7CAFF2379044A0C2101FB21
:1037F00003231D7238BD00BF00E100E0A41B0020C0
:1038000010B5084A03790C2101FB032304461B7AF7
:103810001BB90549B320FDF7FFFF23680122DA60D9
:1038200010BD00BFA41B002008BD000073B54FF4FD
:1038300080348C4005688BB101F150039B00002659
:10384000EE50EB580193019B0368C3F804430368EF
:1038500001F5A87143F8212002B070BDC5F80843F6
:10386000F5E7F0B407689DF810C0D7F8004240F2C1
:1038700001158D4024EA0504C7F800420568D5F813
:1038800000422343C5F80032F0BC6346FFF7CEBFC9
:1038900037B5134A03790D460C2101FB0323044677
:1038A0001B7A1BB90F49FB20FDF7B6FF6379AB42CA
:1038B00003D80C49FC20FDF7AFFF05F150039B0036
:1038C00022689BB20021D150D3580193019B2368F9
:1038D0004FF48031A940C3F8041303B030BD00BFDA
:1038E000A41B002008BD000038B50E4A03790D4620
:1038F0000C2101FB032304461B7A23B90A4940F239
:103900000710FDF789FF6379AB4204D806494FF4ED
:103910008470FDF781FF23684FF48031A940C3F81C
:10392000081338BDA41B002008BD0000014902484F
:10393000FFF732BEA41B002000800040014902486E
:10394000FFF72ABEB01B0020009000400023435028
:1039500082B043580193019B02B07047F0B5504CC0
:10396000236887B023B94F4940F24520FDF754FF43
:103970004D4AD2F824311546A3B14FF49271104646
:10398000FFF7E4FFD2F8043163B9A368C2F8083343
:103990000223A360A368C2F80433012313625361B6
:1039A00007B0F0BDD5F80431002B49D03F4F3E4859
:1039B0004FF48271FFF7CAFF0FCF01AE0FC63B680D
:1039C000336094F82E307BB1237B012B0CBFD5F8EC
:1039D0003C25D5F84C250292022B334B0CBFD3F873
:1039E0003C35D3F84C3503934FF4B0712E48FFF7B4
:1039F000ADFF4FF4AE712C48FFF7A8FF94F83030BC
:103A000013B194F82E303BB1274B0022C3F80022AB
:103A1000A260274AC3F80823234AD2F8C434C2F864
:103A2000C4349A0736D501238DF8003094F830302D
:103A30000BB984F82F30D4E9003168469847AFE7D6
:103A40004FF4A4711848FFF781FF237B83B9174F08
:103A50000FCF01AE0FC63B68336094F83030002BB7
:103A6000DAD1C5F80032A360114BC5F80833D3E7AB
:103A70004FF40073C5F8003240F20223A36003F153
:103A8000CE73C5F80833A368C5F804330123AB60CF
:103A90002B6285E713F0040318BF0223C4E700BFBD
:103AA000BC1B002093BD000000300040C81B00205C
:103AB00002029C010023435082B043580193019BB2
:103AC00002B070470A4610B54FF48E71FFF7F2FF4F
:103AD000136A9168C95C136A01331362C0F81C153C
:103AE00010BD08B502464FF492710068FFF7E2FF7F
:103AF0004FF484711068FFF7DDFF136801221A602C
:103B000008BD10B58B690A464FF4847123B9FFF7DD
:103B1000D1FFD0F8183510BDFFF7CCFF536AD1683C
:103B2000D0F81805C854536A01335362F3E7000014
:103B300002494FF4F370FDF76FBE00BFA9AC00005F
:103B40001FB501238DF80030044BCDE90110D3E9F6
:103B500000126846904705B05DF804FBF01B00209A
:103B600030B54D4AD2F8043313F4007F85B01546C2
:103B70004FD0D2F82431002B4BD04FF49271104625
:103B8000FFF798FF4FF40173C2F80833434B93F8E3
:103B9000291009B9012151603F4902228DF8002006
:103BA000D1F88024C1F8802403929A690292DA68DD
:103BB00001920022C3E906226846D3E90012904729
:103BC0003548D0F81C315BB134490A6A4B699A42D6
:103BD0000A464CD291F82830002B48D1FFF772FFEB
:103BE0002D4AD2F8443193B14FF4A2711046FFF739
:103BF00061FF2A4B93F8291009B1012111609A69DC
:103C00002AB100229A61586AD968FFF799FF05B076
:103C100030BDD5F804335B07D2D5D5F80831002B79
:103C2000CED01E4C1C482146FFF76BFF636AA26989
:103C30009A422346C4D1E26952B12369E168E36044
:103C40000023606AA261E3616362FFF779FFB7E76F
:103C500094F829200AB901226A600F4A4FF40171D1
:103C6000C2F8081300229A61586AD968EDE74FF448
:103C70008E710948FFF71EFF51690029B0D000235B
:103C8000029191688DF80030019153616846D2E944
:103C900000139847A4E700BF00200040F01B00205D
:103CA0002DE9F84F054692460C4619B97549AA20E8
:103CB000FDF7B2FD744B2E792C2202FB063298469A
:103CC00092F82A20002A40F0D98070492868FFF72E
:103CD000CDFA0746002840F0D380D4F80090B9F11F
:103CE000FF3F18D0B9F11F0F01D9FFF721FF4FF0A7
:103CF000A043012202FA09F2C3F80825D4F800B063
:103D0000BBF11F0F994601D9FFF712FF0BF5E07BBE
:103D1000032349F82B30D4F80490B9F1FF3F0BD0BE
:103D2000B9F11F0F01D9FFF703FF09F5E0794FF053
:103D3000A043002243F829202B68A269C3F8242558
:103D4000217D637D2A680B43C2F86C35D4E90021DC
:103D50002B68C3F81415C3F80C25237D012B35D12E
:103D6000D4F80890B9F1FF3F0BD0B9F11F0F01D97A
:103D7000FFF7DEFE09F5E0794FF0A043002243F89B
:103D80002920D4F80C90B9F1FF3F18D0B9F11F0FDA
:103D900001D9FFF7CDFE4FF0A043012202FA09F24C
:103DA000C3F80825D4F80CB0BBF11F0F994601D910
:103DB000FFF7BEFE0BF5E07B032349F82B30D4E977
:103DC00002212B68C3F80815C3F810252C23734370
:103DD00008EB0302C2F804A0226948F80320BAF1F4
:103DE000000F38D04FF48E712868247FFFF762FEF1
:103DF0004FF4A2712868FFF75DFE2B68244AC3F8D0
:103E000004232B68072C4FEA133A4FFA8AF903D997
:103E100020496B20FDF700FDB9F1000FACBF09F19F
:103E200060431D4B4FEA4414B8BF0AF00F0AE4B2D6
:103E3000AABF03F5614303F80A4083F800432B68E7
:103E40001B0B5AB2012103F01F0301FA03F35209BD
:103E5000124941F822302B680422C3F800252C2394
:103E600003FB06830022C3E9062283F829205A6156
:103E7000012283F82A203846BDE8F88F0827FAE7A0
:103E80001127F8E7DEBD0000F01B0020613B0000B9
:103E9000800002004FBD000014ED00E000E100E0F2
:103EA0002DE9F843474E05792C2303FB05630746AC
:103EB00093F82A30012B8846144604D0424940F238
:103EC0006910FDF7A9FCB8F1000F04D13E494FF489
:103ED000B570FDF7A1FC24B93B4940F26B10FDF72A
:103EE0009BFC2C2303FB0563596821B13B684FF40D
:103EF0000172C3F808232C2303FB05639A6952B1AE
:103F0000DA69002A3FD021B13B684FF40172C3F84F
:103F10000423112035E09C61C3F80C805A62DA61F9
:103F20002C2303FB056393F829301BB912B93846DB
:103F3000FFF7D7FD4FF02C0909FB05683868D8F862
:103F40000430002B35D14FF4A271FFF7B3FDC14609
:103F50003868D0F82431D0F80821D0F84441BAB9F3
:103F60000CB9002BF4D02C2202FB05650022AA61BB
:103F700023BB2CBB95F829103B680122B9B11A600C
:103F80000020BDE8F883C3F81080DC610122C7E798
:103F9000002BE8D1002CE6D14946FFF7B2FDD8F856
:103FA0002430D8F818209A42D2D82346DBE75A604A
:103FB000E6E74FF40173C0F80433E1E70320E0E7DC
:103FC0000F20DEE7F01B0020DEBD00000023435081
:103FD00082B043580193019B02B0704702494FF4ED
:103FE000F370FDF719BC00BFA9AC00001FB5012399
:103FF0008DF80030044BCDE90110D3E9001268467A
:10400000904705B05DF804FB1C1C00207FB5374AC3
:10401000D2F82461002E48D010464FF49271FFF779
:10402000D5FF02238DF80030D2F88034C2F88034F6
:104030000393D2F83C3502932D4BDA6801920022AB
:10404000C3E906226846D3E900129047274AD2F80E
:1040500044317BB14FF4A2711046FFF7B7FF244BF8
:10406000996939B10021C3E90611D968D2F83C0534
:10407000FFF7BCFF1D4AD2F82031A3B14FF4907175
:104080001046FFF7A3FF1A4B596961B1D2F84C15DE
:104090000291002299688DF8002001915A616846CA
:1040A000D3E90012904704B070BDD2F81031002B54
:1040B000CCD04FF488711046FFF788FF0C4BD2F834
:1040C0003C0599698842C1D1DC69D96864B1D2F8EC
:1040D000005225F02005C2F800521A699C61DA608E
:1040E000DE61FFF783FFB1E79C61FAE70020004043
:1040F0001C1C00202DE9F84F054692460C4619B9C4
:104100007949CD20FDF788FB784B2E79242202FBDC
:104110000632984692F82020002A40F0E180744947
:104120002868FFF7A3F80746002840F0DB80D4F8A2
:104130000090B9F1FF3F18D0B9F11F0F01D9FFF777
:104140004DFF4FF0A043012202FA09F2C3F80825FF
:10415000D4F800B0BBF11F0F994601D9FFF73EFF1D
:104160000BF5E07B032349F82B30D4F80490B9F128
:10417000FF3F0BD0B9F11F0F01D9FFF72FFF09F552
:10418000E0794FF0A043002243F829202B68A26970
:10419000C3F82425217D637D2A680B43C2F86C3562
:1041A000D4E900122B68C3F80C15C3F81425237D3D
:1041B000012B35D1D4F80890B9F1FF3F0BD0B9F1FC
:1041C0001F0F01D9FFF70AFF09F5E0794FF0A0436F
:1041D000002243F82920D4F80C90B9F1FF3F18D001
:1041E000B9F11F0F01D9FFF7F9FE4FF0A0430122EB
:1041F00002FA09F2C3F80825D4F80CB0BBF11F0F7E
:10420000994601D9FFF7EAFE0BF5E07B032349F855
:104210002B30D4E902212B68C3F80815C3F8102508
:104220002423734308EB0302C2F804A0226948F870
:104230000320BAF1000F42D04FF488712868247F20
:10424000FFF7C4FE4FF490712868FFF7BFFE4FF4EC
:1042500092712868FFF7BAFE4FF4A2712868FFF741
:10426000B5FE2B68234AC3F804232B68072C4FEABA
:10427000133A4FFA8AF903D91F496B20FDF7CCFA9C
:10428000B9F1000FACBF09F160431C4B4FEA441475
:10429000B8BF0AF00F0AE4B2AABF03F5614303F8FE
:1042A0000A4083F800432B681B0B5AB2012103F02C
:1042B0001F0301FA03F35209114941F822302B6818
:1042C0000822C3F80025242303FB06830022C3E948
:1042D00006225A61012283F820203846BDE8F88F73
:1042E0000827FAE71127F8E729BE00001C1C002068
:1042F0000D400000100302004FBD000014ED00E06F
:1043000000E100E02DE9F041484E0479242303FB4D
:104310000463054693F82030012B8846174604D0E5
:1043200043494FF4B770FDF777FAB8F1000F04D1A5
:104330003F4940F26F10FDF76FFA27B93C494FF43F
:10434000B870FDF769FA2B790BB9FF2F04D93849FA
:1043500040F27110FDF760FA08F06043B3F1005FBE
:1043600061D1242303FB0463596821B12B684FF406
:104370000472C3F80823242303FB04639A6952B12F
:10438000DA69002A3DD021B12B684FF40472C3F8DA
:104390000423112033E09F61C3F80C80DA614FF4ED
:1043A00088712868FFF712FE4FF4A2712868FFF7A2
:1043B0000DFE2B68C3F83485C3F838752B682ABB0B
:1043C00001221A602A792B68242101FB02614968C5
:1043D00019BBD3F81041D3F84411D3F8240114B910
:1043E00009B90028F5D0242303FB02660023984274
:1043F00014BF032018469942B36118BF0F20BDE8CF
:10440000F081C3F81080DF610122C8E7D3F80022F1
:1044100042F02002C3F80022D4E74FF40472C3F83C
:1044200004230020EBE71020E9E700BF1C1C00205C
:1044300029BE00000C4B1B78062B10D10B4B1B68C0
:104440001A070CD10A4B186800F0F003302B08D083
:1044500000F0E000A0F140035842584170470020AE
:1044600070470120704700BFE00F00F0E40F00F03C
:10447000E80F00F0094B1B78062B0CD1084B1B688A
:104480001A0708D1074B186800F0F000A0F13003BC
:104490005842584170470020704700BFE00F00F0BD
:1044A000E40F00F0E80F00F008B5FFF7C3FF28B1F4
:1044B0007D4B7E4A1B68C3F304231360FFF7DAFFCA
:1044C00010B17B4B7B4A1A60FFF7B4FF28B17A4BDF
:1044D0007A4A1B68C3F342331360FFF7CBFF20B166
:1044E000774AD36823F08073D360FFF7A3FF40B10E
:1044F0004FF080430022C3F80C21C3F81021C3F809
:104500003825FFF7B7FF10B16E4B03221A60FFF793
:10451000B1FF40B16C4B05221A6001229A6700225C
:104520009A603F225A60694B1B78062B50D1684B2A
:104530001B6819074CD1674B1B6803F0F003502B25
:1045400046D14FF08052644BD2F80414C3F82015C2
:10455000D2F80814C3F82415D2F80C14C3F828159F
:10456000D2F81014C3F82C15D2F81414C3F830156F
:10457000D2F81814C3F83415D2F81C14C3F8401537
:10458000D2F82014C3F84415D2F82414C3F84815FF
:10459000D2F82814C3F84C15D2F82C14C3F85015CF
:1045A000D2F83014C3F85415D2F83414C3F8601597
:1045B000D2F83814C3F86415D2F83C14C3F868155F
:1045C000D2F84014C3F86C15D2F84424C3F870250F
:1045D000FFF730FF28B1414B414A1B6803F04F03FE
:1045E0001360FFF727FF48B14FF08043D3F8002452
:1045F000D20744BF6FF00102C3F80024394B1B6897
:10460000062B08D1384B1B68062B01BF374A1368AD
:1046100043F480631360364AD2F8883043F4700361
:10462000C2F88830BFF34F8FBFF36F8F4FF0102366
:10463000D3F80022002A03DBD3F80432002B2FDA50
:104640002C4B0122C3F80425D3F80024002AFBD008
:104650004FF010221521C2F80012D3F80024002ACE
:10466000FBD04FF010231522C3F80422214B1A4629
:10467000D3F800140029FBD00021C3F80415D2F8A8
:104680000034002BFBD0BFF34F8F19491A4BCA6877
:1046900002F4E0621343CB60BFF34F8F00BFFDE72E
:1046A000164B174A1A6008BD24030010403501401C
:1046B00074C007400DF0ADBA440200103C05004044
:1046C000F0ED00E0A005004010560040E00F00F0C3
:1046D000E40F00F0E80F00F000C0004058020010A6
:1046E000E40E004030010010340100103C1700407F
:1046F00000ED00E000E001400400FA052000002089
:104700000090D0030649074A074B9B1A03DD043B80
:10471000C858D050FBDCFFF7C7FEFBF791FD000047
:1047200034C2000000000020E0090020FEE7FEE7A0
:10473000FEE7FEE7FEE7FEE7FEE7FEE7FEE7FEE751
:1047400008B50021044602F009F9044B1868C36B50
:1047500003B19847204605F0BBF900BF78BE0000C2
:1047600070B50D4E0D4D761BB61006D000240134E9
:1047700055F8043B9847A642F9D1094E094D761BDE
:1047800006F094F9B61006D00024013455F8043B25
:104790009847A642F9D170BDD0090020D009002069
:1047A000DC090020D0090020044B054A1B685B6B24
:1047B000002B08BF134693F82801704724000020FF
:1047C00050040020044B054A1B685B6B002B08BF9C
:1047D0001346D3F8EC00704724000020500400205A
:1047E00082B049B15AB16BB113780B601278101CCA
:1047F00018BF012002B0704701A9002AF3D110466A
:1048000002B070476FF00100F4E700BF844641EA50
:10481000000313F003036DD1403A41D351F8043B38
:1048200040F8043B51F8043B40F8043B51F8043B8A
:1048300040F8043B51F8043B40F8043B51F8043B7A
:1048400040F8043B51F8043B40F8043B51F8043B6A
:1048500040F8043B51F8043B40F8043B51F8043B5A
:1048600040F8043B51F8043B40F8043B51F8043B4A
:1048700040F8043B51F8043B40F8043B51F8043B3A
:1048800040F8043B51F8043B40F8043B51F8043B2A
:1048900040F8043B51F8043B40F8043B403ABDD299
:1048A000303211D351F8043B40F8043B51F8043B3B
:1048B00040F8043B51F8043B40F8043B51F8043BFA
:1048C00040F8043B103AEDD20C3205D351F8043BCA
:1048D00040F8043B043AF9D2043208D0D2071CBF96
:1048E00011F8013B00F8013B01D30B8803806046BF
:1048F000704700BF082A13D38B078DD010F0030335
:104900008AD0C3F10403D21ADB071CBF11F8013BA4
:1049100000F8013B80D331F8023B20F8023B7BE7F3
:10492000043AD9D3013A11F8013B00F8013BF9D21E
:104930000B7803704B7843708B78837060467047B8
:10494000F0B4860743D0541E002A3ED0CAB20346B4
:1049500002E014F1FF3438D303F8012B9D07F8D19E
:10496000032C2BD9CDB245EA05250F2C45EA054588
:1049700016D9A4F110073F0903F1200606EB07162C
:1049800003F1100242E9045542E902551032B242E5
:10499000F8D104F00F040137032C03EB07130DD9F2
:1049A0001E462246043A032A46F8045BFAD8221F20
:1049B00022F003020432134404F003042CB1C9B200
:1049C0001C4403F8011B9C42FBD1F0BC7047144609
:1049D0000346C5E70FB400B5074983B004AB0868C8
:1049E00053F8042B8168019300F0BAF903B05DF825
:1049F00004EB04B0704700BF2400002000290CBF66
:104A0000022200224FF4806300F000B82DE9F04349
:104A10005D4C256883B00446884616461F4615B18E
:104A2000AB6B002B7ED0022E05D0012E00F2A980A8
:104A3000002FC0F2A680636EDA0735D521462846DE
:104A400003F054F8216B41B104F14003994202D0C4
:104A5000284603F049F900232363B4F90C300022FF
:104A60001806A261626061D423F44A6323F0030351
:104A7000022EA3811FD10025616E002004F14302A4
:104A800043F00203A060C9074FF00100A381226038
:104A9000C4E9042004D49B0502D4A06D03F056FAA7
:104AA000284603B0BDE8F083A3899B05C6D4A06D5A
:104AB00003F04AFAC2E701AB6A462146284603F0F2
:104AC00047FAA3891843A081002F36D1009F3846AA
:104AD00003F0B6FA8046002842D0A38943F0800351
:104AE000A381AB6B7BB3009AB4F90C30C4F800809F
:104AF000BA421CBF43F40063A381012E04BF43F0FC
:104B00000103A3819BB213F00802C4E904871ED1FC
:104B1000A260656E15F00105BDD00025284603B0E2
:104B2000BDE8F083284603F03DF87CE7216928467C
:104B300003F0DAF8B4F90C3096E7B8F1000FC6D0FC
:104B4000AB6B002BCFD1284603F02CF8CBE7DA076C
:104B500004D57F420022A761A260DAE7A760D8E708
:104B6000DDF80090B94504D1B4F90C304FF0FF35B1
:104B700082E7484603F064FA80460028F4D04F46A6
:104B8000ABE74FF0FF358BE72400002080EA0102FD
:104B9000844612F0030F4FD111F0030F32D14DF8BC
:104BA000044D11F0040F51F8043B0BD0A3F1013276
:104BB0009A4312F0803F04BF4CF8043B51F8043B89
:104BC00016D100BF51F8044BA3F101329A4312F001
:104BD000803FA4F101320BD14CF8043BA24312F008
:104BE000803F04BF51F8043B4CF8044BEAD0234605
:104BF0000CF8013B13F0FF0F4FEA3323F8D15DF8B7
:104C0000044B704711F0010F06D011F8012B0CF87E
:104C1000012B002A08BF704711F0020FBFD031F8F6
:104C2000022B12F0FF0F16BF2CF8022B8CF800207D
:104C300012F47F4FB3D1704711F8012B0CF8012B00
:104C4000002AF9D1704700BF0000000000000000FA
:104C50000000000000000000000000000000000054
:104C60000000000000000000000000000000000044
:104C70000000000000000000000000000000000034
:104C800090F800F06DE9024520F007016FF0000C8C
:104C900010F0070491F820F040F049804FF0000434
:104CA0006FF00700D1E9002391F840F000F108000F
:104CB00082FA4CF2A4FA8CF283FA4CF3A2FA8CF347
:104CC0004BBBD1E9022382FA4CF200F10800A4FAAE
:104CD0008CF283FA4CF3A2FA8CF3E3B9D1E9042302
:104CE00082FA4CF200F10800A4FA8CF283FA4CF339
:104CF000A2FA8CF37BB9D1E9062301F1200182FAF3
:104D00004CF200F10800A4FA8CF283FA4CF3A2FAF8
:104D10008CF3002BC6D0002A04BF04301A4612BA06
:104D2000B2FA82F2FDE8024500EBD2007047D1E909
:104D3000002304F00305C4F100004FEAC50514F098
:104D4000040F91F840F00CFA05F562EA05021CBF69
:104D500063EA050362464FF00004A9E70000000083
:104D60002DE9F04FD7B01C468946174605460390FB
:104D700003F0D8F8036816931846FFF781FF0894EC
:104D800015901DB1AB6B002B00F00781D9F86410B2
:104D9000B9F90C20C80793B202D4990540F11F81DC
:104DA0009E040AD4D9F8641042F4005321F400514F
:104DB000A9F80C30C9F864109BB21D0740F1B2800D
:104DC000D9F81020002A00F0AD8003F01A020A2A58
:104DD00000F0C98000239FED867B1093CDE92B3333
:104DE0001793CDE919331B93189305932DAB2A9391
:104DF0009B463B78CDF81C908DED127B002B00F08C
:104E00005982252B3C4602D11DE0252B03D014F8F6
:104E1000013F002BF9D1E51B8DB1DDE92B320133C8
:104E20002A44072BCBF80070CBF80450CDE92B3285
:104E300000F3CA800BF1080B059B2B4405932378E4
:104E4000002B00F0378200236678069398468DF891
:104E50008B3004F1010A4FF0FF392B250AF1010ACA
:104E6000A6F120035A2B00F22A84DFE813F0AA03EC
:104E7000280428049C02280428042804A7022804E3
:104E80002804C602D2022804D702DC022804F60253
:104E90006D026D026D026D026D026D026D026D029A
:104EA0006D0228042804280428042804280428045F
:104EB000FB0228043C03F303FB02FB02FB02280471
:104EC000280428042804EE03280428049A0028044F
:104ED0002804280450032804790328042804900394
:104EE0002804280428042804280428042804280462
:104EF000FB0228043C03C500FB02FB02FB02D103BA
:104F0000C50070002804B5032804C2039C00DE031A
:104F100070002804500372002C02280428047C022C
:104F2000280472004946039801F0A8FCA0B1D9F802
:104F30006430D80704D4B9F80C30990540F1B78330
:104F40004FF0FF330593059857B0BDE8F08F48F058
:104F500020089AF8006081E7B9F80C3003F01A02D3
:104F60000A2A7FF437AFB9F90E20002AFFF632AFD4
:104F7000D9F86420D20705D49B0503D4D9F858008A
:104F800002F0E4FF23463A464946039801F026FC26
:104F90000590059857B0BDE8F08F039802F002FE27
:104FA000F4E648F0100818F0200F00F06C83089C1D
:104FB000073424F00703D3E9004503F108020892FF
:104FC00028F4806300228CE12AAA0799039803F051
:104FD0004DFF002841F076830DF1B40B2CE7D9F892
:104FE000580002F0B1FFB9F90C2093B2D8E600BF27
:104FF000000000000000000043469F0640F12F83A0
:10500000089C073424F00704D4E9000104F10802E5
:10501000089204460D46002871F1000205DA2D229F
:10502000644265EB45058DF88B2056AAB9F1FF3F28
:10503000049200F0B284012254EA050123F08008B2
:1050400040F05981B9F1000F40F01986002A40F074
:10505000088513F0010356AF099302D0302307F8F7
:10506000013D00230A930F9314931193099B9DF81C
:105070008B204B45B8BF4B46049312B1049B0133C0
:10508000049318F002030B9302D0049B02330493A1
:1050900018F084032C9C0E933FD1069B04995D1A53
:1050A000002D3ADD102D2B9A29DD594620462096F9
:1050B0001023039C079EBB4604E0103D102D01F118
:1050C000080118DD0132BA4F1030072ACDE92B2034
:1050D000C1E90073F1DD2AAA314620460C9303F0A2
:1050E000C5FE002840F03D84103D102DDDE92B2049
:1050F0002DA90C9BE6DC209E5F4604468B460132C0
:10510000AB4B2C44072ACDE92B24CBE9003500F327
:10511000FF849DF88B200BF1080B72B12B9A0132A2
:1051200001340DF18B000121072ACDE92B24CBE9B5
:10513000000100F318840BF1080B0B9B6BB12B9B48
:105140000133023423A90222072BCDE92B34CBE90A
:10515000001200F315840BF1080B0E9B802B00F05E
:105160003183099BA9EB0305002D37DD102D2B9A08
:10517000904B28DD59462046BB464FF01009374674
:105180001C46079E04E0103D102D01F1080115DDBD
:1051900001321030072ACDE92B20C1E90049F2DDA8
:1051A0002AAA3146039803F061FE002840F0D98313
:1051B000103D102DDDE92B202DA9E9DC3E462346CC
:1051C0005F4604468B4601322C44072ACDE92B2446
:1051D000CBE9003500F3EF830BF1080B18F4807F67
:1051E00040F080822B9B099ACBF800700133144465
:1051F000072B2C94CBF804202B9300F392830BF114
:10520000080B18F0040F3BD0069B049A9D1A002D42
:1052100036DD102D2B9B21DD1026039FDDF81C8031
:1052200004E0103D102D0BF1080B17DD0133604A2F
:105230001034072BCDE92B34CBE90026F1DD2AAA67
:105240004146384603F012FE002840F06C85103DC0
:10525000102DDDE92B340DF1B40BE7DC0133544A9A
:105260002C44072BCDE92B34CBE9002508DD2AAAF5
:105270000799039803F0FAFD002840F0E9822C9C7E
:105280000499DDE905328A42ACBF9B185B1805938F
:10529000002C40F0D58200232B930A9B1BB10A9966
:1052A000039802F021FD0DF1B40B57463B78002B1B
:1052B0007FF4A7AD2C9BDDF81C90002B41F0E7801C
:1052C00000232B93CBE243469A0640F14E81089C83
:1052D000073424F0070202F10801D2E900450891E1
:1052E000012200218DF88B10B9F1FF3F56A90491DE
:1052F0007FF4A2AE9846012A00F05083022A00F003
:105300001B8356A900E03946E20842EA4572E808E4
:1053100004F0070305461446303354EA050201F849
:10532000013C01F1FF37EED118F0010F00F01483BA
:10533000302B00F01183049A02393023521A07F8F7
:10534000013C09920F468CE6A6F1300300221AF8C0
:10535000016B02EB820203EB4202A6F13003092B40
:10536000F5D906927CE5144B179318F0200F00F046
:105370001481089C073424F00703D3E9004503F1A6
:105380000802089218F0010F09D054EA050306D06C
:1053900030238DF88D6048F002088DF88C3028F4A9
:1053A000806302229DE748F001089AF8006055E505
:1053B000D0BE0000E0BE00009CBE0000039E304650
:1053C00002F0B0FD436818931846FFF759FC1B9094
:1053D0000446304602F0A6FD83681A93002C3FF481
:1053E000B8AD9AF80060002B3FF438AD1B78002B65
:1053F0003FF434AD48F4806830E5089B9AF80060CB
:105400001A680692002A03F10403C0F297860893F3
:1054100024E58DF88B509AF800601FE59AF800603B
:1054200048F004081AE59AF800602A2E0AF10102F1
:1054300001F0B081A6F13003092B92464FF000092C
:105440003FF60EAD1AF8016B09EB890903EB490928
:10545000A6F13003092BF5D902E548F080089AF847
:105460000060FBE4089C073424F0070494ED007B03
:1054700052EC171B22F000431D938DED1C7A08346B
:10548000DDE91C014FF0FF32BA4B08948DED127B21
:1054900005F02EF9002840F06F844FF0FF32B54B35
:1054A000DDE91C0105F006F9002840F065840022C2
:1054B0000023DDE9120105F0F3F8002840F05B85D8
:1054C0009DF88B20AC4FAD4B0020032104910A9036
:1054D00028F08008472ED8BF1F46099181460F90BB
:1054E00014901190C9E50898002301688DF88B305D
:1054F0001A468DF8F4100123011D04930A92914677
:105500000F9214921192CDE908133DAFB9E5089BB3
:105510001F6800258DF88B501C1D002F00F0398668
:10552000B9F1FF3F00F011874A462946384603F09B
:105530003FF80A90002800F0E7850A9BDB1B0993DF
:10554000A94623EAE37308940493CDF82890CDF894
:105550003C90CDF85090CDF844909DF88B208CE590
:1055600048F010039A063FF5B2AE089ADF0602F142
:10557000040100F17E835D06089A00F1E4849C0535
:1055800040F177831478089100250122A9E67C4B2D
:10559000179318F0200F7FF4ECAE089A18F0100F54
:1055A00002F1040340F0548318F0400F089A40F0D1
:1055B000D08418F4007F00F04B8314780893002502
:1055C000E0E69DF88B309AF80060002B7FF446AC43
:1055D00020238DF88B3041E49AF800606C2E03BFD5
:1055E0009AF8016048F020080AF1010A48F0100812
:1055F00034E4089A18F0200F52F8043B089200F0A7
:10560000A183059A1046D117C3E9000157464DE61C
:105610009AF80060682E03BF9AF8016048F4007899
:105620000AF1010A48F0400818E40899554B0C6843
:10563000179347F630020431ADF88C2048F002038E
:1056400008910025022278264BE648F008089AF8CF
:10565000006003E448F010039F063FF5D1AC0899C1
:10566000DD0601F1040200F1FD825C06089900F1FB
:105670007584980540F1F68291F900400892E5178B
:1056800020462946C7E4089A18F0100F02F10403D7
:1056900040F0E38218F0400F089A40F0678418F455
:1056A000007F00F0DA8214780893002588E4D9F8A6
:1056B000580002F04BFC4FF0FF33059343E4002EFB
:1056C0003FF4F8AD002301211A4604918DF8F460EF
:1056D0008DF88B300A9399460F9314931193099187
:1056E0003DAFCEE4652E40F3CA8000220023DDE901
:1056F000120104F0CBFF002800F069812B9B224AA5
:10570000CBF80020013301340122072BCDE92B34E3
:10571000CBF8042000F306840BF1080B249B109AAD
:105720002C9C934203DB18F0010F3FF46AAD2B9BD6
:10573000169ACBF80020159ACBF8042001331444B4
:10574000072BCDE92B3400F317850BF1080B109BC9
:105750005D1E002D7FF755AD102D2B9A0B4B40F39E
:10576000E782194610262346039FDDF81C900C465D
:1057700014E000BFFFFFEF7F90BE00008CBE000072
:10578000B0BE00009CBE0000CCBE0000E0BE000029
:105790000BF1080B103D102D40F3C782013210337E
:1057A000072ACDE92B23CBE90046F1DD2AAA494699
:1057B000384603F05BFB00284CD1DDE92B230DF1CB
:1057C000B40BE7E7069B049A9D1A002D7FF7C9AC3E
:1057D000102D2B9ABC4B27DD59462046BB461C4654
:1057E0003746079E04E0103D102D01F1080116DD3B
:1057F000013210301023072ACDE92B200C604B60BA
:10580000F1DD2AAA3146039803F030FB002840F06E
:10581000A880103D102DDDE92B202DA9E8DC3E46A7
:1058200023465F4604468B4601322C44072ACDE9C5
:105830002B24CBE9003500F392820BF1080B90E4A6
:105840002AAA0799039803F011FB00283FF423AD1F
:10585000DDF81C900A9911B1039802F045FAD9F8C5
:105860006420B9F80C30D00702D4990540F1D081FA
:105870005A063FF565AB059857B0BDE8F08F109A12
:105880002B9B012A04F1010403F101050BF1080629
:1058900040F31C810123072DCBF80070CDE92B5478
:1058A000CBF8043000F3BB81159B169A691C1C448D
:1058B00007290B91CDE92B14C6E9002300F3BB8126
:1058C00008360B9A531C1D460995109D0E93002215
:1058D0000023DDE9120105F1FF3906F1080B04F0A0
:1058E000D5FE002840F0C280099DC6F8049001371B
:1058F0004C44072D37602C942B9500F3F9800B9ABC
:1059000006F1100302325E4609929B46199A7260B4
:105910001444099A2C9426AB072A2B9233607FF704
:1059200070AC2AAA0799039803F0A0FA00288FD137
:105930002C9C0DF1B40B64E4179856AF230904F0C6
:105940000F0143EA05732A091C461546435C07F814
:10595000013D54EA0503F1D1049BDB1B0993FFF7DA
:1059600080BBB14676E72AAA0799039803F07EFA2E
:1059700000287FF46DAF2C9C0DF1B40BFFF7DDBB5D
:105980002AAA0799039803F071FA00287FF460AF00
:105990002C9C0DF1B40BFFF7E0BB9846002D08BF1F
:1059A0000A2C80F0708156AF3034012307F8014D86
:1059B0000993FFF756BB2AAA0799039803F056FAF2
:1059C00000287FF445AF2C9C0DF1B40B06E4249B1A
:1059D000002B40F37382DDE910239342A8BF1346E6
:1059E000002B1D460DDD2B9BCBF8007001332C44A2
:1059F000072B2C94CBF804502B9300F3C1820BF1AE
:105A0000080B119B002DA8BF5B1B002B1D4640F30C
:105A10009980102D2B9A2C4B40F3DB83184621469E
:105A20005B461026BB46DDF80C90079C074604E059
:105A30000833103D102D40F3C78301321031072A7F
:105A4000CDE92B21C3E90076F2DD2AAA214648469A
:105A500003F00CFA002840F0A584DDE92B212DABE2
:105A6000E7E7CDF8249056AFFFF7FBBAB9F1000F86
:105A70007FF74CAFB9F1100F134B40F3598619461D
:105A8000224633461027DDF80CB0079C0E9D0E46CB
:105A900007E00833A9F11009B9F1100F40F353835F
:105AA00001351032072DCDE92B52C3E90067F0DD37
:105AB0002AAA2146584603F0D9F9002840F07284FA
:105AC000DDE92B522DABE5E7E0BE000018F0010F39
:105AD0007FF4E0AE0122072DCBF80070CDE92B5406
